{
  "_format": "hh-sol-artifact-1",
  "contractName": "ChainRate",
  "sourceName": "contracts/ChainRate.sol",
  "abi": [
    {
      "inputs": [],
      "stateMutability": "nonpayable",
      "type": "constructor"
    },
    {
      "anonymous": false,
      "inputs": [
        {
          "indexed": true,
          "internalType": "uint256",
          "name": "courseId",
          "type": "uint256"
        },
        {
          "indexed": true,
          "internalType": "address",
          "name": "teacher",
          "type": "address"
        },
        {
          "indexed": false,
          "internalType": "string",
          "name": "name",
          "type": "string"
        }
      ],
      "name": "CourseCreated",
      "type": "event"
    },
    {
      "anonymous": false,
      "inputs": [
        {
          "indexed": true,
          "internalType": "uint256",
          "name": "courseId",
          "type": "uint256"
        },
        {
          "indexed": true,
          "internalType": "address",
          "name": "student",
          "type": "address"
        }
      ],
      "name": "CourseJoined",
      "type": "event"
    },
    {
      "anonymous": false,
      "inputs": [
        {
          "indexed": true,
          "internalType": "uint256",
          "name": "courseId",
          "type": "uint256"
        },
        {
          "indexed": true,
          "internalType": "address",
          "name": "student",
          "type": "address"
        }
      ],
      "name": "CourseLeft",
      "type": "event"
    },
    {
      "anonymous": false,
      "inputs": [
        {
          "indexed": true,
          "internalType": "uint256",
          "name": "courseId",
          "type": "uint256"
        },
        {
          "indexed": true,
          "internalType": "address",
          "name": "teacher",
          "type": "address"
        }
      ],
      "name": "CourseUpdated",
      "type": "event"
    },
    {
      "anonymous": false,
      "inputs": [
        {
          "indexed": true,
          "internalType": "uint256",
          "name": "evaluationId",
          "type": "uint256"
        },
        {
          "indexed": true,
          "internalType": "address",
          "name": "student",
          "type": "address"
        },
        {
          "indexed": true,
          "internalType": "uint256",
          "name": "courseId",
          "type": "uint256"
        }
      ],
      "name": "EvaluationSubmitted",
      "type": "event"
    },
    {
      "anonymous": false,
      "inputs": [
        {
          "indexed": true,
          "internalType": "uint256",
          "name": "evaluationId",
          "type": "uint256"
        },
        {
          "indexed": true,
          "internalType": "address",
          "name": "student",
          "type": "address"
        }
      ],
      "name": "EvaluationUpdated",
      "type": "event"
    },
    {
      "anonymous": false,
      "inputs": [
        {
          "indexed": true,
          "internalType": "address",
          "name": "user",
          "type": "address"
        },
        {
          "indexed": false,
          "internalType": "string",
          "name": "name",
          "type": "string"
        },
        {
          "indexed": false,
          "internalType": "bytes32",
          "name": "role",
          "type": "bytes32"
        }
      ],
      "name": "UserRegistered",
      "type": "event"
    },
    {
      "inputs": [],
      "name": "ADMIN_ROLE",
      "outputs": [
        {
          "internalType": "bytes32",
          "name": "",
          "type": "bytes32"
        }
      ],
      "stateMutability": "view",
      "type": "function"
    },
    {
      "inputs": [],
      "name": "STUDENT_ROLE",
      "outputs": [
        {
          "internalType": "bytes32",
          "name": "",
          "type": "bytes32"
        }
      ],
      "stateMutability": "view",
      "type": "function"
    },
    {
      "inputs": [],
      "name": "TEACHER_ROLE",
      "outputs": [
        {
          "internalType": "bytes32",
          "name": "",
          "type": "bytes32"
        }
      ],
      "stateMutability": "view",
      "type": "function"
    },
    {
      "inputs": [
        {
          "internalType": "address",
          "name": "",
          "type": "address"
        }
      ],
      "name": "admins",
      "outputs": [
        {
          "internalType": "bool",
          "name": "",
          "type": "bool"
        }
      ],
      "stateMutability": "view",
      "type": "function"
    },
    {
      "inputs": [],
      "name": "courseCount",
      "outputs": [
        {
          "internalType": "uint256",
          "name": "",
          "type": "uint256"
        }
      ],
      "stateMutability": "view",
      "type": "function"
    },
    {
      "inputs": [
        {
          "internalType": "uint256",
          "name": "",
          "type": "uint256"
        },
        {
          "internalType": "uint256",
          "name": "",
          "type": "uint256"
        }
      ],
      "name": "courseEvaluations",
      "outputs": [
        {
          "internalType": "uint256",
          "name": "",
          "type": "uint256"
        }
      ],
      "stateMutability": "view",
      "type": "function"
    },
    {
      "inputs": [
        {
          "internalType": "uint256",
          "name": "",
          "type": "uint256"
        },
        {
          "internalType": "uint256",
          "name": "",
          "type": "uint256"
        }
      ],
      "name": "courseStudents",
      "outputs": [
        {
          "internalType": "address",
          "name": "",
          "type": "address"
        }
      ],
      "stateMutability": "view",
      "type": "function"
    },
    {
      "inputs": [
        {
          "internalType": "uint256",
          "name": "",
          "type": "uint256"
        }
      ],
      "name": "courses",
      "outputs": [
        {
          "internalType": "uint256",
          "name": "id",
          "type": "uint256"
        },
        {
          "internalType": "address",
          "name": "teacher",
          "type": "address"
        },
        {
          "internalType": "string",
          "name": "name",
          "type": "string"
        },
        {
          "internalType": "uint256",
          "name": "startTime",
          "type": "uint256"
        },
        {
          "internalType": "uint256",
          "name": "endTime",
          "type": "uint256"
        },
        {
          "internalType": "bool",
          "name": "isActive",
          "type": "bool"
        },
        {
          "internalType": "uint256",
          "name": "studentCount",
          "type": "uint256"
        }
      ],
      "stateMutability": "view",
      "type": "function"
    },
    {
      "inputs": [
        {
          "internalType": "string",
          "name": "name",
          "type": "string"
        },
        {
          "internalType": "uint256",
          "name": "startTime",
          "type": "uint256"
        },
        {
          "internalType": "uint256",
          "name": "endTime",
          "type": "uint256"
        }
      ],
      "name": "createCourse",
      "outputs": [
        {
          "internalType": "uint256",
          "name": "",
          "type": "uint256"
        }
      ],
      "stateMutability": "nonpayable",
      "type": "function"
    },
    {
      "inputs": [],
      "name": "evaluationCount",
      "outputs": [
        {
          "internalType": "uint256",
          "name": "",
          "type": "uint256"
        }
      ],
      "stateMutability": "view",
      "type": "function"
    },
    {
      "inputs": [
        {
          "internalType": "uint256",
          "name": "",
          "type": "uint256"
        }
      ],
      "name": "evaluations",
      "outputs": [
        {
          "internalType": "uint256",
          "name": "id",
          "type": "uint256"
        },
        {
          "internalType": "address",
          "name": "student",
          "type": "address"
        },
        {
          "internalType": "uint256",
          "name": "courseId",
          "type": "uint256"
        },
        {
          "internalType": "uint256",
          "name": "timestamp",
          "type": "uint256"
        },
        {
          "internalType": "string",
          "name": "contentHash",
          "type": "string"
        },
        {
          "internalType": "bool",
          "name": "isAnonymous",
          "type": "bool"
        },
        {
          "internalType": "uint8",
          "name": "rating",
          "type": "uint8"
        },
        {
          "internalType": "uint8",
          "name": "teachingRating",
          "type": "uint8"
        },
        {
          "internalType": "uint8",
          "name": "contentRating",
          "type": "uint8"
        },
        {
          "internalType": "uint8",
          "name": "interactionRating",
          "type": "uint8"
        },
        {
          "internalType": "bool",
          "name": "isActive",
          "type": "bool"
        }
      ],
      "stateMutability": "view",
      "type": "function"
    },
    {
      "inputs": [],
      "name": "getActiveCourses",
      "outputs": [
        {
          "internalType": "uint256[]",
          "name": "",
          "type": "uint256[]"
        }
      ],
      "stateMutability": "view",
      "type": "function"
    },
    {
      "inputs": [],
      "name": "getAllCourses",
      "outputs": [
        {
          "internalType": "uint256[]",
          "name": "",
          "type": "uint256[]"
        }
      ],
      "stateMutability": "view",
      "type": "function"
    },
    {
      "inputs": [
        {
          "internalType": "uint256",
          "name": "courseId",
          "type": "uint256"
        }
      ],
      "name": "getAverageRating",
      "outputs": [
        {
          "internalType": "uint256",
          "name": "",
          "type": "uint256"
        }
      ],
      "stateMutability": "view",
      "type": "function"
    },
    {
      "inputs": [
        {
          "internalType": "uint256",
          "name": "courseId",
          "type": "uint256"
        },
        {
          "internalType": "uint256",
          "name": "offset",
          "type": "uint256"
        },
        {
          "internalType": "uint256",
          "name": "limit",
          "type": "uint256"
        }
      ],
      "name": "getCourseBatchEvaluations",
      "outputs": [
        {
          "internalType": "uint256[]",
          "name": "ids",
          "type": "uint256[]"
        },
        {
          "internalType": "address[]",
          "name": "students",
          "type": "address[]"
        },
        {
          "internalType": "string[]",
          "name": "names",
          "type": "string[]"
        },
        {
          "internalType": "uint256[]",
          "name": "timestamps",
          "type": "uint256[]"
        },
        {
          "internalType": "uint8[]",
          "name": "ratings",
          "type": "uint8[]"
        },
        {
          "internalType": "uint8[]",
          "name": "teachingRatings",
          "type": "uint8[]"
        },
        {
          "internalType": "uint8[]",
          "name": "contentRatings",
          "type": "uint8[]"
        },
        {
          "internalType": "uint8[]",
          "name": "interactionRatings",
          "type": "uint8[]"
        },
        {
          "internalType": "bool[]",
          "name": "isAnonymous",
          "type": "bool[]"
        }
      ],
      "stateMutability": "view",
      "type": "function"
    },
    {
      "inputs": [
        {
          "internalType": "uint256",
          "name": "courseId",
          "type": "uint256"
        }
      ],
      "name": "getCourseEvaluations",
      "outputs": [
        {
          "internalType": "uint256[]",
          "name": "",
          "type": "uint256[]"
        }
      ],
      "stateMutability": "view",
      "type": "function"
    },
    {
      "inputs": [
        {
          "internalType": "uint256",
          "name": "courseId",
          "type": "uint256"
        }
      ],
      "name": "getCourseStatistics",
      "outputs": [
        {
          "internalType": "uint256",
          "name": "totalEvaluations",
          "type": "uint256"
        },
        {
          "internalType": "uint256",
          "name": "averageRating",
          "type": "uint256"
        },
        {
          "internalType": "uint256",
          "name": "averageTeachingRating",
          "type": "uint256"
        },
        {
          "internalType": "uint256",
          "name": "averageContentRating",
          "type": "uint256"
        },
        {
          "internalType": "uint256",
          "name": "averageInteractionRating",
          "type": "uint256"
        },
        {
          "internalType": "uint256",
          "name": "anonymousCount",
          "type": "uint256"
        },
        {
          "internalType": "uint256",
          "name": "completeCount",
          "type": "uint256"
        }
      ],
      "stateMutability": "view",
      "type": "function"
    },
    {
      "inputs": [
        {
          "internalType": "uint256",
          "name": "courseId",
          "type": "uint256"
        }
      ],
      "name": "getCourseStudents",
      "outputs": [
        {
          "internalType": "address[]",
          "name": "",
          "type": "address[]"
        }
      ],
      "stateMutability": "view",
      "type": "function"
    },
    {
      "inputs": [
        {
          "internalType": "uint256",
          "name": "evaluationId",
          "type": "uint256"
        }
      ],
      "name": "getEvaluationDetails",
      "outputs": [
        {
          "internalType": "uint256",
          "name": "id",
          "type": "uint256"
        },
        {
          "internalType": "address",
          "name": "student",
          "type": "address"
        },
        {
          "internalType": "uint256",
          "name": "courseId",
          "type": "uint256"
        },
        {
          "internalType": "uint256",
          "name": "timestamp",
          "type": "uint256"
        },
        {
          "internalType": "string",
          "name": "contentHash",
          "type": "string"
        },
        {
          "internalType": "string[]",
          "name": "imageHashes",
          "type": "string[]"
        },
        {
          "internalType": "bool",
          "name": "isAnonymous",
          "type": "bool"
        },
        {
          "internalType": "uint8",
          "name": "rating",
          "type": "uint8"
        },
        {
          "internalType": "uint8",
          "name": "teachingRating",
          "type": "uint8"
        },
        {
          "internalType": "uint8",
          "name": "contentRating",
          "type": "uint8"
        },
        {
          "internalType": "uint8",
          "name": "interactionRating",
          "type": "uint8"
        },
        {
          "internalType": "bool",
          "name": "isActive",
          "type": "bool"
        }
      ],
      "stateMutability": "view",
      "type": "function"
    },
    {
      "inputs": [
        {
          "internalType": "address",
          "name": "studentAddress",
          "type": "address"
        }
      ],
      "name": "getStudentCourses",
      "outputs": [
        {
          "internalType": "uint256[]",
          "name": "",
          "type": "uint256[]"
        }
      ],
      "stateMutability": "view",
      "type": "function"
    },
    {
      "inputs": [
        {
          "internalType": "address",
          "name": "studentAddress",
          "type": "address"
        }
      ],
      "name": "getStudentEvaluations",
      "outputs": [
        {
          "internalType": "uint256[]",
          "name": "",
          "type": "uint256[]"
        }
      ],
      "stateMutability": "view",
      "type": "function"
    },
    {
      "inputs": [
        {
          "internalType": "address",
          "name": "teacherAddress",
          "type": "address"
        }
      ],
      "name": "getTeacherDashboard",
      "outputs": [
        {
          "internalType": "uint256",
          "name": "totalCourses",
          "type": "uint256"
        },
        {
          "internalType": "uint256",
          "name": "totalStudents",
          "type": "uint256"
        },
        {
          "internalType": "uint256",
          "name": "totalEvaluations",
          "type": "uint256"
        },
        {
          "internalType": "uint256[]",
          "name": "courseIds",
          "type": "uint256[]"
        },
        {
          "internalType": "string[]",
          "name": "courseNames",
          "type": "string[]"
        },
        {
          "internalType": "uint256[]",
          "name": "studentCounts",
          "type": "uint256[]"
        },
        {
          "internalType": "uint256[]",
          "name": "evaluationCounts",
          "type": "uint256[]"
        },
        {
          "internalType": "uint256[]",
          "name": "averageRatings",
          "type": "uint256[]"
        }
      ],
      "stateMutability": "view",
      "type": "function"
    },
    {
      "inputs": [
        {
          "internalType": "address",
          "name": "userAddress",
          "type": "address"
        }
      ],
      "name": "getUserInfo",
      "outputs": [
        {
          "internalType": "string",
          "name": "name",
          "type": "string"
        },
        {
          "internalType": "string",
          "name": "phone",
          "type": "string"
        },
        {
          "internalType": "bytes32",
          "name": "role",
          "type": "bytes32"
        },
        {
          "internalType": "bool",
          "name": "isRegistered",
          "type": "bool"
        }
      ],
      "stateMutability": "view",
      "type": "function"
    },
    {
      "inputs": [
        {
          "internalType": "uint256",
          "name": "",
          "type": "uint256"
        },
        {
          "internalType": "address",
          "name": "",
          "type": "address"
        }
      ],
      "name": "hasEvaluated",
      "outputs": [
        {
          "internalType": "bool",
          "name": "",
          "type": "bool"
        }
      ],
      "stateMutability": "view",
      "type": "function"
    },
    {
      "inputs": [
        {
          "internalType": "uint256",
          "name": "",
          "type": "uint256"
        },
        {
          "internalType": "address",
          "name": "",
          "type": "address"
        }
      ],
      "name": "hasJoinedCourse",
      "outputs": [
        {
          "internalType": "bool",
          "name": "",
          "type": "bool"
        }
      ],
      "stateMutability": "view",
      "type": "function"
    },
    {
      "inputs": [
        {
          "internalType": "uint256",
          "name": "courseId",
          "type": "uint256"
        },
        {
          "internalType": "address",
          "name": "studentAddress",
          "type": "address"
        }
      ],
      "name": "isStudentEvaluated",
      "outputs": [
        {
          "internalType": "bool",
          "name": "",
          "type": "bool"
        }
      ],
      "stateMutability": "view",
      "type": "function"
    },
    {
      "inputs": [
        {
          "internalType": "uint256",
          "name": "courseId",
          "type": "uint256"
        },
        {
          "internalType": "address",
          "name": "studentAddress",
          "type": "address"
        }
      ],
      "name": "isStudentJoined",
      "outputs": [
        {
          "internalType": "bool",
          "name": "",
          "type": "bool"
        }
      ],
      "stateMutability": "view",
      "type": "function"
    },
    {
      "inputs": [
        {
          "internalType": "uint256",
          "name": "courseId",
          "type": "uint256"
        }
      ],
      "name": "joinCourse",
      "outputs": [],
      "stateMutability": "nonpayable",
      "type": "function"
    },
    {
      "inputs": [
        {
          "internalType": "uint256",
          "name": "courseId",
          "type": "uint256"
        }
      ],
      "name": "leaveCourse",
      "outputs": [],
      "stateMutability": "nonpayable",
      "type": "function"
    },
    {
      "inputs": [],
      "name": "owner",
      "outputs": [
        {
          "internalType": "address",
          "name": "",
          "type": "address"
        }
      ],
      "stateMutability": "view",
      "type": "function"
    },
    {
      "inputs": [
        {
          "internalType": "string",
          "name": "name",
          "type": "string"
        },
        {
          "internalType": "string",
          "name": "phone",
          "type": "string"
        },
        {
          "internalType": "bytes32",
          "name": "passwordHash",
          "type": "bytes32"
        },
        {
          "internalType": "bytes32",
          "name": "role",
          "type": "bytes32"
        }
      ],
      "name": "registerUser",
      "outputs": [],
      "stateMutability": "nonpayable",
      "type": "function"
    },
    {
      "inputs": [
        {
          "internalType": "address",
          "name": "",
          "type": "address"
        },
        {
          "internalType": "uint256",
          "name": "",
          "type": "uint256"
        }
      ],
      "name": "studentCourses",
      "outputs": [
        {
          "internalType": "uint256",
          "name": "",
          "type": "uint256"
        }
      ],
      "stateMutability": "view",
      "type": "function"
    },
    {
      "inputs": [
        {
          "internalType": "address",
          "name": "",
          "type": "address"
        },
        {
          "internalType": "uint256",
          "name": "",
          "type": "uint256"
        }
      ],
      "name": "studentEvaluations",
      "outputs": [
        {
          "internalType": "uint256",
          "name": "",
          "type": "uint256"
        }
      ],
      "stateMutability": "view",
      "type": "function"
    },
    {
      "inputs": [
        {
          "internalType": "address",
          "name": "",
          "type": "address"
        }
      ],
      "name": "students",
      "outputs": [
        {
          "internalType": "bool",
          "name": "",
          "type": "bool"
        }
      ],
      "stateMutability": "view",
      "type": "function"
    },
    {
      "inputs": [
        {
          "internalType": "uint256",
          "name": "courseId",
          "type": "uint256"
        },
        {
          "internalType": "string",
          "name": "contentHash",
          "type": "string"
        },
        {
          "internalType": "string[]",
          "name": "imageHashes",
          "type": "string[]"
        },
        {
          "internalType": "uint8",
          "name": "rating",
          "type": "uint8"
        },
        {
          "internalType": "uint8",
          "name": "teachingRating",
          "type": "uint8"
        },
        {
          "internalType": "uint8",
          "name": "contentRating",
          "type": "uint8"
        },
        {
          "internalType": "uint8",
          "name": "interactionRating",
          "type": "uint8"
        },
        {
          "internalType": "bool",
          "name": "isAnonymous",
          "type": "bool"
        }
      ],
      "name": "submitEvaluation",
      "outputs": [
        {
          "internalType": "uint256",
          "name": "",
          "type": "uint256"
        }
      ],
      "stateMutability": "nonpayable",
      "type": "function"
    },
    {
      "inputs": [
        {
          "internalType": "address",
          "name": "",
          "type": "address"
        }
      ],
      "name": "teachers",
      "outputs": [
        {
          "internalType": "bool",
          "name": "",
          "type": "bool"
        }
      ],
      "stateMutability": "view",
      "type": "function"
    },
    {
      "inputs": [
        {
          "internalType": "uint256",
          "name": "courseId",
          "type": "uint256"
        },
        {
          "internalType": "string",
          "name": "name",
          "type": "string"
        },
        {
          "internalType": "uint256",
          "name": "startTime",
          "type": "uint256"
        },
        {
          "internalType": "uint256",
          "name": "endTime",
          "type": "uint256"
        },
        {
          "internalType": "bool",
          "name": "isActive",
          "type": "bool"
        }
      ],
      "name": "updateCourse",
      "outputs": [],
      "stateMutability": "nonpayable",
      "type": "function"
    },
    {
      "inputs": [
        {
          "internalType": "address",
          "name": "",
          "type": "address"
        }
      ],
      "name": "users",
      "outputs": [
        {
          "internalType": "string",
          "name": "name",
          "type": "string"
        },
        {
          "internalType": "string",
          "name": "phone",
          "type": "string"
        },
        {
          "internalType": "bytes32",
          "name": "passwordHash",
          "type": "bytes32"
        },
        {
          "internalType": "bytes32",
          "name": "role",
          "type": "bytes32"
        },
        {
          "internalType": "bool",
          "name": "isRegistered",
          "type": "bool"
        }
      ],
      "stateMutability": "view",
      "type": "function"
    },
    {
      "inputs": [
        {
          "internalType": "bytes32",
          "name": "passwordHash",
          "type": "bytes32"
        }
      ],
      "name": "verifyPassword",
      "outputs": [
        {
          "internalType": "bool",
          "name": "",
          "type": "bool"
        }
      ],
      "stateMutability": "view",
      "type": "function"
    }
  ],
  "bytecode": "0x6080806040523461004057600080546001600160a01b0319163390811782558152600460205260409020805460ff1916600117905561386590816100468239f35b600080fdfe610120604052600436101561001357600080fd5b60003560e01c8063016c14da1461269057806304e48bd11461263e578063128af981146125a357806316ac3b121461257257806317b7e03e14612534578063181c5c821461250357806333c63b171461243e578063429b62e5146123ff57806355172bc7146121da57806358716cc5146121095780635e8b20fd14611f0d57806360dd60e314611e6f57806360fa644314611e0b5780636386c1c714611d525780636605515914611d345780636e274a3414611cea57806373e29f7614611bd157806375b238fc14611b9657806386e5c15a14611b5b5780638c3fe4f214611b0e5780638da5cb5b14611ae557806396f979d214611a53578063a6c807a914611a14578063a87430ba1461197d578063ae0ec5e4146116a9578063af6db11714611642578063bb0f34b0146111ec578063c8cd44d21461119f578063c9ace3f114611181578063cca0903314611137578063d40761e4146110c0578063e620ceb8146107d9578063ed072a0714610655578063f0a47f7814610616578063f0a486b2146105af578063f7be43fb14610574578063fa3ef5a9146104e5578063fd95cc511461048d5763ffb24e9b146101ca57600080fd5b346104885760a0366003190112610488576004356001600160401b03602435818111610488576101fe903690600401612a33565b9060843590811515820361048857836000526020600281526102268560406000205414612b11565b336000526005815260ff604060002054168015610475575b8015610461575b61024e90612ab7565b600085815260028252604090206001808201549193916001600160a01b039081163314908115610448575b811561043a575b50156103f557600284019286519283116103df5761029e8454612851565b601f81116103a4575b5080601f841160011461033257509180809260059695946102fe99600094610327575b50501b916000199060031b1c19161790555b60443560038201556064356004820155019060ff801983541691151516179055565b33907f6b7bcf044e00829a998e3e09bdef036fe2317de7a3f1ec7f04927b0973b73594600080a3005b0151925038806102ca565b9193949596601f1984168660005283600020936000905b82821061038d575050916102fe989795939185600598969410610374575b505050811b0190556102dc565b015160001960f88460031b161c19169055388080610367565b808886978294978701518155019601940190610349565b6103cf908560005282600020601f860160051c8101918487106103d5575b601f0160051c0190612aa0565b386102a7565b90915081906103c2565b634e487b7160e01b600052604160045260246000fd5b60405162461bcd60e51b815260048101849052601960248201527f436861696e526174653a206e6f7420617574686f72697a6564000000000000006044820152606490fd5b905060005416331438610280565b9050336000526004845260ff6040600020541690610279565b506000546001600160a01b03163314610245565b506004815260ff6040600020541661023e565b600080fd5b34610488576040366003190112610488576104a6612745565b6001600160a01b03166000908152600b6020526040902080546024359190821015610488576020916104d791612823565b90546040519160031b1c8152f35b3461048857602080600319360112610488576001600160a01b03610507612745565b1660005260088152604060002090604051808383829554938481520190600052836000209260005b8582821061055e57505050610546925003836128f8565b61055a604051928284938452830190612711565b0390f35b855484526001958601958895509301920161052f565b346104885760003660031901126104885760206040517f36a5c4aaacb6b388bbd448bf11096b7dafc5652bcc9046084fd0e95b1fb0b2cc8152f35b34610488576040366003190112610488576004356105cb61275b565b908060005260026020526105e58160406000205414612b11565b600052600a60205260406000209060018060a01b0316600052602052602060ff604060002054166040519015158152f35b34610488576020366003190112610488576001600160a01b03610637612745565b166000526005602052602060ff604060002054166040519015158152f35b3461048857602080600319360112610488576004359081600052600281526106838260406000205414612b11565b336000526006815260ff6040600020541680156107c5575b6106a490612b5c565b81600052600a815260406000203360005281526106c860ff60406000205416612bdc565b8160005260078152604060002033600052815260ff604060002054166107655760029082600052600a81526040600020336000528152604060002060ff198154169055826000525260066040600020018054801561074f5760001901905533907f497941b8fa39d9cb0342836ad143b09296c513385dba2fa8c33a934e1c6fe922600080a3005b634e487b7160e01b600052601160045260246000fd5b6084906040519062461bcd60e51b82526004820152603360248201527f436861696e526174653a2073747564656e742068617320616c7265616479206560448201527276616c75617465642074686520636f7572736560681b6064820152fd5b506000546001600160a01b0316331461069b565b3461048857610100366003190112610488576024356001600160401b0381116104885761080a903690600401612a33565b6001600160401b036044351161048857366023604435011215610488576044356004013561083781612a89565b9061084560405192836128f8565b80825260208201903660248260051b60443501011161048857602460443501915b60248260051b6044350101831061108d5750505060643560ff81168103610488576084359060ff821682036104885760a4359060ff821682036104885760c4359160ff831683036104885760e4359182151583036104885733600052600660205260ff604060002054168015611079575b6108e090612b5c565b60043560005260026020526108fd60043560406000205414612b11565b600435600052600260205260406000206003810154421015908161106a575b501561101557600435600052600a60205260406000203360005260205261094a60ff60406000205416612bdc565b600435600052600760205260406000203360005260205260ff60406000205416610fd057600160ff8216101580610fc2575b15610f7d57600160ff8616101580610f6f575b15610f1f57600160ff8316101580610f11575b15610ec257600160ff8516101580610eb4575b15610e615760ff94858094928193600e54996109d08b612b02565b600e556040519b6109e08d61288b565b8b8d528c6020339101528c60406004359101528c60604291015260808d015260a08c0152151560c08b01521660e08901521661010087015216610120850152166101408301526001610160830152806000526003602052604060002090825182556001820160018060a01b036020850151166bffffffffffffffffffffffff60a01b825416179055604083015160028301556060830151600383015560808301519283516001600160401b0381116103df57610a9f6004850154612851565b601f8111610e2c575b506020601f8211600114610dbd578192939495600092610db2575b50508160011b916000199060031b1c19161760048401555b60a0810151805190600160401b82116103df576005850154826005870155808310610d3a575b5060200190600585016000526020600020916000905b828210610c25576020868660068a0190610b4360c08201511515839060ff801983541691151516179055565b60e081015190825462ff000061010083015160101b1663ff00000061012084015160181b169161ff0065ff000000000061016064ff000000006101408801518c1b16960151151560281b169560081b169065ffffffffff001916171717171790556004356000526007825260406000203360005282526040600020600160ff1982541617905560088252610bdb816040600020612ba7565b60043560005260098252610bf3816040600020612ba7565b6040519060043533827f423285530582a702e795200cb363c60e7c81dc3c09a08566dcc4c6f766ee3110600080a48152f35b80518051906001600160401b0382116103df57610c428654612851565b601f8111610d08575b50602090601f8311600114610c98579282600194936020938695600092610c8d575b5050600019600383901b1c191690841b1787555b01940191019092610b17565b015190508c80610c6d565b908660005260206000209160005b601f1985168110610cf0575083602093600196938796938794601f19811610610cd7575b505050811b018755610c81565b015160001960f88460031b161c191690558c8080610cca565b91926020600181928685015181550194019201610ca6565b610d3490876000526020600020601f850160051c810191602086106103d557601f0160051c0190612aa0565b89610c4b565b600586016000526020600020908382015b8183018110610d5b575050610b01565b80610d6860019254612851565b80610d75575b5001610d4b565b601f81118314610d8b5750600081555b89610d6e565b600090828252610da9601f60208420920160051c8201858301612aa0565b81835555610d85565b015190508580610ac3565b6004850160005260206000209060005b601f1984168110610e14575060019394959683601f19811610610dfb575b505050811b016004840155610adb565b015160001960f88460031b161c19169055858080610deb565b9091602060018192858b015181550193019101610dcd565b610e5b90600486016000526020600020601f840160051c810191602085106103d557601f0160051c0190612aa0565b85610aa8565b60405162461bcd60e51b815260206004820152602560248201527f436861696e526174653a20696e76616c696420696e746572616374696f6e20726044820152646174696e6760d81b6064820152608490fd5b50600560ff851611156109b5565b60405162461bcd60e51b815260206004820152602160248201527f436861696e526174653a20696e76616c696420636f6e74656e7420726174696e6044820152606760f81b6064820152608490fd5b50600560ff831611156109a2565b60405162461bcd60e51b815260206004820152602260248201527f436861696e526174653a20696e76616c6964207465616368696e6720726174696044820152616e6760f01b6064820152608490fd5b50600560ff8616111561098f565b60405162461bcd60e51b815260206004820152601960248201527f436861696e526174653a20696e76616c696420726174696e67000000000000006044820152606490fd5b50600560ff8216111561097c565b60405162461bcd60e51b815260206004820152601c60248201527f436861696e526174653a20616c7265616479206576616c7561746564000000006044820152606490fd5b60405162461bcd60e51b815260206004820152602760248201527f436861696e526174653a206e6f742077697468696e206576616c756174696f6e604482015266081c195c9a5bd960ca1b6064820152608490fd5b6004915001544211158861091c565b506000546001600160a01b031633146108d7565b6001600160401b03833511610488576020806024926110b3368588356044350101612a33565b8152019301929050610866565b3461048857602080600319360112610488576001600160a01b036110e2612745565b16600052600b8152604060002090604051808383829554938481520190600052836000209260005b8582821061112157505050610546925003836128f8565b855484526001958601958895509301920161110a565b3461048857604036600319011261048857611150612745565b6001600160a01b0316600090815260086020526040902080546024359190821015610488576020916104d791612823565b34610488576000366003190112610488576020600e54604051908152f35b34610488576040366003190112610488576111b861275b565b600435600052600760205260406000209060018060a01b0316600052602052602060ff604060002054166040519015158152f35b34610488576080366003190112610488576004356001600160401b0381116104885761121c903690600401612a33565b6024356001600160401b0381116104885761123b903690600401612a33565b9033600052600160205260ff600460406000200154166115f257604051611261816128a7565b81815260208101928352604435604082015260643560608201526001608082015233600052600160205260406000209080519384516001600160401b0381116103df57806112af8554612851565b96601f978881116115c2575b506020908883116001146115565760009261154b575b50508160011b916000199060031b1c19161783555b51938451906001600160401b0382116103df576113066001850154612851565b81811161150e575b506020908211600114611496579181608092600494611373979860009261148b575b50508160011b916000199060031b1c19161760018501555b60408101516002850155606081015160038501550151151591019060ff801983541691151516179055565b6064357fa49807205ce4d355092ef5a8a18f56e8913cf4a201fbe287825b095693c21775036113fd573360005260046020526040600020600160ff198254161790555b7fccd232d370002532b298c205b90d1c287a6f1913b8c7113733b47a81fece11a06113ec60405192604084526040840190612771565b9160643560208201528033930390a2005b6064357fd16e204b8a42a15ab0ea6bb8ec1ecdfbe69f38074fc865323af19efe7d9573d903611444573360005260056020526040600020600160ff198254161790556113b6565b7f36a5c4aaacb6b388bbd448bf11096b7dafc5652bcc9046084fd0e95b1fb0b2cc606435036113b6573360005260066020526040600020600160ff198254161790556113b6565b015190508880611330565b6001840160005260206000209560005b601f19841681106114f6575082611373969760049593600193608096601f198116106114dd575b505050811b016001850155611348565b015160001960f88460031b161c191690558880806114cd565b828201518855600190970196602092830192016114a6565b61153c906001860160005260206000208380860160051c82019260208710611542575b0160051c0190612aa0565b8661130e565b92508192611531565b0151905087806112d1565b9250856000526020600020906000935b601f19841685106115a7576001945083601f1981161061158e575b505050811b0183556112e6565b015160001960f88460031b161c19169055878080611581565b81810151835560209485019460019093019290910190611566565b6115ec908760005260206000208a80860160051c82019260208710611542570160051c0190612aa0565b886112bb565b60405162461bcd60e51b815260206004820152602260248201527f436861696e526174653a207573657220616c7265616479207265676973746572604482015261195960f21b6064820152608490fd5b346104885760403660031901126104885760043561165e61275b565b908060005260026020526116788160406000205414612b11565b600052600760205260406000209060018060a01b0316600052602052602060ff604060002054166040519015158152f35b34610488576060366003190112610488576001600160401b03600435818111610488576116da903690600401612a33565b9060243591604435336000526020936005855260ff60406000205416801561196a575b8015611956575b61170d90612ab7565b8181101561191157600d549361172285612b02565b600d5560405192611732846128c2565b8584528684019233845260408501868152606086019182526080860192835260a0860193600180865260c0880196600088528a60005260028c526040600020985189558189019060018060a01b039051166bffffffffffffffffffffffff60a01b82541617905560028801925180519283116103df576117b28454612851565b8c601f82116118e0575b50508b908c601f851160011461186c5750928061181b979593819360069b9a9896600094611861575b50501b916000199060031b1c19161790555b516003870155516004860155511515600585019060ff801983541691151516179055565b51910155817fd26ee57739c2f8845178c96a37348973f3edc5907d342cdf65382f9a84474b8960405185815280611856339588830190612771565b0390a3604051908152f35b015192508f806117e5565b9190601f9493941984168660005283600020936000905b8282106118c95750509160069a99979593918561181b9a989694106118b0575b505050811b0190556117f7565b015160001960f88460031b161c191690558d80806118a3565b808886978294978701518155019601940190611883565b61190a91866000528160002090601f870160051c82019287106103d557601f0160051c0190612aa0565b8c8c6117bc565b60405162461bcd60e51b815260048101869052601e60248201527f436861696e526174653a20696e76616c69642074696d6520706572696f6400006044820152606490fd5b506000546001600160a01b03163314611704565b506004855260ff604060002054166116fd565b34610488576020366003190112610488576001600160a01b0361199e612745565b1660005260016020526119f060406000206119b881612919565b906119c560018201612919565b6002820154916119fe60ff60046003840154930154169260405196879660a0885260a0880190612771565b908682036020880152612771565b9260408501526060840152151560808301520390f35b34610488576020366003190112610488576001600160a01b03611a35612745565b166000526006602052602060ff604060002054166040519015158152f35b346104885760203660031901126104885760043560005260026020526040600020805460018060a01b0360018301541691611a9060028201612919565b6003820154916004810154611aca600660ff600585015416930154936040519788978852602088015260e0604088015260e0870190612771565b9360608601526080850152151560a084015260c08301520390f35b34610488576000366003190112610488576000546040516001600160a01b039091168152602090f35b3461048857604036600319011261048857611b2761275b565b600435600052600a60205260406000209060018060a01b0316600052602052602060ff604060002054166040519015158152f35b346104885760003660031901126104885760206040517fd16e204b8a42a15ab0ea6bb8ec1ecdfbe69f38074fc865323af19efe7d9573d98152f35b346104885760003660031901126104885760206040517fa49807205ce4d355092ef5a8a18f56e8913cf4a201fbe287825b095693c217758152f35b346104885760603660031901126104885760043580600052602090600282528060406000205414611c0190612b11565b604435602435611c10926130c7565b95979493610100939193948551906040519a8b9a610120808d528c01611c3591612711565b8b81038a8d0152611c45916129bf565b8a810360408c0152611c56916127b1565b89810360608b0152611c6791612711565b88810360808a0152611c78916129fc565b87810360a0890152611c89916129fc565b86810360c0880152611c9a916129fc565b85810360e0870152611cab916129fc565b908482039085015281808451928381520193019160005b828110611cd157505050500390f35b8351151585528695509381019392810192600101611cc2565b3461048857611cf83661280d565b90600052600c6020526040600020805482101561048857602091611d1b91612823565b905460405160039290921b1c6001600160a01b03168152f35b34610488576000366003190112610488576020600d54604051908152f35b34610488576020366003190112610488576001600160a01b03611d73612745565b166000526001602052611dee604060002060405190611d91826128a7565b611d9a81612919565b8252611da860018201612919565b9182602082015260028201546040820152611dfc60ff60046003850154948560608601520154161515918260808201525193604051958695608087526080870190612771565b908582036020870152612771565b91604084015260608301520390f35b346104885760203660031901126104885760e0611e42600435806000526002602052611e3d8160406000205414612b11565b612d91565b94604094919493929351968752602087015260408601526060850152608084015260a083015260c0820152f35b3461048857602080600319360112610488576004358060005260028252611e9c8160406000205414612b11565b600052600c8152604060002090604051808383829554938481520190600052836000209260005b85828210611eee57505050611eda925003836128f8565b61055a6040519282849384528301906129bf565b85546001600160a01b0316845260019586019588955093019201611ec3565b346104885760208060031936011261048857600435908160005260028152611f3b8260406000205414612b11565b336000526006815260ff6040600020541680156120f5575b611f5c90612b5c565b816000526002815260ff60056040600020015416156120b15781600052600a8152604060002033600052815260ff604060002054166120545781600052600a815260406000203360005281526040600020600160ff19825416179055600b8152611fca826040600020612ba7565b81600052600c8152604060002090815491600160401b8310156103df5782611ff9916001600295018155612823565b81549060031b9033821b9160018060a01b03901b1916179055826000525260066040600020016120298154612b02565b905533907f9f84e7caf9247b5be496d99d1d314ac8b4dce0d0fd7abb0ed925801f614b008d600080a3005b6084906040519062461bcd60e51b82526004820152603060248201527f436861696e526174653a2073747564656e742068617320616c7265616479206a60448201526f6f696e65642074686520636f7572736560801b6064820152fd5b6064906040519062461bcd60e51b82526004820152601f60248201527f436861696e526174653a20636f75727365206973206e6f7420616374697665006044820152fd5b506000546001600160a01b03163314611f53565b3461048857600036600319011261048857600d546000805b82811061219d575061213290612d5f565b906000805b828110612154576040516020808252819061055a90820187612711565b80600052600260205260ff6005604060002001541661217c575b61217790612b02565b612137565b90612195818361218f6121779488612c3d565b52612b02565b91905061216e565b80600052600260205260ff600560406000200154166121c5575b6121c090612b02565b612121565b906121d26121c091612b02565b9190506121b7565b346104885760203660031901126104885760043580600052600360205280604060002054036123ae57600052600360205260406000206040519061221d8261288b565b805482526001808201546001600160a01b0316602084015260028201546040840152600382015460608401529061225660048201612919565b60808401526005810191825461226b81612a89565b9361227960405195866128f8565b818552602085019060005260206000206000915b8383106123925787876006888260a0850152015460ff808216151560c0850152808260081c1660e0850152808260101c16610100850152808260181c16610120850152808260201c16610140850152808260281c16151561016085015261234884519361233a60018060a01b03602088015116966040810151906080606082015191015191604051998a998a5260208a015260408901526060880152610180806080890152870190612771565b9085820360a08701526127b1565b91818116151560c0850152818160081c1660e0850152818160101c16610100850152818160181c16610120850152818160201c1661014085015260281c1615156101608301520390f35b84602081926123a085612919565b81520192019201919061228d565b60405162461bcd60e51b8152602060048201526024808201527f436861696e526174653a206576616c756174696f6e20646f6573206e6f7420656044820152631e1a5cdd60e21b6064820152608490fd5b34610488576020366003190112610488576001600160a01b03612420612745565b166000526004602052602060ff604060002054166040519015158152f35b346104885760203660031901126104885760043560005260036020526040600020805460018060a01b03600183015416916124b76002820154916003810154600661248b60048401612919565b920154936040519687968752602087015260408601526060850152610160806080860152840190612771565b9060ff90818116151560a0850152818160081c1660c0850152818160101c1660e0850152818160181c16610100850152818160201c1661012085015260281c1615156101408301520390f35b34610488576125113661280d565b90600052600960205260406000208054821015610488576020916104d791612823565b3461048857602036600319011261048857602061256a60043580600052600283526125658160406000205414612b11565b612c7e565b604051908152f35b3461048857602036600319011261048857336000526001602052602060043560026040600020015414604051908152f35b346104885760203660031901126104885761261461262261055a6126306125d06125cb612745565b6134bf565b91959497929398906126066080519760e051966040519c8d9c8d5260208d015260408c01526101008060608d01528b0190612711565b9089820360808b01526127b1565b9087820360a0890152612711565b9085820360c0870152612711565b9083820360e0850152612711565b3461048857600036600319011261048857600d5461265b81612d5f565b9060005b81811061267c576040516020808252819061055a90820186612711565b808061218f61268b9386612c3d565b61265f565b34610488576020806003193601126104885760043580600052600282526126bd8160406000205414612b11565b60005260098152604060002090604051808383829554938481520190600052836000209260005b858282106126fb57505050610546925003836128f8565b85548452600195860195889550930192016126e4565b90815180825260208080930193019160005b828110612731575050505090565b835185529381019392810192600101612723565b600435906001600160a01b038216820361048857565b602435906001600160a01b038216820361048857565b919082519283825260005b84811061279d575050826000602080949584010152601f8019910116010190565b60208183018101518483018201520161277c565b908082519081815260208091019281808460051b8301019501936000915b8483106127df5750505050505090565b90919293949584806127fd600193601f198682030187528a51612771565b98019301930191949392906127cf565b6040906003190112610488576004359060243590565b805482101561283b5760005260206000200190600090565b634e487b7160e01b600052603260045260246000fd5b90600182811c92168015612881575b602083101461286b57565b634e487b7160e01b600052602260045260246000fd5b91607f1691612860565b61018081019081106001600160401b038211176103df57604052565b60a081019081106001600160401b038211176103df57604052565b60e081019081106001600160401b038211176103df57604052565b602081019081106001600160401b038211176103df57604052565b90601f801991011681019081106001600160401b038211176103df57604052565b906040519182600082549261292d84612851565b90818452600194858116908160001461299c5750600114612959575b5050612957925003836128f8565b565b9093915060005260209081600020936000915b81831061298457505061295793508201013880612949565b8554888401850152948501948794509183019161296c565b91505061295794506020925060ff191682840152151560051b8201013880612949565b90815180825260208080930193019160005b8281106129df575050505090565b83516001600160a01b0316855293810193928101926001016129d1565b90815180825260208080930193019160005b828110612a1c575050505090565b835160ff1685529381019392810192600101612a0e565b81601f82011215610488578035906001600160401b0382116103df5760405192612a67601f8401601f1916602001856128f8565b8284526020838301011161048857816000926020809301838601378301015290565b6001600160401b0381116103df5760051b60200190565b818110612aab575050565b60008155600101612aa0565b15612abe57565b606460405162461bcd60e51b815260206004820152602060248201527f436861696e526174653a2063616c6c6572206973206e6f7420746561636865726044820152fd5b600019811461074f5760010190565b15612b1857565b606460405162461bcd60e51b815260206004820152602060248201527f436861696e526174653a20636f7572736520646f6573206e6f742065786973746044820152fd5b15612b6357565b606460405162461bcd60e51b815260206004820152602060248201527f436861696e526174653a2063616c6c6572206973206e6f742073747564656e746044820152fd5b8054600160401b8110156103df57612bc491600182018155612823565b819291549060031b91821b91600019901b1916179055565b15612be357565b60405162461bcd60e51b815260206004820152602c60248201527f436861696e526174653a2073747564656e7420686173206e6f74206a6f696e6560448201526b642074686520636f7572736560a01b6064820152608490fd5b805182101561283b5760209160051b010190565b9190820180921161074f57565b8115612c68570490565b634e487b7160e01b600052601260045260246000fd5b9060009182526020600981526040808420918151808483829654938481520190885283882092885b85828210612d4957505050612cbd925003846128f8565b825115612d44578492835b8151851015612d0857612cfc612d0291612ce28785612c3d565b5189526003855260ff6006878b20015460081c1690612c51565b94612b02565b93612cc8565b9350915050606482029180830460641490151715612d3057612d2d9293505190612c5e565b90565b634e487b7160e01b84526011600452602484fd5b505050565b8554845260019586019589955093019201612ca6565b90612d6982612a89565b612d7660405191826128f8565b8281528092612d87601f1991612a89565b0190602036910137565b60005260096020526040600020906040518083602082955493848152019060005260206000209260005b818110613064575050612dd0925003836128f8565b815180156130515760009260008060009060009360009560005b8251811015612fd157612dfd8184612c3d565b51600052600380602052604060002090612e1d604051806101005261288b565b8154610100515260018060a01b036001830154166020610100510152600282015460406101005101528101546060610100510152612e5d60048201612919565b60806101005101526005810154612e7381612a89565b90612e8160405192836128f8565b80825260208201600584016000526020600020906000905b838210612fb457505050506101005160a00152600601549360c09a60ff861615158c6101005101528560081c60ff166101005160e001528560101c60ff16610100516101000152610120958060181c60ff16876101005101528060201c60ff166101005161014001528060281c60ff16151561010051610160015260081c60ff16612f2391612c51565b9661010051610100015160ff16612f3991612c51565b9461010051015160ff16612f4c91612c51565b9461010051610140015160ff16612f6291612c51565b99610100510151612fa4575b608061010051015151612f8f575b612f8590612b02565b9893929498612dea565b96612f9c612f8591612b02565b979050612f7c565b95612fae90612b02565b95612f6e565b600160208192612fc386612919565b815201930191019091612e99565b509793969195929493606491508181029080159082048314171561074f5788612ff991612c5e565b968181029080820483149015171561074f578861301591612c5e565b958181029080820483149015171561074f578861303191612c5e565b9481810291818304149015171561074f578761304c91612c5e565b929190565b5060009150819081908190819081908190565b8454835260019485019487945060209093019201612dbb565b9061308782612a89565b61309460405191826128f8565b82815280926130a5601f1991612a89565b019060005b8281106130b657505050565b8060606020809385010152016130aa565b60006101005260005260096020526040600020906040518083602082955493848152019060005260206000209260005b8181106134a657505061310c925003836128f8565b815192838210156133fd5781840393841161074f578084116133f5575b5061313383612d5f565b9361313d84612d5f565b936131478161307d565b9361315182612d5f565b6101005261315e82612d5f565b9361316883612d5f565b9361317284612d5f565b9361317c81612d5f565b9361318682612d5f565b9360005b8381106131975750505050565b6131af6131a9829b9e9d9c9b84612c51565b84612c3d565b51600052600390816020526040600020604051926131cc8461288b565b8154845260018201546001600160a01b0316602085015260028201546040850152810154606084015261320160048201612919565b608084015260058101805461321581612a89565b9161322360405193846128f8565b81835260208301906000526020600020906000905b8382106133d857505050509d9e9b9c9d60ff9160069160a08601520154818116151560c0850152818160081c1660e0850152818160101c16610100850152818160181c16610120850152818160201c1661014085015260281c1615156101608301528d6132a782845192612c3d565b5260208201516001600160a01b03166132c0828f612c3d565b528b60c0830151156000146133835761337e9261330c8360c09360018060a01b0360208501511660005260016020526132fc6040600020612919565b6133068383612c3d565b52612c3d565b505b60608101516133208461010051612c3d565b5260e081015160ff16613333848f612c3d565b5261010081015160ff16613347848e612c3d565b5260ff6101208201511661335b848d612c3d565b5260ff6101408201511661336f848c612c3d565b520151151561218f8289612c3d565b61318a565b506040518060408101106001600160401b036040830111176103df5761337e926133d2838f84604060c096016040526009815268416e6f6e796d6f757360b81b60208201526133068383612c3d565b5061330e565b6001602081926133e786612919565b815201930191019091613238565b925038613129565b5050505060405161340d816128dd565b600081526040519161341e836128dd565b600083526040519161342f836128dd565b6000835260405191613440836128dd565b60008352604051613450816128dd565b6000815260405192613461846128dd565b6000845260405192613472846128dd565b6000845260405192613483846128dd565b6000845260405192613494846128dd565b60008452989796610100529493929190565b84548352600194850194879450602090930192016130f7565b600060e0526000608052600091600092600d54935b8481106137e757508093811561377a576134ed82612d5f565b916134f78161307d565b9161351661350483612d5f565b9261350e81612d5f565b60e052612d5f565b60805260008060c05260009660005b838110613537575050505060c0519493565b600081815260026020526040902060018101546001600160a01b03908116908416811461356f575b505061356a90612b02565b613525565b60209b949993959a989297916006916040519d8e61358c816128c2565b8354815201528c60406135a160028401612919565b910152600381015460608e0152600481015460808e0152600581015460ff16151560a08e0152015460c08c0152866135d98a84612c3d565b5260408b01516135e98a83612c3d565b526135f48982612c3d565b5060c08b01516136048a88612c3d565b5286600052600960205260406000208060a052602060405191826101005254918281520160a0516000526020600020916000905b808210613761575050613653915061010051809103906128f8565b61010051516136648a60e051612c3d565b5261010051511561373457600095865b6101005180518910156136bc576136b6916136928a6136b093612c3d565b51600052600360205260ff60066040600020015460081c1690612c51565b97612b02565b96613674565b509096509a9096939a999492989997919760649081810291818304149015171561074f5761356a9261371860c061372c948e61370c61370361372697610100515190612c5e565b91608051612c3d565b525b015160c051612c51565b60c052610100515190612c51565b99612b02565b92903861355f565b95929961372661356a929861371860c061372c9460008e9f9a989e61375b90608051612c3d565b5261370e565b8354835260019384019360209093019290910190613638565b505091505060405161378b816128dd565b600081526040519061379c826128dd565b60008252604051916137ad836128dd565b60008352604051926137be846128dd565b60008452604051936137cf856128dd565b6000855260009560009560009594939260e052608052565b6000818152600260205260409020600101546001600160a01b0385811691161461381a575b61381590612b02565b6134d4565b9061382761381591612b02565b91905061380c56fea2646970667358221220dcb205dd405c7ced60581834e8e2ea2512a885bc0dfaff03e1c3337214e3736764736f6c63430008140033",
  "linkReferences": {},
  "deployedLinkReferences": {}
}