{
  "_format": "hh-sol-artifact-1",
  "contractName": "ChainRate",
  "sourceName": "contracts/ChainRate.sol",
  "abi": [
    {
      "inputs": [],
      "stateMutability": "nonpayable",
      "type": "constructor"
    },
    {
      "anonymous": false,
      "inputs": [
        {
          "indexed": true,
          "internalType": "uint256",
          "name": "courseId",
          "type": "uint256"
        },
        {
          "indexed": true,
          "internalType": "address",
          "name": "teacher",
          "type": "address"
        },
        {
          "indexed": false,
          "internalType": "string",
          "name": "name",
          "type": "string"
        }
      ],
      "name": "CourseCreated",
      "type": "event"
    },
    {
      "anonymous": false,
      "inputs": [
        {
          "indexed": true,
          "internalType": "uint256",
          "name": "courseId",
          "type": "uint256"
        },
        {
          "indexed": true,
          "internalType": "address",
          "name": "student",
          "type": "address"
        }
      ],
      "name": "CourseJoined",
      "type": "event"
    },
    {
      "anonymous": false,
      "inputs": [
        {
          "indexed": true,
          "internalType": "uint256",
          "name": "courseId",
          "type": "uint256"
        },
        {
          "indexed": true,
          "internalType": "address",
          "name": "student",
          "type": "address"
        }
      ],
      "name": "CourseLeft",
      "type": "event"
    },
    {
      "anonymous": false,
      "inputs": [
        {
          "indexed": true,
          "internalType": "uint256",
          "name": "courseId",
          "type": "uint256"
        },
        {
          "indexed": true,
          "internalType": "address",
          "name": "teacher",
          "type": "address"
        }
      ],
      "name": "CourseUpdated",
      "type": "event"
    },
    {
      "anonymous": false,
      "inputs": [
        {
          "indexed": true,
          "internalType": "uint256",
          "name": "evaluationId",
          "type": "uint256"
        },
        {
          "indexed": true,
          "internalType": "address",
          "name": "student",
          "type": "address"
        },
        {
          "indexed": true,
          "internalType": "uint256",
          "name": "courseId",
          "type": "uint256"
        }
      ],
      "name": "EvaluationSubmitted",
      "type": "event"
    },
    {
      "anonymous": false,
      "inputs": [
        {
          "indexed": true,
          "internalType": "uint256",
          "name": "evaluationId",
          "type": "uint256"
        },
        {
          "indexed": true,
          "internalType": "address",
          "name": "student",
          "type": "address"
        }
      ],
      "name": "EvaluationUpdated",
      "type": "event"
    },
    {
      "anonymous": false,
      "inputs": [
        {
          "indexed": true,
          "internalType": "address",
          "name": "user",
          "type": "address"
        },
        {
          "indexed": false,
          "internalType": "string",
          "name": "name",
          "type": "string"
        },
        {
          "indexed": false,
          "internalType": "bytes32",
          "name": "role",
          "type": "bytes32"
        }
      ],
      "name": "UserRegistered",
      "type": "event"
    },
    {
      "inputs": [],
      "name": "ADMIN_ROLE",
      "outputs": [
        {
          "internalType": "bytes32",
          "name": "",
          "type": "bytes32"
        }
      ],
      "stateMutability": "view",
      "type": "function"
    },
    {
      "inputs": [],
      "name": "STUDENT_ROLE",
      "outputs": [
        {
          "internalType": "bytes32",
          "name": "",
          "type": "bytes32"
        }
      ],
      "stateMutability": "view",
      "type": "function"
    },
    {
      "inputs": [],
      "name": "TEACHER_ROLE",
      "outputs": [
        {
          "internalType": "bytes32",
          "name": "",
          "type": "bytes32"
        }
      ],
      "stateMutability": "view",
      "type": "function"
    },
    {
      "inputs": [
        {
          "internalType": "address",
          "name": "",
          "type": "address"
        }
      ],
      "name": "admins",
      "outputs": [
        {
          "internalType": "bool",
          "name": "",
          "type": "bool"
        }
      ],
      "stateMutability": "view",
      "type": "function"
    },
    {
      "inputs": [
        {
          "internalType": "uint256",
          "name": "",
          "type": "uint256"
        }
      ],
      "name": "allAdmins",
      "outputs": [
        {
          "internalType": "address",
          "name": "",
          "type": "address"
        }
      ],
      "stateMutability": "view",
      "type": "function"
    },
    {
      "inputs": [
        {
          "internalType": "uint256",
          "name": "",
          "type": "uint256"
        }
      ],
      "name": "allStudents",
      "outputs": [
        {
          "internalType": "address",
          "name": "",
          "type": "address"
        }
      ],
      "stateMutability": "view",
      "type": "function"
    },
    {
      "inputs": [
        {
          "internalType": "uint256",
          "name": "",
          "type": "uint256"
        }
      ],
      "name": "allTeachers",
      "outputs": [
        {
          "internalType": "address",
          "name": "",
          "type": "address"
        }
      ],
      "stateMutability": "view",
      "type": "function"
    },
    {
      "inputs": [],
      "name": "courseCount",
      "outputs": [
        {
          "internalType": "uint256",
          "name": "",
          "type": "uint256"
        }
      ],
      "stateMutability": "view",
      "type": "function"
    },
    {
      "inputs": [
        {
          "internalType": "uint256",
          "name": "",
          "type": "uint256"
        },
        {
          "internalType": "uint256",
          "name": "",
          "type": "uint256"
        }
      ],
      "name": "courseEvaluations",
      "outputs": [
        {
          "internalType": "uint256",
          "name": "",
          "type": "uint256"
        }
      ],
      "stateMutability": "view",
      "type": "function"
    },
    {
      "inputs": [
        {
          "internalType": "uint256",
          "name": "",
          "type": "uint256"
        },
        {
          "internalType": "uint256",
          "name": "",
          "type": "uint256"
        }
      ],
      "name": "courseStudents",
      "outputs": [
        {
          "internalType": "address",
          "name": "",
          "type": "address"
        }
      ],
      "stateMutability": "view",
      "type": "function"
    },
    {
      "inputs": [
        {
          "internalType": "uint256",
          "name": "",
          "type": "uint256"
        }
      ],
      "name": "courses",
      "outputs": [
        {
          "internalType": "uint256",
          "name": "id",
          "type": "uint256"
        },
        {
          "internalType": "address",
          "name": "teacher",
          "type": "address"
        },
        {
          "internalType": "string",
          "name": "name",
          "type": "string"
        },
        {
          "internalType": "uint256",
          "name": "startTime",
          "type": "uint256"
        },
        {
          "internalType": "uint256",
          "name": "endTime",
          "type": "uint256"
        },
        {
          "internalType": "bool",
          "name": "isActive",
          "type": "bool"
        },
        {
          "internalType": "uint256",
          "name": "studentCount",
          "type": "uint256"
        }
      ],
      "stateMutability": "view",
      "type": "function"
    },
    {
      "inputs": [
        {
          "internalType": "string",
          "name": "name",
          "type": "string"
        },
        {
          "internalType": "uint256",
          "name": "startTime",
          "type": "uint256"
        },
        {
          "internalType": "uint256",
          "name": "endTime",
          "type": "uint256"
        }
      ],
      "name": "createCourse",
      "outputs": [
        {
          "internalType": "uint256",
          "name": "",
          "type": "uint256"
        }
      ],
      "stateMutability": "nonpayable",
      "type": "function"
    },
    {
      "inputs": [],
      "name": "evaluationCount",
      "outputs": [
        {
          "internalType": "uint256",
          "name": "",
          "type": "uint256"
        }
      ],
      "stateMutability": "view",
      "type": "function"
    },
    {
      "inputs": [
        {
          "internalType": "uint256",
          "name": "",
          "type": "uint256"
        }
      ],
      "name": "evaluations",
      "outputs": [
        {
          "internalType": "uint256",
          "name": "id",
          "type": "uint256"
        },
        {
          "internalType": "address",
          "name": "student",
          "type": "address"
        },
        {
          "internalType": "uint256",
          "name": "courseId",
          "type": "uint256"
        },
        {
          "internalType": "uint256",
          "name": "timestamp",
          "type": "uint256"
        },
        {
          "internalType": "string",
          "name": "contentHash",
          "type": "string"
        },
        {
          "internalType": "bool",
          "name": "isAnonymous",
          "type": "bool"
        },
        {
          "internalType": "uint8",
          "name": "rating",
          "type": "uint8"
        },
        {
          "internalType": "uint8",
          "name": "teachingRating",
          "type": "uint8"
        },
        {
          "internalType": "uint8",
          "name": "contentRating",
          "type": "uint8"
        },
        {
          "internalType": "uint8",
          "name": "interactionRating",
          "type": "uint8"
        },
        {
          "internalType": "bool",
          "name": "isActive",
          "type": "bool"
        }
      ],
      "stateMutability": "view",
      "type": "function"
    },
    {
      "inputs": [],
      "name": "getActiveCourses",
      "outputs": [
        {
          "internalType": "uint256[]",
          "name": "",
          "type": "uint256[]"
        }
      ],
      "stateMutability": "view",
      "type": "function"
    },
    {
      "inputs": [],
      "name": "getAllAdmins",
      "outputs": [
        {
          "internalType": "address[]",
          "name": "",
          "type": "address[]"
        }
      ],
      "stateMutability": "view",
      "type": "function"
    },
    {
      "inputs": [],
      "name": "getAllCourses",
      "outputs": [
        {
          "internalType": "uint256[]",
          "name": "",
          "type": "uint256[]"
        }
      ],
      "stateMutability": "view",
      "type": "function"
    },
    {
      "inputs": [],
      "name": "getAllStudents",
      "outputs": [
        {
          "internalType": "address[]",
          "name": "",
          "type": "address[]"
        }
      ],
      "stateMutability": "view",
      "type": "function"
    },
    {
      "inputs": [],
      "name": "getAllTeachers",
      "outputs": [
        {
          "internalType": "address[]",
          "name": "",
          "type": "address[]"
        }
      ],
      "stateMutability": "view",
      "type": "function"
    },
    {
      "inputs": [
        {
          "internalType": "uint256",
          "name": "courseId",
          "type": "uint256"
        }
      ],
      "name": "getAverageRating",
      "outputs": [
        {
          "internalType": "uint256",
          "name": "",
          "type": "uint256"
        }
      ],
      "stateMutability": "view",
      "type": "function"
    },
    {
      "inputs": [
        {
          "internalType": "uint256",
          "name": "courseId",
          "type": "uint256"
        },
        {
          "internalType": "uint256",
          "name": "offset",
          "type": "uint256"
        },
        {
          "internalType": "uint256",
          "name": "limit",
          "type": "uint256"
        }
      ],
      "name": "getCourseBatchEvaluations",
      "outputs": [
        {
          "internalType": "uint256[]",
          "name": "ids",
          "type": "uint256[]"
        },
        {
          "internalType": "address[]",
          "name": "studentAddresses",
          "type": "address[]"
        },
        {
          "internalType": "string[]",
          "name": "names",
          "type": "string[]"
        },
        {
          "internalType": "uint256[]",
          "name": "timestamps",
          "type": "uint256[]"
        },
        {
          "internalType": "uint8[]",
          "name": "ratings",
          "type": "uint8[]"
        },
        {
          "internalType": "uint8[]",
          "name": "teachingRatings",
          "type": "uint8[]"
        },
        {
          "internalType": "uint8[]",
          "name": "contentRatings",
          "type": "uint8[]"
        },
        {
          "internalType": "uint8[]",
          "name": "interactionRatings",
          "type": "uint8[]"
        },
        {
          "internalType": "bool[]",
          "name": "isAnonymous",
          "type": "bool[]"
        }
      ],
      "stateMutability": "view",
      "type": "function"
    },
    {
      "inputs": [
        {
          "internalType": "uint256",
          "name": "courseId",
          "type": "uint256"
        }
      ],
      "name": "getCourseEvaluations",
      "outputs": [
        {
          "internalType": "uint256[]",
          "name": "",
          "type": "uint256[]"
        }
      ],
      "stateMutability": "view",
      "type": "function"
    },
    {
      "inputs": [
        {
          "internalType": "uint256",
          "name": "courseId",
          "type": "uint256"
        }
      ],
      "name": "getCourseStatistics",
      "outputs": [
        {
          "internalType": "uint256",
          "name": "totalEvaluations",
          "type": "uint256"
        },
        {
          "internalType": "uint256",
          "name": "averageRating",
          "type": "uint256"
        },
        {
          "internalType": "uint256",
          "name": "averageTeachingRating",
          "type": "uint256"
        },
        {
          "internalType": "uint256",
          "name": "averageContentRating",
          "type": "uint256"
        },
        {
          "internalType": "uint256",
          "name": "averageInteractionRating",
          "type": "uint256"
        },
        {
          "internalType": "uint256",
          "name": "anonymousCount",
          "type": "uint256"
        },
        {
          "internalType": "uint256",
          "name": "completeCount",
          "type": "uint256"
        }
      ],
      "stateMutability": "view",
      "type": "function"
    },
    {
      "inputs": [
        {
          "internalType": "uint256",
          "name": "courseId",
          "type": "uint256"
        }
      ],
      "name": "getCourseStudents",
      "outputs": [
        {
          "internalType": "address[]",
          "name": "",
          "type": "address[]"
        }
      ],
      "stateMutability": "view",
      "type": "function"
    },
    {
      "inputs": [
        {
          "internalType": "uint256",
          "name": "evaluationId",
          "type": "uint256"
        }
      ],
      "name": "getEvaluationDetails",
      "outputs": [
        {
          "internalType": "uint256",
          "name": "id",
          "type": "uint256"
        },
        {
          "internalType": "address",
          "name": "student",
          "type": "address"
        },
        {
          "internalType": "uint256",
          "name": "courseId",
          "type": "uint256"
        },
        {
          "internalType": "uint256",
          "name": "timestamp",
          "type": "uint256"
        },
        {
          "internalType": "string",
          "name": "contentHash",
          "type": "string"
        },
        {
          "internalType": "string[]",
          "name": "imageHashes",
          "type": "string[]"
        },
        {
          "internalType": "bool",
          "name": "isAnonymous",
          "type": "bool"
        },
        {
          "internalType": "uint8",
          "name": "rating",
          "type": "uint8"
        },
        {
          "internalType": "uint8",
          "name": "teachingRating",
          "type": "uint8"
        },
        {
          "internalType": "uint8",
          "name": "contentRating",
          "type": "uint8"
        },
        {
          "internalType": "uint8",
          "name": "interactionRating",
          "type": "uint8"
        },
        {
          "internalType": "bool",
          "name": "isActive",
          "type": "bool"
        }
      ],
      "stateMutability": "view",
      "type": "function"
    },
    {
      "inputs": [
        {
          "internalType": "address",
          "name": "studentAddress",
          "type": "address"
        }
      ],
      "name": "getStudentCourses",
      "outputs": [
        {
          "internalType": "uint256[]",
          "name": "",
          "type": "uint256[]"
        }
      ],
      "stateMutability": "view",
      "type": "function"
    },
    {
      "inputs": [
        {
          "internalType": "address",
          "name": "studentAddress",
          "type": "address"
        }
      ],
      "name": "getStudentDetailInfo",
      "outputs": [
        {
          "internalType": "string",
          "name": "name",
          "type": "string"
        },
        {
          "internalType": "string",
          "name": "phone",
          "type": "string"
        },
        {
          "internalType": "string",
          "name": "email",
          "type": "string"
        },
        {
          "internalType": "string",
          "name": "college",
          "type": "string"
        },
        {
          "internalType": "string",
          "name": "major",
          "type": "string"
        },
        {
          "internalType": "string",
          "name": "grade",
          "type": "string"
        },
        {
          "internalType": "uint256",
          "name": "studentCourseCount",
          "type": "uint256"
        },
        {
          "internalType": "uint256",
          "name": "studentEvalCount",
          "type": "uint256"
        },
        {
          "internalType": "uint256[]",
          "name": "courseIds",
          "type": "uint256[]"
        },
        {
          "internalType": "string[]",
          "name": "courseNames",
          "type": "string[]"
        },
        {
          "internalType": "bool[]",
          "name": "hasEvaluatedArray",
          "type": "bool[]"
        }
      ],
      "stateMutability": "view",
      "type": "function"
    },
    {
      "inputs": [
        {
          "internalType": "address",
          "name": "studentAddress",
          "type": "address"
        }
      ],
      "name": "getStudentEvaluations",
      "outputs": [
        {
          "internalType": "uint256[]",
          "name": "",
          "type": "uint256[]"
        }
      ],
      "stateMutability": "view",
      "type": "function"
    },
    {
      "inputs": [
        {
          "internalType": "uint256",
          "name": "offset",
          "type": "uint256"
        },
        {
          "internalType": "uint256",
          "name": "limit",
          "type": "uint256"
        }
      ],
      "name": "getStudentsBatch",
      "outputs": [
        {
          "internalType": "address[]",
          "name": "addresses",
          "type": "address[]"
        },
        {
          "internalType": "string[]",
          "name": "names",
          "type": "string[]"
        },
        {
          "internalType": "string[]",
          "name": "phones",
          "type": "string[]"
        },
        {
          "internalType": "string[]",
          "name": "emails",
          "type": "string[]"
        },
        {
          "internalType": "string[]",
          "name": "colleges",
          "type": "string[]"
        },
        {
          "internalType": "string[]",
          "name": "majors",
          "type": "string[]"
        },
        {
          "internalType": "string[]",
          "name": "grades",
          "type": "string[]"
        },
        {
          "internalType": "uint256[]",
          "name": "coursesCounts",
          "type": "uint256[]"
        },
        {
          "internalType": "uint256[]",
          "name": "evaluationsCounts",
          "type": "uint256[]"
        }
      ],
      "stateMutability": "view",
      "type": "function"
    },
    {
      "inputs": [
        {
          "internalType": "address",
          "name": "teacherAddress",
          "type": "address"
        }
      ],
      "name": "getTeacherDashboard",
      "outputs": [
        {
          "internalType": "uint256",
          "name": "totalCourses",
          "type": "uint256"
        },
        {
          "internalType": "uint256",
          "name": "totalStudents",
          "type": "uint256"
        },
        {
          "internalType": "uint256",
          "name": "totalEvaluations",
          "type": "uint256"
        },
        {
          "internalType": "uint256[]",
          "name": "courseIds",
          "type": "uint256[]"
        },
        {
          "internalType": "string[]",
          "name": "courseNames",
          "type": "string[]"
        },
        {
          "internalType": "uint256[]",
          "name": "studentCounts",
          "type": "uint256[]"
        },
        {
          "internalType": "uint256[]",
          "name": "evaluationCounts",
          "type": "uint256[]"
        },
        {
          "internalType": "uint256[]",
          "name": "averageRatings",
          "type": "uint256[]"
        }
      ],
      "stateMutability": "view",
      "type": "function"
    },
    {
      "inputs": [
        {
          "internalType": "address",
          "name": "teacherAddress",
          "type": "address"
        }
      ],
      "name": "getTeacherDetailInfo",
      "outputs": [
        {
          "internalType": "string",
          "name": "name",
          "type": "string"
        },
        {
          "internalType": "string",
          "name": "phone",
          "type": "string"
        },
        {
          "internalType": "string",
          "name": "email",
          "type": "string"
        },
        {
          "internalType": "string",
          "name": "college",
          "type": "string"
        },
        {
          "internalType": "string",
          "name": "major",
          "type": "string"
        },
        {
          "internalType": "string",
          "name": "grade",
          "type": "string"
        },
        {
          "internalType": "uint256",
          "name": "totalCourses",
          "type": "uint256"
        },
        {
          "internalType": "uint256",
          "name": "totalStudents",
          "type": "uint256"
        },
        {
          "internalType": "uint256",
          "name": "totalEvaluations",
          "type": "uint256"
        },
        {
          "internalType": "uint256",
          "name": "averageRating",
          "type": "uint256"
        }
      ],
      "stateMutability": "view",
      "type": "function"
    },
    {
      "inputs": [
        {
          "internalType": "uint256",
          "name": "offset",
          "type": "uint256"
        },
        {
          "internalType": "uint256",
          "name": "limit",
          "type": "uint256"
        }
      ],
      "name": "getTeachersBatch",
      "outputs": [
        {
          "internalType": "address[]",
          "name": "addresses",
          "type": "address[]"
        },
        {
          "internalType": "string[]",
          "name": "names",
          "type": "string[]"
        },
        {
          "internalType": "string[]",
          "name": "phones",
          "type": "string[]"
        },
        {
          "internalType": "string[]",
          "name": "emails",
          "type": "string[]"
        },
        {
          "internalType": "string[]",
          "name": "colleges",
          "type": "string[]"
        },
        {
          "internalType": "string[]",
          "name": "majors",
          "type": "string[]"
        },
        {
          "internalType": "string[]",
          "name": "grades",
          "type": "string[]"
        },
        {
          "internalType": "uint256[]",
          "name": "coursesCounts",
          "type": "uint256[]"
        },
        {
          "internalType": "uint256[]",
          "name": "averageRatings",
          "type": "uint256[]"
        }
      ],
      "stateMutability": "view",
      "type": "function"
    },
    {
      "inputs": [
        {
          "internalType": "address",
          "name": "userAddress",
          "type": "address"
        }
      ],
      "name": "getUserInfo",
      "outputs": [
        {
          "internalType": "string",
          "name": "name",
          "type": "string"
        },
        {
          "internalType": "string",
          "name": "phone",
          "type": "string"
        },
        {
          "internalType": "string",
          "name": "email",
          "type": "string"
        },
        {
          "internalType": "string",
          "name": "college",
          "type": "string"
        },
        {
          "internalType": "string",
          "name": "major",
          "type": "string"
        },
        {
          "internalType": "string",
          "name": "grade",
          "type": "string"
        },
        {
          "internalType": "bytes32",
          "name": "role",
          "type": "bytes32"
        },
        {
          "internalType": "bool",
          "name": "isRegistered",
          "type": "bool"
        }
      ],
      "stateMutability": "view",
      "type": "function"
    },
    {
      "inputs": [
        {
          "internalType": "uint256",
          "name": "",
          "type": "uint256"
        },
        {
          "internalType": "address",
          "name": "",
          "type": "address"
        }
      ],
      "name": "hasEvaluated",
      "outputs": [
        {
          "internalType": "bool",
          "name": "",
          "type": "bool"
        }
      ],
      "stateMutability": "view",
      "type": "function"
    },
    {
      "inputs": [
        {
          "internalType": "uint256",
          "name": "",
          "type": "uint256"
        },
        {
          "internalType": "address",
          "name": "",
          "type": "address"
        }
      ],
      "name": "hasJoinedCourse",
      "outputs": [
        {
          "internalType": "bool",
          "name": "",
          "type": "bool"
        }
      ],
      "stateMutability": "view",
      "type": "function"
    },
    {
      "inputs": [
        {
          "internalType": "uint256",
          "name": "courseId",
          "type": "uint256"
        },
        {
          "internalType": "address",
          "name": "studentAddress",
          "type": "address"
        }
      ],
      "name": "isStudentEvaluated",
      "outputs": [
        {
          "internalType": "bool",
          "name": "",
          "type": "bool"
        }
      ],
      "stateMutability": "view",
      "type": "function"
    },
    {
      "inputs": [
        {
          "internalType": "uint256",
          "name": "courseId",
          "type": "uint256"
        },
        {
          "internalType": "address",
          "name": "studentAddress",
          "type": "address"
        }
      ],
      "name": "isStudentJoined",
      "outputs": [
        {
          "internalType": "bool",
          "name": "",
          "type": "bool"
        }
      ],
      "stateMutability": "view",
      "type": "function"
    },
    {
      "inputs": [
        {
          "internalType": "uint256",
          "name": "courseId",
          "type": "uint256"
        }
      ],
      "name": "joinCourse",
      "outputs": [],
      "stateMutability": "nonpayable",
      "type": "function"
    },
    {
      "inputs": [
        {
          "internalType": "uint256",
          "name": "courseId",
          "type": "uint256"
        }
      ],
      "name": "leaveCourse",
      "outputs": [],
      "stateMutability": "nonpayable",
      "type": "function"
    },
    {
      "inputs": [],
      "name": "owner",
      "outputs": [
        {
          "internalType": "address",
          "name": "",
          "type": "address"
        }
      ],
      "stateMutability": "view",
      "type": "function"
    },
    {
      "inputs": [
        {
          "internalType": "string",
          "name": "name",
          "type": "string"
        },
        {
          "internalType": "string",
          "name": "phone",
          "type": "string"
        },
        {
          "internalType": "string",
          "name": "email",
          "type": "string"
        },
        {
          "internalType": "string",
          "name": "college",
          "type": "string"
        },
        {
          "internalType": "string",
          "name": "major",
          "type": "string"
        },
        {
          "internalType": "string",
          "name": "grade",
          "type": "string"
        },
        {
          "internalType": "bytes32",
          "name": "passwordHash",
          "type": "bytes32"
        },
        {
          "internalType": "bytes32",
          "name": "role",
          "type": "bytes32"
        }
      ],
      "name": "registerUser",
      "outputs": [],
      "stateMutability": "nonpayable",
      "type": "function"
    },
    {
      "inputs": [
        {
          "internalType": "address",
          "name": "",
          "type": "address"
        },
        {
          "internalType": "uint256",
          "name": "",
          "type": "uint256"
        }
      ],
      "name": "studentCourses",
      "outputs": [
        {
          "internalType": "uint256",
          "name": "",
          "type": "uint256"
        }
      ],
      "stateMutability": "view",
      "type": "function"
    },
    {
      "inputs": [
        {
          "internalType": "address",
          "name": "",
          "type": "address"
        },
        {
          "internalType": "uint256",
          "name": "",
          "type": "uint256"
        }
      ],
      "name": "studentEvaluations",
      "outputs": [
        {
          "internalType": "uint256",
          "name": "",
          "type": "uint256"
        }
      ],
      "stateMutability": "view",
      "type": "function"
    },
    {
      "inputs": [
        {
          "internalType": "address",
          "name": "",
          "type": "address"
        }
      ],
      "name": "students",
      "outputs": [
        {
          "internalType": "bool",
          "name": "",
          "type": "bool"
        }
      ],
      "stateMutability": "view",
      "type": "function"
    },
    {
      "inputs": [
        {
          "internalType": "uint256",
          "name": "courseId",
          "type": "uint256"
        },
        {
          "internalType": "string",
          "name": "contentHash",
          "type": "string"
        },
        {
          "internalType": "string[]",
          "name": "imageHashes",
          "type": "string[]"
        },
        {
          "internalType": "uint8",
          "name": "rating",
          "type": "uint8"
        },
        {
          "internalType": "uint8",
          "name": "teachingRating",
          "type": "uint8"
        },
        {
          "internalType": "uint8",
          "name": "contentRating",
          "type": "uint8"
        },
        {
          "internalType": "uint8",
          "name": "interactionRating",
          "type": "uint8"
        },
        {
          "internalType": "bool",
          "name": "isAnonymous",
          "type": "bool"
        }
      ],
      "name": "submitEvaluation",
      "outputs": [
        {
          "internalType": "uint256",
          "name": "",
          "type": "uint256"
        }
      ],
      "stateMutability": "nonpayable",
      "type": "function"
    },
    {
      "inputs": [
        {
          "internalType": "address",
          "name": "",
          "type": "address"
        }
      ],
      "name": "teachers",
      "outputs": [
        {
          "internalType": "bool",
          "name": "",
          "type": "bool"
        }
      ],
      "stateMutability": "view",
      "type": "function"
    },
    {
      "inputs": [
        {
          "internalType": "uint256",
          "name": "courseId",
          "type": "uint256"
        },
        {
          "internalType": "string",
          "name": "name",
          "type": "string"
        },
        {
          "internalType": "uint256",
          "name": "startTime",
          "type": "uint256"
        },
        {
          "internalType": "uint256",
          "name": "endTime",
          "type": "uint256"
        },
        {
          "internalType": "bool",
          "name": "isActive",
          "type": "bool"
        }
      ],
      "name": "updateCourse",
      "outputs": [],
      "stateMutability": "nonpayable",
      "type": "function"
    },
    {
      "inputs": [
        {
          "internalType": "address",
          "name": "",
          "type": "address"
        }
      ],
      "name": "users",
      "outputs": [
        {
          "internalType": "string",
          "name": "name",
          "type": "string"
        },
        {
          "internalType": "string",
          "name": "phone",
          "type": "string"
        },
        {
          "internalType": "string",
          "name": "email",
          "type": "string"
        },
        {
          "internalType": "string",
          "name": "college",
          "type": "string"
        },
        {
          "internalType": "string",
          "name": "major",
          "type": "string"
        },
        {
          "internalType": "string",
          "name": "grade",
          "type": "string"
        },
        {
          "internalType": "bytes32",
          "name": "passwordHash",
          "type": "bytes32"
        },
        {
          "internalType": "bytes32",
          "name": "role",
          "type": "bytes32"
        },
        {
          "internalType": "bool",
          "name": "isRegistered",
          "type": "bool"
        }
      ],
      "stateMutability": "view",
      "type": "function"
    },
    {
      "inputs": [
        {
          "internalType": "bytes32",
          "name": "passwordHash",
          "type": "bytes32"
        }
      ],
      "name": "verifyPassword",
      "outputs": [
        {
          "internalType": "bool",
          "name": "",
          "type": "bool"
        }
      ],
      "stateMutability": "view",
      "type": "function"
    }
  ],
  "bytecode": "0x6080806040523461004057600080546001600160a01b0319163390811782558152600460205260409020805460ff1916600117905561532890816100468239f35b600080fdfe610200604052600436101561001357600080fd5b60003560e01c8063016c14da146137fe57806304e48bd1146137ac57806306a4dc681461375157806309029aac1461369a578063128af981146135fd57806316ac3b12146135cc57806317b7e03e1461358e578063181c5c821461355d5780632b00e0f3146131dd57806333c63b1714613118578063429b62e5146130d957806355172bc714612eb457806358716cc514612de35780635a52b26a14612dba5780635e1f4950146123db5780635e8b20fd146121df57806360dd60e31461215557806360fa6443146120f15780636386c1c714611f9b5780636605515914611f7d5780636811cdaf14611f175780636e274a3414611ee657806373e29f7614611dfa57806375b238fc14611dbf57806386e5c15a14611d845780638abb445614611a2d5780638c3fe4f2146119e05780638da5cb5b146119b757806396f979d214611925578063a6c807a9146118e6578063a87430ba146117d5578063ae0ec5e414611501578063aefe24d414611485578063af6db1171461141e578063c8cd44d2146113d1578063c9ace3f1146113b3578063cca0903314611369578063d40761e4146112f2578063e620ceb814610a0b578063e6a852cc146109c9578063e9523c9714610912578063e9e3092714610847578063ed072a07146106c3578063f0a47f7814610684578063f0a486b21461061d578063f7be43fb146105e2578063fa3ef5a914610553578063fd95cc51146104fb5763ffb24e9b1461023857600080fd5b346104f65760a03660031901126104f6576004356001600160401b036024358181116104f65761026c903690600401613bc3565b906084359081151582036104f657836000526020600281526102948560406000205414613db6565b336000526005815260ff6040600020541680156104e3575b80156104cf575b6102bc90613d5c565b600085815260028252604090206001808201549193916001600160a01b0390811633149081156104b6575b81156104a8575b5015610463576002840192865192831161044d5761030c8454613a54565b601f8111610412575b5080601f84116001146103a0575091808092600596959461036c99600094610395575b50501b916000199060031b1c19161790555b60443560038201556064356004820155019060ff801983541691151516179055565b33907f6b7bcf044e00829a998e3e09bdef036fe2317de7a3f1ec7f04927b0973b73594600080a3005b015192503880610338565b9193949596601f1984168660005283600020936000905b8282106103fb5750509161036c9897959391856005989694106103e2575b505050811b01905561034a565b015160001960f88460031b161c191690553880806103d5565b8088869782949787015181550196019401906103b7565b61043d908560005282600020601f860160051c810191848710610443575b601f0160051c0190613d45565b38610315565b9091508190610430565b634e487b7160e01b600052604160045260246000fd5b60405162461bcd60e51b815260048101849052601960248201527f436861696e526174653a206e6f7420617574686f72697a6564000000000000006044820152606490fd5b9050600054163314386102ee565b9050336000526004845260ff60406000205416906102e7565b506000546001600160a01b031633146102b3565b506004815260ff604060002054166102ac565b600080fd5b346104f65760403660031901126104f657610514613976565b6001600160a01b03166000908152600b60205260409020805460243591908210156104f65760209161054591613921565b90546040519160031b1c8152f35b346104f6576020806003193601126104f6576001600160a01b03610575613976565b1660005260088152604060002090604051808383829554938481520190600052836000209260005b858282106105cc575050506105b492500383613afc565b6105c860405192828493845283019061387f565b0390f35b855484526001958601958895509301920161059d565b346104f65760003660031901126104f65760206040517f36a5c4aaacb6b388bbd448bf11096b7dafc5652bcc9046084fd0e95b1fb0b2cc8152f35b346104f65760403660031901126104f65760043561063961398c565b908060005260026020526106538160406000205414613db6565b600052600a60205260406000209060018060a01b0316600052602052602060ff604060002054166040519015158152f35b346104f65760203660031901126104f6576001600160a01b036106a5613976565b166000526005602052602060ff604060002054166040519015158152f35b346104f6576020806003193601126104f6576004359081600052600281526106f18260406000205414613db6565b336000526006815260ff604060002054168015610833575b61071290613e01565b81600052600a8152604060002033600052815261073660ff60406000205416613e81565b8160005260078152604060002033600052815260ff604060002054166107d35760029082600052600a81526040600020336000528152604060002060ff19815416905582600052526006604060002001805480156107bd5760001901905533907f497941b8fa39d9cb0342836ad143b09296c513385dba2fa8c33a934e1c6fe922600080a3005b634e487b7160e01b600052601160045260246000fd5b6084906040519062461bcd60e51b82526004820152603360248201527f436861696e526174653a2073747564656e742068617320616c7265616479206560448201527276616c75617465642074686520636f7572736560681b6064820152fd5b506000546001600160a01b03163314610709565b346104f65760003660031901126104f6573360005260206004815260ff6040600020541680156108fe575b61087b90614abf565b60405190818282600d549283815201600d6000527fd7b6990105719101dabeb77144f2a3385c8033acd3af97e9423a695e81ad1eb59260005b858282106108df575050506108cb92500383613afc565b6105c8604051928284938452830190613939565b85546001600160a01b03168452600195860195889550930192016108b4565b506000546001600160a01b03163314610872565b346104f65760003660031901126104f6573360005260206004815260ff6040600020541680156109b5575b61094690614abf565b60405190818282600f549283815201600f6000527f8d1108e10bcb7c27dddfc02ed9d693a074039d026cf4ea4240b40f7d581ac8029260005b85828210610996575050506108cb92500383613afc565b85546001600160a01b031684526001958601958895509301920161097f565b506000546001600160a01b0316331461093d565b346104f65760203660031901126104f657600435600d548110156104f6576109f26020916138ea565b905460405160039290921b1c6001600160a01b03168152f35b346104f6576101003660031901126104f6576024356001600160401b0381116104f657610a3c903690600401613bc3565b6001600160401b03604435116104f6573660236044350112156104f65760443560040135610a6981613d2e565b90610a776040519283613afc565b80825260208201903660248260051b6044350101116104f657602460443501915b60248260051b604435010183106112bf5750505060643560ff811681036104f6576084359060ff821682036104f65760a4359060ff821682036104f65760c4359160ff831683036104f65760e4359182151583036104f65733600052600660205260ff6040600020541680156112ab575b610b1290613e01565b6004356000526002602052610b2f60043560406000205414613db6565b600435600052600260205260406000206003810154421015908161129c575b501561124757600435600052600a602052604060002033600052602052610b7c60ff60406000205416613e81565b600435600052600760205260406000203360005260205260ff6040600020541661120257600160ff82161015806111f4575b156111af57600160ff86161015806111a1575b1561115157600160ff8316101580611143575b156110f457600160ff85161015806110e6575b156110935760ff9485809492819360115499610c028b613da7565b6011556040519b610c128d613aaa565b8b8d528c6020339101528c60406004359101528c60604291015260808d015260a08c0152151560c08b01521660e08901521661010087015216610120850152166101408301526001610160830152806000526003602052604060002090825182556001820160018060a01b036020850151166bffffffffffffffffffffffff60a01b825416179055604083015160028301556060830151600383015560808301519283516001600160401b03811161044d57610cd16004850154613a54565b601f811161105e575b506020601f8211600114610fef578192939495600092610fe4575b50508160011b916000199060031b1c19161760048401555b60a0810151805190600160401b821161044d576005850154826005870155808310610f6c575b5060200190600585016000526020600020916000905b828210610e57576020868660068a0190610d7560c08201511515839060ff801983541691151516179055565b60e081015190825462ff000061010083015160101b1663ff00000061012084015160181b169161ff0065ff000000000061016064ff000000006101408801518c1b16960151151560281b169560081b169065ffffffffff001916171717171790556004356000526007825260406000203360005282526040600020600160ff1982541617905560088252610e0d816040600020613e4c565b60043560005260098252610e25816040600020613e4c565b6040519060043533827f423285530582a702e795200cb363c60e7c81dc3c09a08566dcc4c6f766ee3110600080a48152f35b80518051906001600160401b03821161044d57610e748654613a54565b601f8111610f3a575b50602090601f8311600114610eca579282600194936020938695600092610ebf575b5050600019600383901b1c191690841b1787555b01940191019092610d49565b015190508c80610e9f565b908660005260206000209160005b601f1985168110610f22575083602093600196938796938794601f19811610610f09575b505050811b018755610eb3565b015160001960f88460031b161c191690558c8080610efc565b91926020600181928685015181550194019201610ed8565b610f6690876000526020600020601f850160051c8101916020861061044357601f0160051c0190613d45565b89610e7d565b600586016000526020600020908382015b8183018110610f8d575050610d33565b80610f9a60019254613a54565b80610fa7575b5001610f7d565b601f81118314610fbd5750600081555b89610fa0565b600090828252610fdb601f60208420920160051c8201858301613d45565b81835555610fb7565b015190508580610cf5565b6004850160005260206000209060005b601f1984168110611046575060019394959683601f1981161061102d575b505050811b016004840155610d0d565b015160001960f88460031b161c1916905585808061101d565b9091602060018192858b015181550193019101610fff565b61108d90600486016000526020600020601f840160051c8101916020851061044357601f0160051c0190613d45565b85610cda565b60405162461bcd60e51b815260206004820152602560248201527f436861696e526174653a20696e76616c696420696e746572616374696f6e20726044820152646174696e6760d81b6064820152608490fd5b50600560ff85161115610be7565b60405162461bcd60e51b815260206004820152602160248201527f436861696e526174653a20696e76616c696420636f6e74656e7420726174696e6044820152606760f81b6064820152608490fd5b50600560ff83161115610bd4565b60405162461bcd60e51b815260206004820152602260248201527f436861696e526174653a20696e76616c6964207465616368696e6720726174696044820152616e6760f01b6064820152608490fd5b50600560ff86161115610bc1565b60405162461bcd60e51b815260206004820152601960248201527f436861696e526174653a20696e76616c696420726174696e67000000000000006044820152606490fd5b50600560ff82161115610bae565b60405162461bcd60e51b815260206004820152601c60248201527f436861696e526174653a20616c7265616479206576616c7561746564000000006044820152606490fd5b60405162461bcd60e51b815260206004820152602760248201527f436861696e526174653a206e6f742077697468696e206576616c756174696f6e604482015266081c195c9a5bd960ca1b6064820152608490fd5b60049150015442111588610b4e565b506000546001600160a01b03163314610b09565b6001600160401b038335116104f6576020806024926112e5368588356044350101613bc3565b8152019301929050610a98565b346104f6576020806003193601126104f6576001600160a01b03611314613976565b16600052600b8152604060002090604051808383829554938481520190600052836000209260005b85828210611353575050506105b492500383613afc565b855484526001958601958895509301920161133c565b346104f65760403660031901126104f657611382613976565b6001600160a01b03166000908152600860205260409020805460243591908210156104f65760209161054591613921565b346104f65760003660031901126104f6576020601154604051908152f35b346104f65760403660031901126104f6576113ea61398c565b600435600052600760205260406000209060018060a01b0316600052602052602060ff604060002054166040519015158152f35b346104f65760403660031901126104f65760043561143a61398c565b908060005260026020526114548160406000205414613db6565b600052600760205260406000209060018060a01b0316600052602052602060ff604060002054166040519015158152f35b346104f6576105c86114c161149936613a3e565b9033600052600460205260ff6040600020541680156114ed575b6114bc90614abf565b614dc4565b6101409391929351906101e0519361012051956101c051956080519760a05197604051998a998a613c19565b506000546001600160a01b031633146114b3565b346104f65760603660031901126104f6576001600160401b036004358181116104f657611532903690600401613bc3565b9060243591604435336000526020936005855260ff6040600020541680156117c2575b80156117ae575b61156590613d5c565b81811015611769576010549361157a85613da7565b6010556040519261158a84613ac6565b8584528684019233845260408501868152606086019182526080860192835260a0860193600180865260c0880196600088528a60005260028c526040600020985189558189019060018060a01b039051166bffffffffffffffffffffffff60a01b825416179055600288019251805192831161044d5761160a8454613a54565b8c601f8211611738575b50508b908c601f85116001146116c457509280611673979593819360069b9a98966000946116b9575b50501b916000199060031b1c19161790555b516003870155516004860155511515600585019060ff801983541691151516179055565b51910155817fd26ee57739c2f8845178c96a37348973f3edc5907d342cdf65382f9a84474b89604051858152806116ae3395888301906139a2565b0390a3604051908152f35b015192508f8061163d565b9190601f9493941984168660005283600020936000905b8282106117215750509160069a9997959391856116739a98969410611708575b505050811b01905561164f565b015160001960f88460031b161c191690558d80806116fb565b8088869782949787015181550196019401906116db565b61176291866000528160002090601f870160051c820192871061044357601f0160051c0190613d45565b8c8c611614565b60405162461bcd60e51b815260048101869052601e60248201527f436861696e526174653a20696e76616c69642074696d6520706572696f6400006044820152606490fd5b506000546001600160a01b0316331461155c565b506004855260ff60406000205416611555565b346104f65760203660031901126104f6576001600160a01b036117f6613976565b166000526001602052604060002061188961181082613b1d565b9161181d60018201613b1d565b9261182a60028301613b1d565b916118cf61183a60038301613b1d565b6118c161184960048501613b1d565b6118b361185860058701613b1d565b936118a560068801549961189760ff600860078c01549b0154169a6040519e8f9e8f926101208085528401906139a2565b9160208184039101526139a2565b8c810360408e0152906139a2565b908a820360608c01526139a2565b9088820360808a01526139a2565b9086820360a08801526139a2565b9260c085015260e084015215156101008301520390f35b346104f65760203660031901126104f6576001600160a01b03611907613976565b166000526006602052602060ff604060002054166040519015158152f35b346104f65760203660031901126104f65760043560005260026020526040600020805460018060a01b036001830154169161196260028201613b1d565b600382015491600481015461199c600660ff600585015416930154936040519788978852602088015260e0604088015260e08701906139a2565b9360608601526080850152151560a084015260c08301520390f35b346104f65760003660031901126104f6576000546040516001600160a01b039091168152602090f35b346104f65760403660031901126104f6576119f961398c565b600435600052600a60205260406000209060018060a01b0316600052602052602060ff604060002054166040519015158152f35b346104f65760203660031901126104f657611a46613976565b33600052600460205260ff604060002054168015611d70575b611a6890614abf565b6001600160a01b03811660009081526006602052604090205460ff1615611d2b5760018060a01b0381166000526001602052604060002060405191611aac83613a8e565b611ab582613b1d565b8352611ac360018301613b1d565b9160208401928352611ad760028201613b1d565b9360408101948552611aeb60038301613b1d565b9060608101918252611aff60048401613b1d565b906080810191825260ff6008611b1760058701613b1d565b958660a0850152600681015460c0850152600781015460e085015201541615156101008201525194519551915190519060018060a01b038516600052600b6020526040600020936040518086602082985493848152019060005260206000209260005b818110611d12575050611b8f92500386613afc565b84519260018060a01b038716600052600860205260406000205492611bb385614001565b95611bbd8661431f565b97611bc787614001565b998960005b8a8a8210611c865750505050506040519a8b9a610160808d528c01611bf0916139a2565b8b810360208d0152611c01916139a2565b8a810360408c0152611c12916139a2565b89810360608b0152611c23916139a2565b88810360808a0152611c34916139a2565b87810360a0890152611c45916139a2565b9160c087015260e0860152848103610100860152611c629161387f565b838103610120850152611c74916139e2565b8281036101408401526105c891613cf8565b611cd082611d0b948193611ca6611c9d848b613ee2565b51958692613ee2565b52836000526002602052611cc06002604060002001613b1d565b611cca8383613ee2565b52613ee2565b506000526007602052604060002060018060a01b0384166000526020528c611d018260ff6040600020541692613ee2565b9015159052613da7565b8a90611bcc565b845483526001948501948a945060209093019201611b7a565b60405162461bcd60e51b815260206004820152601860248201527f436861696e526174653a206e6f7420612073747564656e7400000000000000006044820152606490fd5b506000546001600160a01b03163314611a5f565b346104f65760003660031901126104f65760206040517fd16e204b8a42a15ab0ea6bb8ec1ecdfbe69f38074fc865323af19efe7d9573d98152f35b346104f65760003660031901126104f65760206040517fa49807205ce4d355092ef5a8a18f56e8913cf4a201fbe287825b095693c217758152f35b346104f65760603660031901126104f6576004358060005260026020528060406000205414611e2890613db6565b604435602435611e3792614376565b946101e09796979491949392935190604051988998610120808b528a01611e5d9161387f565b89810360208b0152611e6e91613939565b88810360408a0152611e7f916139e2565b8781036060890152611e909161387f565b8681036080880152611ea191613cc1565b85810360a0870152611eb291613cc1565b84810360c0860152611ec391613cc1565b83810360e0850152611ed491613cc1565b8281036101008401526105c891613cf8565b346104f657611ef436613a3e565b90600052600c602052604060002080548210156104f6576020916109f291613921565b346104f6576105c8611f53611f2b36613a3e565b9033600052600460205260ff604060002054168015611f69575b611f4e90614abf565b614b0b565b95604099979995919594929451998a998a613c19565b506000546001600160a01b03163314611f45565b346104f65760003660031901126104f6576020601054604051908152f35b346104f65760203660031901126104f6576001600160a01b03611fbc613976565b1660005260016020526040600020604051611fd681613a8e565b611fdf82613b1d565b815260e0611fef60018401613b1d565b92602083019384526120e260a06120d461200b60028501613b1d565b604087019081526120c661202160038701613b1d565b95606089019687526120b860ff600861203c60048501613b1d565b9360808d019485528c61205160058301613b1d565b998a9101528c60c060068301549101528c60078201549c8d9101520154161515976120aa6101009b8a8d820152519c519551915193519561209c6040519e8f9e8f81815201906139a2565b8d810360208f0152906139a2565b908b820360408d01526139a2565b9089820360608b01526139a2565b9087820360808901526139a2565b9085820360a08701526139a2565b9160c084015260e08301520390f35b346104f65760203660031901126104f65760e06121286004358060005260026020526121238160406000205414613db6565b614033565b94604094919493929351968752602087015260408601526060850152608084015260a083015260c0820152f35b346104f6576020806003193601126104f65760043580600052600282526121828160406000205414613db6565b600052600c8152604060002090604051808383829554938481520190600052836000209260005b858282106121c0575050506108cb92500383613afc565b85546001600160a01b03168452600195860195889550930192016121a9565b346104f6576020806003193601126104f65760043590816000526002815261220d8260406000205414613db6565b336000526006815260ff6040600020541680156123c7575b61222e90613e01565b816000526002815260ff60056040600020015416156123835781600052600a8152604060002033600052815260ff604060002054166123265781600052600a815260406000203360005281526040600020600160ff19825416179055600b815261229c826040600020613e4c565b81600052600c8152604060002090815491600160401b83101561044d57826122cb916001600295018155613921565b81549060031b9033821b9160018060a01b03901b1916179055826000525260066040600020016122fb8154613da7565b905533907f9f84e7caf9247b5be496d99d1d314ac8b4dce0d0fd7abb0ed925801f614b008d600080a3005b6084906040519062461bcd60e51b82526004820152603060248201527f436861696e526174653a2073747564656e742068617320616c7265616479206a60448201526f6f696e65642074686520636f7572736560801b6064820152fd5b6064906040519062461bcd60e51b82526004820152601f60248201527f436861696e526174653a20636f75727365206973206e6f7420616374697665006044820152fd5b506000546001600160a01b03163314612225565b346104f6576101003660031901126104f6576004356001600160401b0381116104f65761240c903690600401613bc3565b6024356001600160401b0381116104f65761242b903690600401613bc3565b6044356001600160401b0381116104f65761244a903690600401613bc3565b6064356001600160401b0381116104f657612469903690600401613bc3565b6084356001600160401b0381116104f657612488903690600401613bc3565b9060a4356001600160401b0381116104f6576124a8903690600401613bc3565b9233600052600160205260ff60086040600020015416612d6a57604051946124cf86613a8e565b868652602086015260408501526060840152608083015260a082015260c43560c082015260e43560e0820152600161010082015233600052600160205260406000209080519283516001600160401b03811161044d5761252f8454613a54565b601f8111612d38575b506020601f8211600114612ccf578192939495600092612cc4575b50508160011b916000199060031b1c19161783555b60208201519283516001600160401b03811161044d5761258b6001830154613a54565b601f8111612c8f575b506020601f8211600114612c20578192939495600092612c15575b50508160011b916000199060031b1c19161760018201555b60408301519283516001600160401b03811161044d576125ea6002840154613a54565b601f8111612be0575b506020601f8211600114612b71578192939495600092612b66575b50508160011b916000199060031b1c19161760028301555b60608101519283516001600160401b03811161044d576126496003850154613a54565b601f8111612b31575b506020601f8211600114612ac2578192939495600092612ab7575b50508160011b916000199060031b1c19161760038401555b60808201519283516001600160401b03811161044d576126a86004830154613a54565b601f8111612a82575b506020601f8211600114612a13578192939495600092612a08575b50508160011b916000199060031b1c19161760048201555b60a08301519283516001600160401b03811161044d576127076005840154613a54565b601f81116129d3575b506020601f821160011461295a57918161010092600894612777979860009261294f575b50508160011b916000199060031b1c19161760058501555b60c0810151600685015560e081015160078501550151151591019060ff801983541691151516179055565b60e4357fa49807205ce4d355092ef5a8a18f56e8913cf4a201fbe287825b095693c217750361286c573360005260046020526040600020600160ff19825416179055600f54600160401b81101561044d576001810180600f5581101561285657600f6000527f8d1108e10bcb7c27dddfc02ed9d693a074039d026cf4ea4240b40f7d581ac8020180546001600160a01b031916331790555b7fccd232d370002532b298c205b90d1c287a6f1913b8c7113733b47a81fece11a0612845604051926040845260408401906139a2565b9160e43560208201528033930390a2005b634e487b7160e01b600052603260045260246000fd5b60e4357fd16e204b8a42a15ab0ea6bb8ec1ecdfbe69f38074fc865323af19efe7d9573d9036128ee573360005260056020526040600020600160ff19825416179055600e54600160401b81101561044d578060016128cd9201600e556138b3565b81546001600160a01b0360039290921b91821b19163390911b17905561280f565b7f36a5c4aaacb6b388bbd448bf11096b7dafc5652bcc9046084fd0e95b1fb0b2cc60e4350361280f573360005260066020526040600020600160ff19825416179055600d54600160401b81101561044d578060016128cd9201600d556138ea565b015190508880612734565b6005840160005260206000209560005b601f19841681106129bb57508261277796976008959360019361010096601f198116106129a2575b505050811b01600585015561274c565b015160001960f88460031b161c19169055888080612992565b8282015188556001909701966020928301920161296a565b612a0290600585016000526020600020601f840160051c8101916020851061044357601f0160051c0190613d45565b85612710565b0151905085806126cc565b6004830160005260206000209060005b601f1984168110612a6a575060019394959683601f19811610612a51575b505050811b0160048201556126e4565b015160001960f88460031b161c19169055858080612a41565b9091602060018192858b015181550193019101612a23565b612ab190600484016000526020600020601f840160051c8101916020851061044357601f0160051c0190613d45565b856126b1565b01519050858061266d565b6003850160005260206000209060005b601f1984168110612b19575060019394959683601f19811610612b00575b505050811b016003840155612685565b015160001960f88460031b161c19169055858080612af0565b9091602060018192858b015181550193019101612ad2565b612b6090600386016000526020600020601f840160051c8101916020851061044357601f0160051c0190613d45565b85612652565b01519050858061260e565b6002840160005260206000209060005b601f1984168110612bc8575060019394959683601f19811610612baf575b505050811b016002830155612626565b015160001960f88460031b161c19169055858080612b9f565b9091602060018192858b015181550193019101612b81565b612c0f90600285016000526020600020601f840160051c8101916020851061044357601f0160051c0190613d45565b856125f3565b0151905085806125af565b6001830160005260206000209060005b601f1984168110612c77575060019394959683601f19811610612c5e575b505050811b0160018201556125c7565b015160001960f88460031b161c19169055858080612c4e565b9091602060018192858b015181550193019101612c30565b612cbe90600184016000526020600020601f840160051c8101916020851061044357601f0160051c0190613d45565b85612594565b015190508580612553565b8460005260206000209060005b601f1984168110612d20575060019394959683601f19811610612d07575b505050811b018355612568565b015160001960f88460031b161c19169055858080612cfa565b9091602060018192858b015181550193019101612cdc565b612d6490856000526020600020601f840160051c8101916020851061044357601f0160051c0190613d45565b85612538565b60405162461bcd60e51b815260206004820152602260248201527f436861696e526174653a207573657220616c7265616479207265676973746572604482015261195960f21b6064820152608490fd5b346104f65760203660031901126104f657600435600e548110156104f6576109f26020916138b3565b346104f65760003660031901126104f6576010546000805b828110612e775750612e0c90614001565b906000805b828110612e2e57604051602080825281906105c89082018761387f565b80600052600260205260ff60056040600020015416612e56575b612e5190613da7565b612e11565b90612e6f8183612e69612e519488613ee2565b52613da7565b919050612e48565b80600052600260205260ff60056040600020015416612e9f575b612e9a90613da7565b612dfb565b90612eac612e9a91613da7565b919050612e91565b346104f65760203660031901126104f6576004358060005260036020528060406000205403613088576000526003602052604060002060405190612ef782613aaa565b805482526001808201546001600160a01b03166020840152600282015460408401526003820154606084015290612f3060048201613b1d565b608084015260058101918254612f4581613d2e565b93612f536040519586613afc565b818552602085019060005260206000206000915b83831061306c5787876006888260a0850152015460ff808216151560c0850152808260081c1660e0850152808260101c16610100850152808260181c16610120850152808260201c16610140850152808260281c16151561016085015261302284519361301460018060a01b03602088015116966040810151906080606082015191015191604051998a998a5260208a0152604089015260608801526101808060808901528701906139a2565b9085820360a08701526139e2565b91818116151560c0850152818160081c1660e0850152818160101c16610100850152818160181c16610120850152818160201c1661014085015260281c1615156101608301520390f35b846020819261307a85613b1d565b815201920192019190612f67565b60405162461bcd60e51b8152602060048201526024808201527f436861696e526174653a206576616c756174696f6e20646f6573206e6f7420656044820152631e1a5cdd60e21b6064820152608490fd5b346104f65760203660031901126104f6576001600160a01b036130fa613976565b166000526004602052602060ff604060002054166040519015158152f35b346104f65760203660031901126104f65760043560005260036020526040600020805460018060a01b03600183015416916131916002820154916003810154600661316560048401613b1d565b9201549360405196879687526020870152604086015260608501526101608060808601528401906139a2565b9060ff90818116151560a0850152818160081c1660c0850152818160101c1660e0850152818160181c16610100850152818160201c1661012085015260281c1615156101408301520390f35b346104f65760203660031901126104f6576131f6613976565b33600052600460205260ff604060002054168015613549575b61321890614abf565b6001600160a01b03811660009081526005602052604090205460ff16156135045760018060a01b038116600052600160205260406000206040519061325c82613a8e565b61326581613b1d565b825261327360018201613b1d565b602083015261328460028201613b1d565b604083015261329560038201613b1d565b60608301526132a660048201613b1d565b608083015260ff60086132bb60058401613b1d565b928360a0860152600681015460c0860152600781015460e086015201541615156101008301528151916020810151936040820151916080606082015191015193600094600092600094600090600090601054915b8281106133cf575050861590506133c6576064810290808204606414901517156107bd578561333d91613f03565b955b604051998a99610140808c528b01613356916139a2565b8a810360208c0152613367916139a2565b89810360408b0152613378916139a2565b88810360608a0152613389916139a2565b878103608089015261339a916139a2565b86810360a08801526133ab916139a2565b9360c086015260e08501526101008401526101208301520390f35b5060009561333f565b6000818152600260205260409020600101546001600160a01b03838116911614613402575b6133fd90613da7565b61330f565b9a96959193929894909b979961341a61343391613da7565b968c600052600260205260066040600020015490613ef6565b928b600052600960205260406000209a604051809c8d91602082549182815201916000526020600020906000905b8082106134e85750505081613484939261347c920390613afc565b8c5190613ef6565b9460009a5b8c518c10156134ce576134c26134c8916134a48f8f90613ee2565b51600052600360205260ff60066040600020015460081c1690613ef6565b9b613da7565b9a613489565b94989c9093979b506133fd9195999d92969a5090506133f4565b919350916001602081928654815201940192018f939291613461565b60405162461bcd60e51b815260206004820152601860248201527f436861696e526174653a206e6f742061207465616368657200000000000000006044820152606490fd5b506000546001600160a01b0316331461320f565b346104f65761356b36613a3e565b906000526009602052604060002080548210156104f65760209161054591613921565b346104f65760203660031901126104f65760206135c460043580600052600283526135bf8160406000205414613db6565b613f23565b604051908152f35b346104f65760203660031901126104f657336000526001602052602060043560066040600020015414604051908152f35b346104f65760203660031901126104f65761367061367e6105c861368c61362a613625613976565b61475e565b91959497929398906136626101a051976101c051966040519c8d9c8d5260208d015260408c01526101008060608d01528b019061387f565b9089820360808b01526139e2565b9087820360a089015261387f565b9085820360c087015261387f565b9083820360e085015261387f565b346104f65760003660031901126104f6573360005260206004815260ff60406000205416801561373d575b6136ce90614abf565b60405190818282600e549283815201600e6000527fbb7b4a454dc3493923482f07822329ed19e8244eff582cc204f8554c3620c3fd9260005b8582821061371e575050506108cb92500383613afc565b85546001600160a01b0316845260019586019588955093019201613707565b506000546001600160a01b031633146136c5565b346104f65760203660031901126104f657600435600f548110156104f657600f6000527f8d1108e10bcb7c27dddfc02ed9d693a074039d026cf4ea4240b40f7d581ac80201546040516001600160a01b039091168152602090f35b346104f65760003660031901126104f6576010546137c981614001565b9060005b8181106137ea57604051602080825281906105c89082018661387f565b8080612e696137f99386613ee2565b6137cd565b346104f6576020806003193601126104f657600435806000526002825261382b8160406000205414613db6565b60005260098152604060002090604051808383829554938481520190600052836000209260005b85828210613869575050506105b492500383613afc565b8554845260019586019588955093019201613852565b90815180825260208080930193019160005b82811061389f575050505090565b835185529381019392810192600101613891565b600e5481101561285657600e6000527fbb7b4a454dc3493923482f07822329ed19e8244eff582cc204f8554c3620c3fd0190600090565b600d5481101561285657600d6000527fd7b6990105719101dabeb77144f2a3385c8033acd3af97e9423a695e81ad1eb50190600090565b80548210156128565760005260206000200190600090565b90815180825260208080930193019160005b828110613959575050505090565b83516001600160a01b03168552938101939281019260010161394b565b600435906001600160a01b03821682036104f657565b602435906001600160a01b03821682036104f657565b919082519283825260005b8481106139ce575050826000602080949584010152601f8019910116010190565b6020818301810151848301820152016139ad565b908082519081815260208091019281808460051b8301019501936000915b848310613a105750505050505090565b9091929394958480613a2e600193601f198682030187528a516139a2565b9801930193019194939290613a00565b60409060031901126104f6576004359060243590565b90600182811c92168015613a84575b6020831014613a6e57565b634e487b7160e01b600052602260045260246000fd5b91607f1691613a63565b61012081019081106001600160401b0382111761044d57604052565b61018081019081106001600160401b0382111761044d57604052565b60e081019081106001600160401b0382111761044d57604052565b602081019081106001600160401b0382111761044d57604052565b90601f801991011681019081106001600160401b0382111761044d57604052565b9060405191826000825492613b3184613a54565b908184526001948581169081600014613ba05750600114613b5d575b5050613b5b92500383613afc565b565b9093915060005260209081600020936000915b818310613b88575050613b5b93508201013880613b4d565b85548884018501529485019487945091830191613b70565b915050613b5b94506020925060ff191682840152151560051b8201013880613b4d565b81601f820112156104f6578035906001600160401b03821161044d5760405192613bf7601f8401601f191660200185613afc565b828452602083830101116104f657816000926020809301838601378301015290565b9794613c8590613c77613ca196613c698c613cbe9e9c98613c5b613c9399613c4d613caf9f9a610120808752860190613939565b9084820360208601526139e2565b9160408184039101526139e2565b8c810360608e0152906139e2565b908a820360808c01526139e2565b9088820360a08a01526139e2565b9086820360c08801526139e2565b9084820360e086015261387f565b9161010081840391015261387f565b90565b90815180825260208080930193019160005b828110613ce1575050505090565b835160ff1685529381019392810192600101613cd3565b90815180825260208080930193019160005b828110613d18575050505090565b8351151585529381019392810192600101613d0a565b6001600160401b03811161044d5760051b60200190565b818110613d50575050565b60008155600101613d45565b15613d6357565b606460405162461bcd60e51b815260206004820152602060248201527f436861696e526174653a2063616c6c6572206973206e6f7420746561636865726044820152fd5b60001981146107bd5760010190565b15613dbd57565b606460405162461bcd60e51b815260206004820152602060248201527f436861696e526174653a20636f7572736520646f6573206e6f742065786973746044820152fd5b15613e0857565b606460405162461bcd60e51b815260206004820152602060248201527f436861696e526174653a2063616c6c6572206973206e6f742073747564656e746044820152fd5b8054600160401b81101561044d57613e6991600182018155613921565b819291549060031b91821b91600019901b1916179055565b15613e8857565b60405162461bcd60e51b815260206004820152602c60248201527f436861696e526174653a2073747564656e7420686173206e6f74206a6f696e6560448201526b642074686520636f7572736560a01b6064820152608490fd5b80518210156128565760209160051b010190565b919082018092116107bd57565b8115613f0d570490565b634e487b7160e01b600052601260045260246000fd5b9060009182526020600981526040808420918151808483829654938481520190885283882092885b85828210613feb57505050613f6292500384613afc565b825115613fe6578492835b8151851015613fad57613fa1613fa791613f878785613ee2565b5189526003855260ff6006878b20015460081c1690613ef6565b94613da7565b93613f6d565b9350915050606482029180830460641490151715613fd257613cbe9293505190613f03565b634e487b7160e01b84526011600452602484fd5b505050565b8554845260019586019589955093019201613f4b565b9061400b82613d2e565b6140186040519182613afc565b8281528092614029601f1991613d2e565b0190602036910137565b60005260096020526040600020906040518083602082955493848152019060005260206000209260005b81811061430657505061407292500383613afc565b815180156142f3576000926000806000916000936000956000985b82518a1015614270576140a08a84613ee2565b516000526003806020526040600020906140c0604051806101e052613aaa565b81546101e0515260018060a01b0360018301541660206101e0510152600282015460406101e051015281015460606101e051015261410060048201613b1d565b60806101e0510152600581015461411681613d2e565b906141246040519283613afc565b80825260208201600584016000526020600020906000905b83821061425357505050506141c76142009360ff60066141ed956141da9560a06101e05101520154818116151560c06101e0510152818160081c1660e06101e0510152818160101c166101006101e0510152818160181c166101206101e0510152818160201c166101406101e0510152818160281c1615156101606101e051015260081c1690613ef6565b9560ff6101006101e05101511690613ef6565b9560ff6101206101e05101511690613ef6565b9560ff6101406101e05101511690613ef6565b9860c06101e0510151614243575b60806101e05101515161422e575b61422590613da7565b9894939261408d565b9661423b61422591613da7565b97905061421c565b9561424d90613da7565b9561420e565b60016020819261426286613b1d565b81520193019101909161413c565b91509750959095949194939293606490818102908082048314901517156107bd578861429b91613f03565b96818102908082048314901517156107bd57886142b791613f03565b95818102908082048314901517156107bd57886142d391613f03565b948181029181830414901517156107bd57876142ee91613f03565b929190565b5060009150819081908190819081908190565b845483526001948501948794506020909301920161405d565b9061432982613d2e565b6143366040519182613afc565b8281528092614347601f1991613d2e565b019060005b82811061435857505050565b80606060208093850101520161434c565b919082039182116107bd57565b60006101e05260005260096020526040600020906040518083602082955493848152019060005260206000209260005b8181106147455750506143bb92500383613afc565b81518082101561469c57816143cf91614369565b92808411614694575b506143e283614001565b936143ec84614001565b936143f68161431f565b9361440082614001565b6101e05261440d82614001565b9361441783614001565b9361442184614001565b9361442b81614001565b9361443582614001565b9360005b8381106144465750505050565b61445e614458829b9e9d9c9b84613ef6565b84613ee2565b516000526003908160205260406000206040519261447b84613aaa565b8154845260018201546001600160a01b031660208501526002820154604085015281015460608401526144b060048201613b1d565b60808401526005810180546144c481613d2e565b916144d26040519384613afc565b81835260208301906000526020600020906000905b83821061467757505050509d9e9b9c9d60ff9160069160a08601520154818116151560c0850152818160081c1660e0850152818160101c16610100850152818160181c16610120850152818160201c1661014085015260281c1615156101608301528d61455682845192613ee2565b5260208201516001600160a01b031661456f828f613ee2565b528b60c0830151156000146146225761461d926145ab8360c09360018060a01b036020850151166000526001602052611cc06040600020613b1d565b505b60608101516145bf846101e051613ee2565b5260e081015160ff166145d2848f613ee2565b5261010081015160ff166145e6848e613ee2565b5260ff610120820151166145fa848d613ee2565b5260ff6101408201511661460e848c613ee2565b5201511515612e698289613ee2565b614439565b506040518060408101106001600160401b0360408301111761044d5761461d92614671838f84604060c096016040526009815268416e6f6e796d6f757360b81b6020820152611cca8383613ee2565b506145ad565b60016020819261468686613b1d565b8152019301910190916144e7565b9250386143d8565b505050506040516146ac81613ae1565b60008152604051916146bd83613ae1565b60008352604051916146ce83613ae1565b60008352604051916146df83613ae1565b600083526040516146ef81613ae1565b600081526040519261470084613ae1565b600084526040519261471184613ae1565b600084526040519261472284613ae1565b600084526040519261473384613ae1565b600084529897966101e0529493929190565b84548352600194850194879450602090930192016143a6565b60006101c05260006101a052600091600092601054935b848110614a77575080938115614a085761478e82614001565b916147988161431f565b916147b86147a583614001565b926147af81614001565b6101c052614001565b6101a0526000806101605260009660005b8381106147dc5750505050610160519493565b600081815260026020526040902060018101546001600160a01b039081169084168114614814575b505061480f90613da7565b6147c9565b60209b949993959a989297916006916040519d8e61483181613ac6565b8354815201528c604061484660028401613b1d565b910152600381015460608e0152600481015460808e0152600581015460ff16151560a08e0152015460c08c01528661487e8a84613ee2565b5260408b015161488e8a83613ee2565b526148998982613ee2565b5060c08b01516148a98a88613ee2565b528660005260096020526040600020806101e05260206040519182610180525491828152016101e0516000526020600020916000905b8082106149ef5750506148fa91506101805180910390613afc565b610180515161490c8a6101c051613ee2565b526101805151156149c157600095865b61018051805189101561494657614940916134a48a61493a93613ee2565b97613da7565b9661491c565b509096509a9096939a99949298999791976064908181029181830414901517156107bd5761480f926149a460c06149b9948e61499761498d6149b397610180515190613f03565b916101a051613ee2565b525b015161016051613ef6565b61016052610180515190613ef6565b99613da7565b929038614804565b9592996149b361480f92986149a460c06149b99460008e9f9a989e6149e9906101a051613ee2565b52614999565b83548352600193840193602090930192909101906148df565b5050915050604051614a1981613ae1565b6000815260405190614a2a82613ae1565b6000825260405191614a3b83613ae1565b6000835260405192614a4c84613ae1565b6000845260405193614a5d85613ae1565b600085526000956000956000959493926101c0526101a052565b6000818152600260205260409020600101546001600160a01b03858116911614614aaa575b614aa590613da7565b614775565b90614ab7614aa591613da7565b919050614a9c565b15614ac657565b60405162461bcd60e51b815260206004820152601e60248201527f436861696e526174653a2063616c6c6572206973206e6f742061646d696e00006044820152606490fd5b600d5480821015614d295781614b2091614369565b91808311614d21575b50614b3382614001565b92614b3d8361431f565b92614b478161431f565b92614b518261431f565b92614b5b8361431f565b92614b658161431f565b92614b6f8261431f565b92614b7983614001565b92614b8381614001565b9260008b8b8e5b858410614b9957505050505050565b8c8c8580614ba7818a613ef6565b614bb0906138ea565b9054600391821b1c6001600160a01b03169590918691614bd09190613ee2565b5284600052600193602096858852604098848a600020614bef90613b1d565b614bf98284613ee2565b52614c0391613ee2565b508660005285885283868a60002001614c1b90613b1d565b614c258284613ee2565b52614c2f91613ee2565b50856000528487528288600020600201614c4890613b1d565b614c528284613ee2565b52614c5c91613ee2565b50846000528386528660002001614c7290613b1d565b614c7c8284613ee2565b52614c8691613ee2565b5081600052808352848c85600020600401614ca090613b1d565b91614caa91613ee2565b52614cb5858d613ee2565b5081600052825282600020600501614ccc90613b1d565b614cd6858c613ee2565b52614ce1848b613ee2565b5080600052600b82528260002054614cf9858b613ee2565b526000526008905260002054614d0f8287613ee2565b52614d1990613da7565b8b8b8e614b8a565b915038614b29565b5050506040805190614d3a82613ae1565b6000808352815193614d4b85613ae1565b818552825193614d5a85613ae1565b828552835193614d6985613ae1565b838552805193614d7885613ae1565b808552815193614d8785613ae1565b818552825193614d9685613ae1565b828552835193614da585613ae1565b8385525192614db384613ae1565b808452368137989796959493929190565b91600060a052600060805260006101c05260006101205260006101e052600061014052600e548084101561523d5783614dfc91614369565b91808311615235575b50614e0f82614001565b60a052614e1b8261431f565b608052614e278261431f565b6101c052614e348261431f565b61012052614e418261431f565b6101e052614e4e8261431f565b614e578361431f565b91614e6184614001565b91614e6b85614001565b61014052600061010052601054935b610100518681101561522b57614e93614e989189613ef6565b6138b3565b9690548060c05260018060a01b03908860031b1c16614ebc6101005160a051613ee2565b5260018060a01b0360c0518860031b1c166000526001602052614ee26040600020613b1d565b614ef161010051608051613ee2565b52614f0161010051608051613ee2565b5060018060a01b0360c0518860031b1c166000526001602052614f2a6001604060002001613b1d565b614f3a610100516101c051613ee2565b52614f4b610100516101c051613ee2565b5060018060a01b0360c0518860031b1c166000526001602052614f746002604060002001613b1d565b614f846101005161012051613ee2565b52614f956101005161012051613ee2565b5060018060a01b0360c0518860031b1c166000526001602052614fbe6003604060002001613b1d565b614fce610100516101e051613ee2565b52614fdf610100516101e051613ee2565b5060018060a01b0360c0518860031b1c1660005260016020526150086004604060002001613b1d565b6150156101005185613ee2565b526150236101005184613ee2565b5060018060a01b0360c0518860031b1c16600052600160205261504c6005604060002001613b1d565b6150596101005184613ee2565b526150676101005183613ee2565b5060006101805260009760006101a0526000610160525b61016051878110156151a357600052600260205260018060a01b0360c0518960031b1c1660018060a01b0360016040600020015416146150ce575b6150c561016051613da7565b6101605261507e565b6150da61018051613da7565b610180526101605160005260096020526040600020604051908160e052602081549283815201906000526020600020916000905b80821061518a575050615128915060e05180910390613afc565b60e05151156150b95792909694959793916000945b60e051805187101561516657615160916134a48861515a93613ee2565b95613da7565b9461513d565b509896959791939092945061518160e051516101a051613ef6565b6101a0526150b9565b835483526001938401936020909301929091019061510e565b5092965092909396610180516151bc610100518a613ee2565b526101a05115615212576064908181029181830414901517156107bd576101a0516151e691613f03565b6151f66101005161014051613ee2565b525b61520461010051613da7565b610100529194909592614e7a565b5060006152256101005161014051613ee2565b526151f8565b5094509450909150565b915038614e05565b5091505060405161524d81613ae1565b600081526040519061525e82613ae1565b600082526040519261526f84613ae1565b6000845260405161527f81613ae1565b6000815260405161528f81613ae1565b60008152604051916152a083613ae1565b60008352604051966152b188613ae1565b60008852604051966152c288613ae1565b60008852604051966152d388613ae1565b6000885260a0526080526101c052610120526101e0529392916101405256fea26469706673582212205d4c4951ce3b8b123d7d132bf4a8641448b1fa7cf1eff0cd76f3a70c366ffa4664736f6c63430008140033",
  "linkReferences": {},
  "deployedLinkReferences": {}
}