{
  "_format": "hh-sol-artifact-1",
  "contractName": "ChainRate",
  "sourceName": "contracts/ChainRate.sol",
  "abi": [
    {
      "inputs": [],
      "stateMutability": "nonpayable",
      "type": "constructor"
    },
    {
      "anonymous": false,
      "inputs": [
        {
          "indexed": true,
          "internalType": "uint256",
          "name": "courseId",
          "type": "uint256"
        },
        {
          "indexed": true,
          "internalType": "address",
          "name": "teacher",
          "type": "address"
        },
        {
          "indexed": false,
          "internalType": "string",
          "name": "name",
          "type": "string"
        }
      ],
      "name": "CourseCreated",
      "type": "event"
    },
    {
      "anonymous": false,
      "inputs": [
        {
          "indexed": true,
          "internalType": "uint256",
          "name": "courseId",
          "type": "uint256"
        },
        {
          "indexed": true,
          "internalType": "address",
          "name": "student",
          "type": "address"
        }
      ],
      "name": "CourseJoined",
      "type": "event"
    },
    {
      "anonymous": false,
      "inputs": [
        {
          "indexed": true,
          "internalType": "uint256",
          "name": "courseId",
          "type": "uint256"
        },
        {
          "indexed": true,
          "internalType": "address",
          "name": "student",
          "type": "address"
        }
      ],
      "name": "CourseLeft",
      "type": "event"
    },
    {
      "anonymous": false,
      "inputs": [
        {
          "indexed": true,
          "internalType": "uint256",
          "name": "courseId",
          "type": "uint256"
        },
        {
          "indexed": true,
          "internalType": "address",
          "name": "teacher",
          "type": "address"
        }
      ],
      "name": "CourseUpdated",
      "type": "event"
    },
    {
      "anonymous": false,
      "inputs": [
        {
          "indexed": true,
          "internalType": "uint256",
          "name": "evaluationId",
          "type": "uint256"
        },
        {
          "indexed": true,
          "internalType": "address",
          "name": "student",
          "type": "address"
        },
        {
          "indexed": true,
          "internalType": "uint256",
          "name": "courseId",
          "type": "uint256"
        }
      ],
      "name": "EvaluationSubmitted",
      "type": "event"
    },
    {
      "anonymous": false,
      "inputs": [
        {
          "indexed": true,
          "internalType": "uint256",
          "name": "evaluationId",
          "type": "uint256"
        },
        {
          "indexed": true,
          "internalType": "address",
          "name": "student",
          "type": "address"
        }
      ],
      "name": "EvaluationUpdated",
      "type": "event"
    },
    {
      "anonymous": false,
      "inputs": [
        {
          "indexed": true,
          "internalType": "address",
          "name": "user",
          "type": "address"
        },
        {
          "indexed": false,
          "internalType": "string",
          "name": "name",
          "type": "string"
        },
        {
          "indexed": false,
          "internalType": "bytes32",
          "name": "role",
          "type": "bytes32"
        }
      ],
      "name": "UserRegistered",
      "type": "event"
    },
    {
      "inputs": [],
      "name": "ADMIN_ROLE",
      "outputs": [
        {
          "internalType": "bytes32",
          "name": "",
          "type": "bytes32"
        }
      ],
      "stateMutability": "view",
      "type": "function"
    },
    {
      "inputs": [],
      "name": "STUDENT_ROLE",
      "outputs": [
        {
          "internalType": "bytes32",
          "name": "",
          "type": "bytes32"
        }
      ],
      "stateMutability": "view",
      "type": "function"
    },
    {
      "inputs": [],
      "name": "TEACHER_ROLE",
      "outputs": [
        {
          "internalType": "bytes32",
          "name": "",
          "type": "bytes32"
        }
      ],
      "stateMutability": "view",
      "type": "function"
    },
    {
      "inputs": [
        {
          "internalType": "address",
          "name": "",
          "type": "address"
        }
      ],
      "name": "admins",
      "outputs": [
        {
          "internalType": "bool",
          "name": "",
          "type": "bool"
        }
      ],
      "stateMutability": "view",
      "type": "function"
    },
    {
      "inputs": [],
      "name": "courseCount",
      "outputs": [
        {
          "internalType": "uint256",
          "name": "",
          "type": "uint256"
        }
      ],
      "stateMutability": "view",
      "type": "function"
    },
    {
      "inputs": [
        {
          "internalType": "uint256",
          "name": "",
          "type": "uint256"
        },
        {
          "internalType": "uint256",
          "name": "",
          "type": "uint256"
        }
      ],
      "name": "courseEvaluations",
      "outputs": [
        {
          "internalType": "uint256",
          "name": "",
          "type": "uint256"
        }
      ],
      "stateMutability": "view",
      "type": "function"
    },
    {
      "inputs": [
        {
          "internalType": "uint256",
          "name": "",
          "type": "uint256"
        },
        {
          "internalType": "uint256",
          "name": "",
          "type": "uint256"
        }
      ],
      "name": "courseStudents",
      "outputs": [
        {
          "internalType": "address",
          "name": "",
          "type": "address"
        }
      ],
      "stateMutability": "view",
      "type": "function"
    },
    {
      "inputs": [
        {
          "internalType": "uint256",
          "name": "",
          "type": "uint256"
        }
      ],
      "name": "courses",
      "outputs": [
        {
          "internalType": "uint256",
          "name": "id",
          "type": "uint256"
        },
        {
          "internalType": "address",
          "name": "teacher",
          "type": "address"
        },
        {
          "internalType": "string",
          "name": "name",
          "type": "string"
        },
        {
          "internalType": "uint256",
          "name": "startTime",
          "type": "uint256"
        },
        {
          "internalType": "uint256",
          "name": "endTime",
          "type": "uint256"
        },
        {
          "internalType": "bool",
          "name": "isActive",
          "type": "bool"
        },
        {
          "internalType": "uint256",
          "name": "studentCount",
          "type": "uint256"
        }
      ],
      "stateMutability": "view",
      "type": "function"
    },
    {
      "inputs": [
        {
          "internalType": "string",
          "name": "name",
          "type": "string"
        },
        {
          "internalType": "uint256",
          "name": "startTime",
          "type": "uint256"
        },
        {
          "internalType": "uint256",
          "name": "endTime",
          "type": "uint256"
        }
      ],
      "name": "createCourse",
      "outputs": [
        {
          "internalType": "uint256",
          "name": "",
          "type": "uint256"
        }
      ],
      "stateMutability": "nonpayable",
      "type": "function"
    },
    {
      "inputs": [],
      "name": "evaluationCount",
      "outputs": [
        {
          "internalType": "uint256",
          "name": "",
          "type": "uint256"
        }
      ],
      "stateMutability": "view",
      "type": "function"
    },
    {
      "inputs": [
        {
          "internalType": "uint256",
          "name": "",
          "type": "uint256"
        }
      ],
      "name": "evaluations",
      "outputs": [
        {
          "internalType": "uint256",
          "name": "id",
          "type": "uint256"
        },
        {
          "internalType": "address",
          "name": "student",
          "type": "address"
        },
        {
          "internalType": "uint256",
          "name": "courseId",
          "type": "uint256"
        },
        {
          "internalType": "uint256",
          "name": "timestamp",
          "type": "uint256"
        },
        {
          "internalType": "string",
          "name": "contentHash",
          "type": "string"
        },
        {
          "internalType": "bool",
          "name": "isAnonymous",
          "type": "bool"
        },
        {
          "internalType": "uint8",
          "name": "rating",
          "type": "uint8"
        },
        {
          "internalType": "bool",
          "name": "isActive",
          "type": "bool"
        }
      ],
      "stateMutability": "view",
      "type": "function"
    },
    {
      "inputs": [],
      "name": "getActiveCourses",
      "outputs": [
        {
          "internalType": "uint256[]",
          "name": "",
          "type": "uint256[]"
        }
      ],
      "stateMutability": "view",
      "type": "function"
    },
    {
      "inputs": [],
      "name": "getAllCourses",
      "outputs": [
        {
          "internalType": "uint256[]",
          "name": "",
          "type": "uint256[]"
        }
      ],
      "stateMutability": "view",
      "type": "function"
    },
    {
      "inputs": [
        {
          "internalType": "uint256",
          "name": "courseId",
          "type": "uint256"
        }
      ],
      "name": "getAverageRating",
      "outputs": [
        {
          "internalType": "uint256",
          "name": "",
          "type": "uint256"
        }
      ],
      "stateMutability": "view",
      "type": "function"
    },
    {
      "inputs": [
        {
          "internalType": "uint256",
          "name": "courseId",
          "type": "uint256"
        }
      ],
      "name": "getCourseEvaluations",
      "outputs": [
        {
          "internalType": "uint256[]",
          "name": "",
          "type": "uint256[]"
        }
      ],
      "stateMutability": "view",
      "type": "function"
    },
    {
      "inputs": [
        {
          "internalType": "uint256",
          "name": "courseId",
          "type": "uint256"
        }
      ],
      "name": "getCourseStudents",
      "outputs": [
        {
          "internalType": "address[]",
          "name": "",
          "type": "address[]"
        }
      ],
      "stateMutability": "view",
      "type": "function"
    },
    {
      "inputs": [
        {
          "internalType": "uint256",
          "name": "evaluationId",
          "type": "uint256"
        }
      ],
      "name": "getEvaluationDetails",
      "outputs": [
        {
          "internalType": "uint256",
          "name": "id",
          "type": "uint256"
        },
        {
          "internalType": "address",
          "name": "student",
          "type": "address"
        },
        {
          "internalType": "uint256",
          "name": "courseId",
          "type": "uint256"
        },
        {
          "internalType": "uint256",
          "name": "timestamp",
          "type": "uint256"
        },
        {
          "internalType": "string",
          "name": "contentHash",
          "type": "string"
        },
        {
          "internalType": "bool",
          "name": "isAnonymous",
          "type": "bool"
        },
        {
          "internalType": "uint8",
          "name": "rating",
          "type": "uint8"
        },
        {
          "internalType": "bool",
          "name": "isActive",
          "type": "bool"
        }
      ],
      "stateMutability": "view",
      "type": "function"
    },
    {
      "inputs": [
        {
          "internalType": "address",
          "name": "studentAddress",
          "type": "address"
        }
      ],
      "name": "getStudentCourses",
      "outputs": [
        {
          "internalType": "uint256[]",
          "name": "",
          "type": "uint256[]"
        }
      ],
      "stateMutability": "view",
      "type": "function"
    },
    {
      "inputs": [
        {
          "internalType": "address",
          "name": "studentAddress",
          "type": "address"
        }
      ],
      "name": "getStudentEvaluations",
      "outputs": [
        {
          "internalType": "uint256[]",
          "name": "",
          "type": "uint256[]"
        }
      ],
      "stateMutability": "view",
      "type": "function"
    },
    {
      "inputs": [
        {
          "internalType": "address",
          "name": "userAddress",
          "type": "address"
        }
      ],
      "name": "getUserInfo",
      "outputs": [
        {
          "internalType": "string",
          "name": "name",
          "type": "string"
        },
        {
          "internalType": "string",
          "name": "phone",
          "type": "string"
        },
        {
          "internalType": "bytes32",
          "name": "role",
          "type": "bytes32"
        },
        {
          "internalType": "bool",
          "name": "isRegistered",
          "type": "bool"
        }
      ],
      "stateMutability": "view",
      "type": "function"
    },
    {
      "inputs": [
        {
          "internalType": "uint256",
          "name": "",
          "type": "uint256"
        },
        {
          "internalType": "address",
          "name": "",
          "type": "address"
        }
      ],
      "name": "hasEvaluated",
      "outputs": [
        {
          "internalType": "bool",
          "name": "",
          "type": "bool"
        }
      ],
      "stateMutability": "view",
      "type": "function"
    },
    {
      "inputs": [
        {
          "internalType": "uint256",
          "name": "",
          "type": "uint256"
        },
        {
          "internalType": "address",
          "name": "",
          "type": "address"
        }
      ],
      "name": "hasJoinedCourse",
      "outputs": [
        {
          "internalType": "bool",
          "name": "",
          "type": "bool"
        }
      ],
      "stateMutability": "view",
      "type": "function"
    },
    {
      "inputs": [
        {
          "internalType": "uint256",
          "name": "courseId",
          "type": "uint256"
        },
        {
          "internalType": "address",
          "name": "studentAddress",
          "type": "address"
        }
      ],
      "name": "isStudentJoined",
      "outputs": [
        {
          "internalType": "bool",
          "name": "",
          "type": "bool"
        }
      ],
      "stateMutability": "view",
      "type": "function"
    },
    {
      "inputs": [
        {
          "internalType": "uint256",
          "name": "courseId",
          "type": "uint256"
        }
      ],
      "name": "joinCourse",
      "outputs": [],
      "stateMutability": "nonpayable",
      "type": "function"
    },
    {
      "inputs": [
        {
          "internalType": "uint256",
          "name": "courseId",
          "type": "uint256"
        }
      ],
      "name": "leaveCourse",
      "outputs": [],
      "stateMutability": "nonpayable",
      "type": "function"
    },
    {
      "inputs": [],
      "name": "owner",
      "outputs": [
        {
          "internalType": "address",
          "name": "",
          "type": "address"
        }
      ],
      "stateMutability": "view",
      "type": "function"
    },
    {
      "inputs": [
        {
          "internalType": "string",
          "name": "name",
          "type": "string"
        },
        {
          "internalType": "string",
          "name": "phone",
          "type": "string"
        },
        {
          "internalType": "bytes32",
          "name": "passwordHash",
          "type": "bytes32"
        },
        {
          "internalType": "bytes32",
          "name": "role",
          "type": "bytes32"
        }
      ],
      "name": "registerUser",
      "outputs": [],
      "stateMutability": "nonpayable",
      "type": "function"
    },
    {
      "inputs": [
        {
          "internalType": "address",
          "name": "",
          "type": "address"
        },
        {
          "internalType": "uint256",
          "name": "",
          "type": "uint256"
        }
      ],
      "name": "studentCourses",
      "outputs": [
        {
          "internalType": "uint256",
          "name": "",
          "type": "uint256"
        }
      ],
      "stateMutability": "view",
      "type": "function"
    },
    {
      "inputs": [
        {
          "internalType": "address",
          "name": "",
          "type": "address"
        },
        {
          "internalType": "uint256",
          "name": "",
          "type": "uint256"
        }
      ],
      "name": "studentEvaluations",
      "outputs": [
        {
          "internalType": "uint256",
          "name": "",
          "type": "uint256"
        }
      ],
      "stateMutability": "view",
      "type": "function"
    },
    {
      "inputs": [
        {
          "internalType": "address",
          "name": "",
          "type": "address"
        }
      ],
      "name": "students",
      "outputs": [
        {
          "internalType": "bool",
          "name": "",
          "type": "bool"
        }
      ],
      "stateMutability": "view",
      "type": "function"
    },
    {
      "inputs": [
        {
          "internalType": "uint256",
          "name": "courseId",
          "type": "uint256"
        },
        {
          "internalType": "string",
          "name": "contentHash",
          "type": "string"
        },
        {
          "internalType": "uint8",
          "name": "rating",
          "type": "uint8"
        },
        {
          "internalType": "bool",
          "name": "isAnonymous",
          "type": "bool"
        }
      ],
      "name": "submitEvaluation",
      "outputs": [
        {
          "internalType": "uint256",
          "name": "",
          "type": "uint256"
        }
      ],
      "stateMutability": "nonpayable",
      "type": "function"
    },
    {
      "inputs": [
        {
          "internalType": "address",
          "name": "",
          "type": "address"
        }
      ],
      "name": "teachers",
      "outputs": [
        {
          "internalType": "bool",
          "name": "",
          "type": "bool"
        }
      ],
      "stateMutability": "view",
      "type": "function"
    },
    {
      "inputs": [
        {
          "internalType": "uint256",
          "name": "courseId",
          "type": "uint256"
        },
        {
          "internalType": "string",
          "name": "name",
          "type": "string"
        },
        {
          "internalType": "uint256",
          "name": "startTime",
          "type": "uint256"
        },
        {
          "internalType": "uint256",
          "name": "endTime",
          "type": "uint256"
        },
        {
          "internalType": "bool",
          "name": "isActive",
          "type": "bool"
        }
      ],
      "name": "updateCourse",
      "outputs": [],
      "stateMutability": "nonpayable",
      "type": "function"
    },
    {
      "inputs": [
        {
          "internalType": "address",
          "name": "",
          "type": "address"
        }
      ],
      "name": "users",
      "outputs": [
        {
          "internalType": "string",
          "name": "name",
          "type": "string"
        },
        {
          "internalType": "string",
          "name": "phone",
          "type": "string"
        },
        {
          "internalType": "bytes32",
          "name": "passwordHash",
          "type": "bytes32"
        },
        {
          "internalType": "bytes32",
          "name": "role",
          "type": "bytes32"
        },
        {
          "internalType": "bool",
          "name": "isRegistered",
          "type": "bool"
        }
      ],
      "stateMutability": "view",
      "type": "function"
    },
    {
      "inputs": [
        {
          "internalType": "bytes32",
          "name": "passwordHash",
          "type": "bytes32"
        }
      ],
      "name": "verifyPassword",
      "outputs": [
        {
          "internalType": "bool",
          "name": "",
          "type": "bool"
        }
      ],
      "stateMutability": "view",
      "type": "function"
    }
  ],
  "bytecode": "0x608060405234801561001057600080fd5b50336000806101000a81548173ffffffffffffffffffffffffffffffffffffffff021916908373ffffffffffffffffffffffffffffffffffffffff1602179055506001600460003373ffffffffffffffffffffffffffffffffffffffff1673ffffffffffffffffffffffffffffffffffffffff16815260200190815260200160002060006101000a81548160ff021916908315150217905550614611806100b86000396000f3fe608060405234801561001057600080fd5b50600436106102115760003560e01c80638c3fe4f211610125578063cca09033116100ad578063f0a486b21161007c578063f0a486b214610717578063f7be43fb14610747578063fa3ef5a914610765578063fd95cc5114610795578063ffb24e9b146107c557610211565b8063cca090331461066b578063d40761e41461069b578063ed072a07146106cb578063f0a47f78146106e757610211565b8063a87430ba116100f4578063a87430ba1461059d578063ae0ec5e4146105d1578063bb0f34b014610601578063c8cd44d21461061d578063c9ace3f11461064d57610211565b80638c3fe4f2146104e95780638da5cb5b1461051957806396f979d214610537578063a6c807a91461056d57610211565b806358716cc5116101a85780636605515911610177578063660551591461042f5780636e274a341461044d5780636e2779571461047d57806375b238fc146104ad57806386e5c15a146104cb57610211565b806358716cc5146103925780635e8b20fd146103b057806360dd60e3146103cc5780636386c1c7146103fc57610211565b8063181c5c82116101e4578063181c5c82146102c457806333c63b17146102f4578063429b62e51461032b57806355172bc71461035b57610211565b8063016c14da1461021657806304e48bd11461024657806316ac3b121461026457806317b7e03e14610294575b600080fd5b610230600480360381019061022b9190612fdb565b6107e1565b60405161023d91906130c6565b60405180910390f35b61024e6108a6565b60405161025b91906130c6565b60405180910390f35b61027e6004803603810190610279919061311e565b61093f565b60405161028b9190613166565b60405180910390f35b6102ae60048036038101906102a99190612fdb565b61098d565b6040516102bb9190613190565b60405180910390f35b6102de60048036038101906102d991906131ab565b610af4565b6040516102eb9190613190565b60405180910390f35b61030e60048036038101906103099190612fdb565b610b25565b6040516103229897969594939291906132d8565b60405180910390f35b61034560048036038101906103409190613389565b610c3c565b6040516103529190613166565b60405180910390f35b61037560048036038101906103709190612fdb565b610c5c565b6040516103899897969594939291906132d8565b60405180910390f35b61039a610e83565b6040516103a791906130c6565b60405180910390f35b6103ca60048036038101906103c59190612fdb565b610faf565b005b6103e660048036038101906103e19190612fdb565b6113a2565b6040516103f39190613474565b60405180910390f35b61041660048036038101906104119190613389565b61149d565b60405161042694939291906134a5565b60405180910390f35b610437611668565b6040516104449190613190565b60405180910390f35b610467600480360381019061046291906131ab565b61166e565b60405161047491906134f8565b60405180910390f35b610497600480360381019061049291906136a0565b6116bc565b6040516104a49190613190565b60405180910390f35b6104b5611cca565b6040516104c29190613723565b60405180910390f35b6104d3611cee565b6040516104e09190613723565b60405180910390f35b61050360048036038101906104fe919061373e565b611d12565b6040516105109190613166565b60405180910390f35b610521611d41565b60405161052e91906134f8565b60405180910390f35b610551600480360381019061054c9190612fdb565b611d65565b604051610564979695949392919061377e565b60405180910390f35b61058760048036038101906105829190613389565b611e5c565b6040516105949190613166565b60405180910390f35b6105b760048036038101906105b29190613389565b611e7c565b6040516105c89594939291906137f4565b60405180910390f35b6105eb60048036038101906105e69190613855565b611fcf565b6040516105f89190613190565b60405180910390f35b61061b600480360381019061061691906138c4565b6122c6565b005b6106376004803603810190610632919061373e565b612602565b6040516106449190613166565b60405180910390f35b610655612631565b6040516106629190613190565b60405180910390f35b61068560048036038101906106809190613963565b612637565b6040516106929190613190565b60405180910390f35b6106b560048036038101906106b09190613389565b612668565b6040516106c291906130c6565b60405180910390f35b6106e560048036038101906106e09190612fdb565b6126ff565b005b61070160048036038101906106fc9190613389565b612a54565b60405161070e9190613166565b60405180910390f35b610731600480360381019061072c919061373e565b612a74565b60405161073e9190613166565b60405180910390f35b61074f612b36565b60405161075c9190613723565b60405180910390f35b61077f600480360381019061077a9190613389565b612b5a565b60405161078c91906130c6565b60405180910390f35b6107af60048036038101906107aa9190613963565b612bf1565b6040516107bc9190613190565b60405180910390f35b6107df60048036038101906107da91906139a3565b612c22565b005b6060818060026000838152602001908152602001600020600001541461083c576040517f08c379a000000000000000000000000000000000000000000000000000000000815260040161083390613a86565b60405180910390fd5b6009600084815260200190815260200160002080548060200260200160405190810160405280929190818152602001828054801561089957602002820191906000526020600020905b815481526020019060010190808311610885575b5050505050915050919050565b60606000600d5467ffffffffffffffff8111156108c6576108c561351d565b5b6040519080825280602002602001820160405280156108f45781602001602082028036833780820191505090505b50905060005b600d54811015610937578082828151811061091857610917613aa6565b5b602002602001018181525050808061092f90613b04565b9150506108fa565b508091505090565b600081600160003373ffffffffffffffffffffffffffffffffffffffff1673ffffffffffffffffffffffffffffffffffffffff16815260200190815260200160002060020154149050919050565b600081806002600083815260200190815260200160002060000154146109e8576040517f08c379a00000000000000000000000000000000000000000000000000000000081526004016109df90613a86565b60405180910390fd5b600060096000858152602001908152602001600020805480602002602001604051908101604052809291908181526020018280548015610a4757602002820191906000526020600020905b815481526020019060010190808311610a33575b505050505090506000815103610a61576000925050610aee565b6000805b8251811015610acf5760036000848381518110610a8557610a84613aa6565b5b6020026020010151815260200190815260200160002060050160019054906101000a900460ff1660ff1682610aba9190613b4c565b91508080610ac790613b04565b915050610a65565b508151606482610adf9190613b80565b610ae99190613bf1565b935050505b50919050565b60096020528160005260406000208181548110610b1057600080fd5b90600052602060002001600091509150505481565b60036020528060005260406000206000915090508060000154908060010160009054906101000a900473ffffffffffffffffffffffffffffffffffffffff1690806002015490806003015490806004018054610b8090613c51565b80601f0160208091040260200160405190810160405280929190818152602001828054610bac90613c51565b8015610bf95780601f10610bce57610100808354040283529160200191610bf9565b820191906000526020600020905b815481529060010190602001808311610bdc57829003601f168201915b5050505050908060050160009054906101000a900460ff16908060050160019054906101000a900460ff16908060050160029054906101000a900460ff16905088565b60046020528060005260406000206000915054906101000a900460ff1681565b600080600080606060008060008880600360008381526020019081526020016000206000015414610cc2576040517f08c379a0000000000000000000000000000000000000000000000000000000008152600401610cb990613cf4565b60405180910390fd5b6000600360008c815260200190815260200160002060405180610100016040529081600082015481526020016001820160009054906101000a900473ffffffffffffffffffffffffffffffffffffffff1673ffffffffffffffffffffffffffffffffffffffff1673ffffffffffffffffffffffffffffffffffffffff1681526020016002820154815260200160038201548152602001600482018054610d6790613c51565b80601f0160208091040260200160405190810160405280929190818152602001828054610d9390613c51565b8015610de05780601f10610db557610100808354040283529160200191610de0565b820191906000526020600020905b815481529060010190602001808311610dc357829003601f168201915b505050505081526020016005820160009054906101000a900460ff161515151581526020016005820160019054906101000a900460ff1660ff1660ff1681526020016005820160029054906101000a900460ff1615151515815250509050806000015181602001518260400151836060015184608001518560a001518660c001518760e00151995099509950995099509950995099505050919395975091939597565b60606000805b600d54811015610ede576002600082815260200190815260200160002060050160009054906101000a900460ff1615610ecb578180610ec790613b04565b9250505b8080610ed690613b04565b915050610e89565b5060008167ffffffffffffffff811115610efb57610efa61351d565b5b604051908082528060200260200182016040528015610f295781602001602082028036833780820191505090505b5090506000805b600d54811015610fa5576002600082815260200190815260200160002060050160009054906101000a900460ff1615610f925780838381518110610f7757610f76613aa6565b5b6020026020010181815250508180610f8e90613b04565b9250505b8080610f9d90613b04565b915050610f30565b5081935050505090565b8080600260008381526020019081526020016000206000015414611008576040517f08c379a0000000000000000000000000000000000000000000000000000000008152600401610fff90613a86565b60405180910390fd5b600660003373ffffffffffffffffffffffffffffffffffffffff1673ffffffffffffffffffffffffffffffffffffffff16815260200190815260200160002060009054906101000a900460ff16806110ab575060008054906101000a900473ffffffffffffffffffffffffffffffffffffffff1673ffffffffffffffffffffffffffffffffffffffff163373ffffffffffffffffffffffffffffffffffffffff16145b6110ea576040517f08c379a00000000000000000000000000000000000000000000000000000000081526004016110e190613d60565b60405180910390fd5b6002600083815260200190815260200160002060050160009054906101000a900460ff1661114d576040517f08c379a000000000000000000000000000000000000000000000000000000000815260040161114490613dcc565b60405180910390fd5b600a600083815260200190815260200160002060003373ffffffffffffffffffffffffffffffffffffffff1673ffffffffffffffffffffffffffffffffffffffff16815260200190815260200160002060009054906101000a900460ff16156111eb576040517f08c379a00000000000000000000000000000000000000000000000000000000081526004016111e290613e5e565b60405180910390fd5b6001600a600084815260200190815260200160002060003373ffffffffffffffffffffffffffffffffffffffff1673ffffffffffffffffffffffffffffffffffffffff16815260200190815260200160002060006101000a81548160ff021916908315150217905550600b60003373ffffffffffffffffffffffffffffffffffffffff1673ffffffffffffffffffffffffffffffffffffffff168152602001908152602001600020829080600181540180825580915050600190039060005260206000200160009091909190915055600c6000838152602001908152602001600020339080600181540180825580915050600190039060005260206000200160009091909190916101000a81548173ffffffffffffffffffffffffffffffffffffffff021916908373ffffffffffffffffffffffffffffffffffffffff16021790555060026000838152602001908152602001600020600601600081548092919061135590613b04565b91905055503373ffffffffffffffffffffffffffffffffffffffff16827f9f84e7caf9247b5be496d99d1d314ac8b4dce0d0fd7abb0ed925801f614b008d60405160405180910390a35050565b606081806002600083815260200190815260200160002060000154146113fd576040517f08c379a00000000000000000000000000000000000000000000000000000000081526004016113f490613a86565b60405180910390fd5b600c600084815260200190815260200160002080548060200260200160405190810160405280929190818152602001828054801561149057602002820191906000526020600020905b8160009054906101000a900473ffffffffffffffffffffffffffffffffffffffff1673ffffffffffffffffffffffffffffffffffffffff1681526020019060010190808311611446575b5050505050915050919050565b6060806000806000600160008773ffffffffffffffffffffffffffffffffffffffff1673ffffffffffffffffffffffffffffffffffffffff1681526020019081526020016000206040518060a00160405290816000820180546114ff90613c51565b80601f016020809104026020016040519081016040528092919081815260200182805461152b90613c51565b80156115785780601f1061154d57610100808354040283529160200191611578565b820191906000526020600020905b81548152906001019060200180831161155b57829003601f168201915b5050505050815260200160018201805461159190613c51565b80601f01602080910402602001604051908101604052809291908181526020018280546115bd90613c51565b801561160a5780601f106115df5761010080835404028352916020019161160a565b820191906000526020600020905b8154815290600101906020018083116115ed57829003601f168201915b5050505050815260200160028201548152602001600382015481526020016004820160009054906101000a900460ff161515151581525050905080600001518160200151826060015183608001519450945094509450509193509193565b600d5481565b600c602052816000526040600020818154811061168a57600080fd5b906000526020600020016000915091509054906101000a900473ffffffffffffffffffffffffffffffffffffffff1681565b6000600660003373ffffffffffffffffffffffffffffffffffffffff1673ffffffffffffffffffffffffffffffffffffffff16815260200190815260200160002060009054906101000a900460ff1680611761575060008054906101000a900473ffffffffffffffffffffffffffffffffffffffff1673ffffffffffffffffffffffffffffffffffffffff163373ffffffffffffffffffffffffffffffffffffffff16145b6117a0576040517f08c379a000000000000000000000000000000000000000000000000000000000815260040161179790613d60565b60405180910390fd5b84806002600083815260200190815260200160002060000154146117f9576040517f08c379a00000000000000000000000000000000000000000000000000000000081526004016117f090613a86565b60405180910390fd5b8560026000828152602001908152602001600020600301544210158015611836575060026000828152602001908152602001600020600401544211155b611875576040517f08c379a000000000000000000000000000000000000000000000000000000000815260040161186c90613ef0565b60405180910390fd5b86600a600082815260200190815260200160002060003373ffffffffffffffffffffffffffffffffffffffff1673ffffffffffffffffffffffffffffffffffffffff16815260200190815260200160002060009054906101000a900460ff16611913576040517f08c379a000000000000000000000000000000000000000000000000000000000815260040161190a90613f82565b60405180910390fd5b6007600089815260200190815260200160002060003373ffffffffffffffffffffffffffffffffffffffff1673ffffffffffffffffffffffffffffffffffffffff16815260200190815260200160002060009054906101000a900460ff16156119b1576040517f08c379a00000000000000000000000000000000000000000000000000000000081526004016119a890613fee565b60405180910390fd5b60018660ff16101580156119c9575060058660ff1611155b611a08576040517f08c379a00000000000000000000000000000000000000000000000000000000081526004016119ff9061405a565b60405180910390fd5b6000600e6000815480929190611a1d90613b04565b9190505590506040518061010001604052808281526020013373ffffffffffffffffffffffffffffffffffffffff1681526020018a815260200142815260200189815260200187151581526020018860ff16815260200160011515815250600360008381526020019081526020016000206000820151816000015560208201518160010160006101000a81548173ffffffffffffffffffffffffffffffffffffffff021916908373ffffffffffffffffffffffffffffffffffffffff16021790555060408201518160020155606082015181600301556080820151816004019081611b089190614226565b5060a08201518160050160006101000a81548160ff02191690831515021790555060c08201518160050160016101000a81548160ff021916908360ff16021790555060e08201518160050160026101000a81548160ff0219169083151502179055509050506001600760008b815260200190815260200160002060003373ffffffffffffffffffffffffffffffffffffffff1673ffffffffffffffffffffffffffffffffffffffff16815260200190815260200160002060006101000a81548160ff021916908315150217905550600860003373ffffffffffffffffffffffffffffffffffffffff1673ffffffffffffffffffffffffffffffffffffffff168152602001908152602001600020819080600181540180825580915050600190039060005260206000200160009091909190915055600960008a8152602001908152602001600020819080600181540180825580915050600190039060005260206000200160009091909190915055883373ffffffffffffffffffffffffffffffffffffffff16827f423285530582a702e795200cb363c60e7c81dc3c09a08566dcc4c6f766ee311060405160405180910390a480945050505050949350505050565b7fa49807205ce4d355092ef5a8a18f56e8913cf4a201fbe287825b095693c2177581565b7fd16e204b8a42a15ab0ea6bb8ec1ecdfbe69f38074fc865323af19efe7d9573d981565b600a6020528160005260406000206020528060005260406000206000915091509054906101000a900460ff1681565b60008054906101000a900473ffffffffffffffffffffffffffffffffffffffff1681565b60026020528060005260406000206000915090508060000154908060010160009054906101000a900473ffffffffffffffffffffffffffffffffffffffff1690806002018054611db490613c51565b80601f0160208091040260200160405190810160405280929190818152602001828054611de090613c51565b8015611e2d5780601f10611e0257610100808354040283529160200191611e2d565b820191906000526020600020905b815481529060010190602001808311611e1057829003601f168201915b5050505050908060030154908060040154908060050160009054906101000a900460ff16908060060154905087565b60066020528060005260406000206000915054906101000a900460ff1681565b6001602052806000526040600020600091509050806000018054611e9f90613c51565b80601f0160208091040260200160405190810160405280929190818152602001828054611ecb90613c51565b8015611f185780601f10611eed57610100808354040283529160200191611f18565b820191906000526020600020905b815481529060010190602001808311611efb57829003601f168201915b505050505090806001018054611f2d90613c51565b80601f0160208091040260200160405190810160405280929190818152602001828054611f5990613c51565b8015611fa65780601f10611f7b57610100808354040283529160200191611fa6565b820191906000526020600020905b815481529060010190602001808311611f8957829003601f168201915b5050505050908060020154908060030154908060040160009054906101000a900460ff16905085565b6000600560003373ffffffffffffffffffffffffffffffffffffffff1673ffffffffffffffffffffffffffffffffffffffff16815260200190815260200160002060009054906101000a900460ff16806120725750600460003373ffffffffffffffffffffffffffffffffffffffff1673ffffffffffffffffffffffffffffffffffffffff16815260200190815260200160002060009054906101000a900460ff165b806120c8575060008054906101000a900473ffffffffffffffffffffffffffffffffffffffff1673ffffffffffffffffffffffffffffffffffffffff163373ffffffffffffffffffffffffffffffffffffffff16145b612107576040517f08c379a00000000000000000000000000000000000000000000000000000000081526004016120fe90614344565b60405180910390fd5b818310612149576040517f08c379a0000000000000000000000000000000000000000000000000000000008152600401612140906143b0565b60405180910390fd5b6000600d600081548092919061215e90613b04565b9190505590506040518060e001604052808281526020013373ffffffffffffffffffffffffffffffffffffffff1681526020018681526020018581526020018481526020016001151581526020016000815250600260008381526020019081526020016000206000820151816000015560208201518160010160006101000a81548173ffffffffffffffffffffffffffffffffffffffff021916908373ffffffffffffffffffffffffffffffffffffffff160217905550604082015181600201908161222a9190614226565b50606082015181600301556080820151816004015560a08201518160050160006101000a81548160ff02191690831515021790555060c082015181600601559050503373ffffffffffffffffffffffffffffffffffffffff16817fd26ee57739c2f8845178c96a37348973f3edc5907d342cdf65382f9a84474b89876040516122b391906143d0565b60405180910390a3809150509392505050565b600160003373ffffffffffffffffffffffffffffffffffffffff1673ffffffffffffffffffffffffffffffffffffffff16815260200190815260200160002060040160009054906101000a900460ff1615612356576040517f08c379a000000000000000000000000000000000000000000000000000000000815260040161234d90614464565b60405180910390fd5b6040518060a0016040528085815260200184815260200183815260200182815260200160011515815250600160003373ffffffffffffffffffffffffffffffffffffffff1673ffffffffffffffffffffffffffffffffffffffff16815260200190815260200160002060008201518160000190816123d49190614226565b5060208201518160010190816123ea9190614226565b50604082015181600201556060820151816003015560808201518160040160006101000a81548160ff0219169083151502179055509050507fa49807205ce4d355092ef5a8a18f56e8913cf4a201fbe287825b095693c2177581036124a6576001600460003373ffffffffffffffffffffffffffffffffffffffff1673ffffffffffffffffffffffffffffffffffffffff16815260200190815260200160002060006101000a81548160ff0219169083151502179055506125ac565b7fd16e204b8a42a15ab0ea6bb8ec1ecdfbe69f38074fc865323af19efe7d9573d9810361252a576001600560003373ffffffffffffffffffffffffffffffffffffffff1673ffffffffffffffffffffffffffffffffffffffff16815260200190815260200160002060006101000a81548160ff0219169083151502179055506125ab565b7f36a5c4aaacb6b388bbd448bf11096b7dafc5652bcc9046084fd0e95b1fb0b2cc81036125aa576001600660003373ffffffffffffffffffffffffffffffffffffffff1673ffffffffffffffffffffffffffffffffffffffff16815260200190815260200160002060006101000a81548160ff0219169083151502179055505b5b5b3373ffffffffffffffffffffffffffffffffffffffff167fccd232d370002532b298c205b90d1c287a6f1913b8c7113733b47a81fece11a085836040516125f4929190614484565b60405180910390a250505050565b60076020528160005260406000206020528060005260406000206000915091509054906101000a900460ff1681565b600e5481565b6008602052816000526040600020818154811061265357600080fd5b90600052602060002001600091509150505481565b6060600b60008373ffffffffffffffffffffffffffffffffffffffff1673ffffffffffffffffffffffffffffffffffffffff1681526020019081526020016000208054806020026020016040519081016040528092919081815260200182805480156126f357602002820191906000526020600020905b8154815260200190600101908083116126df575b50505050509050919050565b8080600260008381526020019081526020016000206000015414612758576040517f08c379a000000000000000000000000000000000000000000000000000000000815260040161274f90613a86565b60405180910390fd5b600660003373ffffffffffffffffffffffffffffffffffffffff1673ffffffffffffffffffffffffffffffffffffffff16815260200190815260200160002060009054906101000a900460ff16806127fb575060008054906101000a900473ffffffffffffffffffffffffffffffffffffffff1673ffffffffffffffffffffffffffffffffffffffff163373ffffffffffffffffffffffffffffffffffffffff16145b61283a576040517f08c379a000000000000000000000000000000000000000000000000000000000815260040161283190613d60565b60405180910390fd5b81600a600082815260200190815260200160002060003373ffffffffffffffffffffffffffffffffffffffff1673ffffffffffffffffffffffffffffffffffffffff16815260200190815260200160002060009054906101000a900460ff166128d8576040517f08c379a00000000000000000000000000000000000000000000000000000000081526004016128cf90613f82565b60405180910390fd5b6007600084815260200190815260200160002060003373ffffffffffffffffffffffffffffffffffffffff1673ffffffffffffffffffffffffffffffffffffffff16815260200190815260200160002060009054906101000a900460ff1615612976576040517f08c379a000000000000000000000000000000000000000000000000000000000815260040161296d90614526565b60405180910390fd5b6000600a600085815260200190815260200160002060003373ffffffffffffffffffffffffffffffffffffffff1673ffffffffffffffffffffffffffffffffffffffff16815260200190815260200160002060006101000a81548160ff021916908315150217905550600260008481526020019081526020016000206006016000815480929190612a0690614546565b91905055503373ffffffffffffffffffffffffffffffffffffffff16837f497941b8fa39d9cb0342836ad143b09296c513385dba2fa8c33a934e1c6fe92260405160405180910390a3505050565b60056020528060005260406000206000915054906101000a900460ff1681565b60008280600260008381526020019081526020016000206000015414612acf576040517f08c379a0000000000000000000000000000000000000000000000000000000008152600401612ac690613a86565b60405180910390fd5b600a600085815260200190815260200160002060008473ffffffffffffffffffffffffffffffffffffffff1673ffffffffffffffffffffffffffffffffffffffff16815260200190815260200160002060009054906101000a900460ff1691505092915050565b7f36a5c4aaacb6b388bbd448bf11096b7dafc5652bcc9046084fd0e95b1fb0b2cc81565b6060600860008373ffffffffffffffffffffffffffffffffffffffff1673ffffffffffffffffffffffffffffffffffffffff168152602001908152602001600020805480602002602001604051908101604052809291908181526020018280548015612be557602002820191906000526020600020905b815481526020019060010190808311612bd1575b50505050509050919050565b600b6020528160005260406000208181548110612c0d57600080fd5b90600052602060002001600091509150505481565b8480600260008381526020019081526020016000206000015414612c7b576040517f08c379a0000000000000000000000000000000000000000000000000000000008152600401612c7290613a86565b60405180910390fd5b600560003373ffffffffffffffffffffffffffffffffffffffff1673ffffffffffffffffffffffffffffffffffffffff16815260200190815260200160002060009054906101000a900460ff1680612d1c5750600460003373ffffffffffffffffffffffffffffffffffffffff1673ffffffffffffffffffffffffffffffffffffffff16815260200190815260200160002060009054906101000a900460ff165b80612d72575060008054906101000a900473ffffffffffffffffffffffffffffffffffffffff1673ffffffffffffffffffffffffffffffffffffffff163373ffffffffffffffffffffffffffffffffffffffff16145b612db1576040517f08c379a0000000000000000000000000000000000000000000000000000000008152600401612da890614344565b60405180910390fd5b60006002600088815260200190815260200160002090503373ffffffffffffffffffffffffffffffffffffffff168160010160009054906101000a900473ffffffffffffffffffffffffffffffffffffffff1673ffffffffffffffffffffffffffffffffffffffff161480612e6f5750600460003373ffffffffffffffffffffffffffffffffffffffff1673ffffffffffffffffffffffffffffffffffffffff16815260200190815260200160002060009054906101000a900460ff165b80612ec5575060008054906101000a900473ffffffffffffffffffffffffffffffffffffffff1673ffffffffffffffffffffffffffffffffffffffff163373ffffffffffffffffffffffffffffffffffffffff16145b612f04576040517f08c379a0000000000000000000000000000000000000000000000000000000008152600401612efb906145bb565b60405180910390fd5b85816002019081612f159190614226565b50848160030181905550838160040181905550828160050160006101000a81548160ff0219169083151502179055503373ffffffffffffffffffffffffffffffffffffffff16877f6b7bcf044e00829a998e3e09bdef036fe2317de7a3f1ec7f04927b0973b7359460405160405180910390a350505050505050565b6000604051905090565b600080fd5b600080fd5b6000819050919050565b612fb881612fa5565b8114612fc357600080fd5b50565b600081359050612fd581612faf565b92915050565b600060208284031215612ff157612ff0612f9b565b5b6000612fff84828501612fc6565b91505092915050565b600081519050919050565b600082825260208201905092915050565b6000819050602082019050919050565b61303d81612fa5565b82525050565b600061304f8383613034565b60208301905092915050565b6000602082019050919050565b600061307382613008565b61307d8185613013565b935061308883613024565b8060005b838110156130b95781516130a08882613043565b97506130ab8361305b565b92505060018101905061308c565b5085935050505092915050565b600060208201905081810360008301526130e08184613068565b905092915050565b6000819050919050565b6130fb816130e8565b811461310657600080fd5b50565b600081359050613118816130f2565b92915050565b60006020828403121561313457613133612f9b565b5b600061314284828501613109565b91505092915050565b60008115159050919050565b6131608161314b565b82525050565b600060208201905061317b6000830184613157565b92915050565b61318a81612fa5565b82525050565b60006020820190506131a56000830184613181565b92915050565b600080604083850312156131c2576131c1612f9b565b5b60006131d085828601612fc6565b92505060206131e185828601612fc6565b9150509250929050565b600073ffffffffffffffffffffffffffffffffffffffff82169050919050565b6000613216826131eb565b9050919050565b6132268161320b565b82525050565b600081519050919050565b600082825260208201905092915050565b60005b8381101561326657808201518184015260208101905061324b565b60008484015250505050565b6000601f19601f8301169050919050565b600061328e8261322c565b6132988185613237565b93506132a8818560208601613248565b6132b181613272565b840191505092915050565b600060ff82169050919050565b6132d2816132bc565b82525050565b6000610100820190506132ee600083018b613181565b6132fb602083018a61321d565b6133086040830189613181565b6133156060830188613181565b81810360808301526133278187613283565b905061333660a0830186613157565b61334360c08301856132c9565b61335060e0830184613157565b9998505050505050505050565b6133668161320b565b811461337157600080fd5b50565b6000813590506133838161335d565b92915050565b60006020828403121561339f5761339e612f9b565b5b60006133ad84828501613374565b91505092915050565b600081519050919050565b600082825260208201905092915050565b6000819050602082019050919050565b6133eb8161320b565b82525050565b60006133fd83836133e2565b60208301905092915050565b6000602082019050919050565b6000613421826133b6565b61342b81856133c1565b9350613436836133d2565b8060005b8381101561346757815161344e88826133f1565b975061345983613409565b92505060018101905061343a565b5085935050505092915050565b6000602082019050818103600083015261348e8184613416565b905092915050565b61349f816130e8565b82525050565b600060808201905081810360008301526134bf8187613283565b905081810360208301526134d38186613283565b90506134e26040830185613496565b6134ef6060830184613157565b95945050505050565b600060208201905061350d600083018461321d565b92915050565b600080fd5b600080fd5b7f4e487b7100000000000000000000000000000000000000000000000000000000600052604160045260246000fd5b61355582613272565b810181811067ffffffffffffffff821117156135745761357361351d565b5b80604052505050565b6000613587612f91565b9050613593828261354c565b919050565b600067ffffffffffffffff8211156135b3576135b261351d565b5b6135bc82613272565b9050602081019050919050565b82818337600083830152505050565b60006135eb6135e684613598565b61357d565b90508281526020810184848401111561360757613606613518565b5b6136128482856135c9565b509392505050565b600082601f83011261362f5761362e613513565b5b813561363f8482602086016135d8565b91505092915050565b613651816132bc565b811461365c57600080fd5b50565b60008135905061366e81613648565b92915050565b61367d8161314b565b811461368857600080fd5b50565b60008135905061369a81613674565b92915050565b600080600080608085870312156136ba576136b9612f9b565b5b60006136c887828801612fc6565b945050602085013567ffffffffffffffff8111156136e9576136e8612fa0565b5b6136f58782880161361a565b93505060406137068782880161365f565b92505060606137178782880161368b565b91505092959194509250565b60006020820190506137386000830184613496565b92915050565b6000806040838503121561375557613754612f9b565b5b600061376385828601612fc6565b925050602061377485828601613374565b9150509250929050565b600060e082019050613793600083018a613181565b6137a0602083018961321d565b81810360408301526137b28188613283565b90506137c16060830187613181565b6137ce6080830186613181565b6137db60a0830185613157565b6137e860c0830184613181565b98975050505050505050565b600060a082019050818103600083015261380e8188613283565b905081810360208301526138228187613283565b90506138316040830186613496565b61383e6060830185613496565b61384b6080830184613157565b9695505050505050565b60008060006060848603121561386e5761386d612f9b565b5b600084013567ffffffffffffffff81111561388c5761388b612fa0565b5b6138988682870161361a565b93505060206138a986828701612fc6565b92505060406138ba86828701612fc6565b9150509250925092565b600080600080608085870312156138de576138dd612f9b565b5b600085013567ffffffffffffffff8111156138fc576138fb612fa0565b5b6139088782880161361a565b945050602085013567ffffffffffffffff81111561392957613928612fa0565b5b6139358782880161361a565b935050604061394687828801613109565b925050606061395787828801613109565b91505092959194509250565b6000806040838503121561397a57613979612f9b565b5b600061398885828601613374565b925050602061399985828601612fc6565b9150509250929050565b600080600080600060a086880312156139bf576139be612f9b565b5b60006139cd88828901612fc6565b955050602086013567ffffffffffffffff8111156139ee576139ed612fa0565b5b6139fa8882890161361a565b9450506040613a0b88828901612fc6565b9350506060613a1c88828901612fc6565b9250506080613a2d8882890161368b565b9150509295509295909350565b7f436861696e526174653a20636f7572736520646f6573206e6f74206578697374600082015250565b6000613a70602083613237565b9150613a7b82613a3a565b602082019050919050565b60006020820190508181036000830152613a9f81613a63565b9050919050565b7f4e487b7100000000000000000000000000000000000000000000000000000000600052603260045260246000fd5b7f4e487b7100000000000000000000000000000000000000000000000000000000600052601160045260246000fd5b6000613b0f82612fa5565b91507fffffffffffffffffffffffffffffffffffffffffffffffffffffffffffffffff8203613b4157613b40613ad5565b5b600182019050919050565b6000613b5782612fa5565b9150613b6283612fa5565b9250828201905080821115613b7a57613b79613ad5565b5b92915050565b6000613b8b82612fa5565b9150613b9683612fa5565b9250828202613ba481612fa5565b91508282048414831517613bbb57613bba613ad5565b5b5092915050565b7f4e487b7100000000000000000000000000000000000000000000000000000000600052601260045260246000fd5b6000613bfc82612fa5565b9150613c0783612fa5565b925082613c1757613c16613bc2565b5b828204905092915050565b7f4e487b7100000000000000000000000000000000000000000000000000000000600052602260045260246000fd5b60006002820490506001821680613c6957607f821691505b602082108103613c7c57613c7b613c22565b5b50919050565b7f436861696e526174653a206576616c756174696f6e20646f6573206e6f74206560008201527f7869737400000000000000000000000000000000000000000000000000000000602082015250565b6000613cde602483613237565b9150613ce982613c82565b604082019050919050565b60006020820190508181036000830152613d0d81613cd1565b9050919050565b7f436861696e526174653a2063616c6c6572206973206e6f742073747564656e74600082015250565b6000613d4a602083613237565b9150613d5582613d14565b602082019050919050565b60006020820190508181036000830152613d7981613d3d565b9050919050565b7f436861696e526174653a20636f75727365206973206e6f742061637469766500600082015250565b6000613db6601f83613237565b9150613dc182613d80565b602082019050919050565b60006020820190508181036000830152613de581613da9565b9050919050565b7f436861696e526174653a2073747564656e742068617320616c7265616479206a60008201527f6f696e65642074686520636f7572736500000000000000000000000000000000602082015250565b6000613e48603083613237565b9150613e5382613dec565b604082019050919050565b60006020820190508181036000830152613e7781613e3b565b9050919050565b7f436861696e526174653a206e6f742077697468696e206576616c756174696f6e60008201527f20706572696f6400000000000000000000000000000000000000000000000000602082015250565b6000613eda602783613237565b9150613ee582613e7e565b604082019050919050565b60006020820190508181036000830152613f0981613ecd565b9050919050565b7f436861696e526174653a2073747564656e7420686173206e6f74206a6f696e6560008201527f642074686520636f757273650000000000000000000000000000000000000000602082015250565b6000613f6c602c83613237565b9150613f7782613f10565b604082019050919050565b60006020820190508181036000830152613f9b81613f5f565b9050919050565b7f436861696e526174653a20616c7265616479206576616c756174656400000000600082015250565b6000613fd8601c83613237565b9150613fe382613fa2565b602082019050919050565b6000602082019050818103600083015261400781613fcb565b9050919050565b7f436861696e526174653a20696e76616c696420726174696e6700000000000000600082015250565b6000614044601983613237565b915061404f8261400e565b602082019050919050565b6000602082019050818103600083015261407381614037565b9050919050565b60008190508160005260206000209050919050565b60006020601f8301049050919050565b600082821b905092915050565b6000600883026140dc7fffffffffffffffffffffffffffffffffffffffffffffffffffffffffffffffff8261409f565b6140e6868361409f565b95508019841693508086168417925050509392505050565b6000819050919050565b600061412361411e61411984612fa5565b6140fe565b612fa5565b9050919050565b6000819050919050565b61413d83614108565b6141516141498261412a565b8484546140ac565b825550505050565b600090565b614166614159565b614171818484614134565b505050565b5b818110156141955761418a60008261415e565b600181019050614177565b5050565b601f8211156141da576141ab8161407a565b6141b48461408f565b810160208510156141c3578190505b6141d76141cf8561408f565b830182614176565b50505b505050565b600082821c905092915050565b60006141fd600019846008026141df565b1980831691505092915050565b600061421683836141ec565b9150826002028217905092915050565b61422f8261322c565b67ffffffffffffffff8111156142485761424761351d565b5b6142528254613c51565b61425d828285614199565b600060209050601f831160018114614290576000841561427e578287015190505b614288858261420a565b8655506142f0565b601f19841661429e8661407a565b60005b828110156142c6578489015182556001820191506020850194506020810190506142a1565b868310156142e357848901516142df601f8916826141ec565b8355505b6001600288020188555050505b505050505050565b7f436861696e526174653a2063616c6c6572206973206e6f742074656163686572600082015250565b600061432e602083613237565b9150614339826142f8565b602082019050919050565b6000602082019050818103600083015261435d81614321565b9050919050565b7f436861696e526174653a20696e76616c69642074696d6520706572696f640000600082015250565b600061439a601e83613237565b91506143a582614364565b602082019050919050565b600060208201905081810360008301526143c98161438d565b9050919050565b600060208201905081810360008301526143ea8184613283565b905092915050565b7f436861696e526174653a207573657220616c726561647920726567697374657260008201527f6564000000000000000000000000000000000000000000000000000000000000602082015250565b600061444e602283613237565b9150614459826143f2565b604082019050919050565b6000602082019050818103600083015261447d81614441565b9050919050565b6000604082019050818103600083015261449e8185613283565b90506144ad6020830184613496565b9392505050565b7f436861696e526174653a2073747564656e742068617320616c7265616479206560008201527f76616c75617465642074686520636f7572736500000000000000000000000000602082015250565b6000614510603383613237565b915061451b826144b4565b604082019050919050565b6000602082019050818103600083015261453f81614503565b9050919050565b600061455182612fa5565b91506000820361456457614563613ad5565b5b600182039050919050565b7f436861696e526174653a206e6f7420617574686f72697a656400000000000000600082015250565b60006145a5601983613237565b91506145b08261456f565b602082019050919050565b600060208201905081810360008301526145d481614598565b905091905056fea2646970667358221220a077d4ac1ecfc1986ecedc598842a83a2751fc476269453d5aa3976baff7233d64736f6c63430008140033",
  "linkReferences": {},
  "deployedLinkReferences": {}
}