{
  "_format": "hh-sol-artifact-1",
  "contractName": "ChainRate",
  "sourceName": "contracts/ChainRate.sol",
  "abi": [
    {
      "inputs": [],
      "stateMutability": "nonpayable",
      "type": "constructor"
    },
    {
      "anonymous": false,
      "inputs": [
        {
          "indexed": true,
          "internalType": "uint256",
          "name": "courseId",
          "type": "uint256"
        },
        {
          "indexed": true,
          "internalType": "address",
          "name": "teacher",
          "type": "address"
        },
        {
          "indexed": false,
          "internalType": "string",
          "name": "name",
          "type": "string"
        }
      ],
      "name": "CourseCreated",
      "type": "event"
    },
    {
      "anonymous": false,
      "inputs": [
        {
          "indexed": true,
          "internalType": "uint256",
          "name": "courseId",
          "type": "uint256"
        },
        {
          "indexed": true,
          "internalType": "address",
          "name": "student",
          "type": "address"
        }
      ],
      "name": "CourseJoined",
      "type": "event"
    },
    {
      "anonymous": false,
      "inputs": [
        {
          "indexed": true,
          "internalType": "uint256",
          "name": "courseId",
          "type": "uint256"
        },
        {
          "indexed": true,
          "internalType": "address",
          "name": "student",
          "type": "address"
        }
      ],
      "name": "CourseLeft",
      "type": "event"
    },
    {
      "anonymous": false,
      "inputs": [
        {
          "indexed": true,
          "internalType": "uint256",
          "name": "courseId",
          "type": "uint256"
        },
        {
          "indexed": true,
          "internalType": "address",
          "name": "teacher",
          "type": "address"
        }
      ],
      "name": "CourseUpdated",
      "type": "event"
    },
    {
      "anonymous": false,
      "inputs": [
        {
          "indexed": true,
          "internalType": "uint256",
          "name": "evaluationId",
          "type": "uint256"
        },
        {
          "indexed": true,
          "internalType": "address",
          "name": "student",
          "type": "address"
        },
        {
          "indexed": true,
          "internalType": "uint256",
          "name": "courseId",
          "type": "uint256"
        }
      ],
      "name": "EvaluationSubmitted",
      "type": "event"
    },
    {
      "anonymous": false,
      "inputs": [
        {
          "indexed": true,
          "internalType": "uint256",
          "name": "evaluationId",
          "type": "uint256"
        },
        {
          "indexed": true,
          "internalType": "address",
          "name": "student",
          "type": "address"
        }
      ],
      "name": "EvaluationUpdated",
      "type": "event"
    },
    {
      "anonymous": false,
      "inputs": [
        {
          "indexed": true,
          "internalType": "address",
          "name": "user",
          "type": "address"
        },
        {
          "indexed": false,
          "internalType": "string",
          "name": "name",
          "type": "string"
        },
        {
          "indexed": false,
          "internalType": "bytes32",
          "name": "role",
          "type": "bytes32"
        }
      ],
      "name": "UserRegistered",
      "type": "event"
    },
    {
      "inputs": [],
      "name": "ADMIN_ROLE",
      "outputs": [
        {
          "internalType": "bytes32",
          "name": "",
          "type": "bytes32"
        }
      ],
      "stateMutability": "view",
      "type": "function"
    },
    {
      "inputs": [],
      "name": "STUDENT_ROLE",
      "outputs": [
        {
          "internalType": "bytes32",
          "name": "",
          "type": "bytes32"
        }
      ],
      "stateMutability": "view",
      "type": "function"
    },
    {
      "inputs": [],
      "name": "TEACHER_ROLE",
      "outputs": [
        {
          "internalType": "bytes32",
          "name": "",
          "type": "bytes32"
        }
      ],
      "stateMutability": "view",
      "type": "function"
    },
    {
      "inputs": [
        {
          "internalType": "address",
          "name": "",
          "type": "address"
        }
      ],
      "name": "admins",
      "outputs": [
        {
          "internalType": "bool",
          "name": "",
          "type": "bool"
        }
      ],
      "stateMutability": "view",
      "type": "function"
    },
    {
      "inputs": [
        {
          "internalType": "uint256",
          "name": "",
          "type": "uint256"
        }
      ],
      "name": "allAdmins",
      "outputs": [
        {
          "internalType": "address",
          "name": "",
          "type": "address"
        }
      ],
      "stateMutability": "view",
      "type": "function"
    },
    {
      "inputs": [
        {
          "internalType": "uint256",
          "name": "",
          "type": "uint256"
        }
      ],
      "name": "allStudents",
      "outputs": [
        {
          "internalType": "address",
          "name": "",
          "type": "address"
        }
      ],
      "stateMutability": "view",
      "type": "function"
    },
    {
      "inputs": [
        {
          "internalType": "uint256",
          "name": "",
          "type": "uint256"
        }
      ],
      "name": "allTeachers",
      "outputs": [
        {
          "internalType": "address",
          "name": "",
          "type": "address"
        }
      ],
      "stateMutability": "view",
      "type": "function"
    },
    {
      "inputs": [],
      "name": "courseCount",
      "outputs": [
        {
          "internalType": "uint256",
          "name": "",
          "type": "uint256"
        }
      ],
      "stateMutability": "view",
      "type": "function"
    },
    {
      "inputs": [
        {
          "internalType": "uint256",
          "name": "",
          "type": "uint256"
        },
        {
          "internalType": "uint256",
          "name": "",
          "type": "uint256"
        }
      ],
      "name": "courseEvaluations",
      "outputs": [
        {
          "internalType": "uint256",
          "name": "",
          "type": "uint256"
        }
      ],
      "stateMutability": "view",
      "type": "function"
    },
    {
      "inputs": [
        {
          "internalType": "uint256",
          "name": "",
          "type": "uint256"
        },
        {
          "internalType": "uint256",
          "name": "",
          "type": "uint256"
        }
      ],
      "name": "courseStudents",
      "outputs": [
        {
          "internalType": "address",
          "name": "",
          "type": "address"
        }
      ],
      "stateMutability": "view",
      "type": "function"
    },
    {
      "inputs": [
        {
          "internalType": "uint256",
          "name": "",
          "type": "uint256"
        }
      ],
      "name": "courses",
      "outputs": [
        {
          "internalType": "uint256",
          "name": "id",
          "type": "uint256"
        },
        {
          "internalType": "address",
          "name": "teacher",
          "type": "address"
        },
        {
          "internalType": "string",
          "name": "name",
          "type": "string"
        },
        {
          "internalType": "uint256",
          "name": "startTime",
          "type": "uint256"
        },
        {
          "internalType": "uint256",
          "name": "endTime",
          "type": "uint256"
        },
        {
          "internalType": "bool",
          "name": "isActive",
          "type": "bool"
        },
        {
          "internalType": "uint256",
          "name": "studentCount",
          "type": "uint256"
        }
      ],
      "stateMutability": "view",
      "type": "function"
    },
    {
      "inputs": [
        {
          "internalType": "string",
          "name": "name",
          "type": "string"
        },
        {
          "internalType": "uint256",
          "name": "startTime",
          "type": "uint256"
        },
        {
          "internalType": "uint256",
          "name": "endTime",
          "type": "uint256"
        }
      ],
      "name": "createCourse",
      "outputs": [
        {
          "internalType": "uint256",
          "name": "",
          "type": "uint256"
        }
      ],
      "stateMutability": "nonpayable",
      "type": "function"
    },
    {
      "inputs": [],
      "name": "evaluationCount",
      "outputs": [
        {
          "internalType": "uint256",
          "name": "",
          "type": "uint256"
        }
      ],
      "stateMutability": "view",
      "type": "function"
    },
    {
      "inputs": [
        {
          "internalType": "uint256",
          "name": "",
          "type": "uint256"
        }
      ],
      "name": "evaluations",
      "outputs": [
        {
          "internalType": "uint256",
          "name": "id",
          "type": "uint256"
        },
        {
          "internalType": "address",
          "name": "student",
          "type": "address"
        },
        {
          "internalType": "uint256",
          "name": "courseId",
          "type": "uint256"
        },
        {
          "internalType": "uint256",
          "name": "timestamp",
          "type": "uint256"
        },
        {
          "internalType": "string",
          "name": "contentHash",
          "type": "string"
        },
        {
          "internalType": "bool",
          "name": "isAnonymous",
          "type": "bool"
        },
        {
          "internalType": "uint8",
          "name": "rating",
          "type": "uint8"
        },
        {
          "internalType": "uint8",
          "name": "teachingRating",
          "type": "uint8"
        },
        {
          "internalType": "uint8",
          "name": "contentRating",
          "type": "uint8"
        },
        {
          "internalType": "uint8",
          "name": "interactionRating",
          "type": "uint8"
        },
        {
          "internalType": "bool",
          "name": "isActive",
          "type": "bool"
        }
      ],
      "stateMutability": "view",
      "type": "function"
    },
    {
      "inputs": [],
      "name": "getActiveCourses",
      "outputs": [
        {
          "internalType": "uint256[]",
          "name": "",
          "type": "uint256[]"
        }
      ],
      "stateMutability": "view",
      "type": "function"
    },
    {
      "inputs": [],
      "name": "getAllAdmins",
      "outputs": [
        {
          "internalType": "address[]",
          "name": "",
          "type": "address[]"
        }
      ],
      "stateMutability": "view",
      "type": "function"
    },
    {
      "inputs": [],
      "name": "getAllCourses",
      "outputs": [
        {
          "internalType": "uint256[]",
          "name": "",
          "type": "uint256[]"
        }
      ],
      "stateMutability": "view",
      "type": "function"
    },
    {
      "inputs": [],
      "name": "getAllStudents",
      "outputs": [
        {
          "internalType": "address[]",
          "name": "",
          "type": "address[]"
        }
      ],
      "stateMutability": "view",
      "type": "function"
    },
    {
      "inputs": [],
      "name": "getAllTeachers",
      "outputs": [
        {
          "internalType": "address[]",
          "name": "",
          "type": "address[]"
        }
      ],
      "stateMutability": "view",
      "type": "function"
    },
    {
      "inputs": [
        {
          "internalType": "uint256",
          "name": "courseId",
          "type": "uint256"
        }
      ],
      "name": "getAverageRating",
      "outputs": [
        {
          "internalType": "uint256",
          "name": "",
          "type": "uint256"
        }
      ],
      "stateMutability": "view",
      "type": "function"
    },
    {
      "inputs": [
        {
          "internalType": "uint256",
          "name": "courseId",
          "type": "uint256"
        },
        {
          "internalType": "uint256",
          "name": "offset",
          "type": "uint256"
        },
        {
          "internalType": "uint256",
          "name": "limit",
          "type": "uint256"
        }
      ],
      "name": "getCourseBatchEvaluations",
      "outputs": [
        {
          "internalType": "uint256[]",
          "name": "ids",
          "type": "uint256[]"
        },
        {
          "internalType": "address[]",
          "name": "studentAddresses",
          "type": "address[]"
        },
        {
          "internalType": "string[]",
          "name": "names",
          "type": "string[]"
        },
        {
          "internalType": "uint256[]",
          "name": "timestamps",
          "type": "uint256[]"
        },
        {
          "internalType": "uint8[]",
          "name": "ratings",
          "type": "uint8[]"
        },
        {
          "internalType": "uint8[]",
          "name": "teachingRatings",
          "type": "uint8[]"
        },
        {
          "internalType": "uint8[]",
          "name": "contentRatings",
          "type": "uint8[]"
        },
        {
          "internalType": "uint8[]",
          "name": "interactionRatings",
          "type": "uint8[]"
        },
        {
          "internalType": "bool[]",
          "name": "isAnonymous",
          "type": "bool[]"
        }
      ],
      "stateMutability": "view",
      "type": "function"
    },
    {
      "inputs": [
        {
          "internalType": "uint256",
          "name": "courseId",
          "type": "uint256"
        }
      ],
      "name": "getCourseEvaluations",
      "outputs": [
        {
          "internalType": "uint256[]",
          "name": "",
          "type": "uint256[]"
        }
      ],
      "stateMutability": "view",
      "type": "function"
    },
    {
      "inputs": [
        {
          "internalType": "uint256",
          "name": "courseId",
          "type": "uint256"
        }
      ],
      "name": "getCourseStatistics",
      "outputs": [
        {
          "internalType": "uint256",
          "name": "totalEvaluations",
          "type": "uint256"
        },
        {
          "internalType": "uint256",
          "name": "averageRating",
          "type": "uint256"
        },
        {
          "internalType": "uint256",
          "name": "averageTeachingRating",
          "type": "uint256"
        },
        {
          "internalType": "uint256",
          "name": "averageContentRating",
          "type": "uint256"
        },
        {
          "internalType": "uint256",
          "name": "averageInteractionRating",
          "type": "uint256"
        },
        {
          "internalType": "uint256",
          "name": "anonymousCount",
          "type": "uint256"
        },
        {
          "internalType": "uint256",
          "name": "completeCount",
          "type": "uint256"
        }
      ],
      "stateMutability": "view",
      "type": "function"
    },
    {
      "inputs": [
        {
          "internalType": "uint256",
          "name": "courseId",
          "type": "uint256"
        }
      ],
      "name": "getCourseStudents",
      "outputs": [
        {
          "internalType": "address[]",
          "name": "",
          "type": "address[]"
        }
      ],
      "stateMutability": "view",
      "type": "function"
    },
    {
      "inputs": [
        {
          "internalType": "uint256",
          "name": "evaluationId",
          "type": "uint256"
        }
      ],
      "name": "getEvaluationDetails",
      "outputs": [
        {
          "internalType": "uint256",
          "name": "id",
          "type": "uint256"
        },
        {
          "internalType": "address",
          "name": "student",
          "type": "address"
        },
        {
          "internalType": "uint256",
          "name": "courseId",
          "type": "uint256"
        },
        {
          "internalType": "uint256",
          "name": "timestamp",
          "type": "uint256"
        },
        {
          "internalType": "string",
          "name": "contentHash",
          "type": "string"
        },
        {
          "internalType": "string[]",
          "name": "imageHashes",
          "type": "string[]"
        },
        {
          "internalType": "bool",
          "name": "isAnonymous",
          "type": "bool"
        },
        {
          "internalType": "uint8",
          "name": "rating",
          "type": "uint8"
        },
        {
          "internalType": "uint8",
          "name": "teachingRating",
          "type": "uint8"
        },
        {
          "internalType": "uint8",
          "name": "contentRating",
          "type": "uint8"
        },
        {
          "internalType": "uint8",
          "name": "interactionRating",
          "type": "uint8"
        },
        {
          "internalType": "bool",
          "name": "isActive",
          "type": "bool"
        }
      ],
      "stateMutability": "view",
      "type": "function"
    },
    {
      "inputs": [
        {
          "internalType": "address",
          "name": "studentAddress",
          "type": "address"
        }
      ],
      "name": "getStudentCourses",
      "outputs": [
        {
          "internalType": "uint256[]",
          "name": "",
          "type": "uint256[]"
        }
      ],
      "stateMutability": "view",
      "type": "function"
    },
    {
      "inputs": [
        {
          "internalType": "address",
          "name": "studentAddress",
          "type": "address"
        }
      ],
      "name": "getStudentDashboard",
      "outputs": [
        {
          "internalType": "uint256",
          "name": "totalJoinedCourses",
          "type": "uint256"
        },
        {
          "internalType": "uint256",
          "name": "evaluatedCourses",
          "type": "uint256"
        },
        {
          "internalType": "uint256",
          "name": "totalEvaluations",
          "type": "uint256"
        }
      ],
      "stateMutability": "view",
      "type": "function"
    },
    {
      "inputs": [
        {
          "internalType": "address",
          "name": "studentAddress",
          "type": "address"
        }
      ],
      "name": "getStudentDetailInfo",
      "outputs": [
        {
          "internalType": "string",
          "name": "name",
          "type": "string"
        },
        {
          "internalType": "string",
          "name": "phone",
          "type": "string"
        },
        {
          "internalType": "string",
          "name": "email",
          "type": "string"
        },
        {
          "internalType": "string",
          "name": "college",
          "type": "string"
        },
        {
          "internalType": "string",
          "name": "major",
          "type": "string"
        },
        {
          "internalType": "string",
          "name": "grade",
          "type": "string"
        },
        {
          "internalType": "string",
          "name": "avatar",
          "type": "string"
        },
        {
          "internalType": "uint256",
          "name": "studentCourseCount",
          "type": "uint256"
        },
        {
          "internalType": "uint256",
          "name": "studentEvalCount",
          "type": "uint256"
        },
        {
          "internalType": "uint256[]",
          "name": "courseIds",
          "type": "uint256[]"
        },
        {
          "internalType": "string[]",
          "name": "courseNames",
          "type": "string[]"
        },
        {
          "internalType": "bool[]",
          "name": "hasEvaluatedArray",
          "type": "bool[]"
        }
      ],
      "stateMutability": "view",
      "type": "function"
    },
    {
      "inputs": [
        {
          "internalType": "address",
          "name": "studentAddress",
          "type": "address"
        }
      ],
      "name": "getStudentEvaluations",
      "outputs": [
        {
          "internalType": "uint256[]",
          "name": "",
          "type": "uint256[]"
        }
      ],
      "stateMutability": "view",
      "type": "function"
    },
    {
      "inputs": [
        {
          "internalType": "uint256",
          "name": "offset",
          "type": "uint256"
        },
        {
          "internalType": "uint256",
          "name": "limit",
          "type": "uint256"
        }
      ],
      "name": "getStudentsBatch",
      "outputs": [
        {
          "internalType": "address[]",
          "name": "addresses",
          "type": "address[]"
        },
        {
          "internalType": "string[]",
          "name": "names",
          "type": "string[]"
        },
        {
          "internalType": "string[]",
          "name": "phones",
          "type": "string[]"
        },
        {
          "internalType": "string[]",
          "name": "emails",
          "type": "string[]"
        },
        {
          "internalType": "string[]",
          "name": "colleges",
          "type": "string[]"
        },
        {
          "internalType": "string[]",
          "name": "majors",
          "type": "string[]"
        },
        {
          "internalType": "string[]",
          "name": "grades",
          "type": "string[]"
        },
        {
          "internalType": "string[]",
          "name": "avatars",
          "type": "string[]"
        },
        {
          "internalType": "uint256[]",
          "name": "coursesCounts",
          "type": "uint256[]"
        },
        {
          "internalType": "uint256[]",
          "name": "evaluationsCounts",
          "type": "uint256[]"
        }
      ],
      "stateMutability": "view",
      "type": "function"
    },
    {
      "inputs": [
        {
          "internalType": "address",
          "name": "teacherAddress",
          "type": "address"
        }
      ],
      "name": "getTeacherDashboard",
      "outputs": [
        {
          "internalType": "uint256",
          "name": "totalCourses",
          "type": "uint256"
        },
        {
          "internalType": "uint256",
          "name": "totalStudents",
          "type": "uint256"
        },
        {
          "internalType": "uint256",
          "name": "totalEvaluations",
          "type": "uint256"
        },
        {
          "internalType": "uint256[]",
          "name": "courseIds",
          "type": "uint256[]"
        },
        {
          "internalType": "string[]",
          "name": "courseNames",
          "type": "string[]"
        },
        {
          "internalType": "uint256[]",
          "name": "studentCounts",
          "type": "uint256[]"
        },
        {
          "internalType": "uint256[]",
          "name": "evaluationCounts",
          "type": "uint256[]"
        },
        {
          "internalType": "uint256[]",
          "name": "averageRatings",
          "type": "uint256[]"
        }
      ],
      "stateMutability": "view",
      "type": "function"
    },
    {
      "inputs": [
        {
          "internalType": "address",
          "name": "teacherAddress",
          "type": "address"
        }
      ],
      "name": "getTeacherDetailInfo",
      "outputs": [
        {
          "internalType": "string",
          "name": "name",
          "type": "string"
        },
        {
          "internalType": "string",
          "name": "phone",
          "type": "string"
        },
        {
          "internalType": "string",
          "name": "email",
          "type": "string"
        },
        {
          "internalType": "string",
          "name": "college",
          "type": "string"
        },
        {
          "internalType": "string",
          "name": "major",
          "type": "string"
        },
        {
          "internalType": "string",
          "name": "grade",
          "type": "string"
        },
        {
          "internalType": "string",
          "name": "avatar",
          "type": "string"
        },
        {
          "internalType": "uint256",
          "name": "totalCourses",
          "type": "uint256"
        },
        {
          "internalType": "uint256",
          "name": "totalStudents",
          "type": "uint256"
        },
        {
          "internalType": "uint256",
          "name": "totalEvaluations",
          "type": "uint256"
        },
        {
          "internalType": "uint256",
          "name": "averageRating",
          "type": "uint256"
        }
      ],
      "stateMutability": "view",
      "type": "function"
    },
    {
      "inputs": [
        {
          "internalType": "uint256",
          "name": "offset",
          "type": "uint256"
        },
        {
          "internalType": "uint256",
          "name": "limit",
          "type": "uint256"
        }
      ],
      "name": "getTeachersBatch",
      "outputs": [
        {
          "internalType": "address[]",
          "name": "addresses",
          "type": "address[]"
        },
        {
          "internalType": "string[]",
          "name": "names",
          "type": "string[]"
        },
        {
          "internalType": "string[]",
          "name": "phones",
          "type": "string[]"
        },
        {
          "internalType": "string[]",
          "name": "emails",
          "type": "string[]"
        },
        {
          "internalType": "string[]",
          "name": "colleges",
          "type": "string[]"
        },
        {
          "internalType": "string[]",
          "name": "majors",
          "type": "string[]"
        },
        {
          "internalType": "string[]",
          "name": "grades",
          "type": "string[]"
        },
        {
          "internalType": "string[]",
          "name": "avatars",
          "type": "string[]"
        },
        {
          "internalType": "uint256[]",
          "name": "coursesCounts",
          "type": "uint256[]"
        },
        {
          "internalType": "uint256[]",
          "name": "averageRatings",
          "type": "uint256[]"
        }
      ],
      "stateMutability": "view",
      "type": "function"
    },
    {
      "inputs": [
        {
          "internalType": "address",
          "name": "userAddress",
          "type": "address"
        }
      ],
      "name": "getUserInfo",
      "outputs": [
        {
          "internalType": "string",
          "name": "name",
          "type": "string"
        },
        {
          "internalType": "string",
          "name": "phone",
          "type": "string"
        },
        {
          "internalType": "string",
          "name": "email",
          "type": "string"
        },
        {
          "internalType": "string",
          "name": "college",
          "type": "string"
        },
        {
          "internalType": "string",
          "name": "major",
          "type": "string"
        },
        {
          "internalType": "string",
          "name": "grade",
          "type": "string"
        },
        {
          "internalType": "string",
          "name": "avatar",
          "type": "string"
        },
        {
          "internalType": "bytes32",
          "name": "role",
          "type": "bytes32"
        },
        {
          "internalType": "bool",
          "name": "isRegistered",
          "type": "bool"
        }
      ],
      "stateMutability": "view",
      "type": "function"
    },
    {
      "inputs": [
        {
          "internalType": "uint256",
          "name": "",
          "type": "uint256"
        },
        {
          "internalType": "address",
          "name": "",
          "type": "address"
        }
      ],
      "name": "hasEvaluated",
      "outputs": [
        {
          "internalType": "bool",
          "name": "",
          "type": "bool"
        }
      ],
      "stateMutability": "view",
      "type": "function"
    },
    {
      "inputs": [
        {
          "internalType": "uint256",
          "name": "",
          "type": "uint256"
        },
        {
          "internalType": "address",
          "name": "",
          "type": "address"
        }
      ],
      "name": "hasJoinedCourse",
      "outputs": [
        {
          "internalType": "bool",
          "name": "",
          "type": "bool"
        }
      ],
      "stateMutability": "view",
      "type": "function"
    },
    {
      "inputs": [
        {
          "internalType": "uint256",
          "name": "courseId",
          "type": "uint256"
        },
        {
          "internalType": "address",
          "name": "studentAddress",
          "type": "address"
        }
      ],
      "name": "isStudentEvaluated",
      "outputs": [
        {
          "internalType": "bool",
          "name": "",
          "type": "bool"
        }
      ],
      "stateMutability": "view",
      "type": "function"
    },
    {
      "inputs": [
        {
          "internalType": "uint256",
          "name": "courseId",
          "type": "uint256"
        },
        {
          "internalType": "address",
          "name": "studentAddress",
          "type": "address"
        }
      ],
      "name": "isStudentJoined",
      "outputs": [
        {
          "internalType": "bool",
          "name": "",
          "type": "bool"
        }
      ],
      "stateMutability": "view",
      "type": "function"
    },
    {
      "inputs": [
        {
          "internalType": "uint256",
          "name": "courseId",
          "type": "uint256"
        }
      ],
      "name": "joinCourse",
      "outputs": [],
      "stateMutability": "nonpayable",
      "type": "function"
    },
    {
      "inputs": [
        {
          "internalType": "uint256",
          "name": "courseId",
          "type": "uint256"
        }
      ],
      "name": "leaveCourse",
      "outputs": [],
      "stateMutability": "nonpayable",
      "type": "function"
    },
    {
      "inputs": [],
      "name": "owner",
      "outputs": [
        {
          "internalType": "address",
          "name": "",
          "type": "address"
        }
      ],
      "stateMutability": "view",
      "type": "function"
    },
    {
      "inputs": [
        {
          "internalType": "string",
          "name": "name",
          "type": "string"
        },
        {
          "internalType": "string",
          "name": "phone",
          "type": "string"
        },
        {
          "internalType": "string",
          "name": "email",
          "type": "string"
        },
        {
          "internalType": "string",
          "name": "college",
          "type": "string"
        },
        {
          "internalType": "string",
          "name": "major",
          "type": "string"
        },
        {
          "internalType": "string",
          "name": "grade",
          "type": "string"
        },
        {
          "internalType": "string",
          "name": "avatar",
          "type": "string"
        },
        {
          "internalType": "bytes32",
          "name": "passwordHash",
          "type": "bytes32"
        },
        {
          "internalType": "bytes32",
          "name": "role",
          "type": "bytes32"
        }
      ],
      "name": "registerUser",
      "outputs": [],
      "stateMutability": "nonpayable",
      "type": "function"
    },
    {
      "inputs": [
        {
          "internalType": "address",
          "name": "",
          "type": "address"
        },
        {
          "internalType": "uint256",
          "name": "",
          "type": "uint256"
        }
      ],
      "name": "studentCourses",
      "outputs": [
        {
          "internalType": "uint256",
          "name": "",
          "type": "uint256"
        }
      ],
      "stateMutability": "view",
      "type": "function"
    },
    {
      "inputs": [
        {
          "internalType": "address",
          "name": "",
          "type": "address"
        },
        {
          "internalType": "uint256",
          "name": "",
          "type": "uint256"
        }
      ],
      "name": "studentEvaluations",
      "outputs": [
        {
          "internalType": "uint256",
          "name": "",
          "type": "uint256"
        }
      ],
      "stateMutability": "view",
      "type": "function"
    },
    {
      "inputs": [
        {
          "internalType": "address",
          "name": "",
          "type": "address"
        }
      ],
      "name": "students",
      "outputs": [
        {
          "internalType": "bool",
          "name": "",
          "type": "bool"
        }
      ],
      "stateMutability": "view",
      "type": "function"
    },
    {
      "inputs": [
        {
          "internalType": "uint256",
          "name": "courseId",
          "type": "uint256"
        },
        {
          "internalType": "string",
          "name": "contentHash",
          "type": "string"
        },
        {
          "internalType": "string[]",
          "name": "imageHashes",
          "type": "string[]"
        },
        {
          "internalType": "uint8",
          "name": "rating",
          "type": "uint8"
        },
        {
          "internalType": "uint8",
          "name": "teachingRating",
          "type": "uint8"
        },
        {
          "internalType": "uint8",
          "name": "contentRating",
          "type": "uint8"
        },
        {
          "internalType": "uint8",
          "name": "interactionRating",
          "type": "uint8"
        },
        {
          "internalType": "bool",
          "name": "isAnonymous",
          "type": "bool"
        }
      ],
      "name": "submitEvaluation",
      "outputs": [
        {
          "internalType": "uint256",
          "name": "",
          "type": "uint256"
        }
      ],
      "stateMutability": "nonpayable",
      "type": "function"
    },
    {
      "inputs": [
        {
          "internalType": "address",
          "name": "",
          "type": "address"
        }
      ],
      "name": "teachers",
      "outputs": [
        {
          "internalType": "bool",
          "name": "",
          "type": "bool"
        }
      ],
      "stateMutability": "view",
      "type": "function"
    },
    {
      "inputs": [
        {
          "internalType": "uint256",
          "name": "courseId",
          "type": "uint256"
        },
        {
          "internalType": "string",
          "name": "name",
          "type": "string"
        },
        {
          "internalType": "uint256",
          "name": "startTime",
          "type": "uint256"
        },
        {
          "internalType": "uint256",
          "name": "endTime",
          "type": "uint256"
        },
        {
          "internalType": "bool",
          "name": "isActive",
          "type": "bool"
        }
      ],
      "name": "updateCourse",
      "outputs": [],
      "stateMutability": "nonpayable",
      "type": "function"
    },
    {
      "inputs": [
        {
          "internalType": "address",
          "name": "",
          "type": "address"
        }
      ],
      "name": "users",
      "outputs": [
        {
          "internalType": "string",
          "name": "name",
          "type": "string"
        },
        {
          "internalType": "string",
          "name": "phone",
          "type": "string"
        },
        {
          "internalType": "string",
          "name": "email",
          "type": "string"
        },
        {
          "internalType": "string",
          "name": "college",
          "type": "string"
        },
        {
          "internalType": "string",
          "name": "major",
          "type": "string"
        },
        {
          "internalType": "string",
          "name": "grade",
          "type": "string"
        },
        {
          "internalType": "string",
          "name": "avatar",
          "type": "string"
        },
        {
          "internalType": "bytes32",
          "name": "passwordHash",
          "type": "bytes32"
        },
        {
          "internalType": "bytes32",
          "name": "role",
          "type": "bytes32"
        },
        {
          "internalType": "bool",
          "name": "isRegistered",
          "type": "bool"
        }
      ],
      "stateMutability": "view",
      "type": "function"
    },
    {
      "inputs": [
        {
          "internalType": "bytes32",
          "name": "passwordHash",
          "type": "bytes32"
        }
      ],
      "name": "verifyPassword",
      "outputs": [
        {
          "internalType": "bool",
          "name": "",
          "type": "bool"
        }
      ],
      "stateMutability": "view",
      "type": "function"
    }
  ],
  "bytecode": "0x6080806040523461004157600080546001600160a01b0319163390811782558152600460205260409020805460ff191660011790556157299081620000478239f35b600080fdfe610220604052600436101561001357600080fd5b60003560e01c8063016c14da14613ac257806304e48bd114613a7057806306a4dc6814613a1557806309029aac1461395e578063128af981146138c157806316ac3b121461389057806317b7e03e14613852578063181c5c82146138215780632b00e0f31461346657806333c63b17146133a1578063429b62e51461336257806355172bc71461313d57806358716cc51461306c5780635a52b26a146130435780635e8b20fd14612e4757806360dd60e314612dbd57806360fa644314612d595780636386c1c714612bdd5780636605515914612bbf5780636811cdaf14612b565780636e274a3414612b2557806373e29f7614612a3957806375b238fc146129fe57806386e5c15a146129c35780638abb44561461267f5780638c3fe4f2146126325780638da5cb5b1461260957806396f979d214612577578063a6c807a914612538578063a87430ba1461240c578063aa536388146122f8578063ae0ec5e414612024578063aefe24d414611fa8578063af6db11714611f41578063c8cd44d214611ef4578063c9ace3f114611ed6578063cca0903314611e8c578063d40761e414611e15578063e620ceb81461152e578063e6a852cc146114ec578063e9523c9714611435578063e9e309271461136a578063ed072a07146111e6578063f0a47f78146111a7578063f0a486b214611140578063f7be43fb14611105578063f8120b42146105ed578063fa3ef5a91461055e578063fd95cc51146105065763ffb24e9b1461024357600080fd5b346105015760a0366003190112610501576004356001600160401b0360243581811161050157610277903690600401613fae565b90608435908115158203610501578360005260206002815261029f856040600020541461408c565b336000526005815260ff6040600020541680156104ee575b80156104da575b6102c790614032565b600085815260028252604090206001808201549193916001600160a01b0390811633149081156104c1575b81156104b3575b501561046e5760028401928651928311610458576103178454613d18565b601f811161041d575b5080601f84116001146103ab5750918080926005969594610377996000946103a0575b50501b916000199060031b1c19161790555b60443560038201556064356004820155019060ff801983541691151516179055565b33907f6b7bcf044e00829a998e3e09bdef036fe2317de7a3f1ec7f04927b0973b73594600080a3005b015192503880610343565b9193949596601f1984168660005283600020936000905b828210610406575050916103779897959391856005989694106103ed575b505050811b019055610355565b015160001960f88460031b161c191690553880806103e0565b8088869782949787015181550196019401906103c2565b610448908560005282600020601f860160051c81019184871061044e575b601f0160051c019061401b565b38610320565b909150819061043b565b634e487b7160e01b600052604160045260246000fd5b60405162461bcd60e51b815260048101849052601960248201527f436861696e526174653a206e6f7420617574686f72697a6564000000000000006044820152606490fd5b9050600054163314386102f9565b9050336000526004845260ff60406000205416906102f2565b506000546001600160a01b031633146102be565b506004815260ff604060002054166102b7565b600080fd5b346105015760403660031901126105015761051f613c3a565b6001600160a01b03166000908152600b60205260409020805460243591908210156105015760209161055091613be5565b90546040519160031b1c8152f35b3461050157602080600319360112610501576001600160a01b03610580613c3a565b1660005260088152604060002090604051808383829554938481520190600052836000209260005b858282106105d7575050506105bf92500383613dc0565b6105d3604051928284938452830190613b43565b0390f35b85548452600195860195889550930192016105a8565b3461050157610120366003190112610501576004356001600160401b0381116105015761061e903690600401613fae565b6024356001600160401b0381116105015761063d903690600401613fae565b906044356001600160401b0381116105015761065d903690600401613fae565b6064356001600160401b0381116105015761067c903690600401613fae565b6084356001600160401b0381116105015761069b903690600401613fae565b60a4356001600160401b038111610501576106ba903690600401613fae565b9160c4356001600160401b038111610501576106da903690600401613fae565b9333600052600160205260ff600960406000200154166110b5576040519661070188613d52565b868852602088015260408701526060860152608085015260a084015260c083015260e43560e0830152610104356101008301526001610120830152336000526001602052604060002082519283516001600160401b038111610458576107678354613d18565b601f8111611083575b506020601f821160011461101a57819293949560009261100f575b50508160011b916000199060031b1c19161782555b60208101519283516001600160401b038111610458576107c36001850154613d18565b601f8111610fda575b506020601f8211600114610f6b578192939495600092610f60575b50508160011b916000199060031b1c19161760018401555b60408201519283516001600160401b038111610458576108226002830154613d18565b601f8111610f2b575b506020601f8211600114610ebc578192939495600092610eb1575b50508160011b916000199060031b1c19161760028201555b60608301519283516001600160401b038111610458576108816003840154613d18565b601f8111610e7c575b506020601f8211600114610e0d578192939495600092610e02575b50508160011b916000199060031b1c19161760038301555b60808101519283516001600160401b038111610458576108e06004850154613d18565b601f8111610dcd575b506020601f8211600114610d5e578192939495600092610d53575b50508160011b916000199060031b1c19161760048401555b60a08201519283516001600160401b0381116104585761093f6005830154613d18565b601f8111610d1e575b506020601f8211600114610caf578192939495600092610ca4575b50508160011b916000199060031b1c19161760058201555b60c08301519283516001600160401b0381116104585761099e6006840154613d18565b601f8111610c6f575b506020601f8211600114610bf657918161012092600994610a0f9798600092610beb575b50508160011b916000199060031b1c19161760068501555b60e0810151600785015561010081015160088501550151151591019060ff801983541691151516179055565b610104357fa49807205ce4d355092ef5a8a18f56e8913cf4a201fbe287825b095693c2177503610b06573360005260046020526040600020600160ff19825416179055600f54600160401b811015610458576001810180600f55811015610af057600f6000527f8d1108e10bcb7c27dddfc02ed9d693a074039d026cf4ea4240b40f7d581ac8020180546001600160a01b031916331790555b7fccd232d370002532b298c205b90d1c287a6f1913b8c7113733b47a81fece11a0610ade60405192604084526040840190613c66565b916101043560208201528033930390a2005b634e487b7160e01b600052603260045260246000fd5b610104357fd16e204b8a42a15ab0ea6bb8ec1ecdfbe69f38074fc865323af19efe7d9573d903610b89573360005260056020526040600020600160ff19825416179055600e54600160401b81101561045857806001610b689201600e55613b77565b81546001600160a01b0360039290921b91821b19163390911b179055610aa8565b7f36a5c4aaacb6b388bbd448bf11096b7dafc5652bcc9046084fd0e95b1fb0b2cc6101043503610aa8573360005260066020526040600020600160ff19825416179055600d54600160401b81101561045857806001610b689201600d55613bae565b0151905088806109cb565b6006840160005260206000209560005b601f1984168110610c57575082610a0f96976009959360019361012096601f19811610610c3e575b505050811b0160068501556109e3565b015160001960f88460031b161c19169055888080610c2e565b82820151885560019097019660209283019201610c06565b610c9e90600685016000526020600020601f840160051c8101916020851061044e57601f0160051c019061401b565b856109a7565b015190508580610963565b6005830160005260206000209060005b601f1984168110610d06575060019394959683601f19811610610ced575b505050811b01600582015561097b565b015160001960f88460031b161c19169055858080610cdd565b9091602060018192858b015181550193019101610cbf565b610d4d90600584016000526020600020601f840160051c8101916020851061044e57601f0160051c019061401b565b85610948565b015190508580610904565b6004850160005260206000209060005b601f1984168110610db5575060019394959683601f19811610610d9c575b505050811b01600484015561091c565b015160001960f88460031b161c19169055858080610d8c565b9091602060018192858b015181550193019101610d6e565b610dfc90600486016000526020600020601f840160051c8101916020851061044e57601f0160051c019061401b565b856108e9565b0151905085806108a5565b6003840160005260206000209060005b601f1984168110610e64575060019394959683601f19811610610e4b575b505050811b0160038301556108bd565b015160001960f88460031b161c19169055858080610e3b565b9091602060018192858b015181550193019101610e1d565b610eab90600385016000526020600020601f840160051c8101916020851061044e57601f0160051c019061401b565b8561088a565b015190508580610846565b6002830160005260206000209060005b601f1984168110610f13575060019394959683601f19811610610efa575b505050811b01600282015561085e565b015160001960f88460031b161c19169055858080610eea565b9091602060018192858b015181550193019101610ecc565b610f5a90600284016000526020600020601f840160051c8101916020851061044e57601f0160051c019061401b565b8561082b565b0151905085806107e7565b6001850160005260206000209060005b601f1984168110610fc2575060019394959683601f19811610610fa9575b505050811b0160018401556107ff565b015160001960f88460031b161c19169055858080610f99565b9091602060018192858b015181550193019101610f7b565b61100990600186016000526020600020601f840160051c8101916020851061044e57601f0160051c019061401b565b856107cc565b01519050858061078b565b8360005260206000209060005b601f198416811061106b575060019394959683601f19811610611052575b505050811b0182556107a0565b015160001960f88460031b161c19169055858080611045565b9091602060018192858b015181550193019101611027565b6110af90846000526020600020601f840160051c8101916020851061044e57601f0160051c019061401b565b85610770565b60405162461bcd60e51b815260206004820152602260248201527f436861696e526174653a207573657220616c7265616479207265676973746572604482015261195960f21b6064820152608490fd5b346105015760003660031901126105015760206040517f36a5c4aaacb6b388bbd448bf11096b7dafc5652bcc9046084fd0e95b1fb0b2cc8152f35b346105015760403660031901126105015760043561115c613c50565b90806000526002602052611176816040600020541461408c565b600052600a60205260406000209060018060a01b0316600052602052602060ff604060002054166040519015158152f35b34610501576020366003190112610501576001600160a01b036111c8613c3a565b166000526005602052602060ff604060002054166040519015158152f35b346105015760208060031936011261050157600435908160005260028152611214826040600020541461408c565b336000526006815260ff604060002054168015611356575b611235906140d7565b81600052600a8152604060002033600052815261125960ff60406000205416614157565b8160005260078152604060002033600052815260ff604060002054166112f65760029082600052600a81526040600020336000528152604060002060ff19815416905582600052526006604060002001805480156112e05760001901905533907f497941b8fa39d9cb0342836ad143b09296c513385dba2fa8c33a934e1c6fe922600080a3005b634e487b7160e01b600052601160045260246000fd5b6084906040519062461bcd60e51b82526004820152603360248201527f436861696e526174653a2073747564656e742068617320616c7265616479206560448201527276616c75617465642074686520636f7572736560681b6064820152fd5b506000546001600160a01b0316331461122c565b34610501576000366003190112610501573360005260206004815260ff604060002054168015611421575b61139e90614db3565b60405190818282600d549283815201600d6000527fd7b6990105719101dabeb77144f2a3385c8033acd3af97e9423a695e81ad1eb59260005b85828210611402575050506113ee92500383613dc0565b6105d3604051928284938452830190613bfd565b85546001600160a01b03168452600195860195889550930192016113d7565b506000546001600160a01b03163314611395565b34610501576000366003190112610501573360005260206004815260ff6040600020541680156114d8575b61146990614db3565b60405190818282600f549283815201600f6000527f8d1108e10bcb7c27dddfc02ed9d693a074039d026cf4ea4240b40f7d581ac8029260005b858282106114b9575050506113ee92500383613dc0565b85546001600160a01b03168452600195860195889550930192016114a2565b506000546001600160a01b03163314611460565b3461050157602036600319011261050157600435600d5481101561050157611515602091613bae565b905460405160039290921b1c6001600160a01b03168152f35b3461050157610100366003190112610501576024356001600160401b0381116105015761155f903690600401613fae565b6001600160401b036044351161050157366023604435011215610501576044356004013561158c81614004565b9061159a6040519283613dc0565b80825260208201903660248260051b60443501011161050157602460443501915b60248260051b60443501018310611de25750505060643560ff81168103610501576084359060ff821682036105015760a4359060ff821682036105015760c4359160ff831683036105015760e4359182151583036105015733600052600660205260ff604060002054168015611dce575b611635906140d7565b60043560005260026020526116526004356040600020541461408c565b6004356000526002602052604060002060038101544210159081611dbf575b5015611d6a57600435600052600a60205260406000203360005260205261169f60ff60406000205416614157565b600435600052600760205260406000203360005260205260ff60406000205416611d2557600160ff8216101580611d17575b15611cd257600160ff8616101580611cc4575b15611c7457600160ff8316101580611c66575b15611c1757600160ff8516101580611c09575b15611bb65760ff94858094928193601154996117258b61407d565b6011556040519b6117358d613d6e565b8b8d528c6020339101528c60406004359101528c60604291015260808d015260a08c0152151560c08b01521660e08901521661010087015216610120850152166101408301526001610160830152806000526003602052604060002090825182556001820160018060a01b036020850151166bffffffffffffffffffffffff60a01b825416179055604083015160028301556060830151600383015560808301519283516001600160401b038111610458576117f46004850154613d18565b601f8111611b81575b506020601f8211600114611b12578192939495600092611b07575b50508160011b916000199060031b1c19161760048401555b60a0810151805190600160401b8211610458576005850154826005870155808310611a8f575b5060200190600585016000526020600020916000905b82821061197a576020868660068a019061189860c08201511515839060ff801983541691151516179055565b60e081015190825462ff000061010083015160101b1663ff00000061012084015160181b169161ff0065ff000000000061016064ff000000006101408801518c1b16960151151560281b169560081b169065ffffffffff001916171717171790556004356000526007825260406000203360005282526040600020600160ff1982541617905560088252611930816040600020614122565b60043560005260098252611948816040600020614122565b6040519060043533827f423285530582a702e795200cb363c60e7c81dc3c09a08566dcc4c6f766ee3110600080a48152f35b80518051906001600160401b038211610458576119978654613d18565b601f8111611a5d575b50602090601f83116001146119ed5792826001949360209386956000926119e2575b5050600019600383901b1c191690841b1787555b0194019101909261186c565b015190508c806119c2565b908660005260206000209160005b601f1985168110611a45575083602093600196938796938794601f19811610611a2c575b505050811b0187556119d6565b015160001960f88460031b161c191690558c8080611a1f565b919260206001819286850151815501940192016119fb565b611a8990876000526020600020601f850160051c8101916020861061044e57601f0160051c019061401b565b896119a0565b600586016000526020600020908382015b8183018110611ab0575050611856565b80611abd60019254613d18565b80611aca575b5001611aa0565b601f81118314611ae05750600081555b89611ac3565b600090828252611afe601f60208420920160051c820185830161401b565b81835555611ada565b015190508580611818565b6004850160005260206000209060005b601f1984168110611b69575060019394959683601f19811610611b50575b505050811b016004840155611830565b015160001960f88460031b161c19169055858080611b40565b9091602060018192858b015181550193019101611b22565b611bb090600486016000526020600020601f840160051c8101916020851061044e57601f0160051c019061401b565b856117fd565b60405162461bcd60e51b815260206004820152602560248201527f436861696e526174653a20696e76616c696420696e746572616374696f6e20726044820152646174696e6760d81b6064820152608490fd5b50600560ff8516111561170a565b60405162461bcd60e51b815260206004820152602160248201527f436861696e526174653a20696e76616c696420636f6e74656e7420726174696e6044820152606760f81b6064820152608490fd5b50600560ff831611156116f7565b60405162461bcd60e51b815260206004820152602260248201527f436861696e526174653a20696e76616c6964207465616368696e6720726174696044820152616e6760f01b6064820152608490fd5b50600560ff861611156116e4565b60405162461bcd60e51b815260206004820152601960248201527f436861696e526174653a20696e76616c696420726174696e67000000000000006044820152606490fd5b50600560ff821611156116d1565b60405162461bcd60e51b815260206004820152601c60248201527f436861696e526174653a20616c7265616479206576616c7561746564000000006044820152606490fd5b60405162461bcd60e51b815260206004820152602760248201527f436861696e526174653a206e6f742077697468696e206576616c756174696f6e604482015266081c195c9a5bd960ca1b6064820152608490fd5b60049150015442111588611671565b506000546001600160a01b0316331461162c565b6001600160401b0383351161050157602080602492611e08368588356044350101613fae565b81520193019290506115bb565b3461050157602080600319360112610501576001600160a01b03611e37613c3a565b16600052600b8152604060002090604051808383829554938481520190600052836000209260005b85828210611e76575050506105bf92500383613dc0565b8554845260019586019588955093019201611e5f565b3461050157604036600319011261050157611ea5613c3a565b6001600160a01b03166000908152600860205260409020805460243591908210156105015760209161055091613be5565b34610501576000366003190112610501576020601154604051908152f35b3461050157604036600319011261050157611f0d613c50565b600435600052600760205260406000209060018060a01b0316600052602052602060ff604060002054166040519015158152f35b3461050157604036600319011261050157600435611f5d613c50565b90806000526002602052611f77816040600020541461408c565b600052600760205260406000209060018060a01b0316600052602052602060ff604060002054166040519015158152f35b34610501576105d3611fe4611fbc36613d02565b9033600052600460205260ff604060002054168015612010575b611fdf90614db3565b615104565b60e0949294519161010051956101c051966101605197610180519861020051996040519a8b9a8b613e87565b506000546001600160a01b03163314611fd6565b34610501576060366003190112610501576001600160401b0360043581811161050157612055903690600401613fae565b9060243591604435336000526020936005855260ff6040600020541680156122e5575b80156122d1575b61208890614032565b8181101561228c576010549361209d8561407d565b601055604051926120ad84613d8a565b8584528684019233845260408501868152606086019182526080860192835260a0860193600180865260c0880196600088528a60005260028c526040600020985189558189019060018060a01b039051166bffffffffffffffffffffffff60a01b82541617905560028801925180519283116104585761212d8454613d18565b8c601f821161225b575b50508b908c601f85116001146121e757509280612196979593819360069b9a98966000946121dc575b50501b916000199060031b1c19161790555b516003870155516004860155511515600585019060ff801983541691151516179055565b51910155817fd26ee57739c2f8845178c96a37348973f3edc5907d342cdf65382f9a84474b89604051858152806121d1339588830190613c66565b0390a3604051908152f35b015192508f80612160565b9190601f9493941984168660005283600020936000905b8282106122445750509160069a9997959391856121969a9896941061222b575b505050811b019055612172565b015160001960f88460031b161c191690558d808061221e565b8088869782949787015181550196019401906121fe565b61228591866000528160002090601f870160051c820192871061044e57601f0160051c019061401b565b8c8c612137565b60405162461bcd60e51b815260048101869052601e60248201527f436861696e526174653a20696e76616c69642074696d6520706572696f6400006044820152606490fd5b506000546001600160a01b0316331461207f565b506004855260ff60406000205416612078565b3461050157602080600319360112610501576001600160a01b0361231a613c3a565b16806000526006825260ff9161233683604060002054166156a7565b81600052600b8152604060002092604051808584829754938481520190600052846000209260005b868282106123f65750505061237592500385613dc0565b83519260009160005b8581106123a95750506060945060005260088252604060002054916040519384528301526040820152f35b6123b381886141b8565b5160005260078552604060002083600052855281604060002054166123e1575b6123dc9061407d565b61237e565b926123ee6123dc9161407d565b9390506123d3565b855484526001958601958a95509301920161235e565b34610501576020366003190112610501576001600160a01b0361242d613c3a565b166000526001602052604060002061244481613de1565b61245060018301613de1565b9161245d60028201613de1565b61246960038301613de1565b9161247660048201613de1565b61248260058301613de1565b61248e60068401613de1565b916007840154956008850154946009015460ff1695604051998a99610140808c528b016124ba91613c66565b8a810360208c01526124cb91613c66565b89810360408b01526124dc91613c66565b88810360608a01526124ed91613c66565b87810360808901526124fe91613c66565b86810360a088015261250f91613c66565b85810360c087015261252091613c66565b9260e085015261010084015215156101208301520390f35b34610501576020366003190112610501576001600160a01b03612559613c3a565b166000526006602052602060ff604060002054166040519015158152f35b346105015760203660031901126105015760043560005260026020526040600020805460018060a01b03600183015416916125b460028201613de1565b60038201549160048101546125ee600660ff600585015416930154936040519788978852602088015260e0604088015260e0870190613c66565b9360608601526080850152151560a084015260c08301520390f35b34610501576000366003190112610501576000546040516001600160a01b039091168152602090f35b346105015760403660031901126105015761264b613c50565b600435600052600a60205260406000209060018060a01b0316600052602052602060ff604060002054166040519015158152f35b3461050157602036600319011261050157612698613c3a565b33600052600460205260ff6040600020541680156129af575b6126ba90614db3565b6001600160a01b0381166000908152600660205260409020546126df9060ff166156a7565b60018060a01b038116600052600160205260406000206040519161270283613d52565b61270b82613de1565b835261271960018301613de1565b602084015261272a60028301613de1565b604084015261273b60038301613de1565b606084015261274c60048301613de1565b608084015261275d60058301613de1565b60a084015260ff600961277260068501613de1565b938460c0870152600781015460e087015260088101546101008701520154161515610120840152825191602084015193604081015190606081015160a060808301519201519360018060a01b038616600052600b6020526040600020946040518087602082995493848152019060005260206000209260005b81811061299657505061280092500387613dc0565b85519360018060a01b038816600052600860205260406000205493612824866142d7565b9661282e876145f5565b98612838886142d7565b9a8a60005b8b8b821061290a5750505050506040519b8c9b8c6101808091528d0161286291613c66565b8c810360208e015261287391613c66565b8b810360408d015261288491613c66565b8a810360608c015261289591613c66565b89810360808b01526128a691613c66565b88810360a08a01526128b791613c66565b87810360c08901526128c891613c66565b9160e08701526101008601528481036101208601526128e691613b43565b8381036101408501526128f891613ca6565b8281036101608401526105d391613f78565b6129548261298f94819361292a612921848b6141b8565b519586926141b8565b528360005260026020526129446002604060002001613de1565b61294e83836141b8565b526141b8565b506000526007602052604060002060018060a01b0384166000526020528d6129858260ff60406000205416926141b8565b901515905261407d565b8b9061283d565b845483526001948501948b9450602090930192016127eb565b506000546001600160a01b031633146126b1565b346105015760003660031901126105015760206040517fd16e204b8a42a15ab0ea6bb8ec1ecdfbe69f38074fc865323af19efe7d9573d98152f35b346105015760003660031901126105015760206040517fa49807205ce4d355092ef5a8a18f56e8913cf4a201fbe287825b095693c217758152f35b34610501576060366003190112610501576004358060005260026020528060406000205414612a679061408c565b604435602435612a769261464c565b946102009796979491949392935190604051988998610120808b528a01612a9c91613b43565b89810360208b0152612aad91613bfd565b88810360408a0152612abe91613ca6565b8781036060890152612acf91613b43565b8681036080880152612ae091613f41565b85810360a0870152612af191613f41565b84810360c0860152612b0291613f41565b83810360e0850152612b1391613f41565b8281036101008401526105d391613f78565b3461050157612b3336613d02565b90600052600c602052604060002080548210156105015760209161151591613be5565b34610501576105d3612b92612b6a36613d02565b9033600052600460205260ff604060002054168015612bab575b612b8d90614db3565b614dff565b9660409a989a969196959295949394519a8b9a8b613e87565b506000546001600160a01b03163314612b84565b34610501576000366003190112610501576020601054604051908152f35b34610501576020366003190112610501576001600160a01b03612bfe613c3a565b1660005260016020526040600020604051612c1881613d52565b612c2182613de1565b8152612c2f60018301613de1565b6020820190815291612c4360028201613de1565b6040830190815290612c5760038201613de1565b6060840190815290612c6b60048201613de1565b6080850190815292612c7f60058301613de1565b60a0860190815290612c9360068401613de1565b918260c0880152600784015460e08801526008840154956101009487868a01526009015460ff1615159561012098878a8201525199519351905191519251936040519a8a8c9b8c528b01612ce691613c66565b8a810360208c0152612cf791613c66565b89810360408b0152612d0891613c66565b88810360608a0152612d1991613c66565b8781036080890152612d2a91613c66565b86810360a0880152612d3b91613c66565b85810360c0870152612d4c91613c66565b9260e08501528301520390f35b346105015760203660031901126105015760e0612d90600435806000526002602052612d8b816040600020541461408c565b614309565b94604094919493929351968752602087015260408601526060850152608084015260a083015260c0820152f35b3461050157602080600319360112610501576004358060005260028252612dea816040600020541461408c565b600052600c8152604060002090604051808383829554938481520190600052836000209260005b85828210612e28575050506113ee92500383613dc0565b85546001600160a01b0316845260019586019588955093019201612e11565b346105015760208060031936011261050157600435908160005260028152612e75826040600020541461408c565b336000526006815260ff60406000205416801561302f575b612e96906140d7565b816000526002815260ff6005604060002001541615612feb5781600052600a8152604060002033600052815260ff60406000205416612f8e5781600052600a815260406000203360005281526040600020600160ff19825416179055600b8152612f04826040600020614122565b81600052600c8152604060002090815491600160401b8310156104585782612f33916001600295018155613be5565b81549060031b9033821b9160018060a01b03901b191617905582600052526006604060002001612f63815461407d565b905533907f9f84e7caf9247b5be496d99d1d314ac8b4dce0d0fd7abb0ed925801f614b008d600080a3005b6084906040519062461bcd60e51b82526004820152603060248201527f436861696e526174653a2073747564656e742068617320616c7265616479206a60448201526f6f696e65642074686520636f7572736560801b6064820152fd5b6064906040519062461bcd60e51b82526004820152601f60248201527f436861696e526174653a20636f75727365206973206e6f7420616374697665006044820152fd5b506000546001600160a01b03163314612e8d565b3461050157602036600319011261050157600435600e5481101561050157611515602091613b77565b34610501576000366003190112610501576010546000805b8281106131005750613095906142d7565b906000805b8281106130b757604051602080825281906105d390820187613b43565b80600052600260205260ff600560406000200154166130df575b6130da9061407d565b61309a565b906130f881836130f26130da94886141b8565b5261407d565b9190506130d1565b80600052600260205260ff60056040600020015416613128575b6131239061407d565b613084565b906131356131239161407d565b91905061311a565b3461050157602036600319011261050157600435806000526003602052806040600020540361331157600052600360205260406000206040519061318082613d6e565b805482526001808201546001600160a01b031660208401526002820154604084015260038201546060840152906131b960048201613de1565b6080840152600581019182546131ce81614004565b936131dc6040519586613dc0565b818552602085019060005260206000206000915b8383106132f55787876006888260a0850152015460ff808216151560c0850152808260081c1660e0850152808260101c16610100850152808260181c16610120850152808260201c16610140850152808260281c1615156101608501526132ab84519361329d60018060a01b03602088015116966040810151906080606082015191015191604051998a998a5260208a015260408901526060880152610180806080890152870190613c66565b9085820360a0870152613ca6565b91818116151560c0850152818160081c1660e0850152818160101c16610100850152818160181c16610120850152818160201c1661014085015260281c1615156101608301520390f35b846020819261330385613de1565b8152019201920191906131f0565b60405162461bcd60e51b8152602060048201526024808201527f436861696e526174653a206576616c756174696f6e20646f6573206e6f7420656044820152631e1a5cdd60e21b6064820152608490fd5b34610501576020366003190112610501576001600160a01b03613383613c3a565b166000526004602052602060ff604060002054166040519015158152f35b346105015760203660031901126105015760043560005260036020526040600020805460018060a01b036001830154169161341a600282015491600381015460066133ee60048401613de1565b920154936040519687968752602087015260408601526060850152610160806080860152840190613c66565b9060ff90818116151560a0850152818160081c1660c0850152818160101c1660e0850152818160181c16610100850152818160201c1661012085015260281c1615156101408301520390f35b346105015760203660031901126105015761347f613c3a565b33600052600460205260ff60406000205416801561380d575b6134a190614db3565b6001600160a01b03811660009081526005602052604090205460ff16156137c85760018060a01b03811660005260016020526040600020604051916134e583613d52565b6134ee82613de1565b83526134fc60018301613de1565b602084015261350d60028301613de1565b604084015261351e60038301613de1565b606084015261352f60048301613de1565b608084015261354060058301613de1565b60a084015260ff600961355560068501613de1565b938460c0870152600781015460e08701526008810154610100870152015416151561012084015282519060208401519160408501519260608601519160a0608088015197015194600096600096600099600060a0526000608052601054965b608051888110156136f2576000908152600260205260409020600101546001600160a01b038a81169116146135f7575b6135ef60805161407d565b6080526135b4565b9961360e613629919a99979593989694929a61407d565b986080516000526002602052600660406000200154906141cc565b96608051600052600960205260406000209b604051809d8e91602082549182815201916000526020600020906000905b8082106136da575050508161367c9392613674920390613dc0565b8d51906141cc565b9960005b8d518110156136c857806136988f926136c3936141b8565b5160005260036020526136bb60ff60066040600020015460081c1660a0516141cc565b60a05261407d565b613680565b5091939597999b5091939597996135e4565b90919260016020819286548152019401920190613659565b50928b928a928c96958515156000146137c05760a0516064810290808204606414901517156112e05786613725916141d9565b965b6040519a8b9a610160808d528c0161373e91613c66565b8b810360208d015261374f91613c66565b8a810360408c015261376091613c66565b89810360608b015261377191613c66565b88810360808a015261378291613c66565b87810360a089015261379391613c66565b86810360c08801526137a491613c66565b9360e08601526101008501526101208401526101408301520390f35b600096613727565b60405162461bcd60e51b815260206004820152601860248201527f436861696e526174653a206e6f742061207465616368657200000000000000006044820152606490fd5b506000546001600160a01b03163314613498565b346105015761382f36613d02565b906000526009602052604060002080548210156105015760209161055091613be5565b346105015760203660031901126105015760206138886004358060005260028352613883816040600020541461408c565b6141f9565b604051908152f35b3461050157602036600319011261050157336000526001602052602060043560076040600020015414604051908152f35b34610501576020366003190112610501576139346139426105d36139506138ee6138e9613c3a565b614a34565b9195949792939890613926610180519761020051966040519c8d9c8d5260208d015260408c01526101008060608d01528b0190613b43565b9089820360808b0152613ca6565b9087820360a0890152613b43565b9085820360c0870152613b43565b9083820360e0850152613b43565b34610501576000366003190112610501573360005260206004815260ff604060002054168015613a01575b61399290614db3565b60405190818282600e549283815201600e6000527fbb7b4a454dc3493923482f07822329ed19e8244eff582cc204f8554c3620c3fd9260005b858282106139e2575050506113ee92500383613dc0565b85546001600160a01b03168452600195860195889550930192016139cb565b506000546001600160a01b03163314613989565b3461050157602036600319011261050157600435600f5481101561050157600f6000527f8d1108e10bcb7c27dddfc02ed9d693a074039d026cf4ea4240b40f7d581ac80201546040516001600160a01b039091168152602090f35b3461050157600036600319011261050157601054613a8d816142d7565b9060005b818110613aae57604051602080825281906105d390820186613b43565b80806130f2613abd93866141b8565b613a91565b3461050157602080600319360112610501576004358060005260028252613aef816040600020541461408c565b60005260098152604060002090604051808383829554938481520190600052836000209260005b85828210613b2d575050506105bf92500383613dc0565b8554845260019586019588955093019201613b16565b90815180825260208080930193019160005b828110613b63575050505090565b835185529381019392810192600101613b55565b600e54811015610af057600e6000527fbb7b4a454dc3493923482f07822329ed19e8244eff582cc204f8554c3620c3fd0190600090565b600d54811015610af057600d6000527fd7b6990105719101dabeb77144f2a3385c8033acd3af97e9423a695e81ad1eb50190600090565b8054821015610af05760005260206000200190600090565b90815180825260208080930193019160005b828110613c1d575050505090565b83516001600160a01b031685529381019392810192600101613c0f565b600435906001600160a01b038216820361050157565b602435906001600160a01b038216820361050157565b919082519283825260005b848110613c92575050826000602080949584010152601f8019910116010190565b602081830181015184830182015201613c71565b908082519081815260208091019281808460051b8301019501936000915b848310613cd45750505050505090565b9091929394958480613cf2600193601f198682030187528a51613c66565b9801930193019194939290613cc4565b6040906003190112610501576004359060243590565b90600182811c92168015613d48575b6020831014613d3257565b634e487b7160e01b600052602260045260246000fd5b91607f1691613d27565b61014081019081106001600160401b0382111761045857604052565b61018081019081106001600160401b0382111761045857604052565b60e081019081106001600160401b0382111761045857604052565b602081019081106001600160401b0382111761045857604052565b90601f801991011681019081106001600160401b0382111761045857604052565b9060405191826000825492613df584613d18565b908184526001948581169081600014613e645750600114613e21575b5050613e1f92500383613dc0565b565b9093915060005260209081600020936000915b818310613e4c575050613e1f93508201013880613e11565b85548884018501529485019487945091830191613e34565b915050613e1f94506020925060ff191682840152151560051b8201013880613e11565b9895613ef6613f2096613ee88c613f3e9e9c98613eda613f1299613ecc613f2f9f9a613ebe613f049b610140808952880190613bfd565b908682036020880152613ca6565b908482036040860152613ca6565b916060818403910152613ca6565b8c810360808e015290613ca6565b908a820360a08c0152613ca6565b9088820360c08a0152613ca6565b9086820360e0880152613ca6565b90848203610100860152613b43565b91610120818403910152613b43565b90565b90815180825260208080930193019160005b828110613f61575050505090565b835160ff1685529381019392810192600101613f53565b90815180825260208080930193019160005b828110613f98575050505090565b8351151585529381019392810192600101613f8a565b81601f82011215610501578035906001600160401b0382116104585760405192613fe2601f8401601f191660200185613dc0565b8284526020838301011161050157816000926020809301838601378301015290565b6001600160401b0381116104585760051b60200190565b818110614026575050565b6000815560010161401b565b1561403957565b606460405162461bcd60e51b815260206004820152602060248201527f436861696e526174653a2063616c6c6572206973206e6f7420746561636865726044820152fd5b60001981146112e05760010190565b1561409357565b606460405162461bcd60e51b815260206004820152602060248201527f436861696e526174653a20636f7572736520646f6573206e6f742065786973746044820152fd5b156140de57565b606460405162461bcd60e51b815260206004820152602060248201527f436861696e526174653a2063616c6c6572206973206e6f742073747564656e746044820152fd5b8054600160401b8110156104585761413f91600182018155613be5565b819291549060031b91821b91600019901b1916179055565b1561415e57565b60405162461bcd60e51b815260206004820152602c60248201527f436861696e526174653a2073747564656e7420686173206e6f74206a6f696e6560448201526b642074686520636f7572736560a01b6064820152608490fd5b8051821015610af05760209160051b010190565b919082018092116112e057565b81156141e3570490565b634e487b7160e01b600052601260045260246000fd5b9060009182526020600981526040808420918151808483829654938481520190885283882092885b858282106142c15750505061423892500384613dc0565b8251156142bc578492835b81518510156142835761427761427d9161425d87856141b8565b5189526003855260ff6006878b20015460081c16906141cc565b9461407d565b93614243565b93509150506064820291808304606414901517156142a857613f3e92935051906141d9565b634e487b7160e01b84526011600452602484fd5b505050565b8554845260019586019589955093019201614221565b906142e182614004565b6142ee6040519182613dc0565b82815280926142ff601f1991614004565b0190602036910137565b60005260096020526040600020906040518083602082955493848152019060005260206000209260005b8181106145dc57505061434892500383613dc0565b815180156145c9576000926000806000916000936000956000985b82518a1015614546576143768a846141b8565b516000526003806020526040600020906143966040518061020052613d6e565b8154610200515260018060a01b0360018301541660206102005101526002820154604061020051015281015460606102005101526143d660048201613de1565b608061020051015260058101546143ec81614004565b906143fa6040519283613dc0565b80825260208201600584016000526020600020906000905b838210614529575050505061449d6144d69360ff60066144c3956144b09560a06102005101520154818116151560c0610200510152818160081c1660e0610200510152818160101c16610100610200510152818160181c16610120610200510152818160201c16610140610200510152818160281c16151561016061020051015260081c16906141cc565b9560ff61010061020051015116906141cc565b9560ff61012061020051015116906141cc565b9560ff61014061020051015116906141cc565b9860c0610200510151614519575b608061020051015151614504575b6144fb9061407d565b98949392614363565b966145116144fb9161407d565b9790506144f2565b956145239061407d565b956144e4565b60016020819261453886613de1565b815201930191019091614412565b91509750959095949194939293606490818102908082048314901517156112e05788614571916141d9565b96818102908082048314901517156112e0578861458d916141d9565b95818102908082048314901517156112e057886145a9916141d9565b948181029181830414901517156112e057876145c4916141d9565b929190565b5060009150819081908190819081908190565b8454835260019485019487945060209093019201614333565b906145ff82614004565b61460c6040519182613dc0565b828152809261461d601f1991614004565b019060005b82811061462e57505050565b806060602080938501015201614622565b919082039182116112e057565b60006102005260005260096020526040600020906040518083602082955493848152019060005260206000209260005b818110614a1b57505061469192500383613dc0565b81518082101561497257816146a59161463f565b9280841161496a575b506146b8836142d7565b936146c2846142d7565b936146cc816145f5565b936146d6826142d7565b610200526146e3826142d7565b936146ed836142d7565b936146f7846142d7565b93614701816142d7565b9361470b826142d7565b9360005b83811061471c5750505050565b61473461472e829b9e9d9c9b846141cc565b846141b8565b516000526003908160205260406000206040519261475184613d6e565b8154845260018201546001600160a01b0316602085015260028201546040850152810154606084015261478660048201613de1565b608084015260058101805461479a81614004565b916147a86040519384613dc0565b81835260208301906000526020600020906000905b83821061494d57505050509d9e9b9c9d60ff9160069160a08601520154818116151560c0850152818160081c1660e0850152818160101c16610100850152818160181c16610120850152818160201c1661014085015260281c1615156101608301528d61482c828451926141b8565b5260208201516001600160a01b0316614845828f6141b8565b528b60c0830151156000146148f8576148f3926148818360c09360018060a01b0360208501511660005260016020526129446040600020613de1565b505b606081015161489584610200516141b8565b5260e081015160ff166148a8848f6141b8565b5261010081015160ff166148bc848e6141b8565b5260ff610120820151166148d0848d6141b8565b5260ff610140820151166148e4848c6141b8565b52015115156130f282896141b8565b61470f565b506040518060408101106001600160401b03604083011117610458576148f392614947838f84604060c096016040526009815268416e6f6e796d6f757360b81b602082015261294e83836141b8565b50614883565b60016020819261495c86613de1565b8152019301910190916147bd565b9250386146ae565b5050505060405161498281613da5565b600081526040519161499383613da5565b60008352604051916149a483613da5565b60008352604051916149b583613da5565b600083526040516149c581613da5565b60008152604051926149d684613da5565b60008452604051926149e784613da5565b60008452604051926149f884613da5565b6000845260405192614a0984613da5565b60008452989796610200529493929190565b845483526001948501948794506020909301920161467c565b600061020052600061018052600091600092601054935b848110614d6b575080938115614cfc57614a64826142d7565b91614a6e816145f5565b91614a8e614a7b836142d7565b92614a85816142d7565b610200526142d7565b610180526000806101a05260009660005b838110614ab257505050506101a0519493565b600081815260026020526040902060018101546001600160a01b039081169084168114614aea575b5050614ae59061407d565b614a9f565b60209b949993959a989297916006916040519d8e614b0781613d8a565b8354815201528c6040614b1c60028401613de1565b910152600381015460608e0152600481015460808e0152600581015460ff16151560a08e0152015460c08c015286614b548a846141b8565b5260408b0151614b648a836141b8565b52614b6f89826141b8565b5060c08b0151614b7f8a886141b8565b528660005260096020526040600020806101c052602060405191826101e0525491828152016101c0516000526020600020916000905b808210614ce3575050614bd091506101e05180910390613dc0565b6101e05151614be28a610200516141b8565b526101e0515115614cb557600095865b6101e0518051891015614c3a57614c3491614c108a614c2e936141b8565b51600052600360205260ff60066040600020015460081c16906141cc565b9761407d565b96614bf2565b509096509a9096939a99949298999791976064908181029181830414901517156112e057614ae592614c9860c0614cad948e614c8b614c81614ca7976101e05151906141d9565b91610180516141b8565b525b01516101a0516141cc565b6101a0526101e05151906141cc565b9961407d565b929038614ada565b959299614ca7614ae59298614c9860c0614cad9460008e9f9a989e614cdd90610180516141b8565b52614c8d565b8354835260019384019360209093019290910190614bb5565b5050915050604051614d0d81613da5565b6000815260405190614d1e82613da5565b6000825260405191614d2f83613da5565b6000835260405192614d4084613da5565b6000845260405193614d5185613da5565b600085526000956000956000959493926102005261018052565b6000818152600260205260409020600101546001600160a01b03858116911614614d9e575b614d999061407d565b614a4b565b90614dab614d999161407d565b919050614d90565b15614dba57565b60405162461bcd60e51b815260206004820152601e60248201527f436861696e526174653a2063616c6c6572206973206e6f742061646d696e00006044820152606490fd5b9190600d54808410156150575783614e169161463f565b9080821161504f575b50614e29816142d7565b92614e33826145f5565b92614e3d836145f5565b92614e47816145f5565b92614e51826145f5565b92614e5b836145f5565b92614e65816145f5565b92614e6f826145f5565b92614e79836142d7565b92614e83816142d7565b9260008c8c8f5b858410614e9957505050505050565b8d8d8580614ea7818a6141cc565b614eb090613bae565b9054600391821b1c6001600160a01b03169590918691614ed091906141b8565b5284600052600193602096858852604098848a600020614eef90613de1565b614ef982846141b8565b52614f03916141b8565b508660005285885283868a60002001614f1b90613de1565b614f2582846141b8565b52614f2f916141b8565b50856000528487528288600020600201614f4890613de1565b614f5282846141b8565b52614f5c916141b8565b50846000528386528660002001614f7290613de1565b614f7c82846141b8565b52614f86916141b8565b50816000528083528c8585600020600401614fa090613de1565b614faa82846141b8565b52614fb4916141b8565b5081600052808352848c85600020600501614fce90613de1565b91614fd8916141b8565b52614fe3858d6141b8565b5081600052825282600020600601614ffa90613de1565b615004858c6141b8565b5261500f848b6141b8565b5080600052600b82528260002054615027858b6141b8565b52600052600890526000205461503d82876141b8565b526150479061407d565b8c8c8f614e8a565b905038614e1f565b50509050604090815161506981613da5565b60009283825280519361507b85613da5565b80855281519361508a85613da5565b81855282519361509985613da5565b8285528351936150a885613da5565b8385528051936150b785613da5565b8085528151936150c685613da5565b8185528251936150d585613da5565b8285528351936150e485613da5565b83855251926150f284613da5565b80845236813799989796959493929190565b919060006102005260006101805260006101605260006101c052600061010052600060e052600e54808410156155df578361513e9161463f565b908082116155d7575b5090615152826142d7565b9061515c836145f5565b61020052615169836145f5565b61018052615176836145f5565b61016052615183836145f5565b6101c052615190836145f5565b6101005261519d836145f5565b906151a7846145f5565b906151b1856142d7565b916151bb866142d7565b60e052600061014052601054935b61014051878110156155cc576151e26151e7918a6141cc565b613b77565b969054806101205260018060a01b03908860031b1c1661520a61014051836141b8565b5260018060a01b03610120518860031b1c1660005260016020526152316040600020613de1565b61524161014051610200516141b8565b5261525261014051610200516141b8565b5060018060a01b03610120518860031b1c16600052600160205261527c6001604060002001613de1565b61528c61014051610180516141b8565b5261529d61014051610180516141b8565b5060018060a01b03610120518860031b1c1660005260016020526152c76002604060002001613de1565b6152d761014051610160516141b8565b526152e861014051610160516141b8565b5060018060a01b03610120518860031b1c1660005260016020526153126003604060002001613de1565b615322610140516101c0516141b8565b52615333610140516101c0516141b8565b5060018060a01b03610120518860031b1c16600052600160205261535d6004604060002001613de1565b61536d61014051610100516141b8565b5261537e61014051610100516141b8565b5060018060a01b03610120518860031b1c1660005260016020526153a86005604060002001613de1565b6153b561014051846141b8565b526153c361014051836141b8565b5060018060a01b03610120518860031b1c1660005260016020526153ed6006604060002001613de1565b6153fa61014051856141b8565b5261540861014051846141b8565b5060009760009960006101e05260006101a0525b6101a0518881101561554357600052600260205260018060a01b03610120518a60031b1c1660018060a01b03600160406000200154161461546d575b6154646101a05161407d565b6101a05261541c565b986154779061407d565b986101a05160005260096020526040600020604051908160c052602081549283815201906000526020600020916000905b80821061552a5750506154c2915060c05180910390613dc0565b60c051511561545857939160009a95939199979a989698955b60c0518051881015615504576154fe91614c10896154f8936141b8565b9661407d565b956154db565b509a979991939550919397959761552160c051516101e0516141cc565b6101e052615458565b83548352600193840193602090930192909101906154a8565b50939750939195979890949861555c610140518b6141b8565b526101e051156155b4576064908181029181830414901517156112e0576101e051615586916141d9565b6155956101405160e0516141b8565b525b6155a36101405161407d565b6101405291959396929490966151c9565b5060006155c66101405160e0516141b8565b52615597565b509550939550909150565b905038615147565b505060405191506155ef82613da5565b600082526040519161560083613da5565b600083526040519061561182613da5565b600082526040519261562284613da5565b6000845260405161563281613da5565b6000815260405161564281613da5565b600081526040519161565383613da5565b600083526040519661566488613da5565b600088526040519661567588613da5565b600088526040519661568688613da5565b60008852996102005261018052610160526101c0526101005293929160e052565b156156ae57565b60405162461bcd60e51b815260206004820152601860248201527f436861696e526174653a206e6f7420612073747564656e7400000000000000006044820152606490fdfea264697066735822122054b7f8b5a94803023a14c5ba2c7e04a7cd3f71ed4cb7c71ee163ea3fb6d74d5264736f6c63430008140033",
  "linkReferences": {},
  "deployedLinkReferences": {}
}