{
  "_format": "hh-sol-artifact-1",
  "contractName": "ChainRate02",
  "sourceName": "contracts/ChainRate02.sol",
  "abi": [
    {
      "inputs": [],
      "stateMutability": "nonpayable",
      "type": "constructor"
    },
    {
      "anonymous": false,
      "inputs": [
        {
          "indexed": true,
          "internalType": "uint256",
          "name": "evaluationId",
          "type": "uint256"
        },
        {
          "indexed": true,
          "internalType": "address",
          "name": "student",
          "type": "address"
        },
        {
          "indexed": true,
          "internalType": "address",
          "name": "teacher",
          "type": "address"
        }
      ],
      "name": "TeacherEvaluationSubmitted",
      "type": "event"
    },
    {
      "anonymous": false,
      "inputs": [
        {
          "indexed": true,
          "internalType": "uint256",
          "name": "evaluationId",
          "type": "uint256"
        },
        {
          "indexed": true,
          "internalType": "address",
          "name": "student",
          "type": "address"
        }
      ],
      "name": "TeacherEvaluationUpdated",
      "type": "event"
    },
    {
      "inputs": [
        {
          "internalType": "address",
          "name": "teacherAddress",
          "type": "address"
        }
      ],
      "name": "generateTeacherReport",
      "outputs": [
        {
          "internalType": "string",
          "name": "name",
          "type": "string"
        },
        {
          "internalType": "uint256",
          "name": "totalEvaluations",
          "type": "uint256"
        },
        {
          "internalType": "uint256",
          "name": "averageOverallRating",
          "type": "uint256"
        },
        {
          "internalType": "uint256[5]",
          "name": "dimensionRatings",
          "type": "uint256[5]"
        },
        {
          "internalType": "enum ChainRate02.TeacherEvaluationDimension",
          "name": "strengthDimension",
          "type": "uint8"
        },
        {
          "internalType": "enum ChainRate02.TeacherEvaluationDimension",
          "name": "weaknessDimension",
          "type": "uint8"
        },
        {
          "internalType": "uint256",
          "name": "recentEvaluationCount",
          "type": "uint256"
        }
      ],
      "stateMutability": "view",
      "type": "function"
    },
    {
      "inputs": [
        {
          "internalType": "address",
          "name": "studentAddress",
          "type": "address"
        }
      ],
      "name": "getStudentTeacherEvaluations",
      "outputs": [
        {
          "internalType": "uint256[]",
          "name": "",
          "type": "uint256[]"
        }
      ],
      "stateMutability": "view",
      "type": "function"
    },
    {
      "inputs": [
        {
          "internalType": "address",
          "name": "teacherAddress",
          "type": "address"
        }
      ],
      "name": "getTeacherAverageRatings",
      "outputs": [
        {
          "internalType": "uint256",
          "name": "totalEvaluations",
          "type": "uint256"
        },
        {
          "internalType": "uint256",
          "name": "averageOverallRating",
          "type": "uint256"
        },
        {
          "internalType": "uint256",
          "name": "averageTeachingAbilityRating",
          "type": "uint256"
        },
        {
          "internalType": "uint256",
          "name": "averageTeachingAttitudeRating",
          "type": "uint256"
        },
        {
          "internalType": "uint256",
          "name": "averageTeachingMethodRating",
          "type": "uint256"
        },
        {
          "internalType": "uint256",
          "name": "averageAcademicLevelRating",
          "type": "uint256"
        },
        {
          "internalType": "uint256",
          "name": "averageGuidanceAbilityRating",
          "type": "uint256"
        },
        {
          "internalType": "uint256",
          "name": "anonymousCount",
          "type": "uint256"
        }
      ],
      "stateMutability": "view",
      "type": "function"
    },
    {
      "inputs": [
        {
          "internalType": "address",
          "name": "teacherAddress",
          "type": "address"
        },
        {
          "internalType": "uint256",
          "name": "offset",
          "type": "uint256"
        },
        {
          "internalType": "uint256",
          "name": "limit",
          "type": "uint256"
        }
      ],
      "name": "getTeacherBatchEvaluations",
      "outputs": [
        {
          "internalType": "uint256[]",
          "name": "ids",
          "type": "uint256[]"
        },
        {
          "internalType": "address[]",
          "name": "studentAddresses",
          "type": "address[]"
        },
        {
          "internalType": "string[]",
          "name": "names",
          "type": "string[]"
        },
        {
          "internalType": "uint256[]",
          "name": "timestamps",
          "type": "uint256[]"
        },
        {
          "internalType": "uint8[]",
          "name": "overallRatings",
          "type": "uint8[]"
        },
        {
          "internalType": "uint8[]",
          "name": "teachingAbilityRatings",
          "type": "uint8[]"
        },
        {
          "internalType": "uint8[]",
          "name": "teachingAttitudeRatings",
          "type": "uint8[]"
        },
        {
          "internalType": "uint8[]",
          "name": "teachingMethodRatings",
          "type": "uint8[]"
        },
        {
          "internalType": "uint8[]",
          "name": "academicLevelRatings",
          "type": "uint8[]"
        },
        {
          "internalType": "uint8[]",
          "name": "guidanceAbilityRatings",
          "type": "uint8[]"
        },
        {
          "internalType": "bool[]",
          "name": "isAnonymous",
          "type": "bool[]"
        }
      ],
      "stateMutability": "view",
      "type": "function"
    },
    {
      "inputs": [
        {
          "internalType": "uint256",
          "name": "evaluationId",
          "type": "uint256"
        }
      ],
      "name": "getTeacherEvaluationDetails",
      "outputs": [
        {
          "internalType": "uint256",
          "name": "id",
          "type": "uint256"
        },
        {
          "internalType": "address",
          "name": "student",
          "type": "address"
        },
        {
          "internalType": "address",
          "name": "teacher",
          "type": "address"
        },
        {
          "internalType": "uint256",
          "name": "timestamp",
          "type": "uint256"
        },
        {
          "internalType": "string",
          "name": "contentHash",
          "type": "string"
        },
        {
          "internalType": "string[]",
          "name": "imageHashes",
          "type": "string[]"
        },
        {
          "internalType": "bool",
          "name": "isAnonymous",
          "type": "bool"
        },
        {
          "internalType": "uint8",
          "name": "overallRating",
          "type": "uint8"
        },
        {
          "internalType": "uint8",
          "name": "teachingAbilityRating",
          "type": "uint8"
        },
        {
          "internalType": "uint8",
          "name": "teachingAttitudeRating",
          "type": "uint8"
        },
        {
          "internalType": "uint8",
          "name": "teachingMethodRating",
          "type": "uint8"
        },
        {
          "internalType": "uint8",
          "name": "academicLevelRating",
          "type": "uint8"
        },
        {
          "internalType": "uint8",
          "name": "guidanceAbilityRating",
          "type": "uint8"
        },
        {
          "internalType": "bool",
          "name": "isActive",
          "type": "bool"
        }
      ],
      "stateMutability": "view",
      "type": "function"
    },
    {
      "inputs": [
        {
          "internalType": "address",
          "name": "teacherAddress",
          "type": "address"
        }
      ],
      "name": "getTeacherEvaluations",
      "outputs": [
        {
          "internalType": "uint256[]",
          "name": "",
          "type": "uint256[]"
        }
      ],
      "stateMutability": "view",
      "type": "function"
    },
    {
      "inputs": [
        {
          "internalType": "address",
          "name": "teacherAddress",
          "type": "address"
        }
      ],
      "name": "getTeacherRatingDistribution",
      "outputs": [
        {
          "internalType": "uint256[5]",
          "name": "overallRatingCounts",
          "type": "uint256[5]"
        },
        {
          "internalType": "uint256[5]",
          "name": "teachingAbilityRatingCounts",
          "type": "uint256[5]"
        },
        {
          "internalType": "uint256[5]",
          "name": "teachingAttitudeRatingCounts",
          "type": "uint256[5]"
        },
        {
          "internalType": "uint256[5]",
          "name": "teachingMethodRatingCounts",
          "type": "uint256[5]"
        },
        {
          "internalType": "uint256[5]",
          "name": "academicLevelRatingCounts",
          "type": "uint256[5]"
        },
        {
          "internalType": "uint256[5]",
          "name": "guidanceAbilityRatingCounts",
          "type": "uint256[5]"
        }
      ],
      "stateMutability": "view",
      "type": "function"
    },
    {
      "inputs": [
        {
          "internalType": "address",
          "name": "",
          "type": "address"
        },
        {
          "internalType": "address",
          "name": "",
          "type": "address"
        }
      ],
      "name": "hasEvaluatedTeacher",
      "outputs": [
        {
          "internalType": "bool",
          "name": "",
          "type": "bool"
        }
      ],
      "stateMutability": "view",
      "type": "function"
    },
    {
      "inputs": [
        {
          "internalType": "address",
          "name": "studentAddress",
          "type": "address"
        },
        {
          "internalType": "address",
          "name": "teacherAddress",
          "type": "address"
        }
      ],
      "name": "isTeacherEvaluated",
      "outputs": [
        {
          "internalType": "bool",
          "name": "",
          "type": "bool"
        }
      ],
      "stateMutability": "view",
      "type": "function"
    },
    {
      "inputs": [],
      "name": "mainContract",
      "outputs": [
        {
          "internalType": "contract ChainRate",
          "name": "",
          "type": "address"
        }
      ],
      "stateMutability": "view",
      "type": "function"
    },
    {
      "inputs": [],
      "name": "owner",
      "outputs": [
        {
          "internalType": "address",
          "name": "",
          "type": "address"
        }
      ],
      "stateMutability": "view",
      "type": "function"
    },
    {
      "inputs": [
        {
          "internalType": "address",
          "name": "_mainContract",
          "type": "address"
        }
      ],
      "name": "setMainContract",
      "outputs": [],
      "stateMutability": "nonpayable",
      "type": "function"
    },
    {
      "inputs": [
        {
          "internalType": "address",
          "name": "",
          "type": "address"
        },
        {
          "internalType": "uint256",
          "name": "",
          "type": "uint256"
        }
      ],
      "name": "studentTeacherEvaluations",
      "outputs": [
        {
          "internalType": "uint256",
          "name": "",
          "type": "uint256"
        }
      ],
      "stateMutability": "view",
      "type": "function"
    },
    {
      "inputs": [
        {
          "internalType": "address",
          "name": "teacherAddress",
          "type": "address"
        },
        {
          "internalType": "string",
          "name": "contentHash",
          "type": "string"
        },
        {
          "internalType": "string[]",
          "name": "imageHashes",
          "type": "string[]"
        },
        {
          "internalType": "uint8",
          "name": "overallRating",
          "type": "uint8"
        },
        {
          "internalType": "uint8",
          "name": "teachingAbilityRating",
          "type": "uint8"
        },
        {
          "internalType": "uint8",
          "name": "teachingAttitudeRating",
          "type": "uint8"
        },
        {
          "internalType": "uint8",
          "name": "teachingMethodRating",
          "type": "uint8"
        },
        {
          "internalType": "uint8",
          "name": "academicLevelRating",
          "type": "uint8"
        },
        {
          "internalType": "uint8",
          "name": "guidanceAbilityRating",
          "type": "uint8"
        },
        {
          "internalType": "bool",
          "name": "isAnonymous",
          "type": "bool"
        }
      ],
      "name": "submitTeacherEvaluation",
      "outputs": [
        {
          "internalType": "uint256",
          "name": "",
          "type": "uint256"
        }
      ],
      "stateMutability": "nonpayable",
      "type": "function"
    },
    {
      "inputs": [],
      "name": "teacherEvaluationCount",
      "outputs": [
        {
          "internalType": "uint256",
          "name": "",
          "type": "uint256"
        }
      ],
      "stateMutability": "view",
      "type": "function"
    },
    {
      "inputs": [
        {
          "internalType": "uint256",
          "name": "",
          "type": "uint256"
        }
      ],
      "name": "teacherEvaluations",
      "outputs": [
        {
          "internalType": "uint256",
          "name": "id",
          "type": "uint256"
        },
        {
          "internalType": "address",
          "name": "student",
          "type": "address"
        },
        {
          "internalType": "address",
          "name": "teacher",
          "type": "address"
        },
        {
          "internalType": "uint256",
          "name": "timestamp",
          "type": "uint256"
        },
        {
          "internalType": "string",
          "name": "contentHash",
          "type": "string"
        },
        {
          "internalType": "bool",
          "name": "isAnonymous",
          "type": "bool"
        },
        {
          "internalType": "uint8",
          "name": "overallRating",
          "type": "uint8"
        },
        {
          "internalType": "uint8",
          "name": "teachingAbilityRating",
          "type": "uint8"
        },
        {
          "internalType": "uint8",
          "name": "teachingAttitudeRating",
          "type": "uint8"
        },
        {
          "internalType": "uint8",
          "name": "teachingMethodRating",
          "type": "uint8"
        },
        {
          "internalType": "uint8",
          "name": "academicLevelRating",
          "type": "uint8"
        },
        {
          "internalType": "uint8",
          "name": "guidanceAbilityRating",
          "type": "uint8"
        },
        {
          "internalType": "bool",
          "name": "isActive",
          "type": "bool"
        }
      ],
      "stateMutability": "view",
      "type": "function"
    },
    {
      "inputs": [
        {
          "internalType": "address",
          "name": "",
          "type": "address"
        },
        {
          "internalType": "uint256",
          "name": "",
          "type": "uint256"
        }
      ],
      "name": "teacherEvaluationsList",
      "outputs": [
        {
          "internalType": "uint256",
          "name": "",
          "type": "uint256"
        }
      ],
      "stateMutability": "view",
      "type": "function"
    }
  ],
  "bytecode": "0x6080806040523461002857600180546001600160a01b03191633179055612e7a908161002e8239f35b600080fdfe610160604052600436101561001357600080fd5b60003560e01c806303e0d21f14611a1b5780631dc3fe3a146116eb5780632b658ea11461148057806336b49b85146114095780633ded33bc1461130e5780633ebeb76d146111975780635c4f682c1461117957806386916aa0146110f95780638da5cb5b146110d05780638eaaa50d14611086578063a081889614610fa1578063a18266ae14610ff7578063a79a097614610fa1578063acba6a6f14610f49578063b5105e321461015c578063d270e7ab146101335763fc1bce93146100d857600080fd5b3461012e57602036600319011261012e576101006100fc6100f7611c96565b6120a9565b95604095919594929451978852602088015260408701526060860152608085015260a084015260c083015260e0820152f35b600080fd5b3461012e57600036600319011261012e576000546040516001600160a01b039091168152602090f35b3461012e5761014036600319011261012e57610176611c96565b6024356001600160401b03811161012e57610195903690600401611e1d565b90604435906001600160401b03821161012e573660238301121561012e5781600401356101c181611e64565b926101cf6040519485611b87565b8184526024602085019260051b8201019036821161012e5760248101925b828410610f1a57505050506064359160ff8316830361012e5760843560ff8116810361012e5760a43560ff8116810361012e5760c43560ff8116810361012e5760e4359160ff8316830361012e57610104359360ff8516850361012e57610124351515610124350361012e576000546001600160a01b031697610271891515611e7b565b604051636386c1c760e01b81523360048201526000816024818d5afa908115610cc757600090600092610ef4575b5081610eca575b5015610e7a576102b7891515611e7b565b604051633501d87960e21b8152336004820152600099908a81602481855afa908115610cc757600091610dcd575b5060005b8151811015610dbd576102fc818361201c565b51604051634b7cbce960e11b81526004810182905290600082602481885afa918215610cc757600090600093610d4d575b50149081610d37575b506103495761034490611ff7565b6102e9565b50509091929394959697985060015b15610cd357604051636386c1c760e01b81526001600160a01b038a16600482015290600090829060249082905afa908115610cc757600090600092610c99575b5081610c6f575b5015610c1e57336000526003602052604060002060018060a01b03891660005260205260ff60406000205416610bc557600160ff8216101580610bb7575b15610b7257600160ff8316101580610b64575b15610b0a57600160ff8416101580610afc575b15610aa157600160ff8516101580610a93575b15610a3a57600160ff8616101580610a2c575b156109d457600160ff87161015806109c6575b1561096c576006549661044e88611ff7565b6006556040519961045e8b611b35565b888b523360208c0152600160a01b600190038a1660408c01524260608c015260808b015260a08a015261012435151560c08a015260ff1660e089015260ff1661010088015260ff1661012087015260ff1661014086015260ff1661016085015260ff166101808401526101a08301600190528060005260026020526040600020928051845560018401600160a01b60019003602083015116906bffffffffffffffffffffffff60a01b91828254161790556002850190600160a01b60019003604084015116908254161790556060810151600385015560808101518051906001600160401b03821161082c5781906105596004880154611afb565b601f8111610937575b50602090601f83116001146108c5576000926108ba575b50508160011b916000199060031b1c19161760048501555b60a0810151805190600160401b821161082c576005860154826005880155808310610842575b5060200190600586016000526020600020916000905b82821061070c57505050506006602094019060c0810151151590825461ff0060e083015160081b1662ff000061010084015160101b1663ff00000061012085015160181b169064ff000000006101408601518b1b169265ff000000000061016087015160281b169460ff67ff000000000000006101a066ff0000000000006101808b015160301b16990151151560381b169816906001600160401b031916171717171717171790553360005260038352604060002060018060a01b03831660005283526040600020600160ff1982541617905533600052600483526106b6816040600020612047565b60018060a01b038216600052600583526106d4816040600020612047565b604051916001600160a01b031633827fc0214894056eb63ea9232f74a57ef2ba3098d6b708f43e144d12755ce7ff589a600080a48152f35b80518051906001600160401b03821161082c576107298654611afb565b601f81116107ef575b50602090601f831160011461077f579282600194936020938695600092610774575b5050600019600383901b1c191690841b1787555b019401910190926105cd565b015190508d80610754565b908660005260206000209160005b601f19851681106107d7575083602093600196938796938794601f198116106107be575b505050811b018755610768565b015160001960f88460031b161c191690558d80806107b1565b9192602060018192868501518155019401920161078d565b61081c90876000526020600020601f850160051c81019160208610610822575b601f0160051c0190612030565b8a610732565b909150819061080f565b634e487b7160e01b600052604160045260246000fd5b600587016000526020600020908382015b81830181106108635750506105b7565b8061087060019254611afb565b8061087d575b5001610853565b601f811183146108935750600081555b8a610876565b6000908282526108b1601f60208420920160051c8201858301612030565b8183555561088d565b015190508680610579565b9250600487016000526020600020906000935b601f198416851061091c576001945083601f19811610610903575b505050811b016004850155610591565b015160001960f88460031b161c191690558680806108f3565b818101518355602094850194600190930192909101906108d8565b61096690600489016000526020600020601f850160051c8101916020861061082257601f0160051c0190612030565b87610562565b60405162461bcd60e51b815260206004820152602c60248201527f436861696e5261746530323a20696e76616c69642067756964616e636520616260448201526b696c69747920726174696e6760a01b6064820152608490fd5b50600560ff8716111561043c565b60405162461bcd60e51b815260206004820152602a60248201527f436861696e5261746530323a20696e76616c69642061636164656d6963206c6560448201526976656c20726174696e6760b01b6064820152608490fd5b50600560ff86161115610429565b60405162461bcd60e51b815260206004820152602b60248201527f436861696e5261746530323a20696e76616c6964207465616368696e67206d6560448201526a74686f6420726174696e6760a81b6064820152608490fd5b50600560ff85161115610416565b60405162461bcd60e51b815260206004820152602d60248201527f436861696e5261746530323a20696e76616c6964207465616368696e6720617460448201526c74697475646520726174696e6760981b6064820152608490fd5b50600560ff84161115610403565b60405162461bcd60e51b815260206004820152602c60248201527f436861696e5261746530323a20696e76616c6964207465616368696e6720616260448201526b696c69747920726174696e6760a01b6064820152608490fd5b50600560ff831611156103f0565b60405162461bcd60e51b815260206004820152601b60248201527f436861696e5261746530323a20696e76616c696420726174696e6700000000006044820152606490fd5b50600560ff821611156103dd565b60405162461bcd60e51b815260206004820152602b60248201527f436861696e5261746530323a20616c7265616479206576616c7561746564207460448201526a3434b9903a32b0b1b432b960a91b6064820152608490fd5b60405162461bcd60e51b8152602060048201526024808201527f436861696e5261746530323a20696e76616c69642074656163686572206164646044820152637265737360e01b6064820152608490fd5b7fd16e204b8a42a15ab0ea6bb8ec1ecdfbe69f38074fc865323af19efe7d9573d99150148a61039f565b9050610cb891503d806000833e610cb08183611b87565b810190611f24565b9750955050505050508b610398565b6040513d6000823e3d90fd5b60405162461bcd60e51b815260206004820152603660248201527f436861696e5261746530323a2073747564656e7420686173206e6f74207374756044820152753234b2b2103bb4ba34103a3434b9903a32b0b1b432b960511b6064820152608490fd5b6001600160a01b038d811691161490508e610336565b9250503d806000843e610d608184611b87565b60e083828101031261012e5782516020840151939091906001600160a01b038516850361012e576040810151906001600160401b03821161012e57610daf60a092610db6948301908301611ed2565b5001611f17565b503861032d565b5050909192939495969798610358565b90503d806000833e610ddf8183611b87565b602082828101031261012e578151906001600160401b03821161012e57808301601f83850101121561012e578183015191610e1983611e64565b93610e276040519586611b87565b8385526020850192810160208560051b84840101011161012e5780820160200192915b60208560051b82840101018410610e665750505050508c6102e5565b602080809486518152019401939250610e4a565b60405162461bcd60e51b815260206004820152602260248201527f436861696e5261746530323a2063616c6c6572206973206e6f742073747564656044820152611b9d60f21b6064820152608490fd5b7f36a5c4aaacb6b388bbd448bf11096b7dafc5652bcc9046084fd0e95b1fb0b2cc9150148b6102a6565b9050610f0b91503d806000833e610cb08183611b87565b9750955050505050508c61029f565b83356001600160401b03811161012e57602091610f3e839260243691870101611e1d565b8152019301926101ed565b3461012e57604036600319011261012e57610f62611c96565b6001600160a01b031660009081526005602052604090208054602435919082101561012e57602091610f9391611dd4565b90546040519160031b1c8152f35b3461012e57604036600319011261012e57610fba611c96565b610fc2611cac565b9060018060a01b03809116600052600360205260406000209116600052602052602060ff604060002054166040519015158152f35b3461012e5760208060031936011261012e576001600160a01b03611019611c96565b1660005260058152604060002090604051808383829554938481520190600052836000209260005b858282106110705750505061105892500383611b87565b61106c604051928284938452830190611d46565b0390f35b8554845260019586019588955093019201611041565b3461012e57604036600319011261012e5761109f611c96565b6001600160a01b031660009081526004602052604090208054602435919082101561012e57602091610f9391611dd4565b3461012e57600036600319011261012e576001546040516001600160a01b039091168152602090f35b3461012e57602036600319011261012e5761114461116461115961116f611126611121611c96565b612990565b969598936040989293919598519a8b9a610160808d528c0190611c71565b9860208b015260408a01526060890190611cc2565b610100870190611db1565b610120850190611db1565b6101408301520390f35b3461012e57600036600319011261012e576020600654604051908152f35b3461012e57606036600319011261012e576111f56111c36111b6611c96565b6044359060243590612433565b9260c0929192519461014051956080519660e051976101205160a051996040519b8c9b8c6101608091528d0190611d46565b8b810360208d01526020808451928381520193019060005b8181106112ec5750505061128c946112628c61129b999661125461127e976112466112aa9f9e9c98611270988682036040880152611cea565b908482036060860152611d46565b916080818403910152611d7a565b8c810360a08e015290611d7a565b908a820360c08c0152611d7a565b9088820360e08a0152611d7a565b90868203610100880152611d7a565b90848203610120860152611d7a565b8281036101408401526020808351928381520192019060005b8181106112d1575050500390f35b825115158452859450602093840193909201916001016112c3565b82516001600160a01b031685528e9d506020948501949092019160010161120d565b3461012e57602036600319011261012e57611327611c96565b6001546001600160a01b039190821633036113b857168015611360576bffffffffffffffffffffffff60a01b6000541617600055600080f35b60405162461bcd60e51b815260206004820152602a60248201527f436861696e5261746530323a20696e76616c6964206d61696e20636f6e7472616044820152696374206164647265737360b01b6064820152608490fd5b60405162461bcd60e51b8152602060048201526024808201527f436861696e5261746530323a2063616c6c6572206973206e6f7420746865206f6044820152633bb732b960e11b6064820152608490fd5b3461012e5760208060031936011261012e576001600160a01b0361142b611c96565b1660005260048152604060002090604051808383829554938481520190600052836000209260005b8582821061146a5750505061105892500383611b87565b8554845260019586019588955093019201611453565b3461012e57602036600319011261012e5760043580600052600260205280604060002054036116975760005260026020526040600020604051906114c382611b35565b805482526001808201546001600160a01b039081166020850152600283015416604084015260038201546060840152906114ff60048201611ba8565b60808401526005810191825461151481611e64565b936115226040519586611b87565b818552602085019060005260206000206000915b83831061167b5787876006888260a0850152015460ff8116151560c084015260ff8160081c1660e084015260ff8160101c1661010084015260ff8160181c1661012084015260ff8160201c1661014084015260ff8160281c1661016084015260ff8160301c1661018084015260ff8160381c1615156101a084015260ff61161984519361160b60018060a01b036020880151169660018060a01b03604082015116906080606082015191015191604051998a998a5260208a0152604089015260608801526101c0806080890152870190611c71565b9085820360a0870152611cea565b91818116151560c0850152818160081c1660e0850152818160101c16610100850152818160181c16610120850152818160201c16610140850152818160281c16610160850152818160301c1661018085015260381c1615156101a08301520390f35b846020819261168985611ba8565b815201920192019190611536565b60405162461bcd60e51b815260206004820152602660248201527f436861696e5261746530323a206576616c756174696f6e20646f6573206e6f7460448201526508195e1a5cdd60d21b6064820152608490fd5b3461012e57602036600319011261012e57611704611c96565b60405161171081611b51565b60a03682376040519161172283611b51565b60a036843760405161173381611b51565b60a036823760405161174481611b51565b60a03682376040519461175686611b51565b60a03687376040519361176885611b51565b60a036863760018060a01b031660005260056020526040600020946040518087602082995493848152019060005260206000209260005b818110611a025750506117b492500387611b87565b60005b86518110156119a5576117ca818861201c565b5160005260026020526040600020604051906117e582611b35565b8054825260018101546001600160a01b03908116602084015260028201541660408301526003810154606083015261181f60048201611ba8565b608083015260058101805461183381611e64565b916118416040519384611b87565b81835260208301906000526020600020906000905b8382106119885750505050829160069160a06118fb969501520154908460ff92838116151560c08401528c89858360081c168060e08701528c8b610100880197898760101c1689526101208101948a8860181c1686526101408201948b8960201c1686526101a06101608401938d8b60281c1685528d61018082019b818160301c168d5260381c1615159182910152611900575b505050505050505050505050611ff7565b6117b7565b8b61193c81809c9861193c9861195e9f8361193c816119569f819f9d611956839f61193c856119569f9981936119568361193c6119569e61296c565b1661195061194a828561297f565b51611ff7565b9261297f565b52511661296c565b1661197661196f61194a838b61297f565b918961297f565b52898084818c81808c8b828e816118ea565b60016020819261199786611ba8565b815201930191019091611856565b50611a00856119f5896119ea876119df8a6119d46103c09a6119ca604051809c611cc2565b60a08b0190611cc2565b610140890190611cc2565b6101e0870190611cc2565b610280850190611cc2565b610320830190611cc2565bf35b845483526001948501948b94506020909301920161179f565b3461012e57602036600319011261012e5760043560005260026020526040600020805460018060a01b0391611a9783600183015416936002830154169160038101546006611a6b60048401611ba8565b9201549360405196879687526020870152604086015260608501526101a0806080860152840190611c71565b9060ff90818116151560a0850152818160081c1660c0850152818160101c1660e0850152818160181c16610100850152818160201c16610120850152818160281c16610140850152818160301c1661016085015260381c1615156101808301520390f35b90600182811c92168015611b2b575b6020831014611b1557565b634e487b7160e01b600052602260045260246000fd5b91607f1691611b0a565b6101c081019081106001600160401b0382111761082c57604052565b60a081019081106001600160401b0382111761082c57604052565b602081019081106001600160401b0382111761082c57604052565b90601f801991011681019081106001600160401b0382111761082c57604052565b9060405191826000825492611bbc84611afb565b908184526001948581169081600014611c2b5750600114611be8575b5050611be692500383611b87565b565b9093915060005260209081600020936000915b818310611c13575050611be693508201013880611bd8565b85548884018501529485019487945091830191611bfb565b915050611be694506020925060ff191682840152151560051b8201013880611bd8565b60005b838110611c615750506000910152565b8181015183820152602001611c51565b90602091611c8a81518092818552858086019101611c4e565b601f01601f1916010190565b600435906001600160a01b038216820361012e57565b602435906001600160a01b038216820361012e57565b6000915b60058310611cd357505050565b600190825181526020809101920192019190611cc6565b908082519081815260208091019281808460051b8301019501936000915b848310611d185750505050505090565b9091929394958480611d36600193601f198682030187528a51611c71565b9801930193019194939290611d08565b90815180825260208080930193019160005b828110611d66575050505090565b835185529381019392810192600101611d58565b90815180825260208080930193019160005b828110611d9a575050505090565b835160ff1685529381019392810192600101611d8c565b906005821015611dbe5752565b634e487b7160e01b600052602160045260246000fd5b8054821015611dec5760005260206000200190600090565b634e487b7160e01b600052603260045260246000fd5b6001600160401b03811161082c57601f01601f191660200190565b81601f8201121561012e57803590611e3482611e02565b92611e426040519485611b87565b8284526020838301011161012e57816000926020809301838601378301015290565b6001600160401b03811161082c5760051b60200190565b15611e8257565b60405162461bcd60e51b815260206004820152602260248201527f436861696e5261746530323a206d61696e20636f6e7472616374206e6f742073604482015261195d60f21b6064820152608490fd5b81601f8201121561012e578051611ee881611e02565b92611ef66040519485611b87565b8184526020828401011161012e57611f149160208085019101611c4e565b90565b5190811515820361012e57565b916101208383031261012e578251926001600160401b039384811161012e5783611f4f918301611ed2565b93602082015181811161012e5784611f68918401611ed2565b93604083015182811161012e5781611f81918501611ed2565b93606084015183811161012e5782611f9a918601611ed2565b93608081015184811161012e5783611fb3918301611ed2565b9360a082015181811161012e5784611fcc918401611ed2565b9360c083015191821161012e57611fe4918301611ed2565b91611f1461010060e08401519301611f17565b60001981146120065760010190565b634e487b7160e01b600052601160045260246000fd5b8051821015611dec5760209160051b010190565b81811061203b575050565b60008155600101612030565b8054600160401b81101561082c5761206491600182018155611dd4565b819291549060031b91821b91600019901b1916179055565b9190820180921161200657565b8115612093570490565b634e487b7160e01b600052601260045260246000fd5b60018060a01b0316600052600590816020526040600020916040518084602082965493848152019060005260206000209260005b8181106123e85750506120f292500384611b87565b82519081156123d257919092600080936000809260009060009160009660009a5b81518c101561231b576121268c8361201c565b5160005260029b8c6020526040600020809d896040519261214684611b35565b805484526001808201546001600160a01b0390811660208701529382015490931660408501526003810154606085015261218260048201611ba8565b60808501520190815461219481611e64565b926121a26040519485611b87565b81845260208401906000526020600020906000905b8382106122ff5750505050509d8192939495969798999a9b9c9d9e60a06006930152015460ff8116151560c083015260ff8160081c1660e083015260ff8160101c1661010083015260ff8160181c1661012083015260ff8160201c1661014083015260ff8160281c1661016083015260ff8160301c1661018083015260ff8160381c161515806101a0840152612263575b505061225390611ff7565b9a99989796959493929190612113565b60089d969197959a989d1c60ff1661227a9161207c565b9461010087015160ff1661228d9161207c565b9b61012087015160ff166122a09161207c565b9661014087015160ff166122b39161207c565b9861016087015160ff166122c69161207c565b9361018087015160ff166122d99161207c565b9560c001516122ea575b3880612248565b986122f761225391611ff7565b9990506122e3565b846020819261230d86611ba8565b8152019301910190916121b7565b9a50509495929691935060649081810290808204831490151715612006578961234391612089565b9781810290808204831490151715612006578961235f91612089565b9681810290808204831490151715612006578961237b91612089565b9581810290808204831490151715612006578961239791612089565b948181029080820483149015171561200657896123b391612089565b9381810291818304149015171561200657886123ce91612089565b9190565b5060009250829182915081908190819081908190565b84548352600194850194889450602090930192016120dd565b9061240b82611e64565b6124186040519182611b87565b8281528092612429601f1991611e64565b0190602036910137565b600060a052600061012052600060e0526000608052600061014052600060c05260018060a01b0316600052600560205260406000206040518082602082945493848152019060005260206000209260005b81811061295357505061249992500382611b87565b8051928383101561287d5782840393841161200657808411612875575b506124c083612401565b60a0526124cc83612401565b610120526124d983611e64565b916124e76040519384611b87565b838352601f196124f685611e64565b0160005b8181106128645750508260e05261251084612401565b60805261251c84612401565b6101405261252984612401565b60c05261253584612401565b9461253f85612401565b9461254981612401565b9461255382612401565b9461255d83612401565b9460005b84811061256f575050505050565b61258261257c828461207c565b8461201c565b516000526002908160205260406000206040519261259f84611b35565b8154845260018201546001600160a01b03908116602086015290820154166040840152600381015460608401526125d860048201611ba8565b6080840152600581018054906125fd6125f083611e64565b6040518061010052611b87565b81610100515260206101005101906000526020600020906000905b8382106128475750505050600660ff916101005160a08601520154818116151560c0850152818160081c1660e0850152818160101c16610100850152818160181c16610120850152818160201c16610140850152818160281c16610160850152818160301c1661018085015260381c1615156101a0830152815161269e8260a05161201c565b5260018060a01b036020830151166126b9826101205161201c565b5260c08201516127ed57600080546020840151604051636386c1c760e01b81526001600160a01b039182166004820152929183916024918391165afa928315610cc7576127c59360c0926000916127ca575b50612716848961201c565b52612721838861201c565b505b60608101516127348460805161201c565b5260ff60e08201511661274a846101405161201c565b5260ff6101008201511661275f84845161201c565b528d6127748460ff610120850151169261201c565b5261014081015160ff16612788848f61201c565b5261016081015160ff1661279c848e61201c565b5260ff610180820151166127b0848d61201c565b52015115156127bf828a61201c565b52611ff7565b612561565b6127df91503d806000833e610cb08183611b87565b50505050505050503861270b565b6040518060408101106001600160401b0360408301111761082c576127c59281604060c093016040526009815268416e6f6e796d6f757360b81b6020820152612836848961201c565b52612841838861201c565b50612723565b60016020819261285686611ba8565b815201930191019091612618565b8060606020809388010152016124fa565b9250386124b6565b5050505060405161288d81611b6c565b6000815260405161289d81611b6c565b60008152604051916128ae83611b6c565b60008352604051936128bf85611b6c565b600085526040516128cf81611b6c565b600081526040516128df81611b6c565b60008152604051916128f083611b6c565b600083526040519761290189611b6c565b600089526040519761291289611b6c565b600089526040519761292389611b6c565b600089526040519761293489611b6c565b6000895260a0526101205260e0526080526101405260c0529493929190565b8454835260019485019486945060209093019201612484565b60ff6000199116019060ff821161200657565b906005811015611dec5760051b0190565b9060405161299d81611b51565b60a036823760008054604051636386c1c760e01b81526001600160a01b03958616600482018190529590929183916024918391165afa908115610cc757600091612e21575b50809360005260056020526040600020936040518086602082985493848152019060005260206000209260005b818110612e08575050612a2492500386611b87565b8451918215612db357506000916000926000926000976000916000946000984262278cff194201116120065760009b9a999b5b8451811015612c5457612a6a818661201c565b51600052600280602052604060002060405191612a8683611b35565b8154835260018201546001600160a01b0390811660208501529082015416604083015260038101546060830152612abf60048201611ba8565b6080830152600581018054612ad381611e64565b91612ae16040519384611b87565b81835260208301906000526020600020906000905b838210612c375750505050909d9e9c9d60069160a0840152015460ff8116151560c083015260ff8160081c1660e083015260ff8160101c1661010083015260ff8160181c1661012083015260ff8160201c1661014083015260ff8160281c1661016083015260ff8160301c1661018083015260ff8160381c161515806101a0840152612b91575b5050612b8890611ff7565b9b9a999b612a57565b60089e9a9b989199979e1c60ff16612ba89161207c565b9661010089015160ff16612bbb9161207c565b9961012089015160ff16612bce9161207c565b9861014089015160ff16612be19161207c565b9c61016089015160ff16612bf49161207c565b9561018089015160ff16612c079161207c565b9762278cff19420190606001511015612c22575b3880612b7d565b99612c2f612b8891611ff7565b9a9050612c1b565b600160208192612c4686611ba8565b815201930191019091612af6565b50979896919a9594909992508060648102046064148115171561200657896064612c7e9202612089565b978060648102046064148115171561200657896064612c9d9202612089565b87526064810290808204606414901517156120065788612cbc91612089565b60208701526064810290808204606414901517156120065787612cde91612089565b60408601526064810290808204606414901517156120065786612d0091612089565b60608501526064810290808204606414901517156120065785612d2291612089565b60808401528251918260009060009460015b60058110612d56575050506005811015611dbe57926005811015611dbe579190565b82612d61828a61297f565b5111612d9d575b81612d73828a61297f565b5110612d88575b612d8390611ff7565b612d34565b809650612d9691508761297f565b5185612d7a565b92509050612dab828761297f565b519082612d68565b94505050506040519160a083018381106001600160401b0382111761082c5760405260008352600060208401526000604084015260006060840152600060808401529160009160009190600090600090600090565b845483526001948501948a945060209093019201612a0f565b612e3691503d806000833e610cb08183611b87565b5050505050505050386129e256fea26469706673582212205f9e36713b3d820bff11b345d04239b8e761f92c3d4e8aea114f0dd62e73b4ad64736f6c63430008140033",
  "linkReferences": {},
  "deployedLinkReferences": {}
}