{
  "_format": "hh-sol-artifact-1",
  "contractName": "ChainRate",
  "sourceName": "contracts/ChainRate.sol",
  "abi": [
    {
      "inputs": [],
      "stateMutability": "nonpayable",
      "type": "constructor"
    },
    {
      "anonymous": false,
      "inputs": [
        {
          "indexed": true,
          "internalType": "uint256",
          "name": "courseId",
          "type": "uint256"
        },
        {
          "indexed": true,
          "internalType": "address",
          "name": "teacher",
          "type": "address"
        },
        {
          "indexed": false,
          "internalType": "string",
          "name": "name",
          "type": "string"
        }
      ],
      "name": "CourseCreated",
      "type": "event"
    },
    {
      "anonymous": false,
      "inputs": [
        {
          "indexed": true,
          "internalType": "uint256",
          "name": "courseId",
          "type": "uint256"
        },
        {
          "indexed": true,
          "internalType": "address",
          "name": "student",
          "type": "address"
        }
      ],
      "name": "CourseJoined",
      "type": "event"
    },
    {
      "anonymous": false,
      "inputs": [
        {
          "indexed": true,
          "internalType": "uint256",
          "name": "courseId",
          "type": "uint256"
        },
        {
          "indexed": true,
          "internalType": "address",
          "name": "student",
          "type": "address"
        }
      ],
      "name": "CourseLeft",
      "type": "event"
    },
    {
      "anonymous": false,
      "inputs": [
        {
          "indexed": true,
          "internalType": "uint256",
          "name": "courseId",
          "type": "uint256"
        },
        {
          "indexed": true,
          "internalType": "address",
          "name": "teacher",
          "type": "address"
        }
      ],
      "name": "CourseUpdated",
      "type": "event"
    },
    {
      "anonymous": false,
      "inputs": [
        {
          "indexed": true,
          "internalType": "uint256",
          "name": "evaluationId",
          "type": "uint256"
        },
        {
          "indexed": true,
          "internalType": "address",
          "name": "student",
          "type": "address"
        },
        {
          "indexed": true,
          "internalType": "uint256",
          "name": "courseId",
          "type": "uint256"
        }
      ],
      "name": "EvaluationSubmitted",
      "type": "event"
    },
    {
      "anonymous": false,
      "inputs": [
        {
          "indexed": true,
          "internalType": "uint256",
          "name": "evaluationId",
          "type": "uint256"
        },
        {
          "indexed": true,
          "internalType": "address",
          "name": "student",
          "type": "address"
        }
      ],
      "name": "EvaluationUpdated",
      "type": "event"
    },
    {
      "anonymous": false,
      "inputs": [
        {
          "indexed": true,
          "internalType": "address",
          "name": "user",
          "type": "address"
        },
        {
          "indexed": false,
          "internalType": "string",
          "name": "name",
          "type": "string"
        },
        {
          "indexed": false,
          "internalType": "bytes32",
          "name": "role",
          "type": "bytes32"
        }
      ],
      "name": "UserRegistered",
      "type": "event"
    },
    {
      "inputs": [],
      "name": "ADMIN_ROLE",
      "outputs": [
        {
          "internalType": "bytes32",
          "name": "",
          "type": "bytes32"
        }
      ],
      "stateMutability": "view",
      "type": "function"
    },
    {
      "inputs": [],
      "name": "STUDENT_ROLE",
      "outputs": [
        {
          "internalType": "bytes32",
          "name": "",
          "type": "bytes32"
        }
      ],
      "stateMutability": "view",
      "type": "function"
    },
    {
      "inputs": [],
      "name": "TEACHER_ROLE",
      "outputs": [
        {
          "internalType": "bytes32",
          "name": "",
          "type": "bytes32"
        }
      ],
      "stateMutability": "view",
      "type": "function"
    },
    {
      "inputs": [
        {
          "internalType": "address",
          "name": "",
          "type": "address"
        }
      ],
      "name": "admins",
      "outputs": [
        {
          "internalType": "bool",
          "name": "",
          "type": "bool"
        }
      ],
      "stateMutability": "view",
      "type": "function"
    },
    {
      "inputs": [
        {
          "internalType": "uint256",
          "name": "",
          "type": "uint256"
        }
      ],
      "name": "allAdmins",
      "outputs": [
        {
          "internalType": "address",
          "name": "",
          "type": "address"
        }
      ],
      "stateMutability": "view",
      "type": "function"
    },
    {
      "inputs": [
        {
          "internalType": "uint256",
          "name": "",
          "type": "uint256"
        }
      ],
      "name": "allStudents",
      "outputs": [
        {
          "internalType": "address",
          "name": "",
          "type": "address"
        }
      ],
      "stateMutability": "view",
      "type": "function"
    },
    {
      "inputs": [
        {
          "internalType": "uint256",
          "name": "",
          "type": "uint256"
        }
      ],
      "name": "allTeachers",
      "outputs": [
        {
          "internalType": "address",
          "name": "",
          "type": "address"
        }
      ],
      "stateMutability": "view",
      "type": "function"
    },
    {
      "inputs": [],
      "name": "courseCount",
      "outputs": [
        {
          "internalType": "uint256",
          "name": "",
          "type": "uint256"
        }
      ],
      "stateMutability": "view",
      "type": "function"
    },
    {
      "inputs": [
        {
          "internalType": "uint256",
          "name": "",
          "type": "uint256"
        },
        {
          "internalType": "uint256",
          "name": "",
          "type": "uint256"
        }
      ],
      "name": "courseEvaluations",
      "outputs": [
        {
          "internalType": "uint256",
          "name": "",
          "type": "uint256"
        }
      ],
      "stateMutability": "view",
      "type": "function"
    },
    {
      "inputs": [
        {
          "internalType": "uint256",
          "name": "",
          "type": "uint256"
        },
        {
          "internalType": "uint256",
          "name": "",
          "type": "uint256"
        }
      ],
      "name": "courseStudents",
      "outputs": [
        {
          "internalType": "address",
          "name": "",
          "type": "address"
        }
      ],
      "stateMutability": "view",
      "type": "function"
    },
    {
      "inputs": [
        {
          "internalType": "uint256",
          "name": "",
          "type": "uint256"
        }
      ],
      "name": "courses",
      "outputs": [
        {
          "internalType": "uint256",
          "name": "id",
          "type": "uint256"
        },
        {
          "internalType": "address",
          "name": "teacher",
          "type": "address"
        },
        {
          "internalType": "string",
          "name": "name",
          "type": "string"
        },
        {
          "internalType": "uint256",
          "name": "startTime",
          "type": "uint256"
        },
        {
          "internalType": "uint256",
          "name": "endTime",
          "type": "uint256"
        },
        {
          "internalType": "bool",
          "name": "isActive",
          "type": "bool"
        },
        {
          "internalType": "uint256",
          "name": "studentCount",
          "type": "uint256"
        }
      ],
      "stateMutability": "view",
      "type": "function"
    },
    {
      "inputs": [
        {
          "internalType": "string",
          "name": "name",
          "type": "string"
        },
        {
          "internalType": "uint256",
          "name": "startTime",
          "type": "uint256"
        },
        {
          "internalType": "uint256",
          "name": "endTime",
          "type": "uint256"
        }
      ],
      "name": "createCourse",
      "outputs": [
        {
          "internalType": "uint256",
          "name": "",
          "type": "uint256"
        }
      ],
      "stateMutability": "nonpayable",
      "type": "function"
    },
    {
      "inputs": [],
      "name": "evaluationCount",
      "outputs": [
        {
          "internalType": "uint256",
          "name": "",
          "type": "uint256"
        }
      ],
      "stateMutability": "view",
      "type": "function"
    },
    {
      "inputs": [
        {
          "internalType": "uint256",
          "name": "",
          "type": "uint256"
        }
      ],
      "name": "evaluations",
      "outputs": [
        {
          "internalType": "uint256",
          "name": "id",
          "type": "uint256"
        },
        {
          "internalType": "address",
          "name": "student",
          "type": "address"
        },
        {
          "internalType": "uint256",
          "name": "courseId",
          "type": "uint256"
        },
        {
          "internalType": "uint256",
          "name": "timestamp",
          "type": "uint256"
        },
        {
          "internalType": "string",
          "name": "contentHash",
          "type": "string"
        },
        {
          "internalType": "bool",
          "name": "isAnonymous",
          "type": "bool"
        },
        {
          "internalType": "uint8",
          "name": "rating",
          "type": "uint8"
        },
        {
          "internalType": "uint8",
          "name": "teachingRating",
          "type": "uint8"
        },
        {
          "internalType": "uint8",
          "name": "contentRating",
          "type": "uint8"
        },
        {
          "internalType": "uint8",
          "name": "interactionRating",
          "type": "uint8"
        },
        {
          "internalType": "bool",
          "name": "isActive",
          "type": "bool"
        }
      ],
      "stateMutability": "view",
      "type": "function"
    },
    {
      "inputs": [],
      "name": "getActiveCourses",
      "outputs": [
        {
          "internalType": "uint256[]",
          "name": "",
          "type": "uint256[]"
        }
      ],
      "stateMutability": "view",
      "type": "function"
    },
    {
      "inputs": [],
      "name": "getAllAdmins",
      "outputs": [
        {
          "internalType": "address[]",
          "name": "",
          "type": "address[]"
        }
      ],
      "stateMutability": "view",
      "type": "function"
    },
    {
      "inputs": [],
      "name": "getAllCourses",
      "outputs": [
        {
          "internalType": "uint256[]",
          "name": "",
          "type": "uint256[]"
        }
      ],
      "stateMutability": "view",
      "type": "function"
    },
    {
      "inputs": [],
      "name": "getAllStudents",
      "outputs": [
        {
          "internalType": "address[]",
          "name": "",
          "type": "address[]"
        }
      ],
      "stateMutability": "view",
      "type": "function"
    },
    {
      "inputs": [],
      "name": "getAllTeachers",
      "outputs": [
        {
          "internalType": "address[]",
          "name": "",
          "type": "address[]"
        }
      ],
      "stateMutability": "view",
      "type": "function"
    },
    {
      "inputs": [
        {
          "internalType": "uint256",
          "name": "courseId",
          "type": "uint256"
        }
      ],
      "name": "getAverageRating",
      "outputs": [
        {
          "internalType": "uint256",
          "name": "",
          "type": "uint256"
        }
      ],
      "stateMutability": "view",
      "type": "function"
    },
    {
      "inputs": [
        {
          "internalType": "uint256",
          "name": "courseId",
          "type": "uint256"
        },
        {
          "internalType": "uint256",
          "name": "offset",
          "type": "uint256"
        },
        {
          "internalType": "uint256",
          "name": "limit",
          "type": "uint256"
        }
      ],
      "name": "getCourseBatchEvaluations",
      "outputs": [
        {
          "internalType": "uint256[]",
          "name": "ids",
          "type": "uint256[]"
        },
        {
          "internalType": "address[]",
          "name": "studentAddresses",
          "type": "address[]"
        },
        {
          "internalType": "string[]",
          "name": "names",
          "type": "string[]"
        },
        {
          "internalType": "uint256[]",
          "name": "timestamps",
          "type": "uint256[]"
        },
        {
          "internalType": "uint8[]",
          "name": "ratings",
          "type": "uint8[]"
        },
        {
          "internalType": "uint8[]",
          "name": "teachingRatings",
          "type": "uint8[]"
        },
        {
          "internalType": "uint8[]",
          "name": "contentRatings",
          "type": "uint8[]"
        },
        {
          "internalType": "uint8[]",
          "name": "interactionRatings",
          "type": "uint8[]"
        },
        {
          "internalType": "bool[]",
          "name": "isAnonymous",
          "type": "bool[]"
        }
      ],
      "stateMutability": "view",
      "type": "function"
    },
    {
      "inputs": [
        {
          "internalType": "uint256",
          "name": "courseId",
          "type": "uint256"
        }
      ],
      "name": "getCourseEvaluations",
      "outputs": [
        {
          "internalType": "uint256[]",
          "name": "",
          "type": "uint256[]"
        }
      ],
      "stateMutability": "view",
      "type": "function"
    },
    {
      "inputs": [
        {
          "internalType": "uint256",
          "name": "courseId",
          "type": "uint256"
        }
      ],
      "name": "getCourseStatistics",
      "outputs": [
        {
          "internalType": "uint256",
          "name": "totalEvaluations",
          "type": "uint256"
        },
        {
          "internalType": "uint256",
          "name": "averageRating",
          "type": "uint256"
        },
        {
          "internalType": "uint256",
          "name": "averageTeachingRating",
          "type": "uint256"
        },
        {
          "internalType": "uint256",
          "name": "averageContentRating",
          "type": "uint256"
        },
        {
          "internalType": "uint256",
          "name": "averageInteractionRating",
          "type": "uint256"
        },
        {
          "internalType": "uint256",
          "name": "anonymousCount",
          "type": "uint256"
        },
        {
          "internalType": "uint256",
          "name": "completeCount",
          "type": "uint256"
        }
      ],
      "stateMutability": "view",
      "type": "function"
    },
    {
      "inputs": [
        {
          "internalType": "uint256",
          "name": "courseId",
          "type": "uint256"
        }
      ],
      "name": "getCourseStudents",
      "outputs": [
        {
          "internalType": "address[]",
          "name": "",
          "type": "address[]"
        }
      ],
      "stateMutability": "view",
      "type": "function"
    },
    {
      "inputs": [
        {
          "internalType": "uint256",
          "name": "evaluationId",
          "type": "uint256"
        }
      ],
      "name": "getEvaluationDetails",
      "outputs": [
        {
          "internalType": "uint256",
          "name": "id",
          "type": "uint256"
        },
        {
          "internalType": "address",
          "name": "student",
          "type": "address"
        },
        {
          "internalType": "uint256",
          "name": "courseId",
          "type": "uint256"
        },
        {
          "internalType": "uint256",
          "name": "timestamp",
          "type": "uint256"
        },
        {
          "internalType": "string",
          "name": "contentHash",
          "type": "string"
        },
        {
          "internalType": "string[]",
          "name": "imageHashes",
          "type": "string[]"
        },
        {
          "internalType": "bool",
          "name": "isAnonymous",
          "type": "bool"
        },
        {
          "internalType": "uint8",
          "name": "rating",
          "type": "uint8"
        },
        {
          "internalType": "uint8",
          "name": "teachingRating",
          "type": "uint8"
        },
        {
          "internalType": "uint8",
          "name": "contentRating",
          "type": "uint8"
        },
        {
          "internalType": "uint8",
          "name": "interactionRating",
          "type": "uint8"
        },
        {
          "internalType": "bool",
          "name": "isActive",
          "type": "bool"
        }
      ],
      "stateMutability": "view",
      "type": "function"
    },
    {
      "inputs": [
        {
          "internalType": "address",
          "name": "studentAddress",
          "type": "address"
        }
      ],
      "name": "getStudentCourses",
      "outputs": [
        {
          "internalType": "uint256[]",
          "name": "",
          "type": "uint256[]"
        }
      ],
      "stateMutability": "view",
      "type": "function"
    },
    {
      "inputs": [
        {
          "internalType": "address",
          "name": "studentAddress",
          "type": "address"
        }
      ],
      "name": "getStudentDetailInfo",
      "outputs": [
        {
          "internalType": "string",
          "name": "name",
          "type": "string"
        },
        {
          "internalType": "string",
          "name": "phone",
          "type": "string"
        },
        {
          "internalType": "uint256",
          "name": "studentCourseCount",
          "type": "uint256"
        },
        {
          "internalType": "uint256",
          "name": "studentEvalCount",
          "type": "uint256"
        },
        {
          "internalType": "uint256[]",
          "name": "courseIds",
          "type": "uint256[]"
        },
        {
          "internalType": "string[]",
          "name": "courseNames",
          "type": "string[]"
        },
        {
          "internalType": "bool[]",
          "name": "hasEvaluatedArray",
          "type": "bool[]"
        }
      ],
      "stateMutability": "view",
      "type": "function"
    },
    {
      "inputs": [
        {
          "internalType": "address",
          "name": "studentAddress",
          "type": "address"
        }
      ],
      "name": "getStudentEvaluations",
      "outputs": [
        {
          "internalType": "uint256[]",
          "name": "",
          "type": "uint256[]"
        }
      ],
      "stateMutability": "view",
      "type": "function"
    },
    {
      "inputs": [
        {
          "internalType": "uint256",
          "name": "offset",
          "type": "uint256"
        },
        {
          "internalType": "uint256",
          "name": "limit",
          "type": "uint256"
        }
      ],
      "name": "getStudentsBatch",
      "outputs": [
        {
          "internalType": "address[]",
          "name": "addresses",
          "type": "address[]"
        },
        {
          "internalType": "string[]",
          "name": "names",
          "type": "string[]"
        },
        {
          "internalType": "string[]",
          "name": "phones",
          "type": "string[]"
        },
        {
          "internalType": "uint256[]",
          "name": "coursesCounts",
          "type": "uint256[]"
        },
        {
          "internalType": "uint256[]",
          "name": "evaluationsCounts",
          "type": "uint256[]"
        }
      ],
      "stateMutability": "view",
      "type": "function"
    },
    {
      "inputs": [
        {
          "internalType": "address",
          "name": "teacherAddress",
          "type": "address"
        }
      ],
      "name": "getTeacherDashboard",
      "outputs": [
        {
          "internalType": "uint256",
          "name": "totalCourses",
          "type": "uint256"
        },
        {
          "internalType": "uint256",
          "name": "totalStudents",
          "type": "uint256"
        },
        {
          "internalType": "uint256",
          "name": "totalEvaluations",
          "type": "uint256"
        },
        {
          "internalType": "uint256[]",
          "name": "courseIds",
          "type": "uint256[]"
        },
        {
          "internalType": "string[]",
          "name": "courseNames",
          "type": "string[]"
        },
        {
          "internalType": "uint256[]",
          "name": "studentCounts",
          "type": "uint256[]"
        },
        {
          "internalType": "uint256[]",
          "name": "evaluationCounts",
          "type": "uint256[]"
        },
        {
          "internalType": "uint256[]",
          "name": "averageRatings",
          "type": "uint256[]"
        }
      ],
      "stateMutability": "view",
      "type": "function"
    },
    {
      "inputs": [
        {
          "internalType": "address",
          "name": "teacherAddress",
          "type": "address"
        }
      ],
      "name": "getTeacherDetailInfo",
      "outputs": [
        {
          "internalType": "string",
          "name": "name",
          "type": "string"
        },
        {
          "internalType": "string",
          "name": "phone",
          "type": "string"
        },
        {
          "internalType": "uint256",
          "name": "totalCourses",
          "type": "uint256"
        },
        {
          "internalType": "uint256",
          "name": "totalStudents",
          "type": "uint256"
        },
        {
          "internalType": "uint256",
          "name": "totalEvaluations",
          "type": "uint256"
        },
        {
          "internalType": "uint256",
          "name": "averageRating",
          "type": "uint256"
        }
      ],
      "stateMutability": "view",
      "type": "function"
    },
    {
      "inputs": [
        {
          "internalType": "uint256",
          "name": "offset",
          "type": "uint256"
        },
        {
          "internalType": "uint256",
          "name": "limit",
          "type": "uint256"
        }
      ],
      "name": "getTeachersBatch",
      "outputs": [
        {
          "internalType": "address[]",
          "name": "addresses",
          "type": "address[]"
        },
        {
          "internalType": "string[]",
          "name": "names",
          "type": "string[]"
        },
        {
          "internalType": "string[]",
          "name": "phones",
          "type": "string[]"
        },
        {
          "internalType": "uint256[]",
          "name": "coursesCounts",
          "type": "uint256[]"
        },
        {
          "internalType": "uint256[]",
          "name": "averageRatings",
          "type": "uint256[]"
        }
      ],
      "stateMutability": "view",
      "type": "function"
    },
    {
      "inputs": [
        {
          "internalType": "address",
          "name": "userAddress",
          "type": "address"
        }
      ],
      "name": "getUserInfo",
      "outputs": [
        {
          "internalType": "string",
          "name": "name",
          "type": "string"
        },
        {
          "internalType": "string",
          "name": "phone",
          "type": "string"
        },
        {
          "internalType": "bytes32",
          "name": "role",
          "type": "bytes32"
        },
        {
          "internalType": "bool",
          "name": "isRegistered",
          "type": "bool"
        }
      ],
      "stateMutability": "view",
      "type": "function"
    },
    {
      "inputs": [
        {
          "internalType": "uint256",
          "name": "",
          "type": "uint256"
        },
        {
          "internalType": "address",
          "name": "",
          "type": "address"
        }
      ],
      "name": "hasEvaluated",
      "outputs": [
        {
          "internalType": "bool",
          "name": "",
          "type": "bool"
        }
      ],
      "stateMutability": "view",
      "type": "function"
    },
    {
      "inputs": [
        {
          "internalType": "uint256",
          "name": "",
          "type": "uint256"
        },
        {
          "internalType": "address",
          "name": "",
          "type": "address"
        }
      ],
      "name": "hasJoinedCourse",
      "outputs": [
        {
          "internalType": "bool",
          "name": "",
          "type": "bool"
        }
      ],
      "stateMutability": "view",
      "type": "function"
    },
    {
      "inputs": [
        {
          "internalType": "uint256",
          "name": "courseId",
          "type": "uint256"
        },
        {
          "internalType": "address",
          "name": "studentAddress",
          "type": "address"
        }
      ],
      "name": "isStudentEvaluated",
      "outputs": [
        {
          "internalType": "bool",
          "name": "",
          "type": "bool"
        }
      ],
      "stateMutability": "view",
      "type": "function"
    },
    {
      "inputs": [
        {
          "internalType": "uint256",
          "name": "courseId",
          "type": "uint256"
        },
        {
          "internalType": "address",
          "name": "studentAddress",
          "type": "address"
        }
      ],
      "name": "isStudentJoined",
      "outputs": [
        {
          "internalType": "bool",
          "name": "",
          "type": "bool"
        }
      ],
      "stateMutability": "view",
      "type": "function"
    },
    {
      "inputs": [
        {
          "internalType": "uint256",
          "name": "courseId",
          "type": "uint256"
        }
      ],
      "name": "joinCourse",
      "outputs": [],
      "stateMutability": "nonpayable",
      "type": "function"
    },
    {
      "inputs": [
        {
          "internalType": "uint256",
          "name": "courseId",
          "type": "uint256"
        }
      ],
      "name": "leaveCourse",
      "outputs": [],
      "stateMutability": "nonpayable",
      "type": "function"
    },
    {
      "inputs": [],
      "name": "owner",
      "outputs": [
        {
          "internalType": "address",
          "name": "",
          "type": "address"
        }
      ],
      "stateMutability": "view",
      "type": "function"
    },
    {
      "inputs": [
        {
          "internalType": "string",
          "name": "name",
          "type": "string"
        },
        {
          "internalType": "string",
          "name": "phone",
          "type": "string"
        },
        {
          "internalType": "bytes32",
          "name": "passwordHash",
          "type": "bytes32"
        },
        {
          "internalType": "bytes32",
          "name": "role",
          "type": "bytes32"
        }
      ],
      "name": "registerUser",
      "outputs": [],
      "stateMutability": "nonpayable",
      "type": "function"
    },
    {
      "inputs": [
        {
          "internalType": "address",
          "name": "",
          "type": "address"
        },
        {
          "internalType": "uint256",
          "name": "",
          "type": "uint256"
        }
      ],
      "name": "studentCourses",
      "outputs": [
        {
          "internalType": "uint256",
          "name": "",
          "type": "uint256"
        }
      ],
      "stateMutability": "view",
      "type": "function"
    },
    {
      "inputs": [
        {
          "internalType": "address",
          "name": "",
          "type": "address"
        },
        {
          "internalType": "uint256",
          "name": "",
          "type": "uint256"
        }
      ],
      "name": "studentEvaluations",
      "outputs": [
        {
          "internalType": "uint256",
          "name": "",
          "type": "uint256"
        }
      ],
      "stateMutability": "view",
      "type": "function"
    },
    {
      "inputs": [
        {
          "internalType": "address",
          "name": "",
          "type": "address"
        }
      ],
      "name": "students",
      "outputs": [
        {
          "internalType": "bool",
          "name": "",
          "type": "bool"
        }
      ],
      "stateMutability": "view",
      "type": "function"
    },
    {
      "inputs": [
        {
          "internalType": "uint256",
          "name": "courseId",
          "type": "uint256"
        },
        {
          "internalType": "string",
          "name": "contentHash",
          "type": "string"
        },
        {
          "internalType": "string[]",
          "name": "imageHashes",
          "type": "string[]"
        },
        {
          "internalType": "uint8",
          "name": "rating",
          "type": "uint8"
        },
        {
          "internalType": "uint8",
          "name": "teachingRating",
          "type": "uint8"
        },
        {
          "internalType": "uint8",
          "name": "contentRating",
          "type": "uint8"
        },
        {
          "internalType": "uint8",
          "name": "interactionRating",
          "type": "uint8"
        },
        {
          "internalType": "bool",
          "name": "isAnonymous",
          "type": "bool"
        }
      ],
      "name": "submitEvaluation",
      "outputs": [
        {
          "internalType": "uint256",
          "name": "",
          "type": "uint256"
        }
      ],
      "stateMutability": "nonpayable",
      "type": "function"
    },
    {
      "inputs": [
        {
          "internalType": "address",
          "name": "",
          "type": "address"
        }
      ],
      "name": "teachers",
      "outputs": [
        {
          "internalType": "bool",
          "name": "",
          "type": "bool"
        }
      ],
      "stateMutability": "view",
      "type": "function"
    },
    {
      "inputs": [
        {
          "internalType": "uint256",
          "name": "courseId",
          "type": "uint256"
        },
        {
          "internalType": "string",
          "name": "name",
          "type": "string"
        },
        {
          "internalType": "uint256",
          "name": "startTime",
          "type": "uint256"
        },
        {
          "internalType": "uint256",
          "name": "endTime",
          "type": "uint256"
        },
        {
          "internalType": "bool",
          "name": "isActive",
          "type": "bool"
        }
      ],
      "name": "updateCourse",
      "outputs": [],
      "stateMutability": "nonpayable",
      "type": "function"
    },
    {
      "inputs": [
        {
          "internalType": "address",
          "name": "",
          "type": "address"
        }
      ],
      "name": "users",
      "outputs": [
        {
          "internalType": "string",
          "name": "name",
          "type": "string"
        },
        {
          "internalType": "string",
          "name": "phone",
          "type": "string"
        },
        {
          "internalType": "bytes32",
          "name": "passwordHash",
          "type": "bytes32"
        },
        {
          "internalType": "bytes32",
          "name": "role",
          "type": "bytes32"
        },
        {
          "internalType": "bool",
          "name": "isRegistered",
          "type": "bool"
        }
      ],
      "stateMutability": "view",
      "type": "function"
    },
    {
      "inputs": [
        {
          "internalType": "bytes32",
          "name": "passwordHash",
          "type": "bytes32"
        }
      ],
      "name": "verifyPassword",
      "outputs": [
        {
          "internalType": "bool",
          "name": "",
          "type": "bool"
        }
      ],
      "stateMutability": "view",
      "type": "function"
    }
  ],
  "bytecode": "0x6080806040523461004057600080546001600160a01b0319163390811782558152600460205260409020805460ff1916600117905561471a90816100468239f35b600080fdfe610120604052600436101561001357600080fd5b60003560e01c8063016c14da1461306157806304e48bd11461300f57806306a4dc6814612fb457806309029aac14612efd578063128af98114612e6257806316ac3b1214612e3157806317b7e03e14612df3578063181c5c8214612dc25780632b00e0f314612af157806333c63b1714612a2c578063429b62e5146129ed57806355172bc7146127d657806358716cc5146127055780635a52b26a146126dc5780635e8b20fd146124e057806360dd60e31461245657806360fa6443146123f25780636386c1c714612339578063660551591461231b5780636811cdaf146122cb5780636e274a341461229a57806373e29f76146121af57806375b238fc1461217457806386e5c15a146121395780638abb445614611ea85780638c3fe4f214611e5b5780638da5cb5b14611e3257806396f979d214611da0578063a6c807a914611d61578063a87430ba14611cca578063ae0ec5e4146119f6578063aefe24d414611996578063af6db1171461192f578063bb0f34b01461141e578063c8cd44d2146113d1578063c9ace3f1146113b3578063cca0903314611369578063d40761e4146112f2578063e620ceb814610a0b578063e6a852cc146109c9578063e9523c9714610912578063e9e3092714610847578063ed072a07146106c3578063f0a47f7814610684578063f0a486b21461061d578063f7be43fb146105e2578063fa3ef5a914610553578063fd95cc51146104fb5763ffb24e9b1461023857600080fd5b346104f65760a03660031901126104f6576004356001600160401b036024358181116104f65761026c9036906004016134f0565b906084359081151582036104f6578360005260206002815261029485604060002054146135ce565b336000526005815260ff6040600020541680156104e3575b80156104cf575b6102bc90613574565b600085815260028252604090206001808201549193916001600160a01b0390811633149081156104b6575b81156104a8575b5015610463576002840192865192831161044d5761030c84546132b7565b601f8111610412575b5080601f84116001146103a0575091808092600596959461036c99600094610395575b50501b916000199060031b1c19161790555b60443560038201556064356004820155019060ff801983541691151516179055565b33907f6b7bcf044e00829a998e3e09bdef036fe2317de7a3f1ec7f04927b0973b73594600080a3005b015192503880610338565b9193949596601f1984168660005283600020936000905b8282106103fb5750509161036c9897959391856005989694106103e2575b505050811b01905561034a565b015160001960f88460031b161c191690553880806103d5565b8088869782949787015181550196019401906103b7565b61043d908560005282600020601f860160051c810191848710610443575b601f0160051c019061355d565b38610315565b9091508190610430565b634e487b7160e01b600052604160045260246000fd5b60405162461bcd60e51b815260048101849052601960248201527f436861696e526174653a206e6f7420617574686f72697a6564000000000000006044820152606490fd5b9050600054163314386102ee565b9050336000526004845260ff60406000205416906102e7565b506000546001600160a01b031633146102b3565b506004815260ff604060002054166102ac565b600080fd5b346104f65760403660031901126104f6576105146131d9565b6001600160a01b03166000908152600b60205260409020805460243591908210156104f65760209161054591613184565b90546040519160031b1c8152f35b346104f6576020806003193601126104f6576001600160a01b036105756131d9565b1660005260088152604060002090604051808383829554938481520190600052836000209260005b858282106105cc575050506105b49250038361335e565b6105c86040519282849384528301906130e2565b0390f35b855484526001958601958895509301920161059d565b346104f65760003660031901126104f65760206040517f36a5c4aaacb6b388bbd448bf11096b7dafc5652bcc9046084fd0e95b1fb0b2cc8152f35b346104f65760403660031901126104f6576004356106396131ef565b9080600052600260205261065381604060002054146135ce565b600052600a60205260406000209060018060a01b0316600052602052602060ff604060002054166040519015158152f35b346104f65760203660031901126104f6576001600160a01b036106a56131d9565b166000526005602052602060ff604060002054166040519015158152f35b346104f6576020806003193601126104f6576004359081600052600281526106f182604060002054146135ce565b336000526006815260ff604060002054168015610833575b61071290613619565b81600052600a8152604060002033600052815261073660ff60406000205416613699565b8160005260078152604060002033600052815260ff604060002054166107d35760029082600052600a81526040600020336000528152604060002060ff19815416905582600052526006604060002001805480156107bd5760001901905533907f497941b8fa39d9cb0342836ad143b09296c513385dba2fa8c33a934e1c6fe922600080a3005b634e487b7160e01b600052601160045260246000fd5b6084906040519062461bcd60e51b82526004820152603360248201527f436861696e526174653a2073747564656e742068617320616c7265616479206560448201527276616c75617465642074686520636f7572736560681b6064820152fd5b506000546001600160a01b03163314610709565b346104f65760003660031901126104f6573360005260206004815260ff6040600020541680156108fe575b61087b906142d0565b60405190818282600d549283815201600d6000527fd7b6990105719101dabeb77144f2a3385c8033acd3af97e9423a695e81ad1eb59260005b858282106108df575050506108cb9250038361335e565b6105c860405192828493845283019061319c565b85546001600160a01b03168452600195860195889550930192016108b4565b506000546001600160a01b03163314610872565b346104f65760003660031901126104f6573360005260206004815260ff6040600020541680156109b5575b610946906142d0565b60405190818282600f549283815201600f6000527f8d1108e10bcb7c27dddfc02ed9d693a074039d026cf4ea4240b40f7d581ac8029260005b85828210610996575050506108cb9250038361335e565b85546001600160a01b031684526001958601958895509301920161097f565b506000546001600160a01b0316331461093d565b346104f65760203660031901126104f657600435600d548110156104f6576109f260209161314d565b905460405160039290921b1c6001600160a01b03168152f35b346104f6576101003660031901126104f6576024356001600160401b0381116104f657610a3c9036906004016134f0565b6001600160401b03604435116104f6573660236044350112156104f65760443560040135610a6981613546565b90610a77604051928361335e565b80825260208201903660248260051b6044350101116104f657602460443501915b60248260051b604435010183106112bf5750505060643560ff811681036104f6576084359060ff821682036104f65760a4359060ff821682036104f65760c4359160ff831683036104f65760e4359182151583036104f65733600052600660205260ff6040600020541680156112ab575b610b1290613619565b6004356000526002602052610b2f600435604060002054146135ce565b600435600052600260205260406000206003810154421015908161129c575b501561124757600435600052600a602052604060002033600052602052610b7c60ff60406000205416613699565b600435600052600760205260406000203360005260205260ff6040600020541661120257600160ff82161015806111f4575b156111af57600160ff86161015806111a1575b1561115157600160ff8316101580611143575b156110f457600160ff85161015806110e6575b156110935760ff9485809492819360115499610c028b6135bf565b6011556040519b610c128d61330c565b8b8d528c6020339101528c60406004359101528c60604291015260808d015260a08c0152151560c08b01521660e08901521661010087015216610120850152166101408301526001610160830152806000526003602052604060002090825182556001820160018060a01b036020850151166bffffffffffffffffffffffff60a01b825416179055604083015160028301556060830151600383015560808301519283516001600160401b03811161044d57610cd160048501546132b7565b601f811161105e575b506020601f8211600114610fef578192939495600092610fe4575b50508160011b916000199060031b1c19161760048401555b60a0810151805190600160401b821161044d576005850154826005870155808310610f6c575b5060200190600585016000526020600020916000905b828210610e57576020868660068a0190610d7560c08201511515839060ff801983541691151516179055565b60e081015190825462ff000061010083015160101b1663ff00000061012084015160181b169161ff0065ff000000000061016064ff000000006101408801518c1b16960151151560281b169560081b169065ffffffffff001916171717171790556004356000526007825260406000203360005282526040600020600160ff1982541617905560088252610e0d816040600020613664565b60043560005260098252610e25816040600020613664565b6040519060043533827f423285530582a702e795200cb363c60e7c81dc3c09a08566dcc4c6f766ee3110600080a48152f35b80518051906001600160401b03821161044d57610e7486546132b7565b601f8111610f3a575b50602090601f8311600114610eca579282600194936020938695600092610ebf575b5050600019600383901b1c191690841b1787555b01940191019092610d49565b015190508c80610e9f565b908660005260206000209160005b601f1985168110610f22575083602093600196938796938794601f19811610610f09575b505050811b018755610eb3565b015160001960f88460031b161c191690558c8080610efc565b91926020600181928685015181550194019201610ed8565b610f6690876000526020600020601f850160051c8101916020861061044357601f0160051c019061355d565b89610e7d565b600586016000526020600020908382015b8183018110610f8d575050610d33565b80610f9a600192546132b7565b80610fa7575b5001610f7d565b601f81118314610fbd5750600081555b89610fa0565b600090828252610fdb601f60208420920160051c820185830161355d565b81835555610fb7565b015190508580610cf5565b6004850160005260206000209060005b601f1984168110611046575060019394959683601f1981161061102d575b505050811b016004840155610d0d565b015160001960f88460031b161c1916905585808061101d565b9091602060018192858b015181550193019101610fff565b61108d90600486016000526020600020601f840160051c8101916020851061044357601f0160051c019061355d565b85610cda565b60405162461bcd60e51b815260206004820152602560248201527f436861696e526174653a20696e76616c696420696e746572616374696f6e20726044820152646174696e6760d81b6064820152608490fd5b50600560ff85161115610be7565b60405162461bcd60e51b815260206004820152602160248201527f436861696e526174653a20696e76616c696420636f6e74656e7420726174696e6044820152606760f81b6064820152608490fd5b50600560ff83161115610bd4565b60405162461bcd60e51b815260206004820152602260248201527f436861696e526174653a20696e76616c6964207465616368696e6720726174696044820152616e6760f01b6064820152608490fd5b50600560ff86161115610bc1565b60405162461bcd60e51b815260206004820152601960248201527f436861696e526174653a20696e76616c696420726174696e67000000000000006044820152606490fd5b50600560ff82161115610bae565b60405162461bcd60e51b815260206004820152601c60248201527f436861696e526174653a20616c7265616479206576616c7561746564000000006044820152606490fd5b60405162461bcd60e51b815260206004820152602760248201527f436861696e526174653a206e6f742077697468696e206576616c756174696f6e604482015266081c195c9a5bd960ca1b6064820152608490fd5b60049150015442111588610b4e565b506000546001600160a01b03163314610b09565b6001600160401b038335116104f6576020806024926112e53685883560443501016134f0565b8152019301929050610a98565b346104f6576020806003193601126104f6576001600160a01b036113146131d9565b16600052600b8152604060002090604051808383829554938481520190600052836000209260005b85828210611353575050506105b49250038361335e565b855484526001958601958895509301920161133c565b346104f65760403660031901126104f6576113826131d9565b6001600160a01b03166000908152600860205260409020805460243591908210156104f65760209161054591613184565b346104f65760003660031901126104f6576020601154604051908152f35b346104f65760403660031901126104f6576113ea6131ef565b600435600052600760205260406000209060018060a01b0316600052602052602060ff604060002054166040519015158152f35b346104f65760803660031901126104f6576004356001600160401b0381116104f65761144e9036906004016134f0565b6024356001600160401b0381116104f65761146d9036906004016134f0565b33600052600160205260ff600460406000200154166118df5760405190611493826132f1565b8282526020820152604435604082015260643560608201526001608082015233600052600160205260406000209181519283516001600160401b03811161044d576114de82546132b7565b601f81116118ad575b506020601f8211600114611844578192939495600092611839575b50508160011b916000199060031b1c19161781555b60208301519283516001600160401b03811161044d5761153a60018401546132b7565b601f8111611804575b506020601f821160011461178c5791816080926004946115a99798600092611781575b50508160011b916000199060031b1c19161760018501555b60408101516002850155606081015160038501550151151591019060ff801983541691151516179055565b6064357fa49807205ce4d355092ef5a8a18f56e8913cf4a201fbe287825b095693c217750361169e573360005260046020526040600020600160ff19825416179055600f54600160401b81101561044d576001810180600f5581101561168857600f6000527f8d1108e10bcb7c27dddfc02ed9d693a074039d026cf4ea4240b40f7d581ac8020180546001600160a01b031916331790555b7fccd232d370002532b298c205b90d1c287a6f1913b8c7113733b47a81fece11a061167760405192604084526040840190613205565b9160643560208201528033930390a2005b634e487b7160e01b600052603260045260246000fd5b6064357fd16e204b8a42a15ab0ea6bb8ec1ecdfbe69f38074fc865323af19efe7d9573d903611720573360005260056020526040600020600160ff19825416179055600e54600160401b81101561044d578060016116ff9201600e55613116565b81546001600160a01b0360039290921b91821b19163390911b179055611641565b7f36a5c4aaacb6b388bbd448bf11096b7dafc5652bcc9046084fd0e95b1fb0b2cc60643503611641573360005260066020526040600020600160ff19825416179055600d54600160401b81101561044d578060016116ff9201600d5561314d565b015190508880611566565b6001840160005260206000209560005b601f19841681106117ec5750826115a9969760049593600193608096601f198116106117d3575b505050811b01600185015561157e565b015160001960f88460031b161c191690558880806117c3565b8282015188556001909701966020928301920161179c565b61183390600185016000526020600020601f840160051c8101916020851061044357601f0160051c019061355d565b85611543565b015190508580611502565b8260005260206000209060005b601f1984168110611895575060019394959683601f1981161061187c575b505050811b018155611517565b015160001960f88460031b161c1916905585808061186f565b9091602060018192858b015181550193019101611851565b6118d990836000526020600020601f840160051c8101916020851061044357601f0160051c019061355d565b856114e7565b60405162461bcd60e51b815260206004820152602260248201527f436861696e526174653a207573657220616c7265616479207265676973746572604482015261195960f21b6064820152608490fd5b346104f65760403660031901126104f65760043561194b6131ef565b9080600052600260205261196581604060002054146135ce565b600052600760205260406000209060018060a01b0316600052602052602060ff604060002054166040519015158152f35b346104f6576105c86119d26119aa366132a1565b9033600052600460205260ff6040600020541680156119e2575b6119cd906142d0565b614495565b9160409593955195869586613425565b506000546001600160a01b031633146119c4565b346104f65760603660031901126104f6576001600160401b036004358181116104f657611a279036906004016134f0565b9060243591604435336000526020936005855260ff604060002054168015611cb7575b8015611ca3575b611a5a90613574565b81811015611c5e5760105493611a6f856135bf565b60105560405192611a7f84613328565b8584528684019233845260408501868152606086019182526080860192835260a0860193600180865260c0880196600088528a60005260028c526040600020985189558189019060018060a01b039051166bffffffffffffffffffffffff60a01b825416179055600288019251805192831161044d57611aff84546132b7565b8c601f8211611c2d575b50508b908c601f8511600114611bb957509280611b68979593819360069b9a9896600094611bae575b50501b916000199060031b1c19161790555b516003870155516004860155511515600585019060ff801983541691151516179055565b51910155817fd26ee57739c2f8845178c96a37348973f3edc5907d342cdf65382f9a84474b8960405185815280611ba3339588830190613205565b0390a3604051908152f35b015192508f80611b32565b9190601f9493941984168660005283600020936000905b828210611c165750509160069a999795939185611b689a98969410611bfd575b505050811b019055611b44565b015160001960f88460031b161c191690558d8080611bf0565b808886978294978701518155019601940190611bd0565b611c5791866000528160002090601f870160051c820192871061044357601f0160051c019061355d565b8c8c611b09565b60405162461bcd60e51b815260048101869052601e60248201527f436861696e526174653a20696e76616c69642074696d6520706572696f6400006044820152606490fd5b506000546001600160a01b03163314611a51565b506004855260ff60406000205416611a4a565b346104f65760203660031901126104f6576001600160a01b03611ceb6131d9565b166000526001602052611d3d6040600020611d058161337f565b90611d126001820161337f565b600282015491611d4b60ff60046003840154930154169260405196879660a0885260a0880190613205565b908682036020880152613205565b9260408501526060840152151560808301520390f35b346104f65760203660031901126104f6576001600160a01b03611d826131d9565b166000526006602052602060ff604060002054166040519015158152f35b346104f65760203660031901126104f65760043560005260026020526040600020805460018060a01b0360018301541691611ddd6002820161337f565b6003820154916004810154611e17600660ff600585015416930154936040519788978852602088015260e0604088015260e0870190613205565b9360608601526080850152151560a084015260c08301520390f35b346104f65760003660031901126104f6576000546040516001600160a01b039091168152602090f35b346104f65760403660031901126104f657611e746131ef565b600435600052600a60205260406000209060018060a01b0316600052602052602060ff604060002054166040519015158152f35b346104f6576020806003193601126104f657611ec26131d9565b90336000526004815260ff9182604060002054168015612125575b611ee6906142d0565b6001600160a01b031660008181526006835260409020549091908316156120e1578160005260019182825260406000209160405194611f24866132f1565b611f2d8461337f565b8652611f3a85850161337f565b9586838201528160046002968781015460408501526003810154606085015201541615156080820152519483600052600b83526040600020906040519081928391868254948581520191600052866000209060005b888682106120cb5750505050611fa79250038261335e565b805192846000526008815260406000205491611fc285613819565b93611fcc86613b37565b96611fd687613819565b9860005b88811061204f57508a60e06105c88c8f8d6120338e8e8e61201b8f6120419761200e6040519d8d8f9e8f9081520190613205565b918c8303908d0152613205565b9260408a0152606089015287820360808901526130e2565b9085820360a0870152613245565b9083820360c08501526134ba565b8061205d6120c692876136fa565b5180612069838c6136fa565b52806000528388528b61208b836120858760406000200161337f565b926136fa565b52612096828d6136fa565b506000526007875260406000208460005287528b6120bc828760406000205416926136fa565b90151590526135bf565b611fda565b8354855287955090930192918101918101611f8f565b6064906040519062461bcd60e51b82526004820152601860248201527f436861696e526174653a206e6f7420612073747564656e7400000000000000006044820152fd5b506000546001600160a01b03163314611edd565b346104f65760003660031901126104f65760206040517fd16e204b8a42a15ab0ea6bb8ec1ecdfbe69f38074fc865323af19efe7d9573d98152f35b346104f65760003660031901126104f65760206040517fa49807205ce4d355092ef5a8a18f56e8913cf4a201fbe287825b095693c217758152f35b346104f65760603660031901126104f65760043580600052600260205280604060002054146121dd906135ce565b6044356024356121ec92613b8e565b949361010097969793919394855190604051998a99610120808c528b01612212916130e2565b8a810360208c01526122239161319c565b89810360408b015261223491613245565b88810360608a0152612245916130e2565b878103608089015261225691613483565b86810360a088015261226791613483565b85810360c087015261227891613483565b84810360e086015261228991613483565b90838203908401526105c8916134ba565b346104f6576122a8366132a1565b90600052600c602052604060002080548210156104f6576020916109f291613184565b346104f6576105c86119d26122df366132a1565b9033600052600460205260ff604060002054168015612307575b612302906142d0565b61431c565b506000546001600160a01b031633146122f9565b346104f65760003660031901126104f6576020601054604051908152f35b346104f65760203660031901126104f6576001600160a01b0361235a6131d9565b1660005260016020526123d5604060002060405190612378826132f1565b6123818161337f565b825261238f6001820161337f565b91826020820152600282015460408201526123e360ff60046003850154948560608601520154161515918260808201525193604051958695608087526080870190613205565b908582036020870152613205565b91604084015260608301520390f35b346104f65760203660031901126104f65760e061242960043580600052600260205261242481604060002054146135ce565b61384b565b94604094919493929351968752602087015260408601526060850152608084015260a083015260c0820152f35b346104f6576020806003193601126104f657600435806000526002825261248381604060002054146135ce565b600052600c8152604060002090604051808383829554938481520190600052836000209260005b858282106124c1575050506108cb9250038361335e565b85546001600160a01b03168452600195860195889550930192016124aa565b346104f6576020806003193601126104f65760043590816000526002815261250e82604060002054146135ce565b336000526006815260ff6040600020541680156126c8575b61252f90613619565b816000526002815260ff60056040600020015416156126845781600052600a8152604060002033600052815260ff604060002054166126275781600052600a815260406000203360005281526040600020600160ff19825416179055600b815261259d826040600020613664565b81600052600c8152604060002090815491600160401b83101561044d57826125cc916001600295018155613184565b81549060031b9033821b9160018060a01b03901b1916179055826000525260066040600020016125fc81546135bf565b905533907f9f84e7caf9247b5be496d99d1d314ac8b4dce0d0fd7abb0ed925801f614b008d600080a3005b6084906040519062461bcd60e51b82526004820152603060248201527f436861696e526174653a2073747564656e742068617320616c7265616479206a60448201526f6f696e65642074686520636f7572736560801b6064820152fd5b6064906040519062461bcd60e51b82526004820152601f60248201527f436861696e526174653a20636f75727365206973206e6f7420616374697665006044820152fd5b506000546001600160a01b03163314612526565b346104f65760203660031901126104f657600435600e548110156104f6576109f2602091613116565b346104f65760003660031901126104f6576010546000805b828110612799575061272e90613819565b906000805b82811061275057604051602080825281906105c8908201876130e2565b80600052600260205260ff60056040600020015416612778575b612773906135bf565b612733565b90612791818361278b61277394886136fa565b526135bf565b91905061276a565b80600052600260205260ff600560406000200154166127c1575b6127bc906135bf565b61271d565b906127ce6127bc916135bf565b9190506127b3565b346104f65760203660031901126104f657600435806000526003602052806040600020540361299c5760005260036020526040600020604051906128198261330c565b805482526001808201546001600160a01b031660208401526002820154604084015260038201546060840152906128526004820161337f565b60808401526005810191825461286781613546565b93612875604051958661335e565b818552602085019060005260206000206000915b8383106129805787876006888260a0850152015460ff808216151560c0850152808260081c1660e0850152808260101c16610100850152808260181c16610120850152808260201c16610140850152808260281c16151561016085015261293684519361203360018060a01b03602088015116966040810151906080606082015191015191604051998a998a5260208a015260408901526060880152610180806080890152870190613205565b91818116151560c0850152818160081c1660e0850152818160101c16610100850152818160181c16610120850152818160201c1661014085015260281c1615156101608301520390f35b846020819261298e8561337f565b815201920192019190612889565b60405162461bcd60e51b8152602060048201526024808201527f436861696e526174653a206576616c756174696f6e20646f6573206e6f7420656044820152631e1a5cdd60e21b6064820152608490fd5b346104f65760203660031901126104f6576001600160a01b03612a0e6131d9565b166000526004602052602060ff604060002054166040519015158152f35b346104f65760203660031901126104f65760043560005260036020526040600020805460018060a01b0360018301541691612aa560028201549160038101546006612a796004840161337f565b920154936040519687968752602087015260408601526060850152610160806080860152840190613205565b9060ff90818116151560a0850152818160081c1660c0850152818160101c1660e0850152818160181c16610100850152818160201c1661012085015260281c1615156101408301520390f35b346104f65760203660031901126104f657612b0a6131d9565b33600052600460205260ff604060002054168015612dae575b612b2c906142d0565b6001600160a01b03811660009081526005602052604090205460ff1615612d695760018060a01b03811660005260016020526040600020604051612b6f816132f1565b612b788261337f565b815260ff6004612b8a6001850161337f565b938460208501526002810154604085015260038101546060850152015416151560808201525190600090600080600095600090601054915b828110612c4357505082159050612c33576064860295808704606414901517156107bd57612c1a612bf683612c0c9861371b565b935b60405197889760c0895260c0890190613205565b908782036020890152613205565b9360408601526060850152608084015260a08301520390f35b612c0c9550612c1a600093612bf8565b6000818152600260205260409020600101546001600160a01b03838116911614612c76575b612c71906135bf565b612bc2565b969395612c8a612ca39199969392996135bf565b938860005260026020526006604060002001549061370e565b87600052600960205260406000209660405180988991602082549182815201916000526020600020906000905b808210612d4d57505050612cf29291612cea91038a61335e565b88519061370e565b916000965b8851881015612d3b57612d2f612d3591612d118a8c6136fa565b51600052600360205260ff60066040600020015460081c169061370e565b976135bf565b96612cf7565b99959894975092955090939092612c68565b919350916001602081928654815201940192018b939291612cd0565b60405162461bcd60e51b815260206004820152601860248201527f436861696e526174653a206e6f742061207465616368657200000000000000006044820152606490fd5b506000546001600160a01b03163314612b23565b346104f657612dd0366132a1565b906000526009602052604060002080548210156104f65760209161054591613184565b346104f65760203660031901126104f6576020612e296004358060005260028352612e2481604060002054146135ce565b61373b565b604051908152f35b346104f65760203660031901126104f657336000526001602052602060043560026040600020015414604051908152f35b346104f65760203660031901126104f6576020612ed36105c8612ec5612eef612ee1612e94612e8f6131d9565b613f86565b939594999297909161010080519960c051986040519e8f9e8f908152015260408d01528060608d01528b01906130e2565b9089820360808b0152613245565b9087820360a08901526130e2565b9085820360c08701526130e2565b9083820360e08501526130e2565b346104f65760003660031901126104f6573360005260206004815260ff604060002054168015612fa0575b612f31906142d0565b60405190818282600e549283815201600e6000527fbb7b4a454dc3493923482f07822329ed19e8244eff582cc204f8554c3620c3fd9260005b85828210612f81575050506108cb9250038361335e565b85546001600160a01b0316845260019586019588955093019201612f6a565b506000546001600160a01b03163314612f28565b346104f65760203660031901126104f657600435600f548110156104f657600f6000527f8d1108e10bcb7c27dddfc02ed9d693a074039d026cf4ea4240b40f7d581ac80201546040516001600160a01b039091168152602090f35b346104f65760003660031901126104f65760105461302c81613819565b9060005b81811061304d57604051602080825281906105c8908201866130e2565b808061278b61305c93866136fa565b613030565b346104f6576020806003193601126104f657600435806000526002825261308e81604060002054146135ce565b60005260098152604060002090604051808383829554938481520190600052836000209260005b858282106130cc575050506105b49250038361335e565b85548452600195860195889550930192016130b5565b90815180825260208080930193019160005b828110613102575050505090565b8351855293810193928101926001016130f4565b600e5481101561168857600e6000527fbb7b4a454dc3493923482f07822329ed19e8244eff582cc204f8554c3620c3fd0190600090565b600d5481101561168857600d6000527fd7b6990105719101dabeb77144f2a3385c8033acd3af97e9423a695e81ad1eb50190600090565b80548210156116885760005260206000200190600090565b90815180825260208080930193019160005b8281106131bc575050505090565b83516001600160a01b0316855293810193928101926001016131ae565b600435906001600160a01b03821682036104f657565b602435906001600160a01b03821682036104f657565b919082519283825260005b848110613231575050826000602080949584010152601f8019910116010190565b602081830181015184830182015201613210565b908082519081815260208091019281808460051b8301019501936000915b8483106132735750505050505090565b9091929394958480613291600193601f198682030187528a51613205565b9801930193019194939290613263565b60409060031901126104f6576004359060243590565b90600182811c921680156132e7575b60208310146132d157565b634e487b7160e01b600052602260045260246000fd5b91607f16916132c6565b60a081019081106001600160401b0382111761044d57604052565b61018081019081106001600160401b0382111761044d57604052565b60e081019081106001600160401b0382111761044d57604052565b602081019081106001600160401b0382111761044d57604052565b90601f801991011681019081106001600160401b0382111761044d57604052565b9060405191826000825492613393846132b7565b90818452600194858116908160001461340257506001146133bf575b50506133bd9250038361335e565b565b9093915060005260209081600020936000915b8183106133ea5750506133bd935082010138806133af565b855488840185015294850194879450918301916133d2565b9150506133bd94506020925060ff191682840152151560051b82010138806133af565b93906134809593613456613472946134486134649460a08a5260a08a019061319c565b9088820360208a0152613245565b908682036040880152613245565b9084820360608601526130e2565b9160808184039101526130e2565b90565b90815180825260208080930193019160005b8281106134a3575050505090565b835160ff1685529381019392810192600101613495565b90815180825260208080930193019160005b8281106134da575050505090565b83511515855293810193928101926001016134cc565b81601f820112156104f6578035906001600160401b03821161044d5760405192613524601f8401601f19166020018561335e565b828452602083830101116104f657816000926020809301838601378301015290565b6001600160401b03811161044d5760051b60200190565b818110613568575050565b6000815560010161355d565b1561357b57565b606460405162461bcd60e51b815260206004820152602060248201527f436861696e526174653a2063616c6c6572206973206e6f7420746561636865726044820152fd5b60001981146107bd5760010190565b156135d557565b606460405162461bcd60e51b815260206004820152602060248201527f436861696e526174653a20636f7572736520646f6573206e6f742065786973746044820152fd5b1561362057565b606460405162461bcd60e51b815260206004820152602060248201527f436861696e526174653a2063616c6c6572206973206e6f742073747564656e746044820152fd5b8054600160401b81101561044d5761368191600182018155613184565b819291549060031b91821b91600019901b1916179055565b156136a057565b60405162461bcd60e51b815260206004820152602c60248201527f436861696e526174653a2073747564656e7420686173206e6f74206a6f696e6560448201526b642074686520636f7572736560a01b6064820152608490fd5b80518210156116885760209160051b010190565b919082018092116107bd57565b8115613725570490565b634e487b7160e01b600052601260045260246000fd5b9060009182526020600981526040808420918151808483829654938481520190885283882092885b858282106138035750505061377a9250038461335e565b8251156137fe578492835b81518510156137c5576137b96137bf9161379f87856136fa565b5189526003855260ff6006878b20015460081c169061370e565b946135bf565b93613785565b93509150506064820291808304606414901517156137ea57613480929350519061371b565b634e487b7160e01b84526011600452602484fd5b505050565b8554845260019586019589955093019201613763565b9061382382613546565b613830604051918261335e565b8281528092613841601f1991613546565b0190602036910137565b60005260096020526040600020906040518083602082955493848152019060005260206000209260005b818110613b1e57505061388a9250038361335e565b81518015613b0b5760009260008060009060009360009560005b8251811015613a8b576138b781846136fa565b516000526003806020526040600020906138d7604051806101005261330c565b8154610100515260018060a01b0360018301541660206101005101526002820154604061010051015281015460606101005101526139176004820161337f565b6080610100510152600581015461392d81613546565b9061393b604051928361335e565b80825260208201600584016000526020600020906000905b838210613a6e57505050506101005160a00152600601549360c09a60ff861615158c6101005101528560081c60ff166101005160e001528560101c60ff16610100516101000152610120958060181c60ff16876101005101528060201c60ff166101005161014001528060281c60ff16151561010051610160015260081c60ff166139dd9161370e565b9661010051610100015160ff166139f39161370e565b9461010051015160ff16613a069161370e565b9461010051610140015160ff16613a1c9161370e565b99610100510151613a5e575b608061010051015151613a49575b613a3f906135bf565b98939294986138a4565b96613a56613a3f916135bf565b979050613a36565b95613a68906135bf565b95613a28565b600160208192613a7d8661337f565b815201930191019091613953565b50979396919592949360649150818102908015908204831417156107bd5788613ab39161371b565b96818102908082048314901517156107bd5788613acf9161371b565b95818102908082048314901517156107bd5788613aeb9161371b565b948181029181830414901517156107bd5787613b069161371b565b929190565b5060009150819081908190819081908190565b8454835260019485019487945060209093019201613875565b90613b4182613546565b613b4e604051918261335e565b8281528092613b5f601f1991613546565b019060005b828110613b7057505050565b806060602080938501015201613b64565b919082039182116107bd57565b60006101005260005260096020526040600020906040518083602082955493848152019060005260206000209260005b818110613f6d575050613bd39250038361335e565b815180821015613ec45781613be791613b81565b92808411613ebc575b50613bfa83613819565b93613c0484613819565b93613c0e81613b37565b93613c1882613819565b61010052613c2582613819565b93613c2f83613819565b93613c3984613819565b93613c4381613819565b93613c4d82613819565b9360005b838110613c5e5750505050565b613c76613c70829b9e9d9c9b8461370e565b846136fa565b5160005260039081602052604060002060405192613c938461330c565b8154845260018201546001600160a01b03166020850152600282015460408501528101546060840152613cc86004820161337f565b6080840152600581018054613cdc81613546565b91613cea604051938461335e565b81835260208301906000526020600020906000905b838210613e9f57505050509d9e9b9c9d60ff9160069160a08601520154818116151560c0850152818160081c1660e0850152818160101c16610100850152818160181c16610120850152818160201c1661014085015260281c1615156101608301528d613d6e828451926136fa565b5260208201516001600160a01b0316613d87828f6136fa565b528b60c083015115600014613e4a57613e4592613dd38360c09360018060a01b036020850151166000526001602052613dc3604060002061337f565b613dcd83836136fa565b526136fa565b505b6060810151613de784610100516136fa565b5260e081015160ff16613dfa848f6136fa565b5261010081015160ff16613e0e848e6136fa565b5260ff61012082015116613e22848d6136fa565b5260ff61014082015116613e36848c6136fa565b520151151561278b82896136fa565b613c51565b506040518060408101106001600160401b0360408301111761044d57613e4592613e99838f84604060c096016040526009815268416e6f6e796d6f757360b81b6020820152613dcd83836136fa565b50613dd5565b600160208192613eae8661337f565b815201930191019091613cff565b925038613bf0565b50505050604051613ed481613343565b6000815260405191613ee583613343565b6000835260405191613ef683613343565b6000835260405191613f0783613343565b60008352604051613f1781613343565b6000815260405192613f2884613343565b6000845260405192613f3984613343565b6000845260405192613f4a84613343565b6000845260405192613f5b84613343565b60008452989796610100529493929190565b8454835260019485019487945060209093019201613bbe565b600060c052600061010052600091600092601054935b84811061428857508093811561421a57613fb582613819565b91613fbf81613b37565b91613fde613fcc83613819565b92613fd681613819565b60c052613819565b6101005260008060805260009660005b83811061400057505050506080519493565b600081815260026020526040902060018101546001600160a01b039081169084168114614038575b5050614033906135bf565b613fee565b60209b949993959a989297916006916040519d8e61405581613328565b8354815201528c604061406a6002840161337f565b910152600381015460608e0152600481015460808e0152600581015460ff16151560a08e0152015460c08c0152866140a28a846136fa565b5260408b01516140b28a836136fa565b526140bd89826136fa565b5060c08b01516140cd8a886136fa565b52866000526009602052604060002060e08181526020604051928360a05254928381520190516000526020600020916000905b80821061420157505061411a915060a0518091039061335e565b60a0515161412a8a60c0516136fa565b5260a05151156141d357600095865b60a051805189101561415c5761415691612d118a612d2f936136fa565b96614139565b509096509a9096939a99949298999791976064908181029181830414901517156107bd57614033926141b860c06141cb948e6141ac6141a26141c59760a051519061371b565b91610100516136fa565b525b015160805161370e565b60805260a051519061370e565b996135bf565b929038614028565b9592996141c561403392986141b860c06141cb9460008e9f9a989e6141fb90610100516136fa565b526141ae565b8354835260019384019360209093019290910190614100565b505091505060405161422b81613343565b600081526040519061423c82613343565b600082526040519161424d83613343565b600083526040519261425e84613343565b600084526040519361426f85613343565b6000855260009560009560009594939260c05261010052565b6000818152600260205260409020600101546001600160a01b038581169116146142bb575b6142b6906135bf565b613f9c565b906142c86142b6916135bf565b9190506142ad565b156142d757565b60405162461bcd60e51b815260206004820152601e60248201527f436861696e526174653a2063616c6c6572206973206e6f742061646d696e00006044820152606490fd5b9091600d5480831015614434578261433391613b81565b9280841161442c575b5061434683613819565b9261435081613b37565b9261435a82613b37565b9261436483613819565b9261436e81613819565b9260005b82811061437e57505050565b80886008828c6143b661439c614397614427988a61370e565b61314d565b905460039190911b1c6001600160a01b03169283926136fa565b52806000526001908b6143f1866120856020958087526143df8360409a613dc38c60002061337f565b5085600052808752886000200161337f565b526143fc858d6136fa565b5080600052600b82528360002054614414868d6136fa565b52600052526000205461278b82886136fa565b614372565b92503861433c565b509150506040519061444582613343565b6000918281526040519261445884613343565b8084526040519261446884613343565b8184526040519261447884613343565b8284526040519261448884613343565b8084523681379493929190565b91600e548084101561443457836144ab91613b81565b918083116146dc575b506144c0829392613819565b926144ca81613b37565b926144d482613b37565b926144de83613819565b926144e881613819565b601054909360005b8381106144fd5750505050565b8061451061450b828561370e565b613116565b90546001600160a01b0393600392831b9190911c841691908290614534908f6136fa565b52816000528a60018d6145708660209484865261455a82604095613dc38760002061337f565b5087600052848652613dc385856000200161337f565b5060009384958598865b8c81106145da5750505050505050614592838b6136fa565b5282156145c8576064908181029181830414901517156107bd576145c3926145b99161371b565b61278b82896136fa565b6144f0565b506145c39150600061278b82896136fa565b80600052600287528282878760002001541614614600575b6145fb906135bf565b61457a565b9661460a906135bf565b96806000526009875284600020855180828a8294549384815201906000528a600020926000905b8b8d8284106146c3575050505061464a9250038261335e565b8051614657575b506145f2565b909a906000875b61467a575b506145fb9161467391519061370e565b9a90614651565b9981518b10156146bd576146b76146b189926146968e866136fa565b51600052888c5260ff60068b600020015460081c169061370e565b9b6135bf565b9061465e565b99614663565b9092945082919386548152019401920184929391614631565b9150386144b456fea2646970667358221220a491de05c53d7fb06718dce488003aa12deceb8e48be39ca10bc274bd15fda0364736f6c63430008140033",
  "linkReferences": {},
  "deployedLinkReferences": {}
}