{
  "_format": "hh-sol-artifact-1",
  "contractName": "ChainRate",
  "sourceName": "contracts/ChainRate.sol",
  "abi": [
    {
      "inputs": [],
      "stateMutability": "nonpayable",
      "type": "constructor"
    },
    {
      "anonymous": false,
      "inputs": [
        {
          "indexed": true,
          "internalType": "uint256",
          "name": "courseId",
          "type": "uint256"
        },
        {
          "indexed": true,
          "internalType": "address",
          "name": "teacher",
          "type": "address"
        },
        {
          "indexed": false,
          "internalType": "string",
          "name": "name",
          "type": "string"
        }
      ],
      "name": "CourseCreated",
      "type": "event"
    },
    {
      "anonymous": false,
      "inputs": [
        {
          "indexed": true,
          "internalType": "uint256",
          "name": "courseId",
          "type": "uint256"
        },
        {
          "indexed": true,
          "internalType": "address",
          "name": "teacher",
          "type": "address"
        }
      ],
      "name": "CourseUpdated",
      "type": "event"
    },
    {
      "anonymous": false,
      "inputs": [
        {
          "indexed": true,
          "internalType": "uint256",
          "name": "evaluationId",
          "type": "uint256"
        },
        {
          "indexed": true,
          "internalType": "address",
          "name": "student",
          "type": "address"
        },
        {
          "indexed": true,
          "internalType": "uint256",
          "name": "courseId",
          "type": "uint256"
        }
      ],
      "name": "EvaluationSubmitted",
      "type": "event"
    },
    {
      "anonymous": false,
      "inputs": [
        {
          "indexed": true,
          "internalType": "uint256",
          "name": "evaluationId",
          "type": "uint256"
        },
        {
          "indexed": true,
          "internalType": "address",
          "name": "student",
          "type": "address"
        }
      ],
      "name": "EvaluationUpdated",
      "type": "event"
    },
    {
      "anonymous": false,
      "inputs": [
        {
          "indexed": true,
          "internalType": "address",
          "name": "user",
          "type": "address"
        },
        {
          "indexed": false,
          "internalType": "string",
          "name": "name",
          "type": "string"
        },
        {
          "indexed": false,
          "internalType": "bytes32",
          "name": "role",
          "type": "bytes32"
        }
      ],
      "name": "UserRegistered",
      "type": "event"
    },
    {
      "inputs": [],
      "name": "ADMIN_ROLE",
      "outputs": [
        {
          "internalType": "bytes32",
          "name": "",
          "type": "bytes32"
        }
      ],
      "stateMutability": "view",
      "type": "function"
    },
    {
      "inputs": [],
      "name": "STUDENT_ROLE",
      "outputs": [
        {
          "internalType": "bytes32",
          "name": "",
          "type": "bytes32"
        }
      ],
      "stateMutability": "view",
      "type": "function"
    },
    {
      "inputs": [],
      "name": "TEACHER_ROLE",
      "outputs": [
        {
          "internalType": "bytes32",
          "name": "",
          "type": "bytes32"
        }
      ],
      "stateMutability": "view",
      "type": "function"
    },
    {
      "inputs": [
        {
          "internalType": "address",
          "name": "",
          "type": "address"
        }
      ],
      "name": "admins",
      "outputs": [
        {
          "internalType": "bool",
          "name": "",
          "type": "bool"
        }
      ],
      "stateMutability": "view",
      "type": "function"
    },
    {
      "inputs": [],
      "name": "courseCount",
      "outputs": [
        {
          "internalType": "uint256",
          "name": "",
          "type": "uint256"
        }
      ],
      "stateMutability": "view",
      "type": "function"
    },
    {
      "inputs": [
        {
          "internalType": "uint256",
          "name": "",
          "type": "uint256"
        },
        {
          "internalType": "uint256",
          "name": "",
          "type": "uint256"
        }
      ],
      "name": "courseEvaluations",
      "outputs": [
        {
          "internalType": "uint256",
          "name": "",
          "type": "uint256"
        }
      ],
      "stateMutability": "view",
      "type": "function"
    },
    {
      "inputs": [
        {
          "internalType": "uint256",
          "name": "",
          "type": "uint256"
        }
      ],
      "name": "courses",
      "outputs": [
        {
          "internalType": "uint256",
          "name": "id",
          "type": "uint256"
        },
        {
          "internalType": "address",
          "name": "teacher",
          "type": "address"
        },
        {
          "internalType": "string",
          "name": "name",
          "type": "string"
        },
        {
          "internalType": "uint256",
          "name": "startTime",
          "type": "uint256"
        },
        {
          "internalType": "uint256",
          "name": "endTime",
          "type": "uint256"
        },
        {
          "internalType": "bool",
          "name": "isActive",
          "type": "bool"
        }
      ],
      "stateMutability": "view",
      "type": "function"
    },
    {
      "inputs": [
        {
          "internalType": "string",
          "name": "name",
          "type": "string"
        },
        {
          "internalType": "uint256",
          "name": "startTime",
          "type": "uint256"
        },
        {
          "internalType": "uint256",
          "name": "endTime",
          "type": "uint256"
        }
      ],
      "name": "createCourse",
      "outputs": [
        {
          "internalType": "uint256",
          "name": "",
          "type": "uint256"
        }
      ],
      "stateMutability": "nonpayable",
      "type": "function"
    },
    {
      "inputs": [],
      "name": "evaluationCount",
      "outputs": [
        {
          "internalType": "uint256",
          "name": "",
          "type": "uint256"
        }
      ],
      "stateMutability": "view",
      "type": "function"
    },
    {
      "inputs": [
        {
          "internalType": "uint256",
          "name": "",
          "type": "uint256"
        }
      ],
      "name": "evaluations",
      "outputs": [
        {
          "internalType": "uint256",
          "name": "id",
          "type": "uint256"
        },
        {
          "internalType": "address",
          "name": "student",
          "type": "address"
        },
        {
          "internalType": "uint256",
          "name": "courseId",
          "type": "uint256"
        },
        {
          "internalType": "uint256",
          "name": "timestamp",
          "type": "uint256"
        },
        {
          "internalType": "string",
          "name": "contentHash",
          "type": "string"
        },
        {
          "internalType": "bool",
          "name": "isAnonymous",
          "type": "bool"
        },
        {
          "internalType": "uint8",
          "name": "rating",
          "type": "uint8"
        },
        {
          "internalType": "bool",
          "name": "isActive",
          "type": "bool"
        }
      ],
      "stateMutability": "view",
      "type": "function"
    },
    {
      "inputs": [
        {
          "internalType": "uint256",
          "name": "courseId",
          "type": "uint256"
        }
      ],
      "name": "getAverageRating",
      "outputs": [
        {
          "internalType": "uint256",
          "name": "",
          "type": "uint256"
        }
      ],
      "stateMutability": "view",
      "type": "function"
    },
    {
      "inputs": [
        {
          "internalType": "uint256",
          "name": "courseId",
          "type": "uint256"
        }
      ],
      "name": "getCourseEvaluations",
      "outputs": [
        {
          "internalType": "uint256[]",
          "name": "",
          "type": "uint256[]"
        }
      ],
      "stateMutability": "view",
      "type": "function"
    },
    {
      "inputs": [
        {
          "internalType": "uint256",
          "name": "evaluationId",
          "type": "uint256"
        }
      ],
      "name": "getEvaluationDetails",
      "outputs": [
        {
          "internalType": "uint256",
          "name": "id",
          "type": "uint256"
        },
        {
          "internalType": "address",
          "name": "student",
          "type": "address"
        },
        {
          "internalType": "uint256",
          "name": "courseId",
          "type": "uint256"
        },
        {
          "internalType": "uint256",
          "name": "timestamp",
          "type": "uint256"
        },
        {
          "internalType": "string",
          "name": "contentHash",
          "type": "string"
        },
        {
          "internalType": "bool",
          "name": "isAnonymous",
          "type": "bool"
        },
        {
          "internalType": "uint8",
          "name": "rating",
          "type": "uint8"
        },
        {
          "internalType": "bool",
          "name": "isActive",
          "type": "bool"
        }
      ],
      "stateMutability": "view",
      "type": "function"
    },
    {
      "inputs": [
        {
          "internalType": "address",
          "name": "studentAddress",
          "type": "address"
        }
      ],
      "name": "getStudentEvaluations",
      "outputs": [
        {
          "internalType": "uint256[]",
          "name": "",
          "type": "uint256[]"
        }
      ],
      "stateMutability": "view",
      "type": "function"
    },
    {
      "inputs": [
        {
          "internalType": "address",
          "name": "userAddress",
          "type": "address"
        }
      ],
      "name": "getUserInfo",
      "outputs": [
        {
          "internalType": "string",
          "name": "name",
          "type": "string"
        },
        {
          "internalType": "string",
          "name": "phone",
          "type": "string"
        },
        {
          "internalType": "bytes32",
          "name": "role",
          "type": "bytes32"
        },
        {
          "internalType": "bool",
          "name": "isRegistered",
          "type": "bool"
        }
      ],
      "stateMutability": "view",
      "type": "function"
    },
    {
      "inputs": [
        {
          "internalType": "uint256",
          "name": "",
          "type": "uint256"
        },
        {
          "internalType": "address",
          "name": "",
          "type": "address"
        }
      ],
      "name": "hasEvaluated",
      "outputs": [
        {
          "internalType": "bool",
          "name": "",
          "type": "bool"
        }
      ],
      "stateMutability": "view",
      "type": "function"
    },
    {
      "inputs": [],
      "name": "owner",
      "outputs": [
        {
          "internalType": "address",
          "name": "",
          "type": "address"
        }
      ],
      "stateMutability": "view",
      "type": "function"
    },
    {
      "inputs": [
        {
          "internalType": "string",
          "name": "name",
          "type": "string"
        },
        {
          "internalType": "string",
          "name": "phone",
          "type": "string"
        },
        {
          "internalType": "bytes32",
          "name": "passwordHash",
          "type": "bytes32"
        },
        {
          "internalType": "bytes32",
          "name": "role",
          "type": "bytes32"
        }
      ],
      "name": "registerUser",
      "outputs": [],
      "stateMutability": "nonpayable",
      "type": "function"
    },
    {
      "inputs": [
        {
          "internalType": "address",
          "name": "",
          "type": "address"
        },
        {
          "internalType": "uint256",
          "name": "",
          "type": "uint256"
        }
      ],
      "name": "studentEvaluations",
      "outputs": [
        {
          "internalType": "uint256",
          "name": "",
          "type": "uint256"
        }
      ],
      "stateMutability": "view",
      "type": "function"
    },
    {
      "inputs": [
        {
          "internalType": "address",
          "name": "",
          "type": "address"
        }
      ],
      "name": "students",
      "outputs": [
        {
          "internalType": "bool",
          "name": "",
          "type": "bool"
        }
      ],
      "stateMutability": "view",
      "type": "function"
    },
    {
      "inputs": [
        {
          "internalType": "uint256",
          "name": "courseId",
          "type": "uint256"
        },
        {
          "internalType": "string",
          "name": "contentHash",
          "type": "string"
        },
        {
          "internalType": "uint8",
          "name": "rating",
          "type": "uint8"
        },
        {
          "internalType": "bool",
          "name": "isAnonymous",
          "type": "bool"
        }
      ],
      "name": "submitEvaluation",
      "outputs": [
        {
          "internalType": "uint256",
          "name": "",
          "type": "uint256"
        }
      ],
      "stateMutability": "nonpayable",
      "type": "function"
    },
    {
      "inputs": [
        {
          "internalType": "address",
          "name": "",
          "type": "address"
        }
      ],
      "name": "teachers",
      "outputs": [
        {
          "internalType": "bool",
          "name": "",
          "type": "bool"
        }
      ],
      "stateMutability": "view",
      "type": "function"
    },
    {
      "inputs": [
        {
          "internalType": "uint256",
          "name": "courseId",
          "type": "uint256"
        },
        {
          "internalType": "string",
          "name": "name",
          "type": "string"
        },
        {
          "internalType": "uint256",
          "name": "startTime",
          "type": "uint256"
        },
        {
          "internalType": "uint256",
          "name": "endTime",
          "type": "uint256"
        },
        {
          "internalType": "bool",
          "name": "isActive",
          "type": "bool"
        }
      ],
      "name": "updateCourse",
      "outputs": [],
      "stateMutability": "nonpayable",
      "type": "function"
    },
    {
      "inputs": [
        {
          "internalType": "address",
          "name": "",
          "type": "address"
        }
      ],
      "name": "users",
      "outputs": [
        {
          "internalType": "string",
          "name": "name",
          "type": "string"
        },
        {
          "internalType": "string",
          "name": "phone",
          "type": "string"
        },
        {
          "internalType": "bytes32",
          "name": "passwordHash",
          "type": "bytes32"
        },
        {
          "internalType": "bytes32",
          "name": "role",
          "type": "bytes32"
        },
        {
          "internalType": "bool",
          "name": "isRegistered",
          "type": "bool"
        }
      ],
      "stateMutability": "view",
      "type": "function"
    },
    {
      "inputs": [
        {
          "internalType": "bytes32",
          "name": "passwordHash",
          "type": "bytes32"
        }
      ],
      "name": "verifyPassword",
      "outputs": [
        {
          "internalType": "bool",
          "name": "",
          "type": "bool"
        }
      ],
      "stateMutability": "view",
      "type": "function"
    }
  ],
  "bytecode": "0x608060405234801561001057600080fd5b50336000806101000a81548173ffffffffffffffffffffffffffffffffffffffff021916908373ffffffffffffffffffffffffffffffffffffffff1602179055506001600460003373ffffffffffffffffffffffffffffffffffffffff1673ffffffffffffffffffffffffffffffffffffffff16815260200190815260200160002060006101000a81548160ff0219169083151502179055506133e0806100b86000396000f3fe608060405234801561001057600080fd5b50600436106101735760003560e01c80638da5cb5b116100de578063c8cd44d211610097578063f0a47f7811610071578063f0a47f7814610514578063f7be43fb14610544578063fa3ef5a914610562578063ffb24e9b1461059257610173565b8063c8cd44d214610496578063c9ace3f1146104c6578063cca09033146104e457610173565b80638da5cb5b1461039357806396f979d2146103b1578063a6c807a9146103e6578063a87430ba14610416578063ae0ec5e41461044a578063bb0f34b01461047a57610173565b806355172bc71161013057806355172bc71461029f5780636386c1c7146102d657806366055159146103095780636e2779571461032757806375b238fc1461035757806386e5c15a1461037557610173565b8063016c14da1461017857806316ac3b12146101a857806317b7e03e146101d8578063181c5c821461020857806333c63b1714610238578063429b62e51461026f575b600080fd5b610192600480360381019061018d91906120e3565b6105ae565b60405161019f91906121ce565b60405180910390f35b6101c260048036038101906101bd9190612226565b610673565b6040516101cf919061226e565b60405180910390f35b6101f260048036038101906101ed91906120e3565b6106c1565b6040516101ff9190612298565b60405180910390f35b610222600480360381019061021d91906122b3565b610828565b60405161022f9190612298565b60405180910390f35b610252600480360381019061024d91906120e3565b610859565b6040516102669897969594939291906123e0565b60405180910390f35b61028960048036038101906102849190612491565b610970565b604051610296919061226e565b60405180910390f35b6102b960048036038101906102b491906120e3565b610990565b6040516102cd9897969594939291906123e0565b60405180910390f35b6102f060048036038101906102eb9190612491565b610bb7565b60405161030094939291906124cd565b60405180910390f35b610311610d82565b60405161031e9190612298565b60405180910390f35b610341600480360381019061033c91906126ad565b610d88565b60405161034e9190612298565b60405180910390f35b61035f6112f7565b60405161036c9190612730565b60405180910390f35b61037d61131b565b60405161038a9190612730565b60405180910390f35b61039b61133f565b6040516103a8919061274b565b60405180910390f35b6103cb60048036038101906103c691906120e3565b611363565b6040516103dd96959493929190612766565b60405180910390f35b61040060048036038101906103fb9190612491565b611454565b60405161040d919061226e565b60405180910390f35b610430600480360381019061042b9190612491565b611474565b6040516104419594939291906127ce565b60405180910390f35b610464600480360381019061045f919061282f565b6115c7565b6040516104719190612298565b60405180910390f35b610494600480360381019061048f919061289e565b6118ad565b005b6104b060048036038101906104ab919061293d565b611be9565b6040516104bd919061226e565b60405180910390f35b6104ce611c18565b6040516104db9190612298565b60405180910390f35b6104fe60048036038101906104f9919061297d565b611c1e565b60405161050b9190612298565b60405180910390f35b61052e60048036038101906105299190612491565b611c4f565b60405161053b919061226e565b60405180910390f35b61054c611c6f565b6040516105599190612730565b60405180910390f35b61057c60048036038101906105779190612491565b611c93565b60405161058991906121ce565b60405180910390f35b6105ac60048036038101906105a791906129bd565b611d2a565b005b60608180600260008381526020019081526020016000206000015414610609576040517f08c379a000000000000000000000000000000000000000000000000000000000815260040161060090612aa0565b60405180910390fd5b6009600084815260200190815260200160002080548060200260200160405190810160405280929190818152602001828054801561066657602002820191906000526020600020905b815481526020019060010190808311610652575b5050505050915050919050565b600081600160003373ffffffffffffffffffffffffffffffffffffffff1673ffffffffffffffffffffffffffffffffffffffff16815260200190815260200160002060020154149050919050565b6000818060026000838152602001908152602001600020600001541461071c576040517f08c379a000000000000000000000000000000000000000000000000000000000815260040161071390612aa0565b60405180910390fd5b60006009600085815260200190815260200160002080548060200260200160405190810160405280929190818152602001828054801561077b57602002820191906000526020600020905b815481526020019060010190808311610767575b505050505090506000815103610795576000925050610822565b6000805b825181101561080357600360008483815181106107b9576107b8612ac0565b5b6020026020010151815260200190815260200160002060050160019054906101000a900460ff1660ff16826107ee9190612b1e565b915080806107fb90612b52565b915050610799565b5081516064826108139190612b9a565b61081d9190612c0b565b935050505b50919050565b6009602052816000526040600020818154811061084457600080fd5b90600052602060002001600091509150505481565b60036020528060005260406000206000915090508060000154908060010160009054906101000a900473ffffffffffffffffffffffffffffffffffffffff16908060020154908060030154908060040180546108b490612c6b565b80601f01602080910402602001604051908101604052809291908181526020018280546108e090612c6b565b801561092d5780601f106109025761010080835404028352916020019161092d565b820191906000526020600020905b81548152906001019060200180831161091057829003601f168201915b5050505050908060050160009054906101000a900460ff16908060050160019054906101000a900460ff16908060050160029054906101000a900460ff16905088565b60046020528060005260406000206000915054906101000a900460ff1681565b6000806000806060600080600088806003600083815260200190815260200160002060000154146109f6576040517f08c379a00000000000000000000000000000000000000000000000000000000081526004016109ed90612d0e565b60405180910390fd5b6000600360008c815260200190815260200160002060405180610100016040529081600082015481526020016001820160009054906101000a900473ffffffffffffffffffffffffffffffffffffffff1673ffffffffffffffffffffffffffffffffffffffff1673ffffffffffffffffffffffffffffffffffffffff1681526020016002820154815260200160038201548152602001600482018054610a9b90612c6b565b80601f0160208091040260200160405190810160405280929190818152602001828054610ac790612c6b565b8015610b145780601f10610ae957610100808354040283529160200191610b14565b820191906000526020600020905b815481529060010190602001808311610af757829003601f168201915b505050505081526020016005820160009054906101000a900460ff161515151581526020016005820160019054906101000a900460ff1660ff1660ff1681526020016005820160029054906101000a900460ff1615151515815250509050806000015181602001518260400151836060015184608001518560a001518660c001518760e00151995099509950995099509950995099505050919395975091939597565b6060806000806000600160008773ffffffffffffffffffffffffffffffffffffffff1673ffffffffffffffffffffffffffffffffffffffff1681526020019081526020016000206040518060a0016040529081600082018054610c1990612c6b565b80601f0160208091040260200160405190810160405280929190818152602001828054610c4590612c6b565b8015610c925780601f10610c6757610100808354040283529160200191610c92565b820191906000526020600020905b815481529060010190602001808311610c7557829003601f168201915b50505050508152602001600182018054610cab90612c6b565b80601f0160208091040260200160405190810160405280929190818152602001828054610cd790612c6b565b8015610d245780601f10610cf957610100808354040283529160200191610d24565b820191906000526020600020905b815481529060010190602001808311610d0757829003601f168201915b5050505050815260200160028201548152602001600382015481526020016004820160009054906101000a900460ff161515151581525050905080600001518160200151826060015183608001519450945094509450509193509193565b600a5481565b6000600660003373ffffffffffffffffffffffffffffffffffffffff1673ffffffffffffffffffffffffffffffffffffffff16815260200190815260200160002060009054906101000a900460ff1680610e2d575060008054906101000a900473ffffffffffffffffffffffffffffffffffffffff1673ffffffffffffffffffffffffffffffffffffffff163373ffffffffffffffffffffffffffffffffffffffff16145b610e6c576040517f08c379a0000000000000000000000000000000000000000000000000000000008152600401610e6390612d7a565b60405180910390fd5b8480600260008381526020019081526020016000206000015414610ec5576040517f08c379a0000000000000000000000000000000000000000000000000000000008152600401610ebc90612aa0565b60405180910390fd5b8560026000828152602001908152602001600020600301544210158015610f02575060026000828152602001908152602001600020600401544211155b610f41576040517f08c379a0000000000000000000000000000000000000000000000000000000008152600401610f3890612e0c565b60405180910390fd5b6007600088815260200190815260200160002060003373ffffffffffffffffffffffffffffffffffffffff1673ffffffffffffffffffffffffffffffffffffffff16815260200190815260200160002060009054906101000a900460ff1615610fdf576040517f08c379a0000000000000000000000000000000000000000000000000000000008152600401610fd690612e78565b60405180910390fd5b60018560ff1610158015610ff7575060058560ff1611155b611036576040517f08c379a000000000000000000000000000000000000000000000000000000000815260040161102d90612ee4565b60405180910390fd5b6000600b600081548092919061104b90612b52565b9190505590506040518061010001604052808281526020013373ffffffffffffffffffffffffffffffffffffffff16815260200189815260200142815260200188815260200186151581526020018760ff16815260200160011515815250600360008381526020019081526020016000206000820151816000015560208201518160010160006101000a81548173ffffffffffffffffffffffffffffffffffffffff021916908373ffffffffffffffffffffffffffffffffffffffff1602179055506040820151816002015560608201518160030155608082015181600401908161113691906130b0565b5060a08201518160050160006101000a81548160ff02191690831515021790555060c08201518160050160016101000a81548160ff021916908360ff16021790555060e08201518160050160026101000a81548160ff0219169083151502179055509050506001600760008a815260200190815260200160002060003373ffffffffffffffffffffffffffffffffffffffff1673ffffffffffffffffffffffffffffffffffffffff16815260200190815260200160002060006101000a81548160ff021916908315150217905550600860003373ffffffffffffffffffffffffffffffffffffffff1673ffffffffffffffffffffffffffffffffffffffff16815260200190815260200160002081908060018154018082558091505060019003906000526020600020016000909190919091505560096000898152602001908152602001600020819080600181540180825580915050600190039060005260206000200160009091909190915055873373ffffffffffffffffffffffffffffffffffffffff16827f423285530582a702e795200cb363c60e7c81dc3c09a08566dcc4c6f766ee311060405160405180910390a4809350505050949350505050565b7fa49807205ce4d355092ef5a8a18f56e8913cf4a201fbe287825b095693c2177581565b7fd16e204b8a42a15ab0ea6bb8ec1ecdfbe69f38074fc865323af19efe7d9573d981565b60008054906101000a900473ffffffffffffffffffffffffffffffffffffffff1681565b60026020528060005260406000206000915090508060000154908060010160009054906101000a900473ffffffffffffffffffffffffffffffffffffffff16908060020180546113b290612c6b565b80601f01602080910402602001604051908101604052809291908181526020018280546113de90612c6b565b801561142b5780601f106114005761010080835404028352916020019161142b565b820191906000526020600020905b81548152906001019060200180831161140e57829003601f168201915b5050505050908060030154908060040154908060050160009054906101000a900460ff16905086565b60066020528060005260406000206000915054906101000a900460ff1681565b600160205280600052604060002060009150905080600001805461149790612c6b565b80601f01602080910402602001604051908101604052809291908181526020018280546114c390612c6b565b80156115105780601f106114e557610100808354040283529160200191611510565b820191906000526020600020905b8154815290600101906020018083116114f357829003601f168201915b50505050509080600101805461152590612c6b565b80601f016020809104026020016040519081016040528092919081815260200182805461155190612c6b565b801561159e5780601f106115735761010080835404028352916020019161159e565b820191906000526020600020905b81548152906001019060200180831161158157829003601f168201915b5050505050908060020154908060030154908060040160009054906101000a900460ff16905085565b6000600560003373ffffffffffffffffffffffffffffffffffffffff1673ffffffffffffffffffffffffffffffffffffffff16815260200190815260200160002060009054906101000a900460ff168061166a5750600460003373ffffffffffffffffffffffffffffffffffffffff1673ffffffffffffffffffffffffffffffffffffffff16815260200190815260200160002060009054906101000a900460ff165b806116c0575060008054906101000a900473ffffffffffffffffffffffffffffffffffffffff1673ffffffffffffffffffffffffffffffffffffffff163373ffffffffffffffffffffffffffffffffffffffff16145b6116ff576040517f08c379a00000000000000000000000000000000000000000000000000000000081526004016116f6906131ce565b60405180910390fd5b818310611741576040517f08c379a00000000000000000000000000000000000000000000000000000000081526004016117389061323a565b60405180910390fd5b6000600a600081548092919061175690612b52565b9190505590506040518060c001604052808281526020013373ffffffffffffffffffffffffffffffffffffffff16815260200186815260200185815260200184815260200160011515815250600260008381526020019081526020016000206000820151816000015560208201518160010160006101000a81548173ffffffffffffffffffffffffffffffffffffffff021916908373ffffffffffffffffffffffffffffffffffffffff160217905550604082015181600201908161181b91906130b0565b50606082015181600301556080820151816004015560a08201518160050160006101000a81548160ff0219169083151502179055509050503373ffffffffffffffffffffffffffffffffffffffff16817fd26ee57739c2f8845178c96a37348973f3edc5907d342cdf65382f9a84474b898760405161189a919061325a565b60405180910390a3809150509392505050565b600160003373ffffffffffffffffffffffffffffffffffffffff1673ffffffffffffffffffffffffffffffffffffffff16815260200190815260200160002060040160009054906101000a900460ff161561193d576040517f08c379a0000000000000000000000000000000000000000000000000000000008152600401611934906132ee565b60405180910390fd5b6040518060a0016040528085815260200184815260200183815260200182815260200160011515815250600160003373ffffffffffffffffffffffffffffffffffffffff1673ffffffffffffffffffffffffffffffffffffffff16815260200190815260200160002060008201518160000190816119bb91906130b0565b5060208201518160010190816119d191906130b0565b50604082015181600201556060820151816003015560808201518160040160006101000a81548160ff0219169083151502179055509050507fa49807205ce4d355092ef5a8a18f56e8913cf4a201fbe287825b095693c217758103611a8d576001600460003373ffffffffffffffffffffffffffffffffffffffff1673ffffffffffffffffffffffffffffffffffffffff16815260200190815260200160002060006101000a81548160ff021916908315150217905550611b93565b7fd16e204b8a42a15ab0ea6bb8ec1ecdfbe69f38074fc865323af19efe7d9573d98103611b11576001600560003373ffffffffffffffffffffffffffffffffffffffff1673ffffffffffffffffffffffffffffffffffffffff16815260200190815260200160002060006101000a81548160ff021916908315150217905550611b92565b7f36a5c4aaacb6b388bbd448bf11096b7dafc5652bcc9046084fd0e95b1fb0b2cc8103611b91576001600660003373ffffffffffffffffffffffffffffffffffffffff1673ffffffffffffffffffffffffffffffffffffffff16815260200190815260200160002060006101000a81548160ff0219169083151502179055505b5b5b3373ffffffffffffffffffffffffffffffffffffffff167fccd232d370002532b298c205b90d1c287a6f1913b8c7113733b47a81fece11a08583604051611bdb92919061330e565b60405180910390a250505050565b60076020528160005260406000206020528060005260406000206000915091509054906101000a900460ff1681565b600b5481565b60086020528160005260406000208181548110611c3a57600080fd5b90600052602060002001600091509150505481565b60056020528060005260406000206000915054906101000a900460ff1681565b7f36a5c4aaacb6b388bbd448bf11096b7dafc5652bcc9046084fd0e95b1fb0b2cc81565b6060600860008373ffffffffffffffffffffffffffffffffffffffff1673ffffffffffffffffffffffffffffffffffffffff168152602001908152602001600020805480602002602001604051908101604052809291908181526020018280548015611d1e57602002820191906000526020600020905b815481526020019060010190808311611d0a575b50505050509050919050565b8480600260008381526020019081526020016000206000015414611d83576040517f08c379a0000000000000000000000000000000000000000000000000000000008152600401611d7a90612aa0565b60405180910390fd5b600560003373ffffffffffffffffffffffffffffffffffffffff1673ffffffffffffffffffffffffffffffffffffffff16815260200190815260200160002060009054906101000a900460ff1680611e245750600460003373ffffffffffffffffffffffffffffffffffffffff1673ffffffffffffffffffffffffffffffffffffffff16815260200190815260200160002060009054906101000a900460ff165b80611e7a575060008054906101000a900473ffffffffffffffffffffffffffffffffffffffff1673ffffffffffffffffffffffffffffffffffffffff163373ffffffffffffffffffffffffffffffffffffffff16145b611eb9576040517f08c379a0000000000000000000000000000000000000000000000000000000008152600401611eb0906131ce565b60405180910390fd5b60006002600088815260200190815260200160002090503373ffffffffffffffffffffffffffffffffffffffff168160010160009054906101000a900473ffffffffffffffffffffffffffffffffffffffff1673ffffffffffffffffffffffffffffffffffffffff161480611f775750600460003373ffffffffffffffffffffffffffffffffffffffff1673ffffffffffffffffffffffffffffffffffffffff16815260200190815260200160002060009054906101000a900460ff165b80611fcd575060008054906101000a900473ffffffffffffffffffffffffffffffffffffffff1673ffffffffffffffffffffffffffffffffffffffff163373ffffffffffffffffffffffffffffffffffffffff16145b61200c576040517f08c379a00000000000000000000000000000000000000000000000000000000081526004016120039061338a565b60405180910390fd5b8581600201908161201d91906130b0565b50848160030181905550838160040181905550828160050160006101000a81548160ff0219169083151502179055503373ffffffffffffffffffffffffffffffffffffffff16877f6b7bcf044e00829a998e3e09bdef036fe2317de7a3f1ec7f04927b0973b7359460405160405180910390a350505050505050565b6000604051905090565b600080fd5b600080fd5b6000819050919050565b6120c0816120ad565b81146120cb57600080fd5b50565b6000813590506120dd816120b7565b92915050565b6000602082840312156120f9576120f86120a3565b5b6000612107848285016120ce565b91505092915050565b600081519050919050565b600082825260208201905092915050565b6000819050602082019050919050565b612145816120ad565b82525050565b6000612157838361213c565b60208301905092915050565b6000602082019050919050565b600061217b82612110565b612185818561211b565b93506121908361212c565b8060005b838110156121c15781516121a8888261214b565b97506121b383612163565b925050600181019050612194565b5085935050505092915050565b600060208201905081810360008301526121e88184612170565b905092915050565b6000819050919050565b612203816121f0565b811461220e57600080fd5b50565b600081359050612220816121fa565b92915050565b60006020828403121561223c5761223b6120a3565b5b600061224a84828501612211565b91505092915050565b60008115159050919050565b61226881612253565b82525050565b6000602082019050612283600083018461225f565b92915050565b612292816120ad565b82525050565b60006020820190506122ad6000830184612289565b92915050565b600080604083850312156122ca576122c96120a3565b5b60006122d8858286016120ce565b92505060206122e9858286016120ce565b9150509250929050565b600073ffffffffffffffffffffffffffffffffffffffff82169050919050565b600061231e826122f3565b9050919050565b61232e81612313565b82525050565b600081519050919050565b600082825260208201905092915050565b60005b8381101561236e578082015181840152602081019050612353565b60008484015250505050565b6000601f19601f8301169050919050565b600061239682612334565b6123a0818561233f565b93506123b0818560208601612350565b6123b98161237a565b840191505092915050565b600060ff82169050919050565b6123da816123c4565b82525050565b6000610100820190506123f6600083018b612289565b612403602083018a612325565b6124106040830189612289565b61241d6060830188612289565b818103608083015261242f818761238b565b905061243e60a083018661225f565b61244b60c08301856123d1565b61245860e083018461225f565b9998505050505050505050565b61246e81612313565b811461247957600080fd5b50565b60008135905061248b81612465565b92915050565b6000602082840312156124a7576124a66120a3565b5b60006124b58482850161247c565b91505092915050565b6124c7816121f0565b82525050565b600060808201905081810360008301526124e7818761238b565b905081810360208301526124fb818661238b565b905061250a60408301856124be565b612517606083018461225f565b95945050505050565b600080fd5b600080fd5b7f4e487b7100000000000000000000000000000000000000000000000000000000600052604160045260246000fd5b6125628261237a565b810181811067ffffffffffffffff821117156125815761258061252a565b5b80604052505050565b6000612594612099565b90506125a08282612559565b919050565b600067ffffffffffffffff8211156125c0576125bf61252a565b5b6125c98261237a565b9050602081019050919050565b82818337600083830152505050565b60006125f86125f3846125a5565b61258a565b90508281526020810184848401111561261457612613612525565b5b61261f8482856125d6565b509392505050565b600082601f83011261263c5761263b612520565b5b813561264c8482602086016125e5565b91505092915050565b61265e816123c4565b811461266957600080fd5b50565b60008135905061267b81612655565b92915050565b61268a81612253565b811461269557600080fd5b50565b6000813590506126a781612681565b92915050565b600080600080608085870312156126c7576126c66120a3565b5b60006126d5878288016120ce565b945050602085013567ffffffffffffffff8111156126f6576126f56120a8565b5b61270287828801612627565b93505060406127138782880161266c565b925050606061272487828801612698565b91505092959194509250565b600060208201905061274560008301846124be565b92915050565b60006020820190506127606000830184612325565b92915050565b600060c08201905061277b6000830189612289565b6127886020830188612325565b818103604083015261279a818761238b565b90506127a96060830186612289565b6127b66080830185612289565b6127c360a083018461225f565b979650505050505050565b600060a08201905081810360008301526127e8818861238b565b905081810360208301526127fc818761238b565b905061280b60408301866124be565b61281860608301856124be565b612825608083018461225f565b9695505050505050565b600080600060608486031215612848576128476120a3565b5b600084013567ffffffffffffffff811115612866576128656120a8565b5b61287286828701612627565b9350506020612883868287016120ce565b9250506040612894868287016120ce565b9150509250925092565b600080600080608085870312156128b8576128b76120a3565b5b600085013567ffffffffffffffff8111156128d6576128d56120a8565b5b6128e287828801612627565b945050602085013567ffffffffffffffff811115612903576129026120a8565b5b61290f87828801612627565b935050604061292087828801612211565b925050606061293187828801612211565b91505092959194509250565b60008060408385031215612954576129536120a3565b5b6000612962858286016120ce565b92505060206129738582860161247c565b9150509250929050565b60008060408385031215612994576129936120a3565b5b60006129a28582860161247c565b92505060206129b3858286016120ce565b9150509250929050565b600080600080600060a086880312156129d9576129d86120a3565b5b60006129e7888289016120ce565b955050602086013567ffffffffffffffff811115612a0857612a076120a8565b5b612a1488828901612627565b9450506040612a25888289016120ce565b9350506060612a36888289016120ce565b9250506080612a4788828901612698565b9150509295509295909350565b7f436861696e526174653a20636f7572736520646f6573206e6f74206578697374600082015250565b6000612a8a60208361233f565b9150612a9582612a54565b602082019050919050565b60006020820190508181036000830152612ab981612a7d565b9050919050565b7f4e487b7100000000000000000000000000000000000000000000000000000000600052603260045260246000fd5b7f4e487b7100000000000000000000000000000000000000000000000000000000600052601160045260246000fd5b6000612b29826120ad565b9150612b34836120ad565b9250828201905080821115612b4c57612b4b612aef565b5b92915050565b6000612b5d826120ad565b91507fffffffffffffffffffffffffffffffffffffffffffffffffffffffffffffffff8203612b8f57612b8e612aef565b5b600182019050919050565b6000612ba5826120ad565b9150612bb0836120ad565b9250828202612bbe816120ad565b91508282048414831517612bd557612bd4612aef565b5b5092915050565b7f4e487b7100000000000000000000000000000000000000000000000000000000600052601260045260246000fd5b6000612c16826120ad565b9150612c21836120ad565b925082612c3157612c30612bdc565b5b828204905092915050565b7f4e487b7100000000000000000000000000000000000000000000000000000000600052602260045260246000fd5b60006002820490506001821680612c8357607f821691505b602082108103612c9657612c95612c3c565b5b50919050565b7f436861696e526174653a206576616c756174696f6e20646f6573206e6f74206560008201527f7869737400000000000000000000000000000000000000000000000000000000602082015250565b6000612cf860248361233f565b9150612d0382612c9c565b604082019050919050565b60006020820190508181036000830152612d2781612ceb565b9050919050565b7f436861696e526174653a2063616c6c6572206973206e6f742073747564656e74600082015250565b6000612d6460208361233f565b9150612d6f82612d2e565b602082019050919050565b60006020820190508181036000830152612d9381612d57565b9050919050565b7f436861696e526174653a206e6f742077697468696e206576616c756174696f6e60008201527f20706572696f6400000000000000000000000000000000000000000000000000602082015250565b6000612df660278361233f565b9150612e0182612d9a565b604082019050919050565b60006020820190508181036000830152612e2581612de9565b9050919050565b7f436861696e526174653a20616c7265616479206576616c756174656400000000600082015250565b6000612e62601c8361233f565b9150612e6d82612e2c565b602082019050919050565b60006020820190508181036000830152612e9181612e55565b9050919050565b7f436861696e526174653a20696e76616c696420726174696e6700000000000000600082015250565b6000612ece60198361233f565b9150612ed982612e98565b602082019050919050565b60006020820190508181036000830152612efd81612ec1565b9050919050565b60008190508160005260206000209050919050565b60006020601f8301049050919050565b600082821b905092915050565b600060088302612f667fffffffffffffffffffffffffffffffffffffffffffffffffffffffffffffffff82612f29565b612f708683612f29565b95508019841693508086168417925050509392505050565b6000819050919050565b6000612fad612fa8612fa3846120ad565b612f88565b6120ad565b9050919050565b6000819050919050565b612fc783612f92565b612fdb612fd382612fb4565b848454612f36565b825550505050565b600090565b612ff0612fe3565b612ffb818484612fbe565b505050565b5b8181101561301f57613014600082612fe8565b600181019050613001565b5050565b601f8211156130645761303581612f04565b61303e84612f19565b8101602085101561304d578190505b61306161305985612f19565b830182613000565b50505b505050565b600082821c905092915050565b600061308760001984600802613069565b1980831691505092915050565b60006130a08383613076565b9150826002028217905092915050565b6130b982612334565b67ffffffffffffffff8111156130d2576130d161252a565b5b6130dc8254612c6b565b6130e7828285613023565b600060209050601f83116001811461311a5760008415613108578287015190505b6131128582613094565b86555061317a565b601f19841661312886612f04565b60005b828110156131505784890151825560018201915060208501945060208101905061312b565b8683101561316d5784890151613169601f891682613076565b8355505b6001600288020188555050505b505050505050565b7f436861696e526174653a2063616c6c6572206973206e6f742074656163686572600082015250565b60006131b860208361233f565b91506131c382613182565b602082019050919050565b600060208201905081810360008301526131e7816131ab565b9050919050565b7f436861696e526174653a20696e76616c69642074696d6520706572696f640000600082015250565b6000613224601e8361233f565b915061322f826131ee565b602082019050919050565b6000602082019050818103600083015261325381613217565b9050919050565b60006020820190508181036000830152613274818461238b565b905092915050565b7f436861696e526174653a207573657220616c726561647920726567697374657260008201527f6564000000000000000000000000000000000000000000000000000000000000602082015250565b60006132d860228361233f565b91506132e38261327c565b604082019050919050565b60006020820190508181036000830152613307816132cb565b9050919050565b60006040820190508181036000830152613328818561238b565b905061333760208301846124be565b9392505050565b7f436861696e526174653a206e6f7420617574686f72697a656400000000000000600082015250565b600061337460198361233f565b915061337f8261333e565b602082019050919050565b600060208201905081810360008301526133a381613367565b905091905056fea2646970667358221220dbbc70116f28dca6f5d0a0cf713ab30a4071be9b1c59c6a5ce6e2f9c79b4a6cc64736f6c63430008140033",
  "linkReferences": {},
  "deployedLinkReferences": {}
}