{
  "_format": "hh-sol-artifact-1",
  "contractName": "ChainRate",
  "sourceName": "contracts/ChainRate.sol",
  "abi": [
    {
      "inputs": [],
      "stateMutability": "nonpayable",
      "type": "constructor"
    },
    {
      "anonymous": false,
      "inputs": [
        {
          "indexed": true,
          "internalType": "uint256",
          "name": "courseId",
          "type": "uint256"
        },
        {
          "indexed": true,
          "internalType": "address",
          "name": "teacher",
          "type": "address"
        },
        {
          "indexed": false,
          "internalType": "string",
          "name": "name",
          "type": "string"
        }
      ],
      "name": "CourseCreated",
      "type": "event"
    },
    {
      "anonymous": false,
      "inputs": [
        {
          "indexed": true,
          "internalType": "uint256",
          "name": "courseId",
          "type": "uint256"
        },
        {
          "indexed": true,
          "internalType": "address",
          "name": "student",
          "type": "address"
        }
      ],
      "name": "CourseJoined",
      "type": "event"
    },
    {
      "anonymous": false,
      "inputs": [
        {
          "indexed": true,
          "internalType": "uint256",
          "name": "courseId",
          "type": "uint256"
        },
        {
          "indexed": true,
          "internalType": "address",
          "name": "student",
          "type": "address"
        }
      ],
      "name": "CourseLeft",
      "type": "event"
    },
    {
      "anonymous": false,
      "inputs": [
        {
          "indexed": true,
          "internalType": "uint256",
          "name": "courseId",
          "type": "uint256"
        },
        {
          "indexed": true,
          "internalType": "address",
          "name": "teacher",
          "type": "address"
        }
      ],
      "name": "CourseUpdated",
      "type": "event"
    },
    {
      "anonymous": false,
      "inputs": [
        {
          "indexed": true,
          "internalType": "uint256",
          "name": "evaluationId",
          "type": "uint256"
        },
        {
          "indexed": true,
          "internalType": "address",
          "name": "student",
          "type": "address"
        },
        {
          "indexed": true,
          "internalType": "uint256",
          "name": "courseId",
          "type": "uint256"
        }
      ],
      "name": "EvaluationSubmitted",
      "type": "event"
    },
    {
      "anonymous": false,
      "inputs": [
        {
          "indexed": true,
          "internalType": "uint256",
          "name": "evaluationId",
          "type": "uint256"
        },
        {
          "indexed": true,
          "internalType": "address",
          "name": "student",
          "type": "address"
        }
      ],
      "name": "EvaluationUpdated",
      "type": "event"
    },
    {
      "anonymous": false,
      "inputs": [
        {
          "indexed": true,
          "internalType": "address",
          "name": "user",
          "type": "address"
        },
        {
          "indexed": false,
          "internalType": "string",
          "name": "name",
          "type": "string"
        },
        {
          "indexed": false,
          "internalType": "bytes32",
          "name": "role",
          "type": "bytes32"
        }
      ],
      "name": "UserRegistered",
      "type": "event"
    },
    {
      "inputs": [],
      "name": "ADMIN_ROLE",
      "outputs": [
        {
          "internalType": "bytes32",
          "name": "",
          "type": "bytes32"
        }
      ],
      "stateMutability": "view",
      "type": "function"
    },
    {
      "inputs": [],
      "name": "STUDENT_ROLE",
      "outputs": [
        {
          "internalType": "bytes32",
          "name": "",
          "type": "bytes32"
        }
      ],
      "stateMutability": "view",
      "type": "function"
    },
    {
      "inputs": [],
      "name": "TEACHER_ROLE",
      "outputs": [
        {
          "internalType": "bytes32",
          "name": "",
          "type": "bytes32"
        }
      ],
      "stateMutability": "view",
      "type": "function"
    },
    {
      "inputs": [
        {
          "internalType": "address",
          "name": "",
          "type": "address"
        }
      ],
      "name": "admins",
      "outputs": [
        {
          "internalType": "bool",
          "name": "",
          "type": "bool"
        }
      ],
      "stateMutability": "view",
      "type": "function"
    },
    {
      "inputs": [
        {
          "internalType": "uint256",
          "name": "",
          "type": "uint256"
        }
      ],
      "name": "allAdmins",
      "outputs": [
        {
          "internalType": "address",
          "name": "",
          "type": "address"
        }
      ],
      "stateMutability": "view",
      "type": "function"
    },
    {
      "inputs": [
        {
          "internalType": "uint256",
          "name": "",
          "type": "uint256"
        }
      ],
      "name": "allStudents",
      "outputs": [
        {
          "internalType": "address",
          "name": "",
          "type": "address"
        }
      ],
      "stateMutability": "view",
      "type": "function"
    },
    {
      "inputs": [
        {
          "internalType": "uint256",
          "name": "",
          "type": "uint256"
        }
      ],
      "name": "allTeachers",
      "outputs": [
        {
          "internalType": "address",
          "name": "",
          "type": "address"
        }
      ],
      "stateMutability": "view",
      "type": "function"
    },
    {
      "inputs": [],
      "name": "courseCount",
      "outputs": [
        {
          "internalType": "uint256",
          "name": "",
          "type": "uint256"
        }
      ],
      "stateMutability": "view",
      "type": "function"
    },
    {
      "inputs": [
        {
          "internalType": "uint256",
          "name": "",
          "type": "uint256"
        },
        {
          "internalType": "uint256",
          "name": "",
          "type": "uint256"
        }
      ],
      "name": "courseEvaluations",
      "outputs": [
        {
          "internalType": "uint256",
          "name": "",
          "type": "uint256"
        }
      ],
      "stateMutability": "view",
      "type": "function"
    },
    {
      "inputs": [
        {
          "internalType": "uint256",
          "name": "",
          "type": "uint256"
        },
        {
          "internalType": "uint256",
          "name": "",
          "type": "uint256"
        }
      ],
      "name": "courseStudents",
      "outputs": [
        {
          "internalType": "address",
          "name": "",
          "type": "address"
        }
      ],
      "stateMutability": "view",
      "type": "function"
    },
    {
      "inputs": [
        {
          "internalType": "uint256",
          "name": "",
          "type": "uint256"
        }
      ],
      "name": "courses",
      "outputs": [
        {
          "internalType": "uint256",
          "name": "id",
          "type": "uint256"
        },
        {
          "internalType": "address",
          "name": "teacher",
          "type": "address"
        },
        {
          "internalType": "string",
          "name": "name",
          "type": "string"
        },
        {
          "internalType": "uint256",
          "name": "startTime",
          "type": "uint256"
        },
        {
          "internalType": "uint256",
          "name": "endTime",
          "type": "uint256"
        },
        {
          "internalType": "bool",
          "name": "isActive",
          "type": "bool"
        },
        {
          "internalType": "uint256",
          "name": "studentCount",
          "type": "uint256"
        }
      ],
      "stateMutability": "view",
      "type": "function"
    },
    {
      "inputs": [
        {
          "internalType": "string",
          "name": "name",
          "type": "string"
        },
        {
          "internalType": "uint256",
          "name": "startTime",
          "type": "uint256"
        },
        {
          "internalType": "uint256",
          "name": "endTime",
          "type": "uint256"
        }
      ],
      "name": "createCourse",
      "outputs": [
        {
          "internalType": "uint256",
          "name": "",
          "type": "uint256"
        }
      ],
      "stateMutability": "nonpayable",
      "type": "function"
    },
    {
      "inputs": [],
      "name": "evaluationCount",
      "outputs": [
        {
          "internalType": "uint256",
          "name": "",
          "type": "uint256"
        }
      ],
      "stateMutability": "view",
      "type": "function"
    },
    {
      "inputs": [
        {
          "internalType": "uint256",
          "name": "",
          "type": "uint256"
        }
      ],
      "name": "evaluations",
      "outputs": [
        {
          "internalType": "uint256",
          "name": "id",
          "type": "uint256"
        },
        {
          "internalType": "address",
          "name": "student",
          "type": "address"
        },
        {
          "internalType": "uint256",
          "name": "courseId",
          "type": "uint256"
        },
        {
          "internalType": "uint256",
          "name": "timestamp",
          "type": "uint256"
        },
        {
          "internalType": "string",
          "name": "contentHash",
          "type": "string"
        },
        {
          "internalType": "bool",
          "name": "isAnonymous",
          "type": "bool"
        },
        {
          "internalType": "uint8",
          "name": "rating",
          "type": "uint8"
        },
        {
          "internalType": "uint8",
          "name": "teachingRating",
          "type": "uint8"
        },
        {
          "internalType": "uint8",
          "name": "contentRating",
          "type": "uint8"
        },
        {
          "internalType": "uint8",
          "name": "interactionRating",
          "type": "uint8"
        },
        {
          "internalType": "bool",
          "name": "isActive",
          "type": "bool"
        }
      ],
      "stateMutability": "view",
      "type": "function"
    },
    {
      "inputs": [],
      "name": "getActiveCourses",
      "outputs": [
        {
          "internalType": "uint256[]",
          "name": "",
          "type": "uint256[]"
        }
      ],
      "stateMutability": "view",
      "type": "function"
    },
    {
      "inputs": [],
      "name": "getAllAdmins",
      "outputs": [
        {
          "internalType": "address[]",
          "name": "",
          "type": "address[]"
        }
      ],
      "stateMutability": "view",
      "type": "function"
    },
    {
      "inputs": [],
      "name": "getAllCourses",
      "outputs": [
        {
          "internalType": "uint256[]",
          "name": "",
          "type": "uint256[]"
        }
      ],
      "stateMutability": "view",
      "type": "function"
    },
    {
      "inputs": [],
      "name": "getAllStudents",
      "outputs": [
        {
          "internalType": "address[]",
          "name": "",
          "type": "address[]"
        }
      ],
      "stateMutability": "view",
      "type": "function"
    },
    {
      "inputs": [],
      "name": "getAllTeachers",
      "outputs": [
        {
          "internalType": "address[]",
          "name": "",
          "type": "address[]"
        }
      ],
      "stateMutability": "view",
      "type": "function"
    },
    {
      "inputs": [
        {
          "internalType": "uint256",
          "name": "courseId",
          "type": "uint256"
        }
      ],
      "name": "getAverageRating",
      "outputs": [
        {
          "internalType": "uint256",
          "name": "",
          "type": "uint256"
        }
      ],
      "stateMutability": "view",
      "type": "function"
    },
    {
      "inputs": [
        {
          "internalType": "uint256",
          "name": "courseId",
          "type": "uint256"
        },
        {
          "internalType": "uint256",
          "name": "offset",
          "type": "uint256"
        },
        {
          "internalType": "uint256",
          "name": "limit",
          "type": "uint256"
        }
      ],
      "name": "getCourseBatchEvaluations",
      "outputs": [
        {
          "internalType": "uint256[]",
          "name": "ids",
          "type": "uint256[]"
        },
        {
          "internalType": "address[]",
          "name": "studentAddresses",
          "type": "address[]"
        },
        {
          "internalType": "string[]",
          "name": "names",
          "type": "string[]"
        },
        {
          "internalType": "uint256[]",
          "name": "timestamps",
          "type": "uint256[]"
        },
        {
          "internalType": "uint8[]",
          "name": "ratings",
          "type": "uint8[]"
        },
        {
          "internalType": "uint8[]",
          "name": "teachingRatings",
          "type": "uint8[]"
        },
        {
          "internalType": "uint8[]",
          "name": "contentRatings",
          "type": "uint8[]"
        },
        {
          "internalType": "uint8[]",
          "name": "interactionRatings",
          "type": "uint8[]"
        },
        {
          "internalType": "bool[]",
          "name": "isAnonymous",
          "type": "bool[]"
        }
      ],
      "stateMutability": "view",
      "type": "function"
    },
    {
      "inputs": [
        {
          "internalType": "uint256",
          "name": "courseId",
          "type": "uint256"
        }
      ],
      "name": "getCourseEvaluations",
      "outputs": [
        {
          "internalType": "uint256[]",
          "name": "",
          "type": "uint256[]"
        }
      ],
      "stateMutability": "view",
      "type": "function"
    },
    {
      "inputs": [
        {
          "internalType": "uint256",
          "name": "courseId",
          "type": "uint256"
        }
      ],
      "name": "getCourseStatistics",
      "outputs": [
        {
          "internalType": "uint256",
          "name": "totalEvaluations",
          "type": "uint256"
        },
        {
          "internalType": "uint256",
          "name": "averageRating",
          "type": "uint256"
        },
        {
          "internalType": "uint256",
          "name": "averageTeachingRating",
          "type": "uint256"
        },
        {
          "internalType": "uint256",
          "name": "averageContentRating",
          "type": "uint256"
        },
        {
          "internalType": "uint256",
          "name": "averageInteractionRating",
          "type": "uint256"
        },
        {
          "internalType": "uint256",
          "name": "anonymousCount",
          "type": "uint256"
        },
        {
          "internalType": "uint256",
          "name": "completeCount",
          "type": "uint256"
        }
      ],
      "stateMutability": "view",
      "type": "function"
    },
    {
      "inputs": [
        {
          "internalType": "uint256",
          "name": "courseId",
          "type": "uint256"
        }
      ],
      "name": "getCourseStudents",
      "outputs": [
        {
          "internalType": "address[]",
          "name": "",
          "type": "address[]"
        }
      ],
      "stateMutability": "view",
      "type": "function"
    },
    {
      "inputs": [
        {
          "internalType": "uint256",
          "name": "evaluationId",
          "type": "uint256"
        }
      ],
      "name": "getEvaluationDetails",
      "outputs": [
        {
          "internalType": "uint256",
          "name": "id",
          "type": "uint256"
        },
        {
          "internalType": "address",
          "name": "student",
          "type": "address"
        },
        {
          "internalType": "uint256",
          "name": "courseId",
          "type": "uint256"
        },
        {
          "internalType": "uint256",
          "name": "timestamp",
          "type": "uint256"
        },
        {
          "internalType": "string",
          "name": "contentHash",
          "type": "string"
        },
        {
          "internalType": "string[]",
          "name": "imageHashes",
          "type": "string[]"
        },
        {
          "internalType": "bool",
          "name": "isAnonymous",
          "type": "bool"
        },
        {
          "internalType": "uint8",
          "name": "rating",
          "type": "uint8"
        },
        {
          "internalType": "uint8",
          "name": "teachingRating",
          "type": "uint8"
        },
        {
          "internalType": "uint8",
          "name": "contentRating",
          "type": "uint8"
        },
        {
          "internalType": "uint8",
          "name": "interactionRating",
          "type": "uint8"
        },
        {
          "internalType": "bool",
          "name": "isActive",
          "type": "bool"
        }
      ],
      "stateMutability": "view",
      "type": "function"
    },
    {
      "inputs": [
        {
          "internalType": "address",
          "name": "studentAddress",
          "type": "address"
        }
      ],
      "name": "getStudentCourses",
      "outputs": [
        {
          "internalType": "uint256[]",
          "name": "",
          "type": "uint256[]"
        }
      ],
      "stateMutability": "view",
      "type": "function"
    },
    {
      "inputs": [
        {
          "internalType": "address",
          "name": "studentAddress",
          "type": "address"
        }
      ],
      "name": "getStudentDetailInfo",
      "outputs": [
        {
          "internalType": "string",
          "name": "name",
          "type": "string"
        },
        {
          "internalType": "string",
          "name": "phone",
          "type": "string"
        },
        {
          "internalType": "string",
          "name": "email",
          "type": "string"
        },
        {
          "internalType": "string",
          "name": "college",
          "type": "string"
        },
        {
          "internalType": "string",
          "name": "major",
          "type": "string"
        },
        {
          "internalType": "string",
          "name": "grade",
          "type": "string"
        },
        {
          "internalType": "string",
          "name": "avatar",
          "type": "string"
        },
        {
          "internalType": "uint256",
          "name": "studentCourseCount",
          "type": "uint256"
        },
        {
          "internalType": "uint256",
          "name": "studentEvalCount",
          "type": "uint256"
        },
        {
          "internalType": "uint256[]",
          "name": "courseIds",
          "type": "uint256[]"
        },
        {
          "internalType": "string[]",
          "name": "courseNames",
          "type": "string[]"
        },
        {
          "internalType": "bool[]",
          "name": "hasEvaluatedArray",
          "type": "bool[]"
        }
      ],
      "stateMutability": "view",
      "type": "function"
    },
    {
      "inputs": [
        {
          "internalType": "address",
          "name": "studentAddress",
          "type": "address"
        }
      ],
      "name": "getStudentEvaluations",
      "outputs": [
        {
          "internalType": "uint256[]",
          "name": "",
          "type": "uint256[]"
        }
      ],
      "stateMutability": "view",
      "type": "function"
    },
    {
      "inputs": [
        {
          "internalType": "uint256",
          "name": "offset",
          "type": "uint256"
        },
        {
          "internalType": "uint256",
          "name": "limit",
          "type": "uint256"
        }
      ],
      "name": "getStudentsBatch",
      "outputs": [
        {
          "internalType": "address[]",
          "name": "addresses",
          "type": "address[]"
        },
        {
          "internalType": "string[]",
          "name": "names",
          "type": "string[]"
        },
        {
          "internalType": "string[]",
          "name": "phones",
          "type": "string[]"
        },
        {
          "internalType": "string[]",
          "name": "emails",
          "type": "string[]"
        },
        {
          "internalType": "string[]",
          "name": "colleges",
          "type": "string[]"
        },
        {
          "internalType": "string[]",
          "name": "majors",
          "type": "string[]"
        },
        {
          "internalType": "string[]",
          "name": "grades",
          "type": "string[]"
        },
        {
          "internalType": "string[]",
          "name": "avatars",
          "type": "string[]"
        },
        {
          "internalType": "uint256[]",
          "name": "coursesCounts",
          "type": "uint256[]"
        },
        {
          "internalType": "uint256[]",
          "name": "evaluationsCounts",
          "type": "uint256[]"
        }
      ],
      "stateMutability": "view",
      "type": "function"
    },
    {
      "inputs": [
        {
          "internalType": "address",
          "name": "teacherAddress",
          "type": "address"
        }
      ],
      "name": "getTeacherDashboard",
      "outputs": [
        {
          "internalType": "uint256",
          "name": "totalCourses",
          "type": "uint256"
        },
        {
          "internalType": "uint256",
          "name": "totalStudents",
          "type": "uint256"
        },
        {
          "internalType": "uint256",
          "name": "totalEvaluations",
          "type": "uint256"
        },
        {
          "internalType": "uint256[]",
          "name": "courseIds",
          "type": "uint256[]"
        },
        {
          "internalType": "string[]",
          "name": "courseNames",
          "type": "string[]"
        },
        {
          "internalType": "uint256[]",
          "name": "studentCounts",
          "type": "uint256[]"
        },
        {
          "internalType": "uint256[]",
          "name": "evaluationCounts",
          "type": "uint256[]"
        },
        {
          "internalType": "uint256[]",
          "name": "averageRatings",
          "type": "uint256[]"
        }
      ],
      "stateMutability": "view",
      "type": "function"
    },
    {
      "inputs": [
        {
          "internalType": "address",
          "name": "teacherAddress",
          "type": "address"
        }
      ],
      "name": "getTeacherDetailInfo",
      "outputs": [
        {
          "internalType": "string",
          "name": "name",
          "type": "string"
        },
        {
          "internalType": "string",
          "name": "phone",
          "type": "string"
        },
        {
          "internalType": "string",
          "name": "email",
          "type": "string"
        },
        {
          "internalType": "string",
          "name": "college",
          "type": "string"
        },
        {
          "internalType": "string",
          "name": "major",
          "type": "string"
        },
        {
          "internalType": "string",
          "name": "grade",
          "type": "string"
        },
        {
          "internalType": "string",
          "name": "avatar",
          "type": "string"
        },
        {
          "internalType": "uint256",
          "name": "totalCourses",
          "type": "uint256"
        },
        {
          "internalType": "uint256",
          "name": "totalStudents",
          "type": "uint256"
        },
        {
          "internalType": "uint256",
          "name": "totalEvaluations",
          "type": "uint256"
        },
        {
          "internalType": "uint256",
          "name": "averageRating",
          "type": "uint256"
        }
      ],
      "stateMutability": "view",
      "type": "function"
    },
    {
      "inputs": [
        {
          "internalType": "uint256",
          "name": "offset",
          "type": "uint256"
        },
        {
          "internalType": "uint256",
          "name": "limit",
          "type": "uint256"
        }
      ],
      "name": "getTeachersBatch",
      "outputs": [
        {
          "internalType": "address[]",
          "name": "addresses",
          "type": "address[]"
        },
        {
          "internalType": "string[]",
          "name": "names",
          "type": "string[]"
        },
        {
          "internalType": "string[]",
          "name": "phones",
          "type": "string[]"
        },
        {
          "internalType": "string[]",
          "name": "emails",
          "type": "string[]"
        },
        {
          "internalType": "string[]",
          "name": "colleges",
          "type": "string[]"
        },
        {
          "internalType": "string[]",
          "name": "majors",
          "type": "string[]"
        },
        {
          "internalType": "string[]",
          "name": "grades",
          "type": "string[]"
        },
        {
          "internalType": "string[]",
          "name": "avatars",
          "type": "string[]"
        },
        {
          "internalType": "uint256[]",
          "name": "coursesCounts",
          "type": "uint256[]"
        },
        {
          "internalType": "uint256[]",
          "name": "averageRatings",
          "type": "uint256[]"
        }
      ],
      "stateMutability": "view",
      "type": "function"
    },
    {
      "inputs": [
        {
          "internalType": "address",
          "name": "userAddress",
          "type": "address"
        }
      ],
      "name": "getUserInfo",
      "outputs": [
        {
          "internalType": "string",
          "name": "name",
          "type": "string"
        },
        {
          "internalType": "string",
          "name": "phone",
          "type": "string"
        },
        {
          "internalType": "string",
          "name": "email",
          "type": "string"
        },
        {
          "internalType": "string",
          "name": "college",
          "type": "string"
        },
        {
          "internalType": "string",
          "name": "major",
          "type": "string"
        },
        {
          "internalType": "string",
          "name": "grade",
          "type": "string"
        },
        {
          "internalType": "string",
          "name": "avatar",
          "type": "string"
        },
        {
          "internalType": "bytes32",
          "name": "role",
          "type": "bytes32"
        },
        {
          "internalType": "bool",
          "name": "isRegistered",
          "type": "bool"
        }
      ],
      "stateMutability": "view",
      "type": "function"
    },
    {
      "inputs": [
        {
          "internalType": "uint256",
          "name": "",
          "type": "uint256"
        },
        {
          "internalType": "address",
          "name": "",
          "type": "address"
        }
      ],
      "name": "hasEvaluated",
      "outputs": [
        {
          "internalType": "bool",
          "name": "",
          "type": "bool"
        }
      ],
      "stateMutability": "view",
      "type": "function"
    },
    {
      "inputs": [
        {
          "internalType": "uint256",
          "name": "",
          "type": "uint256"
        },
        {
          "internalType": "address",
          "name": "",
          "type": "address"
        }
      ],
      "name": "hasJoinedCourse",
      "outputs": [
        {
          "internalType": "bool",
          "name": "",
          "type": "bool"
        }
      ],
      "stateMutability": "view",
      "type": "function"
    },
    {
      "inputs": [
        {
          "internalType": "uint256",
          "name": "courseId",
          "type": "uint256"
        },
        {
          "internalType": "address",
          "name": "studentAddress",
          "type": "address"
        }
      ],
      "name": "isStudentEvaluated",
      "outputs": [
        {
          "internalType": "bool",
          "name": "",
          "type": "bool"
        }
      ],
      "stateMutability": "view",
      "type": "function"
    },
    {
      "inputs": [
        {
          "internalType": "uint256",
          "name": "courseId",
          "type": "uint256"
        },
        {
          "internalType": "address",
          "name": "studentAddress",
          "type": "address"
        }
      ],
      "name": "isStudentJoined",
      "outputs": [
        {
          "internalType": "bool",
          "name": "",
          "type": "bool"
        }
      ],
      "stateMutability": "view",
      "type": "function"
    },
    {
      "inputs": [
        {
          "internalType": "uint256",
          "name": "courseId",
          "type": "uint256"
        }
      ],
      "name": "joinCourse",
      "outputs": [],
      "stateMutability": "nonpayable",
      "type": "function"
    },
    {
      "inputs": [
        {
          "internalType": "uint256",
          "name": "courseId",
          "type": "uint256"
        }
      ],
      "name": "leaveCourse",
      "outputs": [],
      "stateMutability": "nonpayable",
      "type": "function"
    },
    {
      "inputs": [],
      "name": "owner",
      "outputs": [
        {
          "internalType": "address",
          "name": "",
          "type": "address"
        }
      ],
      "stateMutability": "view",
      "type": "function"
    },
    {
      "inputs": [
        {
          "internalType": "string",
          "name": "name",
          "type": "string"
        },
        {
          "internalType": "string",
          "name": "phone",
          "type": "string"
        },
        {
          "internalType": "string",
          "name": "email",
          "type": "string"
        },
        {
          "internalType": "string",
          "name": "college",
          "type": "string"
        },
        {
          "internalType": "string",
          "name": "major",
          "type": "string"
        },
        {
          "internalType": "string",
          "name": "grade",
          "type": "string"
        },
        {
          "internalType": "string",
          "name": "avatar",
          "type": "string"
        },
        {
          "internalType": "bytes32",
          "name": "passwordHash",
          "type": "bytes32"
        },
        {
          "internalType": "bytes32",
          "name": "role",
          "type": "bytes32"
        }
      ],
      "name": "registerUser",
      "outputs": [],
      "stateMutability": "nonpayable",
      "type": "function"
    },
    {
      "inputs": [
        {
          "internalType": "address",
          "name": "",
          "type": "address"
        },
        {
          "internalType": "uint256",
          "name": "",
          "type": "uint256"
        }
      ],
      "name": "studentCourses",
      "outputs": [
        {
          "internalType": "uint256",
          "name": "",
          "type": "uint256"
        }
      ],
      "stateMutability": "view",
      "type": "function"
    },
    {
      "inputs": [
        {
          "internalType": "address",
          "name": "",
          "type": "address"
        },
        {
          "internalType": "uint256",
          "name": "",
          "type": "uint256"
        }
      ],
      "name": "studentEvaluations",
      "outputs": [
        {
          "internalType": "uint256",
          "name": "",
          "type": "uint256"
        }
      ],
      "stateMutability": "view",
      "type": "function"
    },
    {
      "inputs": [
        {
          "internalType": "address",
          "name": "",
          "type": "address"
        }
      ],
      "name": "students",
      "outputs": [
        {
          "internalType": "bool",
          "name": "",
          "type": "bool"
        }
      ],
      "stateMutability": "view",
      "type": "function"
    },
    {
      "inputs": [
        {
          "internalType": "uint256",
          "name": "courseId",
          "type": "uint256"
        },
        {
          "internalType": "string",
          "name": "contentHash",
          "type": "string"
        },
        {
          "internalType": "string[]",
          "name": "imageHashes",
          "type": "string[]"
        },
        {
          "internalType": "uint8",
          "name": "rating",
          "type": "uint8"
        },
        {
          "internalType": "uint8",
          "name": "teachingRating",
          "type": "uint8"
        },
        {
          "internalType": "uint8",
          "name": "contentRating",
          "type": "uint8"
        },
        {
          "internalType": "uint8",
          "name": "interactionRating",
          "type": "uint8"
        },
        {
          "internalType": "bool",
          "name": "isAnonymous",
          "type": "bool"
        }
      ],
      "name": "submitEvaluation",
      "outputs": [
        {
          "internalType": "uint256",
          "name": "",
          "type": "uint256"
        }
      ],
      "stateMutability": "nonpayable",
      "type": "function"
    },
    {
      "inputs": [
        {
          "internalType": "address",
          "name": "",
          "type": "address"
        }
      ],
      "name": "teachers",
      "outputs": [
        {
          "internalType": "bool",
          "name": "",
          "type": "bool"
        }
      ],
      "stateMutability": "view",
      "type": "function"
    },
    {
      "inputs": [
        {
          "internalType": "uint256",
          "name": "courseId",
          "type": "uint256"
        },
        {
          "internalType": "string",
          "name": "name",
          "type": "string"
        },
        {
          "internalType": "uint256",
          "name": "startTime",
          "type": "uint256"
        },
        {
          "internalType": "uint256",
          "name": "endTime",
          "type": "uint256"
        },
        {
          "internalType": "bool",
          "name": "isActive",
          "type": "bool"
        }
      ],
      "name": "updateCourse",
      "outputs": [],
      "stateMutability": "nonpayable",
      "type": "function"
    },
    {
      "inputs": [
        {
          "internalType": "address",
          "name": "",
          "type": "address"
        }
      ],
      "name": "users",
      "outputs": [
        {
          "internalType": "string",
          "name": "name",
          "type": "string"
        },
        {
          "internalType": "string",
          "name": "phone",
          "type": "string"
        },
        {
          "internalType": "string",
          "name": "email",
          "type": "string"
        },
        {
          "internalType": "string",
          "name": "college",
          "type": "string"
        },
        {
          "internalType": "string",
          "name": "major",
          "type": "string"
        },
        {
          "internalType": "string",
          "name": "grade",
          "type": "string"
        },
        {
          "internalType": "string",
          "name": "avatar",
          "type": "string"
        },
        {
          "internalType": "bytes32",
          "name": "passwordHash",
          "type": "bytes32"
        },
        {
          "internalType": "bytes32",
          "name": "role",
          "type": "bytes32"
        },
        {
          "internalType": "bool",
          "name": "isRegistered",
          "type": "bool"
        }
      ],
      "stateMutability": "view",
      "type": "function"
    },
    {
      "inputs": [
        {
          "internalType": "bytes32",
          "name": "passwordHash",
          "type": "bytes32"
        }
      ],
      "name": "verifyPassword",
      "outputs": [
        {
          "internalType": "bool",
          "name": "",
          "type": "bool"
        }
      ],
      "stateMutability": "view",
      "type": "function"
    }
  ],
  "bytecode": "0x6080806040523461004157600080546001600160a01b0319163390811782558152600460205260409020805460ff191660011790556155ff9081620000478239f35b600080fdfe610220604052600436101561001357600080fd5b60003560e01c8063016c14da146139e457806304e48bd11461399257806306a4dc681461393757806309029aac14613880578063128af981146137e357806316ac3b12146137b257806317b7e03e14613774578063181c5c82146137435780632b00e0f31461338857806333c63b17146132c3578063429b62e51461328457806355172bc71461305f57806358716cc514612f8e5780635a52b26a14612f655780635e8b20fd14612d6957806360dd60e314612cdf57806360fa644314612c7b5780636386c1c714612aff5780636605515914612ae15780636811cdaf14612a785780636e274a3414612a4757806373e29f761461295b57806375b238fc1461292057806386e5c15a146128e55780638abb4456146125605780638c3fe4f2146125135780638da5cb5b146124ea57806396f979d214612458578063a6c807a914612419578063a87430ba146122ed578063ae0ec5e414612019578063aefe24d414611f9d578063af6db11714611f36578063c8cd44d214611ee9578063c9ace3f114611ecb578063cca0903314611e81578063d40761e414611e0a578063e620ceb814611523578063e6a852cc146114e1578063e9523c971461142a578063e9e309271461135f578063ed072a07146111db578063f0a47f781461119c578063f0a486b214611135578063f7be43fb146110fa578063f8120b42146105e2578063fa3ef5a914610553578063fd95cc51146104fb5763ffb24e9b1461023857600080fd5b346104f65760a03660031901126104f6576004356001600160401b036024358181116104f65761026c903690600401613ed0565b906084359081151582036104f657836000526020600281526102948560406000205414613fae565b336000526005815260ff6040600020541680156104e3575b80156104cf575b6102bc90613f54565b600085815260028252604090206001808201549193916001600160a01b0390811633149081156104b6575b81156104a8575b5015610463576002840192865192831161044d5761030c8454613c3a565b601f8111610412575b5080601f84116001146103a0575091808092600596959461036c99600094610395575b50501b916000199060031b1c19161790555b60443560038201556064356004820155019060ff801983541691151516179055565b33907f6b7bcf044e00829a998e3e09bdef036fe2317de7a3f1ec7f04927b0973b73594600080a3005b015192503880610338565b9193949596601f1984168660005283600020936000905b8282106103fb5750509161036c9897959391856005989694106103e2575b505050811b01905561034a565b015160001960f88460031b161c191690553880806103d5565b8088869782949787015181550196019401906103b7565b61043d908560005282600020601f860160051c810191848710610443575b601f0160051c0190613f3d565b38610315565b9091508190610430565b634e487b7160e01b600052604160045260246000fd5b60405162461bcd60e51b815260048101849052601960248201527f436861696e526174653a206e6f7420617574686f72697a6564000000000000006044820152606490fd5b9050600054163314386102ee565b9050336000526004845260ff60406000205416906102e7565b506000546001600160a01b031633146102b3565b506004815260ff604060002054166102ac565b600080fd5b346104f65760403660031901126104f657610514613b5c565b6001600160a01b03166000908152600b60205260409020805460243591908210156104f65760209161054591613b07565b90546040519160031b1c8152f35b346104f6576020806003193601126104f6576001600160a01b03610575613b5c565b1660005260088152604060002090604051808383829554938481520190600052836000209260005b858282106105cc575050506105b492500383613ce2565b6105c8604051928284938452830190613a65565b0390f35b855484526001958601958895509301920161059d565b346104f6576101203660031901126104f6576004356001600160401b0381116104f657610613903690600401613ed0565b6024356001600160401b0381116104f657610632903690600401613ed0565b906044356001600160401b0381116104f657610652903690600401613ed0565b6064356001600160401b0381116104f657610671903690600401613ed0565b6084356001600160401b0381116104f657610690903690600401613ed0565b60a4356001600160401b0381116104f6576106af903690600401613ed0565b9160c4356001600160401b0381116104f6576106cf903690600401613ed0565b9333600052600160205260ff600960406000200154166110aa57604051966106f688613c74565b868852602088015260408701526060860152608085015260a084015260c083015260e43560e0830152610104356101008301526001610120830152336000526001602052604060002082519283516001600160401b03811161044d5761075c8354613c3a565b601f8111611078575b506020601f821160011461100f578192939495600092611004575b50508160011b916000199060031b1c19161782555b60208101519283516001600160401b03811161044d576107b86001850154613c3a565b601f8111610fcf575b506020601f8211600114610f60578192939495600092610f55575b50508160011b916000199060031b1c19161760018401555b60408201519283516001600160401b03811161044d576108176002830154613c3a565b601f8111610f20575b506020601f8211600114610eb1578192939495600092610ea6575b50508160011b916000199060031b1c19161760028201555b60608301519283516001600160401b03811161044d576108766003840154613c3a565b601f8111610e71575b506020601f8211600114610e02578192939495600092610df7575b50508160011b916000199060031b1c19161760038301555b60808101519283516001600160401b03811161044d576108d56004850154613c3a565b601f8111610dc2575b506020601f8211600114610d53578192939495600092610d48575b50508160011b916000199060031b1c19161760048401555b60a08201519283516001600160401b03811161044d576109346005830154613c3a565b601f8111610d13575b506020601f8211600114610ca4578192939495600092610c99575b50508160011b916000199060031b1c19161760058201555b60c08301519283516001600160401b03811161044d576109936006840154613c3a565b601f8111610c64575b506020601f8211600114610beb57918161012092600994610a049798600092610be0575b50508160011b916000199060031b1c19161760068501555b60e0810151600785015561010081015160088501550151151591019060ff801983541691151516179055565b610104357fa49807205ce4d355092ef5a8a18f56e8913cf4a201fbe287825b095693c2177503610afb573360005260046020526040600020600160ff19825416179055600f54600160401b81101561044d576001810180600f55811015610ae557600f6000527f8d1108e10bcb7c27dddfc02ed9d693a074039d026cf4ea4240b40f7d581ac8020180546001600160a01b031916331790555b7fccd232d370002532b298c205b90d1c287a6f1913b8c7113733b47a81fece11a0610ad360405192604084526040840190613b88565b916101043560208201528033930390a2005b634e487b7160e01b600052603260045260246000fd5b610104357fd16e204b8a42a15ab0ea6bb8ec1ecdfbe69f38074fc865323af19efe7d9573d903610b7e573360005260056020526040600020600160ff19825416179055600e54600160401b81101561044d57806001610b5d9201600e55613a99565b81546001600160a01b0360039290921b91821b19163390911b179055610a9d565b7f36a5c4aaacb6b388bbd448bf11096b7dafc5652bcc9046084fd0e95b1fb0b2cc6101043503610a9d573360005260066020526040600020600160ff19825416179055600d54600160401b81101561044d57806001610b5d9201600d55613ad0565b0151905088806109c0565b6006840160005260206000209560005b601f1984168110610c4c575082610a0496976009959360019361012096601f19811610610c33575b505050811b0160068501556109d8565b015160001960f88460031b161c19169055888080610c23565b82820151885560019097019660209283019201610bfb565b610c9390600685016000526020600020601f840160051c8101916020851061044357601f0160051c0190613f3d565b8561099c565b015190508580610958565b6005830160005260206000209060005b601f1984168110610cfb575060019394959683601f19811610610ce2575b505050811b016005820155610970565b015160001960f88460031b161c19169055858080610cd2565b9091602060018192858b015181550193019101610cb4565b610d4290600584016000526020600020601f840160051c8101916020851061044357601f0160051c0190613f3d565b8561093d565b0151905085806108f9565b6004850160005260206000209060005b601f1984168110610daa575060019394959683601f19811610610d91575b505050811b016004840155610911565b015160001960f88460031b161c19169055858080610d81565b9091602060018192858b015181550193019101610d63565b610df190600486016000526020600020601f840160051c8101916020851061044357601f0160051c0190613f3d565b856108de565b01519050858061089a565b6003840160005260206000209060005b601f1984168110610e59575060019394959683601f19811610610e40575b505050811b0160038301556108b2565b015160001960f88460031b161c19169055858080610e30565b9091602060018192858b015181550193019101610e12565b610ea090600385016000526020600020601f840160051c8101916020851061044357601f0160051c0190613f3d565b8561087f565b01519050858061083b565b6002830160005260206000209060005b601f1984168110610f08575060019394959683601f19811610610eef575b505050811b016002820155610853565b015160001960f88460031b161c19169055858080610edf565b9091602060018192858b015181550193019101610ec1565b610f4f90600284016000526020600020601f840160051c8101916020851061044357601f0160051c0190613f3d565b85610820565b0151905085806107dc565b6001850160005260206000209060005b601f1984168110610fb7575060019394959683601f19811610610f9e575b505050811b0160018401556107f4565b015160001960f88460031b161c19169055858080610f8e565b9091602060018192858b015181550193019101610f70565b610ffe90600186016000526020600020601f840160051c8101916020851061044357601f0160051c0190613f3d565b856107c1565b015190508580610780565b8360005260206000209060005b601f1984168110611060575060019394959683601f19811610611047575b505050811b018255610795565b015160001960f88460031b161c1916905585808061103a565b9091602060018192858b01518155019301910161101c565b6110a490846000526020600020601f840160051c8101916020851061044357601f0160051c0190613f3d565b85610765565b60405162461bcd60e51b815260206004820152602260248201527f436861696e526174653a207573657220616c7265616479207265676973746572604482015261195960f21b6064820152608490fd5b346104f65760003660031901126104f65760206040517f36a5c4aaacb6b388bbd448bf11096b7dafc5652bcc9046084fd0e95b1fb0b2cc8152f35b346104f65760403660031901126104f657600435611151613b72565b9080600052600260205261116b8160406000205414613fae565b600052600a60205260406000209060018060a01b0316600052602052602060ff604060002054166040519015158152f35b346104f65760203660031901126104f6576001600160a01b036111bd613b5c565b166000526005602052602060ff604060002054166040519015158152f35b346104f6576020806003193601126104f6576004359081600052600281526112098260406000205414613fae565b336000526006815260ff60406000205416801561134b575b61122a90613ff9565b81600052600a8152604060002033600052815261124e60ff60406000205416614079565b8160005260078152604060002033600052815260ff604060002054166112eb5760029082600052600a81526040600020336000528152604060002060ff19815416905582600052526006604060002001805480156112d55760001901905533907f497941b8fa39d9cb0342836ad143b09296c513385dba2fa8c33a934e1c6fe922600080a3005b634e487b7160e01b600052601160045260246000fd5b6084906040519062461bcd60e51b82526004820152603360248201527f436861696e526174653a2073747564656e742068617320616c7265616479206560448201527276616c75617465642074686520636f7572736560681b6064820152fd5b506000546001600160a01b03163314611221565b346104f65760003660031901126104f6573360005260206004815260ff604060002054168015611416575b61139390614cd5565b60405190818282600d549283815201600d6000527fd7b6990105719101dabeb77144f2a3385c8033acd3af97e9423a695e81ad1eb59260005b858282106113f7575050506113e392500383613ce2565b6105c8604051928284938452830190613b1f565b85546001600160a01b03168452600195860195889550930192016113cc565b506000546001600160a01b0316331461138a565b346104f65760003660031901126104f6573360005260206004815260ff6040600020541680156114cd575b61145e90614cd5565b60405190818282600f549283815201600f6000527f8d1108e10bcb7c27dddfc02ed9d693a074039d026cf4ea4240b40f7d581ac8029260005b858282106114ae575050506113e392500383613ce2565b85546001600160a01b0316845260019586019588955093019201611497565b506000546001600160a01b03163314611455565b346104f65760203660031901126104f657600435600d548110156104f65761150a602091613ad0565b905460405160039290921b1c6001600160a01b03168152f35b346104f6576101003660031901126104f6576024356001600160401b0381116104f657611554903690600401613ed0565b6001600160401b03604435116104f6573660236044350112156104f6576044356004013561158181613f26565b9061158f6040519283613ce2565b80825260208201903660248260051b6044350101116104f657602460443501915b60248260051b60443501018310611dd75750505060643560ff811681036104f6576084359060ff821682036104f65760a4359060ff821682036104f65760c4359160ff831683036104f65760e4359182151583036104f65733600052600660205260ff604060002054168015611dc3575b61162a90613ff9565b600435600052600260205261164760043560406000205414613fae565b6004356000526002602052604060002060038101544210159081611db4575b5015611d5f57600435600052600a60205260406000203360005260205261169460ff60406000205416614079565b600435600052600760205260406000203360005260205260ff60406000205416611d1a57600160ff8216101580611d0c575b15611cc757600160ff8616101580611cb9575b15611c6957600160ff8316101580611c5b575b15611c0c57600160ff8516101580611bfe575b15611bab5760ff948580949281936011549961171a8b613f9f565b6011556040519b61172a8d613c90565b8b8d528c6020339101528c60406004359101528c60604291015260808d015260a08c0152151560c08b01521660e08901521661010087015216610120850152166101408301526001610160830152806000526003602052604060002090825182556001820160018060a01b036020850151166bffffffffffffffffffffffff60a01b825416179055604083015160028301556060830151600383015560808301519283516001600160401b03811161044d576117e96004850154613c3a565b601f8111611b76575b506020601f8211600114611b07578192939495600092611afc575b50508160011b916000199060031b1c19161760048401555b60a0810151805190600160401b821161044d576005850154826005870155808310611a84575b5060200190600585016000526020600020916000905b82821061196f576020868660068a019061188d60c08201511515839060ff801983541691151516179055565b60e081015190825462ff000061010083015160101b1663ff00000061012084015160181b169161ff0065ff000000000061016064ff000000006101408801518c1b16960151151560281b169560081b169065ffffffffff001916171717171790556004356000526007825260406000203360005282526040600020600160ff1982541617905560088252611925816040600020614044565b6004356000526009825261193d816040600020614044565b6040519060043533827f423285530582a702e795200cb363c60e7c81dc3c09a08566dcc4c6f766ee3110600080a48152f35b80518051906001600160401b03821161044d5761198c8654613c3a565b601f8111611a52575b50602090601f83116001146119e25792826001949360209386956000926119d7575b5050600019600383901b1c191690841b1787555b01940191019092611861565b015190508c806119b7565b908660005260206000209160005b601f1985168110611a3a575083602093600196938796938794601f19811610611a21575b505050811b0187556119cb565b015160001960f88460031b161c191690558c8080611a14565b919260206001819286850151815501940192016119f0565b611a7e90876000526020600020601f850160051c8101916020861061044357601f0160051c0190613f3d565b89611995565b600586016000526020600020908382015b8183018110611aa557505061184b565b80611ab260019254613c3a565b80611abf575b5001611a95565b601f81118314611ad55750600081555b89611ab8565b600090828252611af3601f60208420920160051c8201858301613f3d565b81835555611acf565b01519050858061180d565b6004850160005260206000209060005b601f1984168110611b5e575060019394959683601f19811610611b45575b505050811b016004840155611825565b015160001960f88460031b161c19169055858080611b35565b9091602060018192858b015181550193019101611b17565b611ba590600486016000526020600020601f840160051c8101916020851061044357601f0160051c0190613f3d565b856117f2565b60405162461bcd60e51b815260206004820152602560248201527f436861696e526174653a20696e76616c696420696e746572616374696f6e20726044820152646174696e6760d81b6064820152608490fd5b50600560ff851611156116ff565b60405162461bcd60e51b815260206004820152602160248201527f436861696e526174653a20696e76616c696420636f6e74656e7420726174696e6044820152606760f81b6064820152608490fd5b50600560ff831611156116ec565b60405162461bcd60e51b815260206004820152602260248201527f436861696e526174653a20696e76616c6964207465616368696e6720726174696044820152616e6760f01b6064820152608490fd5b50600560ff861611156116d9565b60405162461bcd60e51b815260206004820152601960248201527f436861696e526174653a20696e76616c696420726174696e67000000000000006044820152606490fd5b50600560ff821611156116c6565b60405162461bcd60e51b815260206004820152601c60248201527f436861696e526174653a20616c7265616479206576616c7561746564000000006044820152606490fd5b60405162461bcd60e51b815260206004820152602760248201527f436861696e526174653a206e6f742077697468696e206576616c756174696f6e604482015266081c195c9a5bd960ca1b6064820152608490fd5b60049150015442111588611666565b506000546001600160a01b03163314611621565b6001600160401b038335116104f657602080602492611dfd368588356044350101613ed0565b81520193019290506115b0565b346104f6576020806003193601126104f6576001600160a01b03611e2c613b5c565b16600052600b8152604060002090604051808383829554938481520190600052836000209260005b85828210611e6b575050506105b492500383613ce2565b8554845260019586019588955093019201611e54565b346104f65760403660031901126104f657611e9a613b5c565b6001600160a01b03166000908152600860205260409020805460243591908210156104f65760209161054591613b07565b346104f65760003660031901126104f6576020601154604051908152f35b346104f65760403660031901126104f657611f02613b72565b600435600052600760205260406000209060018060a01b0316600052602052602060ff604060002054166040519015158152f35b346104f65760403660031901126104f657600435611f52613b72565b90806000526002602052611f6c8160406000205414613fae565b600052600760205260406000209060018060a01b0316600052602052602060ff604060002054166040519015158152f35b346104f6576105c8611fd9611fb136613c24565b9033600052600460205260ff604060002054168015612005575b611fd490614cd5565b615026565b60e09492945191610160519561020051966101e051976101a0519861018051996040519a8b9a8b613da9565b506000546001600160a01b03163314611fcb565b346104f65760603660031901126104f6576001600160401b036004358181116104f65761204a903690600401613ed0565b9060243591604435336000526020936005855260ff6040600020541680156122da575b80156122c6575b61207d90613f54565b81811015612281576010549361209285613f9f565b601055604051926120a284613cac565b8584528684019233845260408501868152606086019182526080860192835260a0860193600180865260c0880196600088528a60005260028c526040600020985189558189019060018060a01b039051166bffffffffffffffffffffffff60a01b825416179055600288019251805192831161044d576121228454613c3a565b8c601f8211612250575b50508b908c601f85116001146121dc5750928061218b979593819360069b9a98966000946121d1575b50501b916000199060031b1c19161790555b516003870155516004860155511515600585019060ff801983541691151516179055565b51910155817fd26ee57739c2f8845178c96a37348973f3edc5907d342cdf65382f9a84474b89604051858152806121c6339588830190613b88565b0390a3604051908152f35b015192508f80612155565b9190601f9493941984168660005283600020936000905b8282106122395750509160069a99979593918561218b9a98969410612220575b505050811b019055612167565b015160001960f88460031b161c191690558d8080612213565b8088869782949787015181550196019401906121f3565b61227a91866000528160002090601f870160051c820192871061044357601f0160051c0190613f3d565b8c8c61212c565b60405162461bcd60e51b815260048101869052601e60248201527f436861696e526174653a20696e76616c69642074696d6520706572696f6400006044820152606490fd5b506000546001600160a01b03163314612074565b506004855260ff6040600020541661206d565b346104f65760203660031901126104f6576001600160a01b0361230e613b5c565b166000526001602052604060002061232581613d03565b61233160018301613d03565b9161233e60028201613d03565b61234a60038301613d03565b9161235760048201613d03565b61236360058301613d03565b61236f60068401613d03565b916007840154956008850154946009015460ff1695604051998a99610140808c528b0161239b91613b88565b8a810360208c01526123ac91613b88565b89810360408b01526123bd91613b88565b88810360608a01526123ce91613b88565b87810360808901526123df91613b88565b86810360a08801526123f091613b88565b85810360c087015261240191613b88565b9260e085015261010084015215156101208301520390f35b346104f65760203660031901126104f6576001600160a01b0361243a613b5c565b166000526006602052602060ff604060002054166040519015158152f35b346104f65760203660031901126104f65760043560005260026020526040600020805460018060a01b036001830154169161249560028201613d03565b60038201549160048101546124cf600660ff600585015416930154936040519788978852602088015260e0604088015260e0870190613b88565b9360608601526080850152151560a084015260c08301520390f35b346104f65760003660031901126104f6576000546040516001600160a01b039091168152602090f35b346104f65760403660031901126104f65761252c613b72565b600435600052600a60205260406000209060018060a01b0316600052602052602060ff604060002054166040519015158152f35b346104f65760203660031901126104f657612579613b5c565b33600052600460205260ff6040600020541680156128d1575b61259b90614cd5565b6001600160a01b03811660009081526006602052604090205460ff161561288c5760018060a01b03811660005260016020526040600020604051916125df83613c74565b6125e882613d03565b83526125f660018301613d03565b602084015261260760028301613d03565b604084015261261860038301613d03565b606084015261262960048301613d03565b608084015261263a60058301613d03565b60a084015260ff600961264f60068501613d03565b938460c0870152600781015460e087015260088101546101008701520154161515610120840152825191602084015193604081015190606081015160a060808301519201519360018060a01b038616600052600b6020526040600020946040518087602082995493848152019060005260206000209260005b8181106128735750506126dd92500387613ce2565b85519360018060a01b038816600052600860205260406000205493612701866141f9565b9661270b87614517565b98612715886141f9565b9a8a60005b8b8b82106127e75750505050506040519b8c9b8c6101808091528d0161273f91613b88565b8c810360208e015261275091613b88565b8b810360408d015261276191613b88565b8a810360608c015261277291613b88565b89810360808b015261278391613b88565b88810360a08a015261279491613b88565b87810360c08901526127a591613b88565b9160e08701526101008601528481036101208601526127c391613a65565b8381036101408501526127d591613bc8565b8281036101608401526105c891613e9a565b6128318261286c9481936128076127fe848b6140da565b519586926140da565b528360005260026020526128216002604060002001613d03565b61282b83836140da565b526140da565b506000526007602052604060002060018060a01b0384166000526020528d6128628260ff60406000205416926140da565b9015159052613f9f565b8b9061271a565b845483526001948501948b9450602090930192016126c8565b60405162461bcd60e51b815260206004820152601860248201527f436861696e526174653a206e6f7420612073747564656e7400000000000000006044820152606490fd5b506000546001600160a01b03163314612592565b346104f65760003660031901126104f65760206040517fd16e204b8a42a15ab0ea6bb8ec1ecdfbe69f38074fc865323af19efe7d9573d98152f35b346104f65760003660031901126104f65760206040517fa49807205ce4d355092ef5a8a18f56e8913cf4a201fbe287825b095693c217758152f35b346104f65760603660031901126104f657600435806000526002602052806040600020541461298990613fae565b6044356024356129989261456e565b946102009796979491949392935190604051988998610120808b528a016129be91613a65565b89810360208b01526129cf91613b1f565b88810360408a01526129e091613bc8565b87810360608901526129f191613a65565b8681036080880152612a0291613e63565b85810360a0870152612a1391613e63565b84810360c0860152612a2491613e63565b83810360e0850152612a3591613e63565b8281036101008401526105c891613e9a565b346104f657612a5536613c24565b90600052600c602052604060002080548210156104f65760209161150a91613b07565b346104f6576105c8612ab4612a8c36613c24565b9033600052600460205260ff604060002054168015612acd575b612aaf90614cd5565b614d21565b9660409a989a969196959295949394519a8b9a8b613da9565b506000546001600160a01b03163314612aa6565b346104f65760003660031901126104f6576020601054604051908152f35b346104f65760203660031901126104f6576001600160a01b03612b20613b5c565b1660005260016020526040600020604051612b3a81613c74565b612b4382613d03565b8152612b5160018301613d03565b6020820190815291612b6560028201613d03565b6040830190815290612b7960038201613d03565b6060840190815290612b8d60048201613d03565b6080850190815292612ba160058301613d03565b60a0860190815290612bb560068401613d03565b918260c0880152600784015460e08801526008840154956101009487868a01526009015460ff1615159561012098878a8201525199519351905191519251936040519a8a8c9b8c528b01612c0891613b88565b8a810360208c0152612c1991613b88565b89810360408b0152612c2a91613b88565b88810360608a0152612c3b91613b88565b8781036080890152612c4c91613b88565b86810360a0880152612c5d91613b88565b85810360c0870152612c6e91613b88565b9260e08501528301520390f35b346104f65760203660031901126104f65760e0612cb2600435806000526002602052612cad8160406000205414613fae565b61422b565b94604094919493929351968752602087015260408601526060850152608084015260a083015260c0820152f35b346104f6576020806003193601126104f6576004358060005260028252612d0c8160406000205414613fae565b600052600c8152604060002090604051808383829554938481520190600052836000209260005b85828210612d4a575050506113e392500383613ce2565b85546001600160a01b0316845260019586019588955093019201612d33565b346104f6576020806003193601126104f657600435908160005260028152612d978260406000205414613fae565b336000526006815260ff604060002054168015612f51575b612db890613ff9565b816000526002815260ff6005604060002001541615612f0d5781600052600a8152604060002033600052815260ff60406000205416612eb05781600052600a815260406000203360005281526040600020600160ff19825416179055600b8152612e26826040600020614044565b81600052600c8152604060002090815491600160401b83101561044d5782612e55916001600295018155613b07565b81549060031b9033821b9160018060a01b03901b191617905582600052526006604060002001612e858154613f9f565b905533907f9f84e7caf9247b5be496d99d1d314ac8b4dce0d0fd7abb0ed925801f614b008d600080a3005b6084906040519062461bcd60e51b82526004820152603060248201527f436861696e526174653a2073747564656e742068617320616c7265616479206a60448201526f6f696e65642074686520636f7572736560801b6064820152fd5b6064906040519062461bcd60e51b82526004820152601f60248201527f436861696e526174653a20636f75727365206973206e6f7420616374697665006044820152fd5b506000546001600160a01b03163314612daf565b346104f65760203660031901126104f657600435600e548110156104f65761150a602091613a99565b346104f65760003660031901126104f6576010546000805b8281106130225750612fb7906141f9565b906000805b828110612fd957604051602080825281906105c890820187613a65565b80600052600260205260ff60056040600020015416613001575b612ffc90613f9f565b612fbc565b9061301a8183613014612ffc94886140da565b52613f9f565b919050612ff3565b80600052600260205260ff6005604060002001541661304a575b61304590613f9f565b612fa6565b9061305761304591613f9f565b91905061303c565b346104f65760203660031901126104f65760043580600052600360205280604060002054036132335760005260036020526040600020604051906130a282613c90565b805482526001808201546001600160a01b031660208401526002820154604084015260038201546060840152906130db60048201613d03565b6080840152600581019182546130f081613f26565b936130fe6040519586613ce2565b818552602085019060005260206000206000915b8383106132175787876006888260a0850152015460ff808216151560c0850152808260081c1660e0850152808260101c16610100850152808260181c16610120850152808260201c16610140850152808260281c1615156101608501526131cd8451936131bf60018060a01b03602088015116966040810151906080606082015191015191604051998a998a5260208a015260408901526060880152610180806080890152870190613b88565b9085820360a0870152613bc8565b91818116151560c0850152818160081c1660e0850152818160101c16610100850152818160181c16610120850152818160201c1661014085015260281c1615156101608301520390f35b846020819261322585613d03565b815201920192019190613112565b60405162461bcd60e51b8152602060048201526024808201527f436861696e526174653a206576616c756174696f6e20646f6573206e6f7420656044820152631e1a5cdd60e21b6064820152608490fd5b346104f65760203660031901126104f6576001600160a01b036132a5613b5c565b166000526004602052602060ff604060002054166040519015158152f35b346104f65760203660031901126104f65760043560005260036020526040600020805460018060a01b036001830154169161333c6002820154916003810154600661331060048401613d03565b920154936040519687968752602087015260408601526060850152610160806080860152840190613b88565b9060ff90818116151560a0850152818160081c1660c0850152818160101c1660e0850152818160181c16610100850152818160201c1661012085015260281c1615156101408301520390f35b346104f65760203660031901126104f6576133a1613b5c565b33600052600460205260ff60406000205416801561372f575b6133c390614cd5565b6001600160a01b03811660009081526005602052604090205460ff16156136ea5760018060a01b038116600052600160205260406000206040519161340783613c74565b61341082613d03565b835261341e60018301613d03565b602084015261342f60028301613d03565b604084015261344060038301613d03565b606084015261345160048301613d03565b608084015261346260058301613d03565b60a084015260ff600961347760068501613d03565b938460c0870152600781015460e08701526008810154610100870152015416151561012084015282519060208401519160408501519260608601519160a06080880151970151946000966000966000996000608052600060a052601054965b60a05188811015613614576000908152600260205260409020600101546001600160a01b038a8116911614613519575b61351160a051613f9f565b60a0526134d6565b9961353061354b919a99979593989694929a613f9f565b9860a0516000526002602052600660406000200154906140ee565b9660a051600052600960205260406000209b604051809d8e91602082549182815201916000526020600020906000905b8082106135fc575050508161359e9392613596920390613ce2565b8d51906140ee565b9960005b8d518110156135ea57806135ba8f926135e5936140da565b5160005260036020526135dd60ff60066040600020015460081c166080516140ee565b608052613f9f565b6135a2565b5091939597999b509193959799613506565b9091926001602081928654815201940192019061357b565b50928b928a928c96958515156000146136e2576080516064810290808204606414901517156112d55786613647916140fb565b965b6040519a8b9a610160808d528c0161366091613b88565b8b810360208d015261367191613b88565b8a810360408c015261368291613b88565b89810360608b015261369391613b88565b88810360808a01526136a491613b88565b87810360a08901526136b591613b88565b86810360c08801526136c691613b88565b9360e08601526101008501526101208401526101408301520390f35b600096613649565b60405162461bcd60e51b815260206004820152601860248201527f436861696e526174653a206e6f742061207465616368657200000000000000006044820152606490fd5b506000546001600160a01b031633146133ba565b346104f65761375136613c24565b906000526009602052604060002080548210156104f65760209161054591613b07565b346104f65760203660031901126104f65760206137aa60043580600052600283526137a58160406000205414613fae565b61411b565b604051908152f35b346104f65760203660031901126104f657336000526001602052602060043560076040600020015414604051908152f35b346104f65760203660031901126104f6576138566138646105c861387261381061380b613b5c565b614956565b9195949792939890613848610180519761020051966040519c8d9c8d5260208d015260408c01526101008060608d01528b0190613a65565b9089820360808b0152613bc8565b9087820360a0890152613a65565b9085820360c0870152613a65565b9083820360e0850152613a65565b346104f65760003660031901126104f6573360005260206004815260ff604060002054168015613923575b6138b490614cd5565b60405190818282600e549283815201600e6000527fbb7b4a454dc3493923482f07822329ed19e8244eff582cc204f8554c3620c3fd9260005b85828210613904575050506113e392500383613ce2565b85546001600160a01b03168452600195860195889550930192016138ed565b506000546001600160a01b031633146138ab565b346104f65760203660031901126104f657600435600f548110156104f657600f6000527f8d1108e10bcb7c27dddfc02ed9d693a074039d026cf4ea4240b40f7d581ac80201546040516001600160a01b039091168152602090f35b346104f65760003660031901126104f6576010546139af816141f9565b9060005b8181106139d057604051602080825281906105c890820186613a65565b80806130146139df93866140da565b6139b3565b346104f6576020806003193601126104f6576004358060005260028252613a118160406000205414613fae565b60005260098152604060002090604051808383829554938481520190600052836000209260005b85828210613a4f575050506105b492500383613ce2565b8554845260019586019588955093019201613a38565b90815180825260208080930193019160005b828110613a85575050505090565b835185529381019392810192600101613a77565b600e54811015610ae557600e6000527fbb7b4a454dc3493923482f07822329ed19e8244eff582cc204f8554c3620c3fd0190600090565b600d54811015610ae557600d6000527fd7b6990105719101dabeb77144f2a3385c8033acd3af97e9423a695e81ad1eb50190600090565b8054821015610ae55760005260206000200190600090565b90815180825260208080930193019160005b828110613b3f575050505090565b83516001600160a01b031685529381019392810192600101613b31565b600435906001600160a01b03821682036104f657565b602435906001600160a01b03821682036104f657565b919082519283825260005b848110613bb4575050826000602080949584010152601f8019910116010190565b602081830181015184830182015201613b93565b908082519081815260208091019281808460051b8301019501936000915b848310613bf65750505050505090565b9091929394958480613c14600193601f198682030187528a51613b88565b9801930193019194939290613be6565b60409060031901126104f6576004359060243590565b90600182811c92168015613c6a575b6020831014613c5457565b634e487b7160e01b600052602260045260246000fd5b91607f1691613c49565b61014081019081106001600160401b0382111761044d57604052565b61018081019081106001600160401b0382111761044d57604052565b60e081019081106001600160401b0382111761044d57604052565b602081019081106001600160401b0382111761044d57604052565b90601f801991011681019081106001600160401b0382111761044d57604052565b9060405191826000825492613d1784613c3a565b908184526001948581169081600014613d865750600114613d43575b5050613d4192500383613ce2565b565b9093915060005260209081600020936000915b818310613d6e575050613d4193508201013880613d33565b85548884018501529485019487945091830191613d56565b915050613d4194506020925060ff191682840152151560051b8201013880613d33565b9895613e18613e4296613e0a8c613e609e9c98613dfc613e3499613dee613e519f9a613de0613e269b610140808952880190613b1f565b908682036020880152613bc8565b908482036040860152613bc8565b916060818403910152613bc8565b8c810360808e015290613bc8565b908a820360a08c0152613bc8565b9088820360c08a0152613bc8565b9086820360e0880152613bc8565b90848203610100860152613a65565b91610120818403910152613a65565b90565b90815180825260208080930193019160005b828110613e83575050505090565b835160ff1685529381019392810192600101613e75565b90815180825260208080930193019160005b828110613eba575050505090565b8351151585529381019392810192600101613eac565b81601f820112156104f6578035906001600160401b03821161044d5760405192613f04601f8401601f191660200185613ce2565b828452602083830101116104f657816000926020809301838601378301015290565b6001600160401b03811161044d5760051b60200190565b818110613f48575050565b60008155600101613f3d565b15613f5b57565b606460405162461bcd60e51b815260206004820152602060248201527f436861696e526174653a2063616c6c6572206973206e6f7420746561636865726044820152fd5b60001981146112d55760010190565b15613fb557565b606460405162461bcd60e51b815260206004820152602060248201527f436861696e526174653a20636f7572736520646f6573206e6f742065786973746044820152fd5b1561400057565b606460405162461bcd60e51b815260206004820152602060248201527f436861696e526174653a2063616c6c6572206973206e6f742073747564656e746044820152fd5b8054600160401b81101561044d5761406191600182018155613b07565b819291549060031b91821b91600019901b1916179055565b1561408057565b60405162461bcd60e51b815260206004820152602c60248201527f436861696e526174653a2073747564656e7420686173206e6f74206a6f696e6560448201526b642074686520636f7572736560a01b6064820152608490fd5b8051821015610ae55760209160051b010190565b919082018092116112d557565b8115614105570490565b634e487b7160e01b600052601260045260246000fd5b9060009182526020600981526040808420918151808483829654938481520190885283882092885b858282106141e35750505061415a92500384613ce2565b8251156141de578492835b81518510156141a55761419961419f9161417f87856140da565b5189526003855260ff6006878b20015460081c16906140ee565b94613f9f565b93614165565b93509150506064820291808304606414901517156141ca57613e6092935051906140fb565b634e487b7160e01b84526011600452602484fd5b505050565b8554845260019586019589955093019201614143565b9061420382613f26565b6142106040519182613ce2565b8281528092614221601f1991613f26565b0190602036910137565b60005260096020526040600020906040518083602082955493848152019060005260206000209260005b8181106144fe57505061426a92500383613ce2565b815180156144eb576000926000806000916000936000956000985b82518a1015614468576142988a846140da565b516000526003806020526040600020906142b86040518061020052613c90565b8154610200515260018060a01b0360018301541660206102005101526002820154604061020051015281015460606102005101526142f860048201613d03565b6080610200510152600581015461430e81613f26565b9061431c6040519283613ce2565b80825260208201600584016000526020600020906000905b83821061444b57505050506143bf6143f89360ff60066143e5956143d29560a06102005101520154818116151560c0610200510152818160081c1660e0610200510152818160101c16610100610200510152818160181c16610120610200510152818160201c16610140610200510152818160281c16151561016061020051015260081c16906140ee565b9560ff61010061020051015116906140ee565b9560ff61012061020051015116906140ee565b9560ff61014061020051015116906140ee565b9860c061020051015161443b575b608061020051015151614426575b61441d90613f9f565b98949392614285565b9661443361441d91613f9f565b979050614414565b9561444590613f9f565b95614406565b60016020819261445a86613d03565b815201930191019091614334565b91509750959095949194939293606490818102908082048314901517156112d55788614493916140fb565b96818102908082048314901517156112d557886144af916140fb565b95818102908082048314901517156112d557886144cb916140fb565b948181029181830414901517156112d557876144e6916140fb565b929190565b5060009150819081908190819081908190565b8454835260019485019487945060209093019201614255565b9061452182613f26565b61452e6040519182613ce2565b828152809261453f601f1991613f26565b019060005b82811061455057505050565b806060602080938501015201614544565b919082039182116112d557565b60006102005260005260096020526040600020906040518083602082955493848152019060005260206000209260005b81811061493d5750506145b392500383613ce2565b81518082101561489457816145c791614561565b9280841161488c575b506145da836141f9565b936145e4846141f9565b936145ee81614517565b936145f8826141f9565b61020052614605826141f9565b9361460f836141f9565b93614619846141f9565b93614623816141f9565b9361462d826141f9565b9360005b83811061463e5750505050565b614656614650829b9e9d9c9b846140ee565b846140da565b516000526003908160205260406000206040519261467384613c90565b8154845260018201546001600160a01b031660208501526002820154604085015281015460608401526146a860048201613d03565b60808401526005810180546146bc81613f26565b916146ca6040519384613ce2565b81835260208301906000526020600020906000905b83821061486f57505050509d9e9b9c9d60ff9160069160a08601520154818116151560c0850152818160081c1660e0850152818160101c16610100850152818160181c16610120850152818160201c1661014085015260281c1615156101608301528d61474e828451926140da565b5260208201516001600160a01b0316614767828f6140da565b528b60c08301511560001461481a57614815926147a38360c09360018060a01b0360208501511660005260016020526128216040600020613d03565b505b60608101516147b784610200516140da565b5260e081015160ff166147ca848f6140da565b5261010081015160ff166147de848e6140da565b5260ff610120820151166147f2848d6140da565b5260ff61014082015116614806848c6140da565b520151151561301482896140da565b614631565b506040518060408101106001600160401b0360408301111761044d5761481592614869838f84604060c096016040526009815268416e6f6e796d6f757360b81b602082015261282b83836140da565b506147a5565b60016020819261487e86613d03565b8152019301910190916146df565b9250386145d0565b505050506040516148a481613cc7565b60008152604051916148b583613cc7565b60008352604051916148c683613cc7565b60008352604051916148d783613cc7565b600083526040516148e781613cc7565b60008152604051926148f884613cc7565b600084526040519261490984613cc7565b600084526040519261491a84613cc7565b600084526040519261492b84613cc7565b60008452989796610200529493929190565b845483526001948501948794506020909301920161459e565b600061020052600061018052600091600092601054935b848110614c8d575080938115614c1e57614986826141f9565b9161499081614517565b916149b061499d836141f9565b926149a7816141f9565b610200526141f9565b610180526000806101a05260009660005b8381106149d457505050506101a0519493565b600081815260026020526040902060018101546001600160a01b039081169084168114614a0c575b5050614a0790613f9f565b6149c1565b60209b949993959a989297916006916040519d8e614a2981613cac565b8354815201528c6040614a3e60028401613d03565b910152600381015460608e0152600481015460808e0152600581015460ff16151560a08e0152015460c08c015286614a768a846140da565b5260408b0151614a868a836140da565b52614a9189826140da565b5060c08b0151614aa18a886140da565b528660005260096020526040600020806101e052602060405191826101c0525491828152016101e0516000526020600020916000905b808210614c05575050614af291506101c05180910390613ce2565b6101c05151614b048a610200516140da565b526101c0515115614bd757600095865b6101c0518051891015614b5c57614b5691614b328a614b50936140da565b51600052600360205260ff60066040600020015460081c16906140ee565b97613f9f565b96614b14565b509096509a9096939a99949298999791976064908181029181830414901517156112d557614a0792614bba60c0614bcf948e614bad614ba3614bc9976101c05151906140fb565b91610180516140da565b525b01516101a0516140ee565b6101a0526101c05151906140ee565b99613f9f565b9290386149fc565b959299614bc9614a079298614bba60c0614bcf9460008e9f9a989e614bff90610180516140da565b52614baf565b8354835260019384019360209093019290910190614ad7565b5050915050604051614c2f81613cc7565b6000815260405190614c4082613cc7565b6000825260405191614c5183613cc7565b6000835260405192614c6284613cc7565b6000845260405193614c7385613cc7565b600085526000956000956000959493926102005261018052565b6000818152600260205260409020600101546001600160a01b03858116911614614cc0575b614cbb90613f9f565b61496d565b90614ccd614cbb91613f9f565b919050614cb2565b15614cdc57565b60405162461bcd60e51b815260206004820152601e60248201527f436861696e526174653a2063616c6c6572206973206e6f742061646d696e00006044820152606490fd5b9190600d5480841015614f795783614d3891614561565b90808211614f71575b50614d4b816141f9565b92614d5582614517565b92614d5f83614517565b92614d6981614517565b92614d7382614517565b92614d7d83614517565b92614d8781614517565b92614d9182614517565b92614d9b836141f9565b92614da5816141f9565b9260008c8c8f5b858410614dbb57505050505050565b8d8d8580614dc9818a6140ee565b614dd290613ad0565b9054600391821b1c6001600160a01b03169590918691614df291906140da565b5284600052600193602096858852604098848a600020614e1190613d03565b614e1b82846140da565b52614e25916140da565b508660005285885283868a60002001614e3d90613d03565b614e4782846140da565b52614e51916140da565b50856000528487528288600020600201614e6a90613d03565b614e7482846140da565b52614e7e916140da565b50846000528386528660002001614e9490613d03565b614e9e82846140da565b52614ea8916140da565b50816000528083528c8585600020600401614ec290613d03565b614ecc82846140da565b52614ed6916140da565b5081600052808352848c85600020600501614ef090613d03565b91614efa916140da565b52614f05858d6140da565b5081600052825282600020600601614f1c90613d03565b614f26858c6140da565b52614f31848b6140da565b5080600052600b82528260002054614f49858b6140da565b526000526008905260002054614f5f82876140da565b52614f6990613f9f565b8c8c8f614dac565b905038614d41565b505090506040908151614f8b81613cc7565b600092838252805193614f9d85613cc7565b808552815193614fac85613cc7565b818552825193614fbb85613cc7565b828552835193614fca85613cc7565b838552805193614fd985613cc7565b808552815193614fe885613cc7565b818552825193614ff785613cc7565b82855283519361500685613cc7565b838552519261501484613cc7565b80845236813799989796959493929190565b919060006101805260006101a05260006101e052600061020052600061016052600060e052600e5480841015615501578361506091614561565b908082116154f9575b5090615074826141f9565b9061507e83614517565b6101805261508b83614517565b6101a05261509883614517565b6101e0526150a583614517565b610200526150b283614517565b610160526150bf83614517565b906150c984614517565b906150d3856141f9565b916150dd866141f9565b60e052600061010052601054935b61010051878110156154ee57615104615109918a6140ee565b613a99565b969054806101205260018060a01b03908860031b1c1661512c61010051836140da565b5260018060a01b03610120518860031b1c1660005260016020526151536040600020613d03565b61516361010051610180516140da565b5261517461010051610180516140da565b5060018060a01b03610120518860031b1c16600052600160205261519e6001604060002001613d03565b6151ae610100516101a0516140da565b526151bf610100516101a0516140da565b5060018060a01b03610120518860031b1c1660005260016020526151e96002604060002001613d03565b6151f9610100516101e0516140da565b5261520a610100516101e0516140da565b5060018060a01b03610120518860031b1c1660005260016020526152346003604060002001613d03565b61524461010051610200516140da565b5261525561010051610200516140da565b5060018060a01b03610120518860031b1c16600052600160205261527f6004604060002001613d03565b61528f61010051610160516140da565b526152a061010051610160516140da565b5060018060a01b03610120518860031b1c1660005260016020526152ca6005604060002001613d03565b6152d761010051846140da565b526152e561010051836140da565b5060018060a01b03610120518860031b1c16600052600160205261530f6006604060002001613d03565b61531c61010051856140da565b5261532a61010051846140da565b5060009760009960006101405260006101c0525b6101c0518881101561546557600052600260205260018060a01b03610120518a60031b1c1660018060a01b03600160406000200154161461538f575b6153866101c051613f9f565b6101c05261533e565b9861539990613f9f565b986101c05160005260096020526040600020604051908160c052602081549283815201906000526020600020916000905b80821061544c5750506153e4915060c05180910390613ce2565b60c051511561537a57939160009a95939199979a989698955b60c05180518810156154265761542091614b328961541a936140da565b96613f9f565b956153fd565b509a979991939550919397959761544360c05151610140516140ee565b6101405261537a565b83548352600193840193602090930192909101906153ca565b50939750939195979890949861547e610100518b6140da565b5261014051156154d6576064908181029181830414901517156112d557610140516154a8916140fb565b6154b76101005160e0516140da565b525b6154c561010051613f9f565b6101005291959396929490966150eb565b5060006154e86101005160e0516140da565b526154b9565b509550939550909150565b905038615069565b5050604051915061551182613cc7565b600082526040519161552283613cc7565b600083526040519061553382613cc7565b600082526040519261554484613cc7565b6000845260405161555481613cc7565b6000815260405161556481613cc7565b600081526040519161557583613cc7565b600083526040519661558688613cc7565b600088526040519661559788613cc7565b60008852604051966155a888613cc7565b6000885299610180526101a0526101e052610200526101605293929160e05256fea2646970667358221220c5b11ceb0dd3f65aee1d292b7843bcf0d9d318cd775470b525dd08fdec99e41864736f6c63430008140033",
  "linkReferences": {},
  "deployedLinkReferences": {}
}