{
  "_format": "hh-sol-artifact-1",
  "contractName": "ChainRate02",
  "sourceName": "contracts/ChainRate02.sol",
  "abi": [
    {
      "inputs": [],
      "stateMutability": "nonpayable",
      "type": "constructor"
    },
    {
      "anonymous": false,
      "inputs": [
        {
          "indexed": true,
          "internalType": "uint256",
          "name": "feedbackId",
          "type": "uint256"
        },
        {
          "indexed": true,
          "internalType": "address",
          "name": "student",
          "type": "address"
        }
      ],
      "name": "FeedbackDeleted",
      "type": "event"
    },
    {
      "anonymous": false,
      "inputs": [
        {
          "indexed": true,
          "internalType": "uint256",
          "name": "feedbackId",
          "type": "uint256"
        },
        {
          "indexed": true,
          "internalType": "address",
          "name": "student",
          "type": "address"
        },
        {
          "indexed": true,
          "internalType": "uint256",
          "name": "courseId",
          "type": "uint256"
        }
      ],
      "name": "FeedbackSubmitted",
      "type": "event"
    },
    {
      "anonymous": false,
      "inputs": [
        {
          "indexed": true,
          "internalType": "uint256",
          "name": "feedbackId",
          "type": "uint256"
        },
        {
          "indexed": true,
          "internalType": "address",
          "name": "student",
          "type": "address"
        },
        {
          "indexed": false,
          "internalType": "uint256",
          "name": "version",
          "type": "uint256"
        }
      ],
      "name": "FeedbackUpdated",
      "type": "event"
    },
    {
      "anonymous": false,
      "inputs": [
        {
          "indexed": true,
          "internalType": "uint256",
          "name": "evaluationId",
          "type": "uint256"
        },
        {
          "indexed": true,
          "internalType": "address",
          "name": "student",
          "type": "address"
        },
        {
          "indexed": true,
          "internalType": "address",
          "name": "teacher",
          "type": "address"
        }
      ],
      "name": "TeacherEvaluationSubmitted",
      "type": "event"
    },
    {
      "anonymous": false,
      "inputs": [
        {
          "indexed": true,
          "internalType": "uint256",
          "name": "evaluationId",
          "type": "uint256"
        },
        {
          "indexed": true,
          "internalType": "address",
          "name": "student",
          "type": "address"
        }
      ],
      "name": "TeacherEvaluationUpdated",
      "type": "event"
    },
    {
      "anonymous": false,
      "inputs": [
        {
          "indexed": true,
          "internalType": "uint256",
          "name": "feedbackId",
          "type": "uint256"
        },
        {
          "indexed": true,
          "internalType": "address",
          "name": "teacher",
          "type": "address"
        }
      ],
      "name": "TeacherReplied",
      "type": "event"
    },
    {
      "inputs": [
        {
          "internalType": "uint256",
          "name": "",
          "type": "uint256"
        }
      ],
      "name": "courseFeedbacks",
      "outputs": [
        {
          "internalType": "uint256",
          "name": "id",
          "type": "uint256"
        },
        {
          "internalType": "uint256",
          "name": "courseId",
          "type": "uint256"
        },
        {
          "internalType": "address",
          "name": "student",
          "type": "address"
        },
        {
          "internalType": "uint256",
          "name": "timestamp",
          "type": "uint256"
        },
        {
          "internalType": "string",
          "name": "contentHash",
          "type": "string"
        },
        {
          "internalType": "uint256",
          "name": "versions",
          "type": "uint256"
        },
        {
          "internalType": "enum ChainRate02.FeedbackStatus",
          "name": "status",
          "type": "uint8"
        }
      ],
      "stateMutability": "view",
      "type": "function"
    },
    {
      "inputs": [
        {
          "internalType": "uint256",
          "name": "",
          "type": "uint256"
        },
        {
          "internalType": "uint256",
          "name": "",
          "type": "uint256"
        }
      ],
      "name": "courseFeedbacksList",
      "outputs": [
        {
          "internalType": "uint256",
          "name": "",
          "type": "uint256"
        }
      ],
      "stateMutability": "view",
      "type": "function"
    },
    {
      "inputs": [
        {
          "internalType": "uint256",
          "name": "feedbackId",
          "type": "uint256"
        }
      ],
      "name": "deleteCourseFeedback",
      "outputs": [],
      "stateMutability": "nonpayable",
      "type": "function"
    },
    {
      "inputs": [],
      "name": "feedbackCount",
      "outputs": [
        {
          "internalType": "uint256",
          "name": "",
          "type": "uint256"
        }
      ],
      "stateMutability": "view",
      "type": "function"
    },
    {
      "inputs": [
        {
          "internalType": "uint256",
          "name": "",
          "type": "uint256"
        },
        {
          "internalType": "uint256",
          "name": "",
          "type": "uint256"
        }
      ],
      "name": "feedbackVersions",
      "outputs": [
        {
          "internalType": "uint256",
          "name": "id",
          "type": "uint256"
        },
        {
          "internalType": "uint256",
          "name": "feedbackId",
          "type": "uint256"
        },
        {
          "internalType": "uint256",
          "name": "timestamp",
          "type": "uint256"
        },
        {
          "internalType": "string",
          "name": "contentHash",
          "type": "string"
        }
      ],
      "stateMutability": "view",
      "type": "function"
    },
    {
      "inputs": [
        {
          "internalType": "address",
          "name": "teacherAddress",
          "type": "address"
        }
      ],
      "name": "generateTeacherReport",
      "outputs": [
        {
          "internalType": "string",
          "name": "name",
          "type": "string"
        },
        {
          "internalType": "uint256",
          "name": "totalEvaluations",
          "type": "uint256"
        },
        {
          "internalType": "uint256",
          "name": "averageOverallRating",
          "type": "uint256"
        },
        {
          "internalType": "uint256[5]",
          "name": "dimensionRatings",
          "type": "uint256[5]"
        },
        {
          "internalType": "enum ChainRate02.TeacherEvaluationDimension",
          "name": "strengthDimension",
          "type": "uint8"
        },
        {
          "internalType": "enum ChainRate02.TeacherEvaluationDimension",
          "name": "weaknessDimension",
          "type": "uint8"
        },
        {
          "internalType": "uint256",
          "name": "recentEvaluationCount",
          "type": "uint256"
        }
      ],
      "stateMutability": "view",
      "type": "function"
    },
    {
      "inputs": [
        {
          "internalType": "uint256",
          "name": "courseId",
          "type": "uint256"
        },
        {
          "internalType": "uint256",
          "name": "offset",
          "type": "uint256"
        },
        {
          "internalType": "uint256",
          "name": "limit",
          "type": "uint256"
        }
      ],
      "name": "getBatchCourseFeedbacks",
      "outputs": [
        {
          "internalType": "uint256[]",
          "name": "ids",
          "type": "uint256[]"
        },
        {
          "internalType": "address[]",
          "name": "studentAddresses",
          "type": "address[]"
        },
        {
          "internalType": "string[]",
          "name": "studentNames",
          "type": "string[]"
        },
        {
          "internalType": "uint256[]",
          "name": "timestamps",
          "type": "uint256[]"
        },
        {
          "internalType": "string[]",
          "name": "contentHashes",
          "type": "string[]"
        },
        {
          "internalType": "enum ChainRate02.FeedbackStatus[]",
          "name": "statuses",
          "type": "uint8[]"
        },
        {
          "internalType": "bool[]",
          "name": "hasReplies",
          "type": "bool[]"
        }
      ],
      "stateMutability": "view",
      "type": "function"
    },
    {
      "inputs": [
        {
          "internalType": "uint256",
          "name": "feedbackId",
          "type": "uint256"
        }
      ],
      "name": "getCourseFeedbackDetails",
      "outputs": [
        {
          "internalType": "uint256",
          "name": "id",
          "type": "uint256"
        },
        {
          "internalType": "uint256",
          "name": "courseId",
          "type": "uint256"
        },
        {
          "internalType": "address",
          "name": "student",
          "type": "address"
        },
        {
          "internalType": "uint256",
          "name": "timestamp",
          "type": "uint256"
        },
        {
          "internalType": "string",
          "name": "contentHash",
          "type": "string"
        },
        {
          "internalType": "string[]",
          "name": "documentHashes",
          "type": "string[]"
        },
        {
          "internalType": "string[]",
          "name": "imageHashes",
          "type": "string[]"
        },
        {
          "internalType": "uint256",
          "name": "versions",
          "type": "uint256"
        },
        {
          "internalType": "enum ChainRate02.FeedbackStatus",
          "name": "status",
          "type": "uint8"
        }
      ],
      "stateMutability": "view",
      "type": "function"
    },
    {
      "inputs": [
        {
          "internalType": "uint256",
          "name": "courseId",
          "type": "uint256"
        }
      ],
      "name": "getCourseFeedbacks",
      "outputs": [
        {
          "internalType": "uint256[]",
          "name": "",
          "type": "uint256[]"
        }
      ],
      "stateMutability": "view",
      "type": "function"
    },
    {
      "inputs": [
        {
          "internalType": "uint256",
          "name": "feedbackId",
          "type": "uint256"
        },
        {
          "internalType": "uint256",
          "name": "versionId",
          "type": "uint256"
        }
      ],
      "name": "getFeedbackVersion",
      "outputs": [
        {
          "internalType": "uint256",
          "name": "id",
          "type": "uint256"
        },
        {
          "internalType": "uint256",
          "name": "fbId",
          "type": "uint256"
        },
        {
          "internalType": "uint256",
          "name": "timestamp",
          "type": "uint256"
        },
        {
          "internalType": "string",
          "name": "contentHash",
          "type": "string"
        },
        {
          "internalType": "string[]",
          "name": "documentHashes",
          "type": "string[]"
        },
        {
          "internalType": "string[]",
          "name": "imageHashes",
          "type": "string[]"
        }
      ],
      "stateMutability": "view",
      "type": "function"
    },
    {
      "inputs": [
        {
          "internalType": "address",
          "name": "studentAddress",
          "type": "address"
        }
      ],
      "name": "getStudentFeedbacks",
      "outputs": [
        {
          "internalType": "uint256[]",
          "name": "",
          "type": "uint256[]"
        }
      ],
      "stateMutability": "view",
      "type": "function"
    },
    {
      "inputs": [
        {
          "internalType": "address",
          "name": "studentAddress",
          "type": "address"
        }
      ],
      "name": "getStudentTeacherEvaluations",
      "outputs": [
        {
          "internalType": "uint256[]",
          "name": "",
          "type": "uint256[]"
        }
      ],
      "stateMutability": "view",
      "type": "function"
    },
    {
      "inputs": [
        {
          "internalType": "address",
          "name": "teacherAddress",
          "type": "address"
        }
      ],
      "name": "getTeacherAverageRatings",
      "outputs": [
        {
          "internalType": "uint256",
          "name": "totalEvaluations",
          "type": "uint256"
        },
        {
          "internalType": "uint256",
          "name": "averageOverallRating",
          "type": "uint256"
        },
        {
          "internalType": "uint256",
          "name": "averageTeachingAbilityRating",
          "type": "uint256"
        },
        {
          "internalType": "uint256",
          "name": "averageTeachingAttitudeRating",
          "type": "uint256"
        },
        {
          "internalType": "uint256",
          "name": "averageTeachingMethodRating",
          "type": "uint256"
        },
        {
          "internalType": "uint256",
          "name": "averageAcademicLevelRating",
          "type": "uint256"
        },
        {
          "internalType": "uint256",
          "name": "averageGuidanceAbilityRating",
          "type": "uint256"
        },
        {
          "internalType": "uint256",
          "name": "anonymousCount",
          "type": "uint256"
        }
      ],
      "stateMutability": "view",
      "type": "function"
    },
    {
      "inputs": [
        {
          "internalType": "address",
          "name": "teacherAddress",
          "type": "address"
        },
        {
          "internalType": "uint256",
          "name": "offset",
          "type": "uint256"
        },
        {
          "internalType": "uint256",
          "name": "limit",
          "type": "uint256"
        }
      ],
      "name": "getTeacherBatchEvaluations",
      "outputs": [
        {
          "internalType": "uint256[]",
          "name": "ids",
          "type": "uint256[]"
        },
        {
          "internalType": "address[]",
          "name": "studentAddresses",
          "type": "address[]"
        },
        {
          "internalType": "string[]",
          "name": "names",
          "type": "string[]"
        },
        {
          "internalType": "uint256[]",
          "name": "timestamps",
          "type": "uint256[]"
        },
        {
          "internalType": "uint8[]",
          "name": "overallRatings",
          "type": "uint8[]"
        },
        {
          "internalType": "uint8[]",
          "name": "teachingAbilityRatings",
          "type": "uint8[]"
        },
        {
          "internalType": "uint8[]",
          "name": "teachingAttitudeRatings",
          "type": "uint8[]"
        },
        {
          "internalType": "uint8[]",
          "name": "teachingMethodRatings",
          "type": "uint8[]"
        },
        {
          "internalType": "uint8[]",
          "name": "academicLevelRatings",
          "type": "uint8[]"
        },
        {
          "internalType": "uint8[]",
          "name": "guidanceAbilityRatings",
          "type": "uint8[]"
        },
        {
          "internalType": "bool[]",
          "name": "isAnonymous",
          "type": "bool[]"
        }
      ],
      "stateMutability": "view",
      "type": "function"
    },
    {
      "inputs": [
        {
          "internalType": "uint256",
          "name": "evaluationId",
          "type": "uint256"
        }
      ],
      "name": "getTeacherEvaluationDetails",
      "outputs": [
        {
          "internalType": "uint256",
          "name": "id",
          "type": "uint256"
        },
        {
          "internalType": "address",
          "name": "student",
          "type": "address"
        },
        {
          "internalType": "address",
          "name": "teacher",
          "type": "address"
        },
        {
          "internalType": "uint256",
          "name": "timestamp",
          "type": "uint256"
        },
        {
          "internalType": "string",
          "name": "contentHash",
          "type": "string"
        },
        {
          "internalType": "string[]",
          "name": "imageHashes",
          "type": "string[]"
        },
        {
          "internalType": "bool",
          "name": "isAnonymous",
          "type": "bool"
        },
        {
          "internalType": "uint8",
          "name": "overallRating",
          "type": "uint8"
        },
        {
          "internalType": "uint8",
          "name": "teachingAbilityRating",
          "type": "uint8"
        },
        {
          "internalType": "uint8",
          "name": "teachingAttitudeRating",
          "type": "uint8"
        },
        {
          "internalType": "uint8",
          "name": "teachingMethodRating",
          "type": "uint8"
        },
        {
          "internalType": "uint8",
          "name": "academicLevelRating",
          "type": "uint8"
        },
        {
          "internalType": "uint8",
          "name": "guidanceAbilityRating",
          "type": "uint8"
        },
        {
          "internalType": "bool",
          "name": "isActive",
          "type": "bool"
        }
      ],
      "stateMutability": "view",
      "type": "function"
    },
    {
      "inputs": [
        {
          "internalType": "address",
          "name": "teacherAddress",
          "type": "address"
        }
      ],
      "name": "getTeacherEvaluations",
      "outputs": [
        {
          "internalType": "uint256[]",
          "name": "",
          "type": "uint256[]"
        }
      ],
      "stateMutability": "view",
      "type": "function"
    },
    {
      "inputs": [
        {
          "internalType": "address",
          "name": "teacherAddress",
          "type": "address"
        }
      ],
      "name": "getTeacherRatingDistribution",
      "outputs": [
        {
          "internalType": "uint256[5]",
          "name": "overallRatingCounts",
          "type": "uint256[5]"
        },
        {
          "internalType": "uint256[5]",
          "name": "teachingAbilityRatingCounts",
          "type": "uint256[5]"
        },
        {
          "internalType": "uint256[5]",
          "name": "teachingAttitudeRatingCounts",
          "type": "uint256[5]"
        },
        {
          "internalType": "uint256[5]",
          "name": "teachingMethodRatingCounts",
          "type": "uint256[5]"
        },
        {
          "internalType": "uint256[5]",
          "name": "academicLevelRatingCounts",
          "type": "uint256[5]"
        },
        {
          "internalType": "uint256[5]",
          "name": "guidanceAbilityRatingCounts",
          "type": "uint256[5]"
        }
      ],
      "stateMutability": "view",
      "type": "function"
    },
    {
      "inputs": [
        {
          "internalType": "uint256",
          "name": "feedbackId",
          "type": "uint256"
        }
      ],
      "name": "getTeacherReplyDetails",
      "outputs": [
        {
          "internalType": "uint256",
          "name": "id",
          "type": "uint256"
        },
        {
          "internalType": "uint256",
          "name": "fbId",
          "type": "uint256"
        },
        {
          "internalType": "address",
          "name": "teacher",
          "type": "address"
        },
        {
          "internalType": "uint256",
          "name": "timestamp",
          "type": "uint256"
        },
        {
          "internalType": "string",
          "name": "contentHash",
          "type": "string"
        },
        {
          "internalType": "string[]",
          "name": "documentHashes",
          "type": "string[]"
        },
        {
          "internalType": "string[]",
          "name": "imageHashes",
          "type": "string[]"
        }
      ],
      "stateMutability": "view",
      "type": "function"
    },
    {
      "inputs": [
        {
          "internalType": "address",
          "name": "",
          "type": "address"
        },
        {
          "internalType": "address",
          "name": "",
          "type": "address"
        }
      ],
      "name": "hasEvaluatedTeacher",
      "outputs": [
        {
          "internalType": "bool",
          "name": "",
          "type": "bool"
        }
      ],
      "stateMutability": "view",
      "type": "function"
    },
    {
      "inputs": [
        {
          "internalType": "address",
          "name": "studentAddress",
          "type": "address"
        },
        {
          "internalType": "address",
          "name": "teacherAddress",
          "type": "address"
        }
      ],
      "name": "isTeacherEvaluated",
      "outputs": [
        {
          "internalType": "bool",
          "name": "",
          "type": "bool"
        }
      ],
      "stateMutability": "view",
      "type": "function"
    },
    {
      "inputs": [],
      "name": "mainContract",
      "outputs": [
        {
          "internalType": "contract ChainRate",
          "name": "",
          "type": "address"
        }
      ],
      "stateMutability": "view",
      "type": "function"
    },
    {
      "inputs": [],
      "name": "owner",
      "outputs": [
        {
          "internalType": "address",
          "name": "",
          "type": "address"
        }
      ],
      "stateMutability": "view",
      "type": "function"
    },
    {
      "inputs": [],
      "name": "replyCount",
      "outputs": [
        {
          "internalType": "uint256",
          "name": "",
          "type": "uint256"
        }
      ],
      "stateMutability": "view",
      "type": "function"
    },
    {
      "inputs": [
        {
          "internalType": "uint256",
          "name": "feedbackId",
          "type": "uint256"
        },
        {
          "internalType": "string",
          "name": "contentHash",
          "type": "string"
        },
        {
          "internalType": "string[]",
          "name": "documentHashes",
          "type": "string[]"
        },
        {
          "internalType": "string[]",
          "name": "imageHashes",
          "type": "string[]"
        }
      ],
      "name": "replyToFeedback",
      "outputs": [
        {
          "internalType": "uint256",
          "name": "",
          "type": "uint256"
        }
      ],
      "stateMutability": "nonpayable",
      "type": "function"
    },
    {
      "inputs": [
        {
          "internalType": "address",
          "name": "_mainContract",
          "type": "address"
        }
      ],
      "name": "setMainContract",
      "outputs": [],
      "stateMutability": "nonpayable",
      "type": "function"
    },
    {
      "inputs": [
        {
          "internalType": "address",
          "name": "",
          "type": "address"
        },
        {
          "internalType": "uint256",
          "name": "",
          "type": "uint256"
        }
      ],
      "name": "studentFeedbacks",
      "outputs": [
        {
          "internalType": "uint256",
          "name": "",
          "type": "uint256"
        }
      ],
      "stateMutability": "view",
      "type": "function"
    },
    {
      "inputs": [
        {
          "internalType": "address",
          "name": "",
          "type": "address"
        },
        {
          "internalType": "uint256",
          "name": "",
          "type": "uint256"
        }
      ],
      "name": "studentTeacherEvaluations",
      "outputs": [
        {
          "internalType": "uint256",
          "name": "",
          "type": "uint256"
        }
      ],
      "stateMutability": "view",
      "type": "function"
    },
    {
      "inputs": [
        {
          "internalType": "uint256",
          "name": "courseId",
          "type": "uint256"
        },
        {
          "internalType": "string",
          "name": "contentHash",
          "type": "string"
        },
        {
          "internalType": "string[]",
          "name": "documentHashes",
          "type": "string[]"
        },
        {
          "internalType": "string[]",
          "name": "imageHashes",
          "type": "string[]"
        }
      ],
      "name": "submitCourseFeedback",
      "outputs": [
        {
          "internalType": "uint256",
          "name": "",
          "type": "uint256"
        }
      ],
      "stateMutability": "nonpayable",
      "type": "function"
    },
    {
      "inputs": [
        {
          "internalType": "address",
          "name": "teacherAddress",
          "type": "address"
        },
        {
          "internalType": "string",
          "name": "contentHash",
          "type": "string"
        },
        {
          "internalType": "string[]",
          "name": "imageHashes",
          "type": "string[]"
        },
        {
          "internalType": "uint8",
          "name": "overallRating",
          "type": "uint8"
        },
        {
          "internalType": "uint8",
          "name": "teachingAbilityRating",
          "type": "uint8"
        },
        {
          "internalType": "uint8",
          "name": "teachingAttitudeRating",
          "type": "uint8"
        },
        {
          "internalType": "uint8",
          "name": "teachingMethodRating",
          "type": "uint8"
        },
        {
          "internalType": "uint8",
          "name": "academicLevelRating",
          "type": "uint8"
        },
        {
          "internalType": "uint8",
          "name": "guidanceAbilityRating",
          "type": "uint8"
        },
        {
          "internalType": "bool",
          "name": "isAnonymous",
          "type": "bool"
        }
      ],
      "name": "submitTeacherEvaluation",
      "outputs": [
        {
          "internalType": "uint256",
          "name": "",
          "type": "uint256"
        }
      ],
      "stateMutability": "nonpayable",
      "type": "function"
    },
    {
      "inputs": [],
      "name": "teacherEvaluationCount",
      "outputs": [
        {
          "internalType": "uint256",
          "name": "",
          "type": "uint256"
        }
      ],
      "stateMutability": "view",
      "type": "function"
    },
    {
      "inputs": [
        {
          "internalType": "uint256",
          "name": "",
          "type": "uint256"
        }
      ],
      "name": "teacherEvaluations",
      "outputs": [
        {
          "internalType": "uint256",
          "name": "id",
          "type": "uint256"
        },
        {
          "internalType": "address",
          "name": "student",
          "type": "address"
        },
        {
          "internalType": "address",
          "name": "teacher",
          "type": "address"
        },
        {
          "internalType": "uint256",
          "name": "timestamp",
          "type": "uint256"
        },
        {
          "internalType": "string",
          "name": "contentHash",
          "type": "string"
        },
        {
          "internalType": "bool",
          "name": "isAnonymous",
          "type": "bool"
        },
        {
          "internalType": "uint8",
          "name": "overallRating",
          "type": "uint8"
        },
        {
          "internalType": "uint8",
          "name": "teachingAbilityRating",
          "type": "uint8"
        },
        {
          "internalType": "uint8",
          "name": "teachingAttitudeRating",
          "type": "uint8"
        },
        {
          "internalType": "uint8",
          "name": "teachingMethodRating",
          "type": "uint8"
        },
        {
          "internalType": "uint8",
          "name": "academicLevelRating",
          "type": "uint8"
        },
        {
          "internalType": "uint8",
          "name": "guidanceAbilityRating",
          "type": "uint8"
        },
        {
          "internalType": "bool",
          "name": "isActive",
          "type": "bool"
        }
      ],
      "stateMutability": "view",
      "type": "function"
    },
    {
      "inputs": [
        {
          "internalType": "address",
          "name": "",
          "type": "address"
        },
        {
          "internalType": "uint256",
          "name": "",
          "type": "uint256"
        }
      ],
      "name": "teacherEvaluationsList",
      "outputs": [
        {
          "internalType": "uint256",
          "name": "",
          "type": "uint256"
        }
      ],
      "stateMutability": "view",
      "type": "function"
    },
    {
      "inputs": [
        {
          "internalType": "uint256",
          "name": "",
          "type": "uint256"
        }
      ],
      "name": "teacherReplies",
      "outputs": [
        {
          "internalType": "uint256",
          "name": "id",
          "type": "uint256"
        },
        {
          "internalType": "uint256",
          "name": "feedbackId",
          "type": "uint256"
        },
        {
          "internalType": "address",
          "name": "teacher",
          "type": "address"
        },
        {
          "internalType": "uint256",
          "name": "timestamp",
          "type": "uint256"
        },
        {
          "internalType": "string",
          "name": "contentHash",
          "type": "string"
        }
      ],
      "stateMutability": "view",
      "type": "function"
    },
    {
      "inputs": [
        {
          "internalType": "uint256",
          "name": "feedbackId",
          "type": "uint256"
        },
        {
          "internalType": "string",
          "name": "contentHash",
          "type": "string"
        },
        {
          "internalType": "string[]",
          "name": "documentHashes",
          "type": "string[]"
        },
        {
          "internalType": "string[]",
          "name": "imageHashes",
          "type": "string[]"
        }
      ],
      "name": "updateCourseFeedback",
      "outputs": [
        {
          "internalType": "uint256",
          "name": "",
          "type": "uint256"
        }
      ],
      "stateMutability": "nonpayable",
      "type": "function"
    }
  ],
  "bytecode": "0x6080806040523461002957600180546001600160a01b03191633179055615b6d90816200002f8239f35b600080fdfe60e0604052600436101561001257600080fd5b60003560e01c806303e0d21f1461412557806312845a52146140f4578063172075581461408c57806319cb1bff146140425780631dc3fe3a14613d625780632b658ea114613b525780632ed3f65b14613b3457806336b49b8514613abd5780633ded33bc146139c75780633ebeb76d146138c857806340067d0a14613834578063495e1b63146137cb5780634b0aad6814613674578063574301f214612b385780635c4f682c14612b1a578063634054a114611de75780636887558114611c8757806386916aa014611c075780638da5cb5b14611bde5780638eaaa50d14611b94578063916a038614611b765780639fc084c014611aff578063a081889614611a1e578063a18266ae14611a74578063a79a097614611a1e578063acba6a6f146119c6578063b5105e3214610d32578063b7eb014514610cbe578063c22c9e4f14610bdc578063d270e7ab14610bb3578063d29394cb14610a5b578063e4f65c1414610361578063fc1bce931461030b5763fd77c5e21461019257600080fd5b34610306576020806003193601126103065760043580600052600782526101bf81604060002054146156eb565b806000526009825280600160406000200154036102b7576000526009815260406000206102b36040516101f181614292565b825481526102a560018401549385830194855261029760018060a01b039182600282015416926040860193845260038201546060870190815261023660048401614304565b916080880192835261025d600661024f600587016149f5565b9560a08b01968752016149f5565b978860c0820152519951955116905191519251946040519a8b9a8b528a01526040890152606088015260e0608088015260e08701906143cd565b9085820360a087015261448a565b9083820360c085015261448a565b0390f35b60405162461bcd60e51b815260048101839052602160248201527f436861696e5261746530323a207265706c7920646f6573206e6f7420657869736044820152601d60fa1b6064820152608490fd5b600080fd5b346103065760203660031901126103065761010061032f61032a614436565b614a77565b95604095919594929451978852602088015260408701526060860152608085015260a084015260c083015260e0820152f35b346103065761036f366146ca565b929182600052600760205261038a83604060002054146156eb565b82600052600760205260ff600860406000200154166004811015610a455760036103b5911415615743565b82600052600760205260406000209360018060a01b039160248360005416600060018901549160405193848092634b7cbce960e11b82528560048301525afa918215610a3957600090600093610a0c575b50149081610a00575b50156109a557600d54936104228561490a565b600d556040519261043284614292565b8584526020840194878652604085019133835260608601934285526080870195865260a087015260c086015287600052600960205260406000209585518755516001870155600286019151166001600160601b0360a01b825416179055516003840155518051906001600160401b0382116106d85781906104b66004860154614205565b601f8111610970575b50602090601f83116001146108fe576000926108f3575b50508160011b916000199060031b1c19161760048301555b60a0810151805190600160401b82116106d857600584015482600586015580831061087b575b5060200190600584016000526020600020916000905b828210610766575050505060c00151805190600160401b82116106d85760068301548260068501558083106106ee575b5060206006910192016000526020600020916000905b8282106105b85760088701805460ff191660011790556040516020908633897f0bcb215a935c8e30c3575af7c464216c94fe01fbae45bcef710d2eb1ecdf020d600080a38152f35b80518051906001600160401b0382116106d8576105d58654614205565b601f811161069b575b50602090601f831160011461062b579282600194936020938695600092610620575b5050600019600383901b1c191690841b1787555b01940191019092610570565b015190508c80610600565b908660005260206000209160005b601f1985168110610683575083602093600196938796938794601f1981161061066a575b505050811b018755610614565b015160001960f88460031b161c191690558c808061065d565b91926020600181928685015181550194019201610639565b6106c890876000526020600020601f850160051c810191602086106106ce575b601f0160051c01906149a9565b896105de565b90915081906106bb565b634e487b7160e01b600052604160045260246000fd5b600684016000526020600020908382015b818301811061070f57505061055a565b8061071c60019254614205565b80610729575b50016106ff565b601f8111831461073f5750600081555b8a610722565b60009082825261075d601f60208420920160051c82018583016149a9565b81835555610739565b80518051906001600160401b0382116106d8576107838654614205565b601f8111610849575b50602090601f83116001146107d95792826001949360209386956000926107ce575b5050600019600383901b1c191690841b1787555b0194019101909261052a565b015190508e806107ae565b908660005260206000209160005b601f1985168110610831575083602093600196938796938794601f19811610610818575b505050811b0187556107c2565b015160001960f88460031b161c191690558e808061080b565b919260206001819286850151815501940192016107e7565b61087590876000526020600020601f850160051c810191602086106106ce57601f0160051c01906149a9565b8b61078c565b600585016000526020600020908382015b818301811061089c575050610514565b806108a960019254614205565b806108b6575b500161088c565b601f811183146108cc5750600081555b8b6108af565b6000908282526108ea601f60208420920160051c82018583016149a9565b818355556108c6565b0151905087806104d6565b9250600485016000526020600020906000935b601f1984168510610955576001945083601f1981161061093c575b505050811b0160048301556104ee565b015160001960f88460031b161c1916905587808061092c565b81810151835560209485019460019093019290910190610911565b61099f90600487016000526020600020601f850160051c810191602086106106ce57601f0160051c01906149a9565b886104bf565b60405162461bcd60e51b815260206004820152602d60248201527f436861696e5261746530323a2063616c6c6572206973206e6f7420746865206360448201526c37bab939b2903a32b0b1b432b960991b6064820152608490fd5b8416331490508761040f565b9050610a2c9192503d806000833e610a2481836142e3565b810190614943565b5050505050919089610406565b6040513d6000823e3d90fd5b634e487b7160e01b600052602160045260246000fd5b346103065760203660031901126103065760043560018060a01b036024600082815416610a8981151561473a565b604051636386c1c760e01b815233600482015292839182905afa8015610a3957610ac591600090600092610b85575b5081610b6d575b506148b3565b816000526007602052610ade82604060002054146156eb565b81600052600760205260ff60086040600020015416906004821015610a4557610b0d6003610b28931415615743565b8260005260076020523390600260406000200154161461578e565b8060005260076020526008604060002001600360ff1982541617905533907fc33af65f28b36102426c0c034642ecbdc32bbb133a16c036f70ee1048594cfaa600080a3005b600080516020615b1883398151915291501484610abf565b9050610ba491503d806000833e610b9c81836142e3565b8101906147e0565b97509550505050505085610ab8565b34610306576000366003190112610306576000546040516001600160a01b039091168152602090f35b3461030657606036600319011261030657610c2b610c56610c64610c48610c0a6044356024356004356157f2565b95979498929193610c3a6040989298519b8c9a60e08c5260e08c01906144e6565b60209b8b82038d8d015261451a565b9089820360408b015261448a565b9087820360608901526144e6565b90858203608087015261448a565b83810360a085015284808451928381520193019460005b828110610c965785806102b3878783820360c085015261458e565b9193818094965081610cac600194938a516145c4565b01960191019186949295939195610c7b565b34610306576020366003190112610306576004356000526009602052604060002080546102b360018301549260018060a01b0360028201541690610d09600460038301549201614304565b91604051958695865260208601526040850152606084015260a0608084015260a08301906143cd565b346103065761014036600319011261030657610d4c614436565b6024356001600160401b03811161030657610d6b9036906004016145ec565b906044356001600160401b03811161030657610d8b90369060040161464a565b906064359160ff831683036103065760843560ff811681036103065760a43560ff811681036103065760c43560ff811681036103065760e4359160ff8316830361030657610104359360ff851685036103065761012435978815158903610306576000546001600160a01b031698610e048a151561473a565b604051636386c1c760e01b81523360048201526000816024818e5afa8015610a3957610e41916000906000926119a0575b508161198857506148b3565b610e4c8a151561473a565b604051633501d87960e21b815233600482015260009a908b81602481855afa908115610a39576000916118db575b5060005b81518110156118ca57610e91818361492f565b51604051634b7cbce960e11b81526004810182905290600082602481885afa918215610a39576000906000936118a5575b5014908161188f575b50610ede57610ed99061490a565b610e7e565b5050909192939495969798995060015b1561182b57604051636386c1c760e01b81526001600160a01b038b16600482015290600090829060249082905afa908115610a3957600090600092611805575b50816117db575b501561178a57336000526003602052604060002060018060a01b038a1660005260205260ff6040600020541661173157600160ff8316101580611723575b156116de57600160ff84161015806116d0575b1561167657600160ff8516101580611668575b1561160d57600160ff86161015806115ff575b156115a657600160ff8716101580611598575b1561154057600160ff8816101580611532575b156114d85760065497610fe48961490a565b6006556040519a610ff48c61423f565b898c523360208d0152600160a01b600190038b1660408d01524260608d015260808c015260a08b0152151560c08a015260ff1660e089015260ff1661010088015260ff1661012087015260ff1661014086015260ff1661016085015260ff166101808401526101a08301600190528060005260026020526040600020928051845560018401600160a01b60019003602083015116906001600160601b0360a01b91828254161790556002850190600160a01b60019003604084015116908254161790556060810151600385015560808101518051906001600160401b0382116106d85781906110e66004880154614205565b601f81116114a3575b50602090601f831160011461143157600092611426575b50508160011b916000199060031b1c19161760048501555b60a0810151805190600160401b82116106d85760058601548260058801558083106113ae575b5060200190600586016000526020600020916000905b82821061129957505050506006602094019060c0810151151590825461ff0060e083015160081b1662ff000061010084015160101b1663ff00000061012085015160181b169064ff000000006101408601518b1b169265ff000000000061016087015160281b169460ff67ff000000000000006101a066ff0000000000006101808b015160301b16990151151560381b169816906001600160401b031916171717171717171790553360005260038352604060002060018060a01b03831660005283526040600020600160ff1982541617905533600052600483526112438160406000206149c0565b60018060a01b038216600052600583526112618160406000206149c0565b604051916001600160a01b031633827fc0214894056eb63ea9232f74a57ef2ba3098d6b708f43e144d12755ce7ff589a600080a48152f35b80518051906001600160401b0382116106d8576112b68654614205565b601f811161137c575b50602090601f831160011461130c579282600194936020938695600092611301575b5050600019600383901b1c191690841b1787555b0194019101909261115a565b015190508d806112e1565b908660005260206000209160005b601f1985168110611364575083602093600196938796938794601f1981161061134b575b505050811b0187556112f5565b015160001960f88460031b161c191690558d808061133e565b9192602060018192868501518155019401920161131a565b6113a890876000526020600020601f850160051c810191602086106106ce57601f0160051c01906149a9565b8a6112bf565b600587016000526020600020908382015b81830181106113cf575050611144565b806113dc60019254614205565b806113e9575b50016113bf565b601f811183146113ff5750600081555b8a6113e2565b60009082825261141d601f60208420920160051c82018583016149a9565b818355556113f9565b015190508680611106565b9250600487016000526020600020906000935b601f1984168510611488576001945083601f1981161061146f575b505050811b01600485015561111e565b015160001960f88460031b161c1916905586808061145f565b81810151835560209485019460019093019290910190611444565b6114d290600489016000526020600020601f850160051c810191602086106106ce57601f0160051c01906149a9565b876110ef565b60405162461bcd60e51b815260206004820152602c60248201527f436861696e5261746530323a20696e76616c69642067756964616e636520616260448201526b696c69747920726174696e6760a01b6064820152608490fd5b50600560ff88161115610fd2565b60405162461bcd60e51b815260206004820152602a60248201527f436861696e5261746530323a20696e76616c69642061636164656d6963206c6560448201526976656c20726174696e6760b01b6064820152608490fd5b50600560ff87161115610fbf565b60405162461bcd60e51b815260206004820152602b60248201527f436861696e5261746530323a20696e76616c6964207465616368696e67206d6560448201526a74686f6420726174696e6760a81b6064820152608490fd5b50600560ff86161115610fac565b60405162461bcd60e51b815260206004820152602d60248201527f436861696e5261746530323a20696e76616c6964207465616368696e6720617460448201526c74697475646520726174696e6760981b6064820152608490fd5b50600560ff85161115610f99565b60405162461bcd60e51b815260206004820152602c60248201527f436861696e5261746530323a20696e76616c6964207465616368696e6720616260448201526b696c69747920726174696e6760a01b6064820152608490fd5b50600560ff84161115610f86565b60405162461bcd60e51b815260206004820152601b60248201527f436861696e5261746530323a20696e76616c696420726174696e6700000000006044820152606490fd5b50600560ff83161115610f73565b60405162461bcd60e51b815260206004820152602b60248201527f436861696e5261746530323a20616c7265616479206576616c7561746564207460448201526a3434b9903a32b0b1b432b960a91b6064820152608490fd5b60405162461bcd60e51b8152602060048201526024808201527f436861696e5261746530323a20696e76616c69642074656163686572206164646044820152637265737360e01b6064820152608490fd5b7fd16e204b8a42a15ab0ea6bb8ec1ecdfbe69f38074fc865323af19efe7d9573d99150148b610f35565b905061181c91503d806000833e610b9c81836142e3565b9750955050505050508c610f2e565b60405162461bcd60e51b815260206004820152603660248201527f436861696e5261746530323a2073747564656e7420686173206e6f74207374756044820152753234b2b2103bb4ba34103a3434b9903a32b0b1b432b960511b6064820152608490fd5b6001600160a01b038e811691161490508f610ecb565b90506118bd9192503d806000833e610a2481836142e3565b5050505050919038610ec2565b505090919293949596979899610eee565b90503d806000833e6118ed81836142e3565b6020828281010312610306578151906001600160401b03821161030657808301601f83850101121561030657818301519161192783614633565b9361193560405195866142e3565b8385526020850192810160208560051b8484010101116103065780820160200192915b60208560051b828401010184106119745750505050508d610e7a565b602080809486518152019401939250611958565b600080516020615b188339815191529150148d610abf565b90506119b791503d806000833e610b9c81836142e3565b9750955050505050508e610e35565b34610306576040366003190112610306576119df614436565b6001600160a01b031660009081526005602052604090208054602435919082101561030657602091611a1091614408565b90546040519160031b1c8152f35b3461030657604036600319011261030657611a37614436565b611a3f61444c565b9060018060a01b03809116600052600360205260406000209116600052602052602060ff604060002054166040519015158152f35b3461030657602080600319360112610306576001600160a01b03611a96614436565b1660005260058152604060002090604051808383829554938481520190600052836000209260005b85828210611ae957505050611ad5925003836142e3565b6102b36040519282849384528301906144e6565b8554845260019586019588955093019201611abe565b3461030657602080600319360112610306576001600160a01b03611b21614436565b16600052600a8152604060002090604051808383829554938481520190600052836000209260005b85828210611b6057505050611ad5925003836142e3565b8554845260019586019588955093019201611b49565b34610306576000366003190112610306576020600d54604051908152f35b3461030657604036600319011261030657611bad614436565b6001600160a01b031660009081526004602052604090208054602435919082101561030657602091611a1091614408565b34610306576000366003190112610306576001546040516001600160a01b039091168152602090f35b3461030657602036600319011261030657611c52611c72611c67611c7d611c34611c2f614436565b615287565b969598936040989293919598519a8b9a610160808d528c01906143cd565b9860208b015260408a01526060890190614462565b61010087019061472d565b61012085019061472d565b6101408301520390f35b3461030657602036600319011261030657600435806000526007602052611cb481604060002054146156eb565b6000526007602052604060002060405190611cce82614276565b8054825260018101546020830190815260028201546001600160a01b0390811660408501908152600384015460608601908152909492939192611d1360048401614304565b60808201908152611d26600585016149f5565b9360a08301948552611d3a600682016149f5565b9360c0840194855260ff600860078401549360e087019485520154169661010094611d68868201998a6156df565b519851995116905192519551945191519651946004861015610a4557611dbd6102b397611dd995611dcb9460209d6040519e8f9e8f908152015260408d015260608c01526101208060808d01528b01906143cd565b9089820360a08b015261448a565b9087820360c089015261448a565b9360e08601528401906145c4565b3461030657611df5366146ca565b60005490939291906001600160a01b0316801515611e128161473a565b604051636386c1c760e01b815233600482015290600082602481865afa918215610a3957611e5a92611e5591600090600092612af4575b5081612adc57506148b3565b61473a565b60405163461ff27960e11b815260048101859052336024820152602081604481855afa908115610a3957600091612aa2575b5015612a4557600060249160405192838092634b7cbce960e11b82528860048301525afa908115610a39578490600090600093612a1f575b50149081612a17575b50156129b857600c5491611ee08361490a565b600c55604051611eef81614276565b8381528460208201523360408201524260608201528160808201528260a08201528560c0820152600160e0820152600061010082015283600052600760205260406000209080518255602081015160018301556002820160018060a01b036040830151166001600160601b0360a01b8254161790556060810151600383015560808101518051906001600160401b0382116106d8578190611f936004860154614205565b601f8111612983575b50602090601f831160011461291157600092612906575b50508160011b916000199060031b1c19161760048301555b60a0810151805190600160401b82116106d857600584015482600586015580831061288e575b5060200190600584016000526020600020916000905b828210612779575050505060c0810151805190600160401b82116106d8576006840154826006860155808310612701575b5060200190600684016000526020600020916000905b8282106125ec5750505060e08201516007840155506101000151906004821015610a45576008019060ff801983541691161790556040519161208f8361425b565b600083526020830195848752604084019142835260608501938452608085015260a084015283600052600860205260406000206000805260205260406000209583518755516001870155516002860155518051906001600160401b0382116106d85781906121006003880154614205565b601f81116125b7575b50602090601f83116001146125455760009261253a575b50508160011b916000199060031b1c19161760038501555b6080810151805190600160401b82116106d85760048601548260048801558083106124c2575b5060200190600486016000526020600020916000905b8282106123ad575050505060a00151805190600160401b82116106d8576005850154826005870155808310612335575b5060206005910194016000526020600020936000905b828210612220576020858533600052600a83526121db8160406000206149c0565b81600052600b83526121f18160406000206149c0565b6040519133827f702e84194df4785d3802b3bdfcc2f37b2b464ec492cb63e94c75d2dda4f16f93600080a48152f35b80518051906001600160401b0382116106d85761223d8854614205565b601f8111612303575b50602090601f8311600114612293579282600194936020938695600092612288575b5050600019600383901b1c191690841b1789555b019601910190946121ba565b015190508b80612268565b908860005260206000209160005b601f19851681106122eb575083602093600196938796938794601f198116106122d2575b505050811b01895561227c565b015160001960f88460031b161c191690558b80806122c5565b919260206001819286850151815501940192016122a1565b61232f90896000526020600020601f850160051c810191602086106106ce57601f0160051c01906149a9565b88612246565b600586016000526020600020908382015b81830181106123565750506121a4565b8061236360019254614205565b80612370575b5001612346565b601f811183146123865750600081555b89612369565b6000908282526123a4601f60208420920160051c82018583016149a9565b81835555612380565b80518051906001600160401b0382116106d8576123ca8654614205565b601f8111612490575b50602090601f8311600114612420579282600194936020938695600092612415575b5050600019600383901b1c191690841b1787555b01940191019092612174565b015190508d806123f5565b908660005260206000209160005b601f1985168110612478575083602093600196938796938794601f1981161061245f575b505050811b018755612409565b015160001960f88460031b161c191690558d8080612452565b9192602060018192868501518155019401920161242e565b6124bc90876000526020600020601f850160051c810191602086106106ce57601f0160051c01906149a9565b8a6123d3565b600487016000526020600020908382015b81830181106124e357505061215e565b806124f060019254614205565b806124fd575b50016124d3565b601f811183146125135750600081555b8a6124f6565b600090828252612531601f60208420920160051c82018583016149a9565b8183555561250d565b015190508680612120565b9250600387016000526020600020906000935b601f198416851061259c576001945083601f19811610612583575b505050811b016003850155612138565b015160001960f88460031b161c19169055868080612573565b81810151835560209485019460019093019290910190612558565b6125e690600389016000526020600020601f850160051c810191602086106106ce57601f0160051c01906149a9565b87612109565b80518051906001600160401b0382116106d8576126098654614205565b601f81116126cf575b50602090601f831160011461265f579282600194936020938695600092612654575b5050600019600383901b1c191690841b1787555b0194019101909261204e565b015190503880612634565b908660005260206000209160005b601f19851681106126b7575083602093600196938796938794601f1981161061269e575b505050811b018755612648565b015160001960f88460031b161c19169055388080612691565b9192602060018192868501518155019401920161266d565b6126fb90876000526020600020601f850160051c810191602086106106ce57601f0160051c01906149a9565b8d612612565b600685016000526020600020908382015b8183018110612722575050612038565b8061272f60019254614205565b8061273c575b5001612712565b601f811183146127525750600081555b8d612735565b600090828252612770601f60208420920160051c82018583016149a9565b8183555561274c565b80518051906001600160401b0382116106d8576127968654614205565b601f811161285c575b50602090601f83116001146127ec5792826001949360209386956000926127e1575b5050600019600383901b1c191690841b1787555b01940191019092612007565b0151905038806127c1565b908660005260206000209160005b601f1985168110612844575083602093600196938796938794601f1981161061282b575b505050811b0187556127d5565b015160001960f88460031b161c1916905538808061281e565b919260206001819286850151815501940192016127fa565b61288890876000526020600020601f850160051c810191602086106106ce57601f0160051c01906149a9565b8d61279f565b600585016000526020600020908382015b81830181106128af575050611ff1565b806128bc60019254614205565b806128c9575b500161289f565b601f811183146128df5750600081555b8d6128c2565b6000908282526128fd601f60208420920160051c82018583016149a9565b818355556128d9565b015190508980611fb3565b9250600485016000526020600020906000935b601f1984168510612968576001945083601f1981161061294f575b505050811b016004830155611fcb565b015160001960f88460031b161c1916905589808061293f565b81810151835560209485019460019093019290910190612924565b6129b290600487016000526020600020601f850160051c810191602086106106ce57601f0160051c01906149a9565b8a611f9c565b60405162461bcd60e51b815260206004820152603160248201527f436861696e5261746530323a20636f7572736520646f6573206e6f74206578696044820152707374206f7220697320696e61637469766560781b6064820152608490fd5b905085611ecd565b9050612a379192503d806000833e610a2481836142e3565b509594935050505087611ec4565b60405162461bcd60e51b815260206004820152602f60248201527f436861696e5261746530323a2073747564656e7420686173206e6f74206a6f6960448201526e6e6564207468697320636f7572736560881b6064820152608490fd5b90506020813d602011612ad4575b81612abd602093836142e3565b8101031261030657612ace906147d3565b86611e8c565b3d9150612ab0565b600080516020615b1883398151915291501489610abf565b9050612b0b91503d806000833e610b9c81836142e3565b9750955050505050508a611e49565b34610306576000366003190112610306576020600654604051908152f35b3461030657612b46366146ca565b600080549294926001600160a01b03916024918316612b6681151561473a565b604051636386c1c760e01b815233600482015292839182905afa8015610a3957612ba19160009060009261364e575b508161363657506148b3565b826000526007602052612bba83604060002054146156eb565b82600052600760205260ff60086040600020015416906004821015610a4557612be96003612c04931415615743565b8360005260076020523390600260406000200154161461578e565b816000526007602052604060002093600785015493604051612c258161425b565b85815260208101908582526040810142815260608201908482528560808401528660a084015287600052600860205260406000208960005260205260406000209383518555516001850155516002840155518051906001600160401b0382116106d8578190612c976003860154614205565b601f8111613601575b50602090601f831160011461358f57600092613584575b50508160011b916000199060031b1c19161760038301555b6080810151805190600160401b82116106d857600484015482600486015580831061350c575b5060200190600484016000526020600020916000905b8282106133ec575050505060a00151805190600160401b82116106d8576005830154826005850155808310613374575b5060206005910192016000526020600020916000905b82821061325f57505050508051906001600160401b0382116106d8578190612d7c6004890154614205565b601f811161322a575b50602090601f83116001146131b8576000926131ad575b50508160011b916000199060031b1c19161760048601555b805190600160401b82116106d8576005860154826005880155808310613135575b5060200190600586016000526020600020916000905b8282106130205750505050805190600160401b82116106d8576006850154826006870155808310612fa8575b5060200190600685016000526020600020916000905b828210612e93576020868660088a426003820155612e4e600782015461490a565b600782015501600260ff19825416179055604051908282527fa5ceaeb640446681a6d8ae55221b427209271fb4837505023d7026636d6a35b3843393a3604051908152f35b80518051906001600160401b0382116106d857612eb08654614205565b601f8111612f76575b50602090601f8311600114612f06579282600194936020938695600092612efb575b5050600019600383901b1c191690841b1787555b01940191019092612e2d565b015190508c80612edb565b908660005260206000209160005b601f1985168110612f5e575083602093600196938796938794601f19811610612f45575b505050811b018755612eef565b015160001960f88460031b161c191690558c8080612f38565b91926020600181928685015181550194019201612f14565b612fa290876000526020600020601f850160051c810191602086106106ce57601f0160051c01906149a9565b89612eb9565b600686016000526020600020908382015b8183018110612fc9575050612e17565b80612fd660019254614205565b80612fe3575b5001612fb9565b601f81118314612ff95750600081555b89612fdc565b600090828252613017601f60208420920160051c82018583016149a9565b81835555612ff3565b80518051906001600160401b0382116106d85761303d8654614205565b601f8111613103575b50602090601f8311600114613093579282600194936020938695600092613088575b5050600019600383901b1c191690841b1787555b01940191019092612deb565b015190508d80613068565b908660005260206000209160005b601f19851681106130eb575083602093600196938796938794601f198116106130d2575b505050811b01875561307c565b015160001960f88460031b161c191690558d80806130c5565b919260206001819286850151815501940192016130a1565b61312f90876000526020600020601f850160051c810191602086106106ce57601f0160051c01906149a9565b8a613046565b600587016000526020600020908382015b8183018110613156575050612dd5565b8061316360019254614205565b80613170575b5001613146565b601f811183146131865750600081555b8a613169565b6000908282526131a4601f60208420920160051c82018583016149a9565b81835555613180565b015190508780612d9c565b9250600488016000526020600020906000935b601f198416851061320f576001945083601f198116106131f6575b505050811b016004860155612db4565b015160001960f88460031b161c191690558780806131e6565b818101518355602094850194600190930192909101906131cb565b6132599060048a016000526020600020601f850160051c810191602086106106ce57601f0160051c01906149a9565b88612d85565b80518051906001600160401b0382116106d85761327c8654614205565b601f8111613342575b50602090601f83116001146132d25792826001949360209386956000926132c7575b5050600019600383901b1c191690841b1787555b01940191019092612d51565b015190508f806132a7565b908660005260206000209160005b601f198516811061332a575083602093600196938796938794601f19811610613311575b505050811b0187556132bb565b015160001960f88460031b161c191690558f8080613304565b919260206001819286850151815501940192016132e0565b61336e90876000526020600020601f850160051c810191602086106106ce57601f0160051c01906149a9565b8c613285565b600584016000526020600020908382015b8183018110613395575050612d3b565b806133a260019254614205565b806133af575b5001613385565b601f811183146133c55750600081555b8d6133a8565b6000908282526133e3601f60208420920160051c82018583016149a9565b818355556133bf565b80518051906001600160401b0382116106d8576134098654614205565b601f81116134cf575b50602090601f831160011461345f579282600194936020938695600092613454575b5050600019600383901b1c191690841b1787555b01940191019092612d0b565b015190503880613434565b908660005260206000209160005b601f19851681106134b7575083602093600196938796938794601f1981161061349e575b505050811b018755613448565b015160001960f88460031b161c19169055388080613491565b9192602060018192868501518155019401920161346d565b6134fc908760005260206000206005601f8601811c82019260208710613502575b601f01901c01906149a9565b8e613412565b91925082916134f0565b600485016000526020600020908382015b818301811061352d575050612cf5565b8061353a60019254614205565b80613547575b500161351d565b601f8111831461355d5750600081555b8e613540565b60009082825261357b601f60208420920160051c82018583016149a9565b81835555613557565b015190508a80612cb7565b9250600385016000526020600020906000935b601f19841685106135e6576001945083601f198116106135cd575b505050811b016003830155612ccf565b015160001960f88460031b161c191690558a80806135bd565b818101518355602094850194600190930192909101906135a2565b61363090600387016000526020600020601f850160051c810191602086106106ce57601f0160051c01906149a9565b8b612ca0565b600080516020615b1883398151915291501487610abf565b905061366591503d806000833e610b9c81836142e3565b97509550505050505088612b95565b3461030657613682366143f2565b816000526020916007835261369d81604060002054146156eb565b80600052600883526040600020826000528352806001604060002001540361377a5760005260088252604060002090600052815260406000206102b36040516136e58161425b565b8254815261376c600184015493858301948552610c566002820154916040850192835261371460038201614304565b6060860190815261373a600561372c600485016149f5565b9360808901948552016149f5565b958660a082015251975193519051915193604051998a998a52890152604088015260c0606088015260c08701906143cd565b9083820360a085015261448a565b60405162461bcd60e51b815260048101849052602360248201527f436861696e5261746530323a2076657273696f6e20646f6573206e6f742065786044820152621a5cdd60ea1b6064820152608490fd5b346103065760208060031936011261030657600435600052600b8152604060002090604051808383829554938481520190600052836000209260005b8582821061381e57505050611ad5925003836142e3565b8554845260019586019588955093019201613807565b34610306576020366003190112610306576004356000526007602052604060002080546001820154916102b360018060a01b036002830154166138b8600384015461388160048601614304565b9060ff600860078801549701541693604051988998895260208901526040880152606087015260e0608087015260e08601906143cd565b9260a085015260c08401906145c4565b34610306576060366003190112610306576138e1614436565b6044356024356138f092614ddf565b9460c09796979491949392935160805160a0516040519a8b9a610160808d528c0161391a916144e6565b8b810360208d015261392b9161451a565b8a810360408c015261393c9161448a565b89810360608b015261394d916144e6565b88810360808a015261395e91614557565b87810360a089015261396f91614557565b86810360c088015261398091614557565b85810360e087015261399191614557565b8481036101008601526139a391614557565b8381036101208501526139b591614557565b8281036101408401526102b39161458e565b34610306576020366003190112610306576139e0614436565b6001546001600160a01b03919082163303613a6c57168015613a14576001600160601b0360a01b6000541617600055600080f35b60405162461bcd60e51b815260206004820152602a60248201527f436861696e5261746530323a20696e76616c6964206d61696e20636f6e7472616044820152696374206164647265737360b01b6064820152608490fd5b60405162461bcd60e51b8152602060048201526024808201527f436861696e5261746530323a2063616c6c6572206973206e6f7420746865206f6044820152633bb732b960e11b6064820152608490fd5b3461030657602080600319360112610306576001600160a01b03613adf614436565b1660005260048152604060002090604051808383829554938481520190600052836000209260005b85828210613b1e57505050611ad5925003836142e3565b8554845260019586019588955093019201613b07565b34610306576000366003190112610306576020600c54604051908152f35b34610306576020366003190112610306576004358060005260026020528060406000205403613d0e576000526002602052604060002060405190613b958261423f565b8054825260018101546001600160a01b039081166020840152600282015416604083015260038101546060830152613bcf60048201614304565b60808301526006613be2600583016149f5565b918260a0850152015460ff8116151560c084015260ff8160081c1660e084015260ff8160101c1661010084015260ff8160181c1661012084015260ff8160201c1661014084015260ff8160281c1661016084015260ff8160301c1661018084015260ff8160381c1615156101a084015260ff613cac84519361029760018060a01b036020880151169660018060a01b03604082015116906080606082015191015191604051998a998a5260208a0152604089015260608801526101c08060808901528701906143cd565b91818116151560c0850152818160081c1660e0850152818160101c16610100850152818160181c16610120850152818160201c16610140850152818160281c16610160850152818160301c1661018085015260381c1615156101a08301520390f35b60405162461bcd60e51b815260206004820152602660248201527f436861696e5261746530323a206576616c756174696f6e20646f6573206e6f7460448201526508195e1a5cdd60d21b6064820152608490fd5b3461030657602036600319011261030657613d7b614436565b604051613d87816142ad565b60a036823760405191613d99836142ad565b60a0368437604051613daa816142ad565b60a0368237604051613dbb816142ad565b60a036823760405194613dcd866142ad565b60a036873760405193613ddf856142ad565b60a036863760018060a01b03166000526005948560205260406000209560405180886020829a5493848152019060005260206000209260005b818110614029575050613e2d925003886142e3565b60005b8751811015613fcc5780613e47613f3f928a61492f565b516000526002806020526006604060002060405192613e658461423f565b8154845260018201546001600160a01b0390811660208601529082015416604084015260038101546060840152613e9e60048201614304565b6080840152613eae8682016149f5565b60a08401520154908560ff92838116151560c08401528d8a858360081c168060e08701528d8c610100880197898760101c1689526101208101948a8860181c1686526101408201948b8960201c1686526101a06101608401938d8b60281c1685528d61018082019b818160301c168d5260381c1615159182910152613f44575b50505050505050505050505061490a565b613e30565b8b613f8081809c98613f8098613fa29f83613f8081613f9a9f819f9d613f9a839f613f8085613f9a9f998193613f9a83613f80613f9a9e615263565b16613f94613f8e8285615276565b5161490a565b92615276565b525116615263565b16613fba613fb3613f8e838c615276565b918a615276565b528a8085818d81808d8c828f81613f2e565b6103c0836140278961401c8d6140118b6140068e613ffb8e613ff1604051809c614462565b60a08b0190614462565b610140890190614462565b6101e0870190614462565b610280850190614462565b610320830190614462565bf35b845483526001948501948c945060209093019201613e18565b346103065760403660031901126103065761405b614436565b6001600160a01b03166000908152600a602052604090208054602435919082101561030657602091611a1091614408565b346103065761409a366143f2565b906000526008602052604060002090600052602052604060002080546102b36001830154926140d0600360028301549201614304565b906040519485948552602085015260408401526080606084015260808301906143cd565b3461030657614102366143f2565b90600052600b6020526040600020805482101561030657602091611a1091614408565b346103065760203660031901126103065760043560005260026020526040600020805460018060a01b03916141a18360018301541693600283015416916003810154600661417560048401614304565b9201549360405196879687526020870152604086015260608501526101a08060808601528401906143cd565b9060ff90818116151560a0850152818160081c1660c0850152818160101c1660e0850152818160181c16610100850152818160201c16610120850152818160281c16610140850152818160301c1661016085015260381c1615156101808301520390f35b90600182811c92168015614235575b602083101461421f57565b634e487b7160e01b600052602260045260246000fd5b91607f1691614214565b6101c081019081106001600160401b038211176106d857604052565b60c081019081106001600160401b038211176106d857604052565b61012081019081106001600160401b038211176106d857604052565b60e081019081106001600160401b038211176106d857604052565b60a081019081106001600160401b038211176106d857604052565b602081019081106001600160401b038211176106d857604052565b90601f801991011681019081106001600160401b038211176106d857604052565b906040519182600082549261431884614205565b9081845260019485811690816000146143875750600114614344575b5050614342925003836142e3565b565b9093915060005260209081600020936000915b81831061436f57505061434293508201013880614334565b85548884018501529485019487945091830191614357565b91505061434294506020925060ff191682840152151560051b8201013880614334565b60005b8381106143bd5750506000910152565b81810151838201526020016143ad565b906020916143e6815180928185528580860191016143aa565b601f01601f1916010190565b6040906003190112610306576004359060243590565b80548210156144205760005260206000200190600090565b634e487b7160e01b600052603260045260246000fd5b600435906001600160a01b038216820361030657565b602435906001600160a01b038216820361030657565b6000915b6005831061447357505050565b600190825181526020809101920192019190614466565b908082519081815260208091019281808460051b8301019501936000915b8483106144b85750505050505090565b90919293949584806144d6600193601f198682030187528a516143cd565b98019301930191949392906144a8565b90815180825260208080930193019160005b828110614506575050505090565b8351855293810193928101926001016144f8565b90815180825260208080930193019160005b82811061453a575050505090565b83516001600160a01b03168552938101939281019260010161452c565b90815180825260208080930193019160005b828110614577575050505090565b835160ff1685529381019392810192600101614569565b90815180825260208080930193019160005b8281106145ae575050505090565b83511515855293810193928101926001016145a0565b906004821015610a455752565b6001600160401b0381116106d857601f01601f191660200190565b81601f8201121561030657803590614603826145d1565b9261461160405194856142e3565b8284526020838301011161030657816000926020809301838601378301015290565b6001600160401b0381116106d85760051b60200190565b9080601f830112156103065781359061466282614633565b9261467060405194856142e3565b828452602092838086019160051b8301019280841161030657848301915b84831061469e5750505050505090565b82356001600160401b0381116103065786916146bf848480948901016145ec565b81520192019161468e565b90608060031983011261030657600435916001600160401b039160243583811161030657826146fb916004016145ec565b9260443581811161030657836147139160040161464a565b926064359182116103065761472a9160040161464a565b90565b906005821015610a455752565b1561474157565b60405162461bcd60e51b815260206004820152602260248201527f436861696e5261746530323a206d61696e20636f6e7472616374206e6f742073604482015261195d60f21b6064820152608490fd5b81601f820112156103065780516147a7816145d1565b926147b560405194856142e3565b818452602082840101116103065761472a91602080850191016143aa565b5190811515820361030657565b9161012083830312610306578251926001600160401b0393848111610306578361480b918301614791565b9360208201518181116103065784614824918401614791565b936040830151828111610306578161483d918501614791565b9360608401518381116103065782614856918601614791565b936080810151848111610306578361486f918301614791565b9360a08201518181116103065784614888918401614791565b9360c0830151918211610306576148a0918301614791565b9161472a61010060e084015193016147d3565b156148ba57565b60405162461bcd60e51b815260206004820152602260248201527f436861696e5261746530323a2063616c6c6572206973206e6f742073747564656044820152611b9d60f21b6064820152608490fd5b60001981146149195760010190565b634e487b7160e01b600052601160045260246000fd5b80518210156144205760209160051b010190565b9160e08383031261030657825160208401519093906001600160a01b038116810361030657926040820151906001600160401b03821161030657614988918301614791565b9160608201519160808101519160c06149a360a084016147d3565b92015190565b8181106149b4575050565b600081556001016149a9565b8054600160401b8110156106d8576149dd91600182018155614408565b819291549060031b91821b91600019901b1916179055565b908154614a0181614633565b92614a0f60405194856142e3565b818452600090815260208082208186015b848410614a2e575050505050565b6001838192614a3c85614304565b815201920193019290614a20565b9190820180921161491957565b8115614a61570490565b634e487b7160e01b600052601260045260246000fd5b9060018060a01b0380921660005260056020526040600020916040518084602082965493848152019060005260206000209260005b818110614d3d575050614ac1925003846142e3565b8251908115614d27576000906000806000936000809260009760005b8b51811015614c6e57614af0818d61492f565b51600052600280602052600660406000208a60405193614b0f8561423f565b8254855281600184015416602086015282015416604084015260038101546060840152614b3e60048201614304565b6080840152614b4f600582016149f5565b60a0840152015460ff8116151560c083015260ff8160081c1660e083015260ff8160101c1661010083015260ff8160181c1661012083015260ff8160201c1661014083015260ff8160281c1661016083015260ff8160301c1661018083015260ff8160381c161515806101a0840152614bd3575b5050614bce9061490a565b614add565b614c3a614c2a614c1a614c0a859b999e9c9860ff610100614c0060c0999e83614c4a9a60081c1690614a4a565b9d01511690614a4a565b9760ff6101208d01511690614a4a565b9a60ff6101408c01511690614a4a565b9b60ff6101608b01511690614a4a565b9560ff6101808a01511690614a4a565b960151614c59575b3880614bc3565b98614c66614bce9161490a565b999050614c52565b509950979190945095919295606490818102908082048314901517156149195789614c9891614a57565b97818102908082048314901517156149195789614cb491614a57565b96818102908082048314901517156149195789614cd091614a57565b95818102908082048314901517156149195789614cec91614a57565b94818102908082048314901517156149195789614d0891614a57565b938181029181830414901517156149195788614d2391614a57565b9190565b5060009250829182915081908190819081908190565b8454835260019485019488945060209093019201614aac565b90614d6082614633565b614d6d60405191826142e3565b8281528092614d7e601f1991614633565b0190602036910137565b90614d9282614633565b614d9f60405191826142e3565b8281528092614db0601f1991614633565b019060005b828110614dc157505050565b806060602080938501015201614db5565b9190820391821161491957565b600060a0526000608052600060c05260018060a01b031660005260056020526040600020906040518083602082955493848152019060005260206000209260005b81811061524a575050614e35925003836142e3565b81518082101561517a5781614e4991614dd2565b92808411615172575b50614e5c83614d56565b93614e6684614d56565b93614e7081614d88565b60a052614e7c81614d56565b608052614e8881614d56565b60c052614e9481614d56565b93614e9e82614d56565b93614ea883614d56565b93614eb284614d56565b93614ebc81614d56565b93614ec682614d56565b9360005b838110614ed75750505050565b614eea614ee48284614a4a565b8461492f565b516000526002908160205260ff6006604060002060405194614f0b8661423f565b8154865260018201546001600160a01b0390811660208801529082015416604086015260038101546060860152614f4460048201614304565b6080860152614f55600582016149f5565b60a08601520154818116151560c0850152818160081c1660e0850152818160101c16610100850152818160181c16610120850152818160201c16610140850152818160281c16610160850152818160301c1661018085015260381c1615156101a08301528d614fc68284519261492f565b5260208201516001600160a01b0316614fdf828f61492f565b5260c082015161511457600080546020840151604051636386c1c760e01b81526001600160a01b039182166004820152929183916024918391165afa928315610a39576150ec9360c0926000916150f1575b5061503e8460a05161492f565b5261504b8360a05161492f565b505b606081015161505e8460805161492f565b5260ff60e08201511661507284845161492f565b528d6150878460ff610100850151169261492f565b5261012081015160ff1661509b848f61492f565b5261014081015160ff166150af848e61492f565b5260ff610160820151166150c3848d61492f565b5260ff610180820151166150d7848c61492f565b52015115156150e6828961492f565b5261490a565b614eca565b61510691503d806000833e610b9c81836142e3565b505050505050505038615031565b6040518060408101106001600160401b036040830111176106d8576150ec9281604060c093016040526009815268416e6f6e796d6f757360b81b602082015261515f8460a05161492f565b5261516c8360a05161492f565b5061504d565b925038614e52565b5050505060405161518a816142c8565b600081526040519161519b836142c8565b60008352604051916151ac836142c8565b600083526040516151bc816142c8565b60008152604051906151cd826142c8565b60008252604051926151de846142c8565b60008452604051946151ef866142c8565b6000865260405194615200866142c8565b6000865260405194615211866142c8565b6000865260405194615222866142c8565b6000865260405194615233866142c8565b600086529a9960a05260805260c052959493929190565b8454835260019485019487945060209093019201614e20565b60ff6000199116019060ff821161491957565b9060058110156144205760051b0190565b90604051615294816142ad565b60a036823760008054604051636386c1c760e01b81526001600160a01b03958616600482018190529590929183916024918391165afa908115610a39576000916156bc575b50809360005260056020526040600020936040518086602082985493848152019060005260206000209260005b8181106156a357505061531b925003866142e3565b845191821561564e57506000916000926000926000946000916000946000984262278cff194201116149195760005b8c518110156154ef5761535d818e61492f565b51600052600280602052600660406000206040519261537b8461423f565b8154845260018201546001600160a01b03908116602086015290820154166040840152600381015460608401526153b460048201614304565b60808401526153c5600582016149f5565b60a0840152015460ff8116151560c083015260ff8160081c1660e083015260ff8160101c1661010083015260ff8160181c1661012083015260ff8160201c1661014083015260ff8160281c1661016083015260ff8160301c1661018083015260ff8160381c161515806101a0840152615449575b50506154449061490a565b61534a565b60089b9a96989199979b1c60ff1661546091614a4a565b9661010089015160ff1661547391614a4a565b9461012089015160ff1661548691614a4a565b9861014089015160ff1661549991614a4a565b9961016089015160ff166154ac91614a4a565b9561018089015160ff166154bf91614a4a565b9762278cff194201906060015110156154da575b3880615439565b996154e76154449161490a565b9a90506154d3565b509792989594909996919a5080606481020460641481151715614919578960646155199202614a57565b9780606481020460641481151715614919578960646155389202614a57565b8752606481029080820460641490151715614919578861555791614a57565b6020870152606481029080820460641490151715614919578761557991614a57565b6040860152606481029080820460641490151715614919578661559b91614a57565b606085015260648102908082046064149015171561491957856155bd91614a57565b60808401528251918260009060009460015b600581106155f1575050506005811015610a4557926005811015610a45579190565b826155fc828a615276565b5111615638575b8161560e828a615276565b5110615623575b61561e9061490a565b6155cf565b809650615631915087615276565b5185615615565b925090506156468287615276565b519082615603565b94505050506040519160a083018381106001600160401b038211176106d85760405260008352600060208401526000604084015260006060840152600060808401529160009160009190600090600090600090565b845483526001948501948a945060209093019201615306565b6156d191503d806000833e610b9c81836142e3565b5050505050505050386152d9565b6004821015610a455752565b156156f257565b60405162461bcd60e51b8152602060048201526024808201527f436861696e5261746530323a20666565646261636b20646f6573206e6f7420656044820152631e1a5cdd60e21b6064820152608490fd5b1561574a57565b606460405162461bcd60e51b815260206004820152602060248201527f436861696e5261746530323a20666565646261636b2069732064656c657465646044820152fd5b1561579557565b60405162461bcd60e51b815260206004820152602f60248201527f436861696e5261746530323a2063616c6c6572206973206e6f7420746865206660448201526e195959189858dac81cdd1d59195b9d608a1b6064820152608490fd5b929092600052600b6020526040600020906040518083602082955493848152019060005260206000209260005b818110615afe575050615834925003836142e3565b815180851015615a75578461584891614dd2565b92808411615a6d575b5061585d839493614d56565b9361586781614d56565b9361587182614d88565b9361587b83614d56565b9361588584614d88565b9361588f81614d56565b9361589982614d56565b9360009160018060a01b0360005416925b8481106158b8575050505050565b6158c5614ee48284614a4a565b5190816000528d8d6007908160205260406000209261596460ff6008604051966158ee88614276565b805488526001810154602089015260028101546001600160a01b031660408901908152600382015460608a01529661592860048301614304565b60808a0152615939600583016149f5565b60a08a015261594a600683016149f5565b60c08a015281015460e089015201541661010086016156df565b6159708585519261492f565b5281516001600160a01b03169061598890859061492f565b5251604051636386c1c760e01b81526001600160a01b039091166004820152906000826024818a5afa8015610a3957838f6159da9261010095600091615a4a575b506159d4838361492f565b5261492f565b5060608101516159ea848f61492f565b5260808101516159fa848e61492f565b52615a05838d61492f565b500151916004831015610a4557615a28615a4593615a23848d61492f565b6156df565b806000526009602052600160406000200154146150e6828a61492f565b6158aa565b615a5f91503d806000833e610b9c81836142e3565b5050505050505050386159c9565b925038615851565b5092505050604051615a86816142c8565b6000815260405191615a97836142c8565b6000835260405191615aa8836142c8565b6000835260405191615ab9836142c8565b6000835260405191615aca836142c8565b6000835260405191615adb836142c8565b6000835260405191615aec836142c8565b60008352600036813796959493929190565b845483526001948501948794506020909301920161581f56fe36a5c4aaacb6b388bbd448bf11096b7dafc5652bcc9046084fd0e95b1fb0b2cca26469706673582212204af98709dba24fcda00f684b86a90f352e066339d07ea655afbcb69045de473964736f6c63430008140033",
  "linkReferences": {},
  "deployedLinkReferences": {}
}